{
	"revision/WalletConnet.sol": {
		"SampleContract": {
			"abi": [
				{
					"inputs": [],
					"name": "balanceReceived",
					"outputs": [
						{
							"internalType": "uint256",
							"name": "",
							"type": "uint256"
						}
					],
					"stateMutability": "view",
					"type": "function"
				},
				{
					"inputs": [],
					"name": "myString",
					"outputs": [
						{
							"internalType": "string",
							"name": "",
							"type": "string"
						}
					],
					"stateMutability": "view",
					"type": "function"
				},
				{
					"inputs": [],
					"name": "sendMoneyBack",
					"outputs": [],
					"stateMutability": "nonpayable",
					"type": "function"
				},
				{
					"inputs": [
						{
							"internalType": "string",
							"name": "_newString",
							"type": "string"
						}
					],
					"name": "updateMyString",
					"outputs": [],
					"stateMutability": "payable",
					"type": "function"
				}
			],
			"devdoc": {
				"kind": "dev",
				"methods": {},
				"version": 1
			},
			"evm": {
				"assembly": "    /* \"revision/WalletConnet.sol\":57:568  contract SampleContract {... */\n  mstore(0x40, 0x80)\n    /* \"revision/WalletConnet.sol\":87:125  string public myString = \"Hello World\" */\n  mload(0x40)\n  dup1\n  0x40\n  add\n  0x40\n  mstore\n  dup1\n  0x0b\n  dup2\n  mstore\n  0x20\n  add\n  0x48656c6c6f20576f726c64000000000000000000000000000000000000000000\n  dup2\n  mstore\n  pop\n  0x00\n  swap1\n  dup2\n  tag_1\n  swap2\n  swap1\n  tag_2\n  jump\t// in\ntag_1:\n  pop\n    /* \"revision/WalletConnet.sol\":57:568  contract SampleContract {... */\n  callvalue\n  dup1\n  iszero\n  tag_3\n  jumpi\n  0x00\n  dup1\n  revert\ntag_3:\n  pop\n  jump(tag_4)\n    /* \"#utility.yul\":7:106   */\ntag_5:\n    /* \"#utility.yul\":59:65   */\n  0x00\n    /* \"#utility.yul\":93:98   */\n  dup2\n    /* \"#utility.yul\":87:99   */\n  mload\n    /* \"#utility.yul\":77:99   */\n  swap1\n  pop\n    /* \"#utility.yul\":7:106   */\n  swap2\n  swap1\n  pop\n  jump\t// out\n    /* \"#utility.yul\":112:292   */\ntag_6:\n    /* \"#utility.yul\":160:237   */\n  0x4e487b7100000000000000000000000000000000000000000000000000000000\n    /* \"#utility.yul\":157:158   */\n  0x00\n    /* \"#utility.yul\":150:238   */\n  mstore\n    /* \"#utility.yul\":257:261   */\n  0x41\n    /* \"#utility.yul\":254:255   */\n  0x04\n    /* \"#utility.yul\":247:262   */\n  mstore\n    /* \"#utility.yul\":281:285   */\n  0x24\n    /* \"#utility.yul\":278:279   */\n  0x00\n    /* \"#utility.yul\":271:286   */\n  revert\n    /* \"#utility.yul\":298:478   */\ntag_7:\n    /* \"#utility.yul\":346:423   */\n  0x4e487b7100000000000000000000000000000000000000000000000000000000\n    /* \"#utility.yul\":343:344   */\n  0x00\n    /* \"#utility.yul\":336:424   */\n  mstore\n    /* \"#utility.yul\":443:447   */\n  0x22\n    /* \"#utility.yul\":440:441   */\n  0x04\n    /* \"#utility.yul\":433:448   */\n  mstore\n    /* \"#utility.yul\":467:471   */\n  0x24\n    /* \"#utility.yul\":464:465   */\n  0x00\n    /* \"#utility.yul\":457:472   */\n  revert\n    /* \"#utility.yul\":484:804   */\ntag_8:\n    /* \"#utility.yul\":528:534   */\n  0x00\n    /* \"#utility.yul\":565:566   */\n  0x02\n    /* \"#utility.yul\":559:563   */\n  dup3\n    /* \"#utility.yul\":555:567   */\n  div\n    /* \"#utility.yul\":545:567   */\n  swap1\n  pop\n    /* \"#utility.yul\":612:613   */\n  0x01\n    /* \"#utility.yul\":606:610   */\n  dup3\n    /* \"#utility.yul\":602:614   */\n  and\n    /* \"#utility.yul\":633:651   */\n  dup1\n    /* \"#utility.yul\":623:704   */\n  tag_30\n  jumpi\n    /* \"#utility.yul\":689:693   */\n  0x7f\n    /* \"#utility.yul\":681:687   */\n  dup3\n    /* \"#utility.yul\":677:694   */\n  and\n    /* \"#utility.yul\":667:694   */\n  swap2\n  pop\n    /* \"#utility.yul\":623:704   */\ntag_30:\n    /* \"#utility.yul\":751:753   */\n  0x20\n    /* \"#utility.yul\":743:749   */\n  dup3\n    /* \"#utility.yul\":740:754   */\n  lt\n    /* \"#utility.yul\":720:738   */\n  dup2\n    /* \"#utility.yul\":717:755   */\n  sub\n    /* \"#utility.yul\":714:798   */\n  tag_31\n  jumpi\n    /* \"#utility.yul\":770:788   */\n  tag_32\n  tag_7\n  jump\t// in\ntag_32:\n    /* \"#utility.yul\":714:798   */\ntag_31:\n    /* \"#utility.yul\":535:804   */\n  pop\n    /* \"#utility.yul\":484:804   */\n  swap2\n  swap1\n  pop\n  jump\t// out\n    /* \"#utility.yul\":810:951   */\ntag_9:\n    /* \"#utility.yul\":859:863   */\n  0x00\n    /* \"#utility.yul\":882:885   */\n  dup2\n    /* \"#utility.yul\":874:885   */\n  swap1\n  pop\n    /* \"#utility.yul\":905:908   */\n  dup2\n    /* \"#utility.yul\":902:903   */\n  0x00\n    /* \"#utility.yul\":895:909   */\n  mstore\n    /* \"#utility.yul\":939:943   */\n  0x20\n    /* \"#utility.yul\":936:937   */\n  0x00\n    /* \"#utility.yul\":926:944   */\n  keccak256\n    /* \"#utility.yul\":918:944   */\n  swap1\n  pop\n    /* \"#utility.yul\":810:951   */\n  swap2\n  swap1\n  pop\n  jump\t// out\n    /* \"#utility.yul\":957:1050   */\ntag_10:\n    /* \"#utility.yul\":994:1000   */\n  0x00\n    /* \"#utility.yul\":1041:1043   */\n  0x20\n    /* \"#utility.yul\":1036:1038   */\n  0x1f\n    /* \"#utility.yul\":1029:1034   */\n  dup4\n    /* \"#utility.yul\":1025:1039   */\n  add\n    /* \"#utility.yul\":1021:1044   */\n  div\n    /* \"#utility.yul\":1011:1044   */\n  swap1\n  pop\n    /* \"#utility.yul\":957:1050   */\n  swap2\n  swap1\n  pop\n  jump\t// out\n    /* \"#utility.yul\":1056:1163   */\ntag_11:\n    /* \"#utility.yul\":1100:1108   */\n  0x00\n    /* \"#utility.yul\":1150:1155   */\n  dup3\n    /* \"#utility.yul\":1144:1148   */\n  dup3\n    /* \"#utility.yul\":1140:1156   */\n  shl\n    /* \"#utility.yul\":1119:1156   */\n  swap1\n  pop\n    /* \"#utility.yul\":1056:1163   */\n  swap3\n  swap2\n  pop\n  pop\n  jump\t// out\n    /* \"#utility.yul\":1169:1562   */\ntag_12:\n    /* \"#utility.yul\":1238:1244   */\n  0x00\n    /* \"#utility.yul\":1288:1289   */\n  0x08\n    /* \"#utility.yul\":1276:1286   */\n  dup4\n    /* \"#utility.yul\":1272:1290   */\n  mul\n    /* \"#utility.yul\":1311:1408   */\n  tag_37\n    /* \"#utility.yul\":1341:1407   */\n  0xffffffffffffffffffffffffffffffffffffffffffffffffffffffffffffffff\n    /* \"#utility.yul\":1330:1339   */\n  dup3\n    /* \"#utility.yul\":1311:1408   */\n  tag_11\n  jump\t// in\ntag_37:\n    /* \"#utility.yul\":1429:1468   */\n  tag_38\n    /* \"#utility.yul\":1459:1467   */\n  dup7\n    /* \"#utility.yul\":1448:1457   */\n  dup4\n    /* \"#utility.yul\":1429:1468   */\n  tag_11\n  jump\t// in\ntag_38:\n    /* \"#utility.yul\":1417:1468   */\n  swap6\n  pop\n    /* \"#utility.yul\":1501:1505   */\n  dup1\n    /* \"#utility.yul\":1497:1506   */\n  not\n    /* \"#utility.yul\":1490:1495   */\n  dup5\n    /* \"#utility.yul\":1486:1507   */\n  and\n    /* \"#utility.yul\":1477:1507   */\n  swap4\n  pop\n    /* \"#utility.yul\":1550:1554   */\n  dup1\n    /* \"#utility.yul\":1540:1548   */\n  dup7\n    /* \"#utility.yul\":1536:1555   */\n  and\n    /* \"#utility.yul\":1529:1534   */\n  dup5\n    /* \"#utility.yul\":1526:1556   */\n  or\n    /* \"#utility.yul\":1516:1556   */\n  swap3\n  pop\n    /* \"#utility.yul\":1245:1562   */\n  pop\n  pop\n    /* \"#utility.yul\":1169:1562   */\n  swap4\n  swap3\n  pop\n  pop\n  pop\n  jump\t// out\n    /* \"#utility.yul\":1568:1645   */\ntag_13:\n    /* \"#utility.yul\":1605:1612   */\n  0x00\n    /* \"#utility.yul\":1634:1639   */\n  dup2\n    /* \"#utility.yul\":1623:1639   */\n  swap1\n  pop\n    /* \"#utility.yul\":1568:1645   */\n  swap2\n  swap1\n  pop\n  jump\t// out\n    /* \"#utility.yul\":1651:1711   */\ntag_14:\n    /* \"#utility.yul\":1679:1682   */\n  0x00\n    /* \"#utility.yul\":1700:1705   */\n  dup2\n    /* \"#utility.yul\":1693:1705   */\n  swap1\n  pop\n    /* \"#utility.yul\":1651:1711   */\n  swap2\n  swap1\n  pop\n  jump\t// out\n    /* \"#utility.yul\":1717:1859   */\ntag_15:\n    /* \"#utility.yul\":1767:1776   */\n  0x00\n    /* \"#utility.yul\":1800:1853   */\n  tag_42\n    /* \"#utility.yul\":1818:1852   */\n  tag_43\n    /* \"#utility.yul\":1827:1851   */\n  tag_44\n    /* \"#utility.yul\":1845:1850   */\n  dup5\n    /* \"#utility.yul\":1827:1851   */\n  tag_13\n  jump\t// in\ntag_44:\n    /* \"#utility.yul\":1818:1852   */\n  tag_14\n  jump\t// in\ntag_43:\n    /* \"#utility.yul\":1800:1853   */\n  tag_13\n  jump\t// in\ntag_42:\n    /* \"#utility.yul\":1787:1853   */\n  swap1\n  pop\n    /* \"#utility.yul\":1717:1859   */\n  swap2\n  swap1\n  pop\n  jump\t// out\n    /* \"#utility.yul\":1865:1940   */\ntag_16:\n    /* \"#utility.yul\":1908:1911   */\n  0x00\n    /* \"#utility.yul\":1929:1934   */\n  dup2\n    /* \"#utility.yul\":1922:1934   */\n  swap1\n  pop\n    /* \"#utility.yul\":1865:1940   */\n  swap2\n  swap1\n  pop\n  jump\t// out\n    /* \"#utility.yul\":1946:2215   */\ntag_17:\n    /* \"#utility.yul\":2056:2095   */\n  tag_47\n    /* \"#utility.yul\":2087:2094   */\n  dup4\n    /* \"#utility.yul\":2056:2095   */\n  tag_15\n  jump\t// in\ntag_47:\n    /* \"#utility.yul\":2117:2208   */\n  tag_48\n    /* \"#utility.yul\":2166:2207   */\n  tag_49\n    /* \"#utility.yul\":2190:2206   */\n  dup3\n    /* \"#utility.yul\":2166:2207   */\n  tag_16\n  jump\t// in\ntag_49:\n    /* \"#utility.yul\":2158:2164   */\n  dup5\n    /* \"#utility.yul\":2151:2155   */\n  dup5\n    /* \"#utility.yul\":2145:2156   */\n  sload\n    /* \"#utility.yul\":2117:2208   */\n  tag_12\n  jump\t// in\ntag_48:\n    /* \"#utility.yul\":2111:2115   */\n  dup3\n    /* \"#utility.yul\":2104:2209   */\n  sstore\n    /* \"#utility.yul\":2022:2215   */\n  pop\n    /* \"#utility.yul\":1946:2215   */\n  pop\n  pop\n  pop\n  jump\t// out\n    /* \"#utility.yul\":2221:2294   */\ntag_18:\n    /* \"#utility.yul\":2266:2269   */\n  0x00\n    /* \"#utility.yul\":2221:2294   */\n  swap1\n  jump\t// out\n    /* \"#utility.yul\":2300:2489   */\ntag_19:\n    /* \"#utility.yul\":2377:2409   */\n  tag_52\n  tag_18\n  jump\t// in\ntag_52:\n    /* \"#utility.yul\":2418:2483   */\n  tag_53\n    /* \"#utility.yul\":2476:2482   */\n  dup2\n    /* \"#utility.yul\":2468:2474   */\n  dup5\n    /* \"#utility.yul\":2462:2466   */\n  dup5\n    /* \"#utility.yul\":2418:2483   */\n  tag_17\n  jump\t// in\ntag_53:\n    /* \"#utility.yul\":2353:2489   */\n  pop\n    /* \"#utility.yul\":2300:2489   */\n  pop\n  pop\n  jump\t// out\n    /* \"#utility.yul\":2495:2681   */\ntag_20:\n    /* \"#utility.yul\":2555:2675   */\ntag_55:\n    /* \"#utility.yul\":2572:2575   */\n  dup2\n    /* \"#utility.yul\":2565:2570   */\n  dup2\n    /* \"#utility.yul\":2562:2576   */\n  lt\n    /* \"#utility.yul\":2555:2675   */\n  iszero\n  tag_57\n  jumpi\n    /* \"#utility.yul\":2626:2665   */\n  tag_58\n    /* \"#utility.yul\":2663:2664   */\n  0x00\n    /* \"#utility.yul\":2656:2661   */\n  dup3\n    /* \"#utility.yul\":2626:2665   */\n  tag_19\n  jump\t// in\ntag_58:\n    /* \"#utility.yul\":2599:2600   */\n  0x01\n    /* \"#utility.yul\":2592:2597   */\n  dup2\n    /* \"#utility.yul\":2588:2601   */\n  add\n    /* \"#utility.yul\":2579:2601   */\n  swap1\n  pop\n    /* \"#utility.yul\":2555:2675   */\n  jump(tag_55)\ntag_57:\n    /* \"#utility.yul\":2495:2681   */\n  pop\n  pop\n  jump\t// out\n    /* \"#utility.yul\":2687:3230   */\ntag_21:\n    /* \"#utility.yul\":2788:2790   */\n  0x1f\n    /* \"#utility.yul\":2783:2786   */\n  dup3\n    /* \"#utility.yul\":2780:2791   */\n  gt\n    /* \"#utility.yul\":2777:3223   */\n  iszero\n  tag_60\n  jumpi\n    /* \"#utility.yul\":2822:2860   */\n  tag_61\n    /* \"#utility.yul\":2854:2859   */\n  dup2\n    /* \"#utility.yul\":2822:2860   */\n  tag_9\n  jump\t// in\ntag_61:\n    /* \"#utility.yul\":2906:2935   */\n  tag_62\n    /* \"#utility.yul\":2924:2934   */\n  dup5\n    /* \"#utility.yul\":2906:2935   */\n  tag_10\n  jump\t// in\ntag_62:\n    /* \"#utility.yul\":2896:2904   */\n  dup2\n    /* \"#utility.yul\":2892:2936   */\n  add\n    /* \"#utility.yul\":3089:3091   */\n  0x20\n    /* \"#utility.yul\":3077:3087   */\n  dup6\n    /* \"#utility.yul\":3074:3092   */\n  lt\n    /* \"#utility.yul\":3071:3120   */\n  iszero\n  tag_63\n  jumpi\n    /* \"#utility.yul\":3110:3118   */\n  dup2\n    /* \"#utility.yul\":3095:3118   */\n  swap1\n  pop\n    /* \"#utility.yul\":3071:3120   */\ntag_63:\n    /* \"#utility.yul\":3133:3213   */\n  tag_64\n    /* \"#utility.yul\":3189:3211   */\n  tag_65\n    /* \"#utility.yul\":3207:3210   */\n  dup6\n    /* \"#utility.yul\":3189:3211   */\n  tag_10\n  jump\t// in\ntag_65:\n    /* \"#utility.yul\":3179:3187   */\n  dup4\n    /* \"#utility.yul\":3175:3212   */\n  add\n    /* \"#utility.yul\":3162:3173   */\n  dup3\n    /* \"#utility.yul\":3133:3213   */\n  tag_20\n  jump\t// in\ntag_64:\n    /* \"#utility.yul\":2792:3223   */\n  pop\n  pop\n    /* \"#utility.yul\":2777:3223   */\ntag_60:\n    /* \"#utility.yul\":2687:3230   */\n  pop\n  pop\n  pop\n  jump\t// out\n    /* \"#utility.yul\":3236:3353   */\ntag_22:\n    /* \"#utility.yul\":3290:3298   */\n  0x00\n    /* \"#utility.yul\":3340:3345   */\n  dup3\n    /* \"#utility.yul\":3334:3338   */\n  dup3\n    /* \"#utility.yul\":3330:3346   */\n  shr\n    /* \"#utility.yul\":3309:3346   */\n  swap1\n  pop\n    /* \"#utility.yul\":3236:3353   */\n  swap3\n  swap2\n  pop\n  pop\n  jump\t// out\n    /* \"#utility.yul\":3359:3528   */\ntag_23:\n    /* \"#utility.yul\":3403:3409   */\n  0x00\n    /* \"#utility.yul\":3436:3487   */\n  tag_68\n    /* \"#utility.yul\":3484:3485   */\n  0x00\n    /* \"#utility.yul\":3480:3486   */\n  not\n    /* \"#utility.yul\":3472:3477   */\n  dup5\n    /* \"#utility.yul\":3469:3470   */\n  0x08\n    /* \"#utility.yul\":3465:3478   */\n  mul\n    /* \"#utility.yul\":3436:3487   */\n  tag_22\n  jump\t// in\ntag_68:\n    /* \"#utility.yul\":3432:3488   */\n  not\n    /* \"#utility.yul\":3517:3521   */\n  dup1\n    /* \"#utility.yul\":3511:3515   */\n  dup4\n    /* \"#utility.yul\":3507:3522   */\n  and\n    /* \"#utility.yul\":3497:3522   */\n  swap2\n  pop\n    /* \"#utility.yul\":3410:3528   */\n  pop\n    /* \"#utility.yul\":3359:3528   */\n  swap3\n  swap2\n  pop\n  pop\n  jump\t// out\n    /* \"#utility.yul\":3533:3828   */\ntag_24:\n    /* \"#utility.yul\":3609:3613   */\n  0x00\n    /* \"#utility.yul\":3755:3784   */\n  tag_70\n    /* \"#utility.yul\":3780:3783   */\n  dup4\n    /* \"#utility.yul\":3774:3778   */\n  dup4\n    /* \"#utility.yul\":3755:3784   */\n  tag_23\n  jump\t// in\ntag_70:\n    /* \"#utility.yul\":3747:3784   */\n  swap2\n  pop\n    /* \"#utility.yul\":3817:3820   */\n  dup3\n    /* \"#utility.yul\":3814:3815   */\n  0x02\n    /* \"#utility.yul\":3810:3821   */\n  mul\n    /* \"#utility.yul\":3804:3808   */\n  dup3\n    /* \"#utility.yul\":3801:3822   */\n  or\n    /* \"#utility.yul\":3793:3822   */\n  swap1\n  pop\n    /* \"#utility.yul\":3533:3828   */\n  swap3\n  swap2\n  pop\n  pop\n  jump\t// out\n    /* \"#utility.yul\":3833:5228   */\ntag_2:\n    /* \"#utility.yul\":3950:3987   */\n  tag_72\n    /* \"#utility.yul\":3983:3986   */\n  dup3\n    /* \"#utility.yul\":3950:3987   */\n  tag_5\n  jump\t// in\ntag_72:\n    /* \"#utility.yul\":4052:4070   */\n  0xffffffffffffffff\n    /* \"#utility.yul\":4044:4050   */\n  dup2\n    /* \"#utility.yul\":4041:4071   */\n  gt\n    /* \"#utility.yul\":4038:4094   */\n  iszero\n  tag_73\n  jumpi\n    /* \"#utility.yul\":4074:4092   */\n  tag_74\n  tag_6\n  jump\t// in\ntag_74:\n    /* \"#utility.yul\":4038:4094   */\ntag_73:\n    /* \"#utility.yul\":4118:4156   */\n  tag_75\n    /* \"#utility.yul\":4150:4154   */\n  dup3\n    /* \"#utility.yul\":4144:4155   */\n  sload\n    /* \"#utility.yul\":4118:4156   */\n  tag_8\n  jump\t// in\ntag_75:\n    /* \"#utility.yul\":4203:4270   */\n  tag_76\n    /* \"#utility.yul\":4263:4269   */\n  dup3\n    /* \"#utility.yul\":4255:4261   */\n  dup3\n    /* \"#utility.yul\":4249:4253   */\n  dup6\n    /* \"#utility.yul\":4203:4270   */\n  tag_21\n  jump\t// in\ntag_76:\n    /* \"#utility.yul\":4297:4298   */\n  0x00\n    /* \"#utility.yul\":4321:4325   */\n  0x20\n    /* \"#utility.yul\":4308:4325   */\n  swap1\n  pop\n    /* \"#utility.yul\":4353:4355   */\n  0x1f\n    /* \"#utility.yul\":4345:4351   */\n  dup4\n    /* \"#utility.yul\":4342:4356   */\n  gt\n    /* \"#utility.yul\":4370:4371   */\n  0x01\n    /* \"#utility.yul\":4365:4983   */\n  dup2\n  eq\n  tag_78\n  jumpi\n    /* \"#utility.yul\":5027:5028   */\n  0x00\n    /* \"#utility.yul\":5044:5050   */\n  dup5\n    /* \"#utility.yul\":5041:5118   */\n  iszero\n  tag_79\n  jumpi\n    /* \"#utility.yul\":5093:5102   */\n  dup3\n    /* \"#utility.yul\":5088:5091   */\n  dup8\n    /* \"#utility.yul\":5084:5103   */\n  add\n    /* \"#utility.yul\":5078:5104   */\n  mload\n    /* \"#utility.yul\":5069:5104   */\n  swap1\n  pop\n    /* \"#utility.yul\":5041:5118   */\ntag_79:\n    /* \"#utility.yul\":5144:5211   */\n  tag_80\n    /* \"#utility.yul\":5204:5210   */\n  dup6\n    /* \"#utility.yul\":5197:5202   */\n  dup3\n    /* \"#utility.yul\":5144:5211   */\n  tag_24\n  jump\t// in\ntag_80:\n    /* \"#utility.yul\":5138:5142   */\n  dup7\n    /* \"#utility.yul\":5131:5212   */\n  sstore\n    /* \"#utility.yul\":5000:5222   */\n  pop\n    /* \"#utility.yul\":4335:5222   */\n  jump(tag_77)\n    /* \"#utility.yul\":4365:4983   */\ntag_78:\n    /* \"#utility.yul\":4417:4421   */\n  0x1f\n    /* \"#utility.yul\":4413:4422   */\n  not\n    /* \"#utility.yul\":4405:4411   */\n  dup5\n    /* \"#utility.yul\":4401:4423   */\n  and\n    /* \"#utility.yul\":4451:4488   */\n  tag_81\n    /* \"#utility.yul\":4483:4487   */\n  dup7\n    /* \"#utility.yul\":4451:4488   */\n  tag_9\n  jump\t// in\ntag_81:\n    /* \"#utility.yul\":4510:4511   */\n  0x00\n    /* \"#utility.yul\":4524:4732   */\ntag_82:\n    /* \"#utility.yul\":4538:4545   */\n  dup3\n    /* \"#utility.yul\":4535:4536   */\n  dup2\n    /* \"#utility.yul\":4532:4546   */\n  lt\n    /* \"#utility.yul\":4524:4732   */\n  iszero\n  tag_84\n  jumpi\n    /* \"#utility.yul\":4617:4626   */\n  dup5\n    /* \"#utility.yul\":4612:4615   */\n  dup10\n    /* \"#utility.yul\":4608:4627   */\n  add\n    /* \"#utility.yul\":4602:4628   */\n  mload\n    /* \"#utility.yul\":4594:4600   */\n  dup3\n    /* \"#utility.yul\":4587:4629   */\n  sstore\n    /* \"#utility.yul\":4668:4669   */\n  0x01\n    /* \"#utility.yul\":4660:4666   */\n  dup3\n    /* \"#utility.yul\":4656:4670   */\n  add\n    /* \"#utility.yul\":4646:4670   */\n  swap2\n  pop\n    /* \"#utility.yul\":4715:4717   */\n  0x20\n    /* \"#utility.yul\":4704:4713   */\n  dup6\n    /* \"#utility.yul\":4700:4718   */\n  add\n    /* \"#utility.yul\":4687:4718   */\n  swap5\n  pop\n    /* \"#utility.yul\":4561:4565   */\n  0x20\n    /* \"#utility.yul\":4558:4559   */\n  dup2\n    /* \"#utility.yul\":4554:4566   */\n  add\n    /* \"#utility.yul\":4549:4566   */\n  swap1\n  pop\n    /* \"#utility.yul\":4524:4732   */\n  jump(tag_82)\ntag_84:\n    /* \"#utility.yul\":4760:4766   */\n  dup7\n    /* \"#utility.yul\":4751:4758   */\n  dup4\n    /* \"#utility.yul\":4748:4767   */\n  lt\n    /* \"#utility.yul\":4745:4924   */\n  iszero\n  tag_85\n  jumpi\n    /* \"#utility.yul\":4818:4827   */\n  dup5\n    /* \"#utility.yul\":4813:4816   */\n  dup10\n    /* \"#utility.yul\":4809:4828   */\n  add\n    /* \"#utility.yul\":4803:4829   */\n  mload\n    /* \"#utility.yul\":4861:4909   */\n  tag_86\n    /* \"#utility.yul\":4903:4907   */\n  0x1f\n    /* \"#utility.yul\":4895:4901   */\n  dup10\n    /* \"#utility.yul\":4891:4908   */\n  and\n    /* \"#utility.yul\":4880:4889   */\n  dup3\n    /* \"#utility.yul\":4861:4909   */\n  tag_23\n  jump\t// in\ntag_86:\n    /* \"#utility.yul\":4853:4859   */\n  dup4\n    /* \"#utility.yul\":4846:4910   */\n  sstore\n    /* \"#utility.yul\":4768:4924   */\n  pop\n    /* \"#utility.yul\":4745:4924   */\ntag_85:\n    /* \"#utility.yul\":4970:4971   */\n  0x01\n    /* \"#utility.yul\":4966:4967   */\n  0x02\n    /* \"#utility.yul\":4958:4964   */\n  dup9\n    /* \"#utility.yul\":4954:4968   */\n  mul\n    /* \"#utility.yul\":4950:4972   */\n  add\n    /* \"#utility.yul\":4944:4948   */\n  dup9\n    /* \"#utility.yul\":4937:4973   */\n  sstore\n    /* \"#utility.yul\":4372:4983   */\n  pop\n  pop\n  pop\n    /* \"#utility.yul\":4335:5222   */\ntag_77:\n  pop\n    /* \"#utility.yul\":3925:5228   */\n  pop\n  pop\n  pop\n    /* \"#utility.yul\":3833:5228   */\n  pop\n  pop\n  jump\t// out\n    /* \"revision/WalletConnet.sol\":57:568  contract SampleContract {... */\ntag_4:\n  dataSize(sub_0)\n  dup1\n  dataOffset(sub_0)\n  0x00\n  codecopy\n  0x00\n  return\nstop\n\nsub_0: assembly {\n        /* \"revision/WalletConnet.sol\":57:568  contract SampleContract {... */\n      mstore(0x40, 0x80)\n      jumpi(tag_1, lt(calldatasize, 0x04))\n      shr(0xe0, calldataload(0x00))\n      dup1\n      0x1d51057c\n      eq\n      tag_2\n      jumpi\n      dup1\n      0x492bfa18\n      eq\n      tag_3\n      jumpi\n      dup1\n      0x52a90c42\n      eq\n      tag_4\n      jumpi\n      dup1\n      0xbe363e36\n      eq\n      tag_5\n      jumpi\n    tag_1:\n      0x00\n      dup1\n      revert\n        /* \"revision/WalletConnet.sol\":192:418  function updateMyString(string memory _newString) public payable {... */\n    tag_2:\n      tag_6\n      0x04\n      dup1\n      calldatasize\n      sub\n      dup2\n      add\n      swap1\n      tag_7\n      swap2\n      swap1\n      tag_8\n      jump\t// in\n    tag_7:\n      tag_9\n      jump\t// in\n    tag_6:\n      stop\n        /* \"revision/WalletConnet.sol\":87:125  string public myString = \"Hello World\" */\n    tag_3:\n      callvalue\n      dup1\n      iszero\n      tag_10\n      jumpi\n      0x00\n      dup1\n      revert\n    tag_10:\n      pop\n      tag_11\n      tag_12\n      jump\t// in\n    tag_11:\n      mload(0x40)\n      tag_13\n      swap2\n      swap1\n      tag_14\n      jump\t// in\n    tag_13:\n      mload(0x40)\n      dup1\n      swap2\n      sub\n      swap1\n      return\n        /* \"revision/WalletConnet.sol\":131:158  uint public balanceReceived */\n    tag_4:\n      callvalue\n      dup1\n      iszero\n      tag_15\n      jumpi\n      0x00\n      dup1\n      revert\n    tag_15:\n      pop\n      tag_16\n      tag_17\n      jump\t// in\n    tag_16:\n      mload(0x40)\n      tag_18\n      swap2\n      swap1\n      tag_19\n      jump\t// in\n    tag_18:\n      mload(0x40)\n      dup1\n      swap2\n      sub\n      swap1\n      return\n        /* \"revision/WalletConnet.sol\":424:566  function sendMoneyBack() public {... */\n    tag_5:\n      callvalue\n      dup1\n      iszero\n      tag_20\n      jumpi\n      0x00\n      dup1\n      revert\n    tag_20:\n      pop\n      tag_21\n      tag_22\n      jump\t// in\n    tag_21:\n      stop\n        /* \"revision/WalletConnet.sol\":192:418  function updateMyString(string memory _newString) public payable {... */\n    tag_9:\n        /* \"revision/WalletConnet.sol\":283:290  1 ether */\n      0x0de0b6b3a7640000\n        /* \"revision/WalletConnet.sol\":270:279  msg.value */\n      callvalue\n        /* \"revision/WalletConnet.sol\":270:290  msg.value == 1 ether */\n      sub\n        /* \"revision/WalletConnet.sol\":267:337  if(msg.value == 1 ether){... */\n      tag_24\n      jumpi\n        /* \"revision/WalletConnet.sol\":316:326  _newString */\n      dup1\n        /* \"revision/WalletConnet.sol\":305:313  myString */\n      0x00\n        /* \"revision/WalletConnet.sol\":305:326  myString = _newString */\n      swap1\n      dup2\n      tag_25\n      swap2\n      swap1\n      tag_26\n      jump\t// in\n    tag_25:\n      pop\n        /* \"revision/WalletConnet.sol\":267:337  if(msg.value == 1 ether){... */\n    tag_24:\n        /* \"revision/WalletConnet.sol\":366:375  msg.value */\n      callvalue\n        /* \"revision/WalletConnet.sol\":347:362  balanceReceived */\n      0x01\n      0x00\n        /* \"revision/WalletConnet.sol\":347:375  balanceReceived += msg.value */\n      dup3\n      dup3\n      sload\n      tag_27\n      swap2\n      swap1\n      tag_28\n      jump\t// in\n    tag_27:\n      swap3\n      pop\n      pop\n      dup2\n      swap1\n      sstore\n      pop\n        /* \"revision/WalletConnet.sol\":401:411  msg.sender */\n      caller\n        /* \"revision/WalletConnet.sol\":385:398  addressSender */\n      0x02\n      0x00\n        /* \"revision/WalletConnet.sol\":385:411  addressSender = msg.sender */\n      0x0100\n      exp\n      dup2\n      sload\n      dup2\n      0xffffffffffffffffffffffffffffffffffffffff\n      mul\n      not\n      and\n      swap1\n      dup4\n      0xffffffffffffffffffffffffffffffffffffffff\n      and\n      mul\n      or\n      swap1\n      sstore\n      pop\n        /* \"revision/WalletConnet.sol\":192:418  function updateMyString(string memory _newString) public payable {... */\n      pop\n      jump\t// out\n        /* \"revision/WalletConnet.sol\":87:125  string public myString = \"Hello World\" */\n    tag_12:\n      0x00\n      dup1\n      sload\n      tag_29\n      swap1\n      tag_30\n      jump\t// in\n    tag_29:\n      dup1\n      0x1f\n      add\n      0x20\n      dup1\n      swap2\n      div\n      mul\n      0x20\n      add\n      mload(0x40)\n      swap1\n      dup2\n      add\n      0x40\n      mstore\n      dup1\n      swap3\n      swap2\n      swap1\n      dup2\n      dup2\n      mstore\n      0x20\n      add\n      dup3\n      dup1\n      sload\n      tag_31\n      swap1\n      tag_30\n      jump\t// in\n    tag_31:\n      dup1\n      iszero\n      tag_32\n      jumpi\n      dup1\n      0x1f\n      lt\n      tag_33\n      jumpi\n      0x0100\n      dup1\n      dup4\n      sload\n      div\n      mul\n      dup4\n      mstore\n      swap2\n      0x20\n      add\n      swap2\n      jump(tag_32)\n    tag_33:\n      dup3\n      add\n      swap2\n      swap1\n      0x00\n      mstore\n      keccak256(0x00, 0x20)\n      swap1\n    tag_34:\n      dup2\n      sload\n      dup2\n      mstore\n      swap1\n      0x01\n      add\n      swap1\n      0x20\n      add\n      dup1\n      dup4\n      gt\n      tag_34\n      jumpi\n      dup3\n      swap1\n      sub\n      0x1f\n      and\n      dup3\n      add\n      swap2\n    tag_32:\n      pop\n      pop\n      pop\n      pop\n      pop\n      dup2\n      jump\t// out\n        /* \"revision/WalletConnet.sol\":131:158  uint public balanceReceived */\n    tag_17:\n      sload(0x01)\n      dup2\n      jump\t// out\n        /* \"revision/WalletConnet.sol\":424:566  function sendMoneyBack() public {... */\n    tag_22:\n        /* \"revision/WalletConnet.sol\":474:487  addressSender */\n      0x02\n      0x00\n      swap1\n      sload\n      swap1\n      0x0100\n      exp\n      swap1\n      div\n      0xffffffffffffffffffffffffffffffffffffffff\n      and\n        /* \"revision/WalletConnet.sol\":466:497  payable(addressSender).transfer */\n      0xffffffffffffffffffffffffffffffffffffffff\n      and\n        /* \"revision/WalletConnet.sol\":466:514  payable(addressSender).transfer(balanceReceived) */\n      0x08fc\n        /* \"revision/WalletConnet.sol\":498:513  balanceReceived */\n      sload(0x01)\n        /* \"revision/WalletConnet.sol\":466:514  payable(addressSender).transfer(balanceReceived) */\n      swap1\n      dup2\n      iszero\n      mul\n      swap1\n      mload(0x40)\n      0x00\n      mload(0x40)\n      dup1\n      dup4\n      sub\n      dup2\n      dup6\n      dup9\n      dup9\n      call\n      swap4\n      pop\n      pop\n      pop\n      pop\n      iszero\n      dup1\n      iszero\n      tag_37\n      jumpi\n      returndatasize\n      0x00\n      dup1\n      returndatacopy\n      revert(0x00, returndatasize)\n    tag_37:\n      pop\n        /* \"revision/WalletConnet.sol\":543:558  balanceReceived */\n      sload(0x01)\n        /* \"revision/WalletConnet.sol\":524:539  balanceReceived */\n      0x01\n      0x00\n        /* \"revision/WalletConnet.sol\":524:558  balanceReceived -= balanceReceived */\n      dup3\n      dup3\n      sload\n      tag_38\n      swap2\n      swap1\n      tag_39\n      jump\t// in\n    tag_38:\n      swap3\n      pop\n      pop\n      dup2\n      swap1\n      sstore\n      pop\n        /* \"revision/WalletConnet.sol\":424:566  function sendMoneyBack() public {... */\n      jump\t// out\n        /* \"#utility.yul\":7:82   */\n    tag_40:\n        /* \"#utility.yul\":40:46   */\n      0x00\n        /* \"#utility.yul\":73:75   */\n      0x40\n        /* \"#utility.yul\":67:76   */\n      mload\n        /* \"#utility.yul\":57:76   */\n      swap1\n      pop\n        /* \"#utility.yul\":7:82   */\n      swap1\n      jump\t// out\n        /* \"#utility.yul\":88:205   */\n    tag_41:\n        /* \"#utility.yul\":197:198   */\n      0x00\n        /* \"#utility.yul\":194:195   */\n      dup1\n        /* \"#utility.yul\":187:199   */\n      revert\n        /* \"#utility.yul\":211:328   */\n    tag_42:\n        /* \"#utility.yul\":320:321   */\n      0x00\n        /* \"#utility.yul\":317:318   */\n      dup1\n        /* \"#utility.yul\":310:322   */\n      revert\n        /* \"#utility.yul\":334:451   */\n    tag_43:\n        /* \"#utility.yul\":443:444   */\n      0x00\n        /* \"#utility.yul\":440:441   */\n      dup1\n        /* \"#utility.yul\":433:445   */\n      revert\n        /* \"#utility.yul\":457:574   */\n    tag_44:\n        /* \"#utility.yul\":566:567   */\n      0x00\n        /* \"#utility.yul\":563:564   */\n      dup1\n        /* \"#utility.yul\":556:568   */\n      revert\n        /* \"#utility.yul\":580:682   */\n    tag_45:\n        /* \"#utility.yul\":621:627   */\n      0x00\n        /* \"#utility.yul\":672:674   */\n      0x1f\n        /* \"#utility.yul\":668:675   */\n      not\n        /* \"#utility.yul\":663:665   */\n      0x1f\n        /* \"#utility.yul\":656:661   */\n      dup4\n        /* \"#utility.yul\":652:666   */\n      add\n        /* \"#utility.yul\":648:676   */\n      and\n        /* \"#utility.yul\":638:676   */\n      swap1\n      pop\n        /* \"#utility.yul\":580:682   */\n      swap2\n      swap1\n      pop\n      jump\t// out\n        /* \"#utility.yul\":688:868   */\n    tag_46:\n        /* \"#utility.yul\":736:813   */\n      0x4e487b7100000000000000000000000000000000000000000000000000000000\n        /* \"#utility.yul\":733:734   */\n      0x00\n        /* \"#utility.yul\":726:814   */\n      mstore\n        /* \"#utility.yul\":833:837   */\n      0x41\n        /* \"#utility.yul\":830:831   */\n      0x04\n        /* \"#utility.yul\":823:838   */\n      mstore\n        /* \"#utility.yul\":857:861   */\n      0x24\n        /* \"#utility.yul\":854:855   */\n      0x00\n        /* \"#utility.yul\":847:862   */\n      revert\n        /* \"#utility.yul\":874:1155   */\n    tag_47:\n        /* \"#utility.yul\":957:984   */\n      tag_85\n        /* \"#utility.yul\":979:983   */\n      dup3\n        /* \"#utility.yul\":957:984   */\n      tag_45\n      jump\t// in\n    tag_85:\n        /* \"#utility.yul\":949:955   */\n      dup2\n        /* \"#utility.yul\":945:985   */\n      add\n        /* \"#utility.yul\":1087:1093   */\n      dup2\n        /* \"#utility.yul\":1075:1085   */\n      dup2\n        /* \"#utility.yul\":1072:1094   */\n      lt\n        /* \"#utility.yul\":1051:1069   */\n      0xffffffffffffffff\n        /* \"#utility.yul\":1039:1049   */\n      dup3\n        /* \"#utility.yul\":1036:1070   */\n      gt\n        /* \"#utility.yul\":1033:1095   */\n      or\n        /* \"#utility.yul\":1030:1118   */\n      iszero\n      tag_86\n      jumpi\n        /* \"#utility.yul\":1098:1116   */\n      tag_87\n      tag_46\n      jump\t// in\n    tag_87:\n        /* \"#utility.yul\":1030:1118   */\n    tag_86:\n        /* \"#utility.yul\":1138:1148   */\n      dup1\n        /* \"#utility.yul\":1134:1136   */\n      0x40\n        /* \"#utility.yul\":1127:1149   */\n      mstore\n        /* \"#utility.yul\":917:1155   */\n      pop\n        /* \"#utility.yul\":874:1155   */\n      pop\n      pop\n      jump\t// out\n        /* \"#utility.yul\":1161:1290   */\n    tag_48:\n        /* \"#utility.yul\":1195:1201   */\n      0x00\n        /* \"#utility.yul\":1222:1242   */\n      tag_89\n      tag_40\n      jump\t// in\n    tag_89:\n        /* \"#utility.yul\":1212:1242   */\n      swap1\n      pop\n        /* \"#utility.yul\":1251:1284   */\n      tag_90\n        /* \"#utility.yul\":1279:1283   */\n      dup3\n        /* \"#utility.yul\":1271:1277   */\n      dup3\n        /* \"#utility.yul\":1251:1284   */\n      tag_47\n      jump\t// in\n    tag_90:\n        /* \"#utility.yul\":1161:1290   */\n      swap2\n      swap1\n      pop\n      jump\t// out\n        /* \"#utility.yul\":1296:1604   */\n    tag_49:\n        /* \"#utility.yul\":1358:1362   */\n      0x00\n        /* \"#utility.yul\":1448:1466   */\n      0xffffffffffffffff\n        /* \"#utility.yul\":1440:1446   */\n      dup3\n        /* \"#utility.yul\":1437:1467   */\n      gt\n        /* \"#utility.yul\":1434:1490   */\n      iszero\n      tag_92\n      jumpi\n        /* \"#utility.yul\":1470:1488   */\n      tag_93\n      tag_46\n      jump\t// in\n    tag_93:\n        /* \"#utility.yul\":1434:1490   */\n    tag_92:\n        /* \"#utility.yul\":1508:1537   */\n      tag_94\n        /* \"#utility.yul\":1530:1536   */\n      dup3\n        /* \"#utility.yul\":1508:1537   */\n      tag_45\n      jump\t// in\n    tag_94:\n        /* \"#utility.yul\":1500:1537   */\n      swap1\n      pop\n        /* \"#utility.yul\":1592:1596   */\n      0x20\n        /* \"#utility.yul\":1586:1590   */\n      dup2\n        /* \"#utility.yul\":1582:1597   */\n      add\n        /* \"#utility.yul\":1574:1597   */\n      swap1\n      pop\n        /* \"#utility.yul\":1296:1604   */\n      swap2\n      swap1\n      pop\n      jump\t// out\n        /* \"#utility.yul\":1610:1764   */\n    tag_50:\n        /* \"#utility.yul\":1694:1700   */\n      dup3\n        /* \"#utility.yul\":1689:1692   */\n      dup2\n        /* \"#utility.yul\":1684:1687   */\n      dup4\n        /* \"#utility.yul\":1671:1701   */\n      calldatacopy\n        /* \"#utility.yul\":1756:1757   */\n      0x00\n        /* \"#utility.yul\":1747:1753   */\n      dup4\n        /* \"#utility.yul\":1742:1745   */\n      dup4\n        /* \"#utility.yul\":1738:1754   */\n      add\n        /* \"#utility.yul\":1731:1758   */\n      mstore\n        /* \"#utility.yul\":1610:1764   */\n      pop\n      pop\n      pop\n      jump\t// out\n        /* \"#utility.yul\":1770:2182   */\n    tag_51:\n        /* \"#utility.yul\":1848:1853   */\n      0x00\n        /* \"#utility.yul\":1873:1939   */\n      tag_97\n        /* \"#utility.yul\":1889:1938   */\n      tag_98\n        /* \"#utility.yul\":1931:1937   */\n      dup5\n        /* \"#utility.yul\":1889:1938   */\n      tag_49\n      jump\t// in\n    tag_98:\n        /* \"#utility.yul\":1873:1939   */\n      tag_48\n      jump\t// in\n    tag_97:\n        /* \"#utility.yul\":1864:1939   */\n      swap1\n      pop\n        /* \"#utility.yul\":1962:1968   */\n      dup3\n        /* \"#utility.yul\":1955:1960   */\n      dup2\n        /* \"#utility.yul\":1948:1969   */\n      mstore\n        /* \"#utility.yul\":2000:2004   */\n      0x20\n        /* \"#utility.yul\":1993:1998   */\n      dup2\n        /* \"#utility.yul\":1989:2005   */\n      add\n        /* \"#utility.yul\":2038:2041   */\n      dup5\n        /* \"#utility.yul\":2029:2035   */\n      dup5\n        /* \"#utility.yul\":2024:2027   */\n      dup5\n        /* \"#utility.yul\":2020:2036   */\n      add\n        /* \"#utility.yul\":2017:2042   */\n      gt\n        /* \"#utility.yul\":2014:2126   */\n      iszero\n      tag_99\n      jumpi\n        /* \"#utility.yul\":2045:2124   */\n      tag_100\n      tag_44\n      jump\t// in\n    tag_100:\n        /* \"#utility.yul\":2014:2126   */\n    tag_99:\n        /* \"#utility.yul\":2135:2176   */\n      tag_101\n        /* \"#utility.yul\":2169:2175   */\n      dup5\n        /* \"#utility.yul\":2164:2167   */\n      dup3\n        /* \"#utility.yul\":2159:2162   */\n      dup6\n        /* \"#utility.yul\":2135:2176   */\n      tag_50\n      jump\t// in\n    tag_101:\n        /* \"#utility.yul\":1854:2182   */\n      pop\n        /* \"#utility.yul\":1770:2182   */\n      swap4\n      swap3\n      pop\n      pop\n      pop\n      jump\t// out\n        /* \"#utility.yul\":2202:2542   */\n    tag_52:\n        /* \"#utility.yul\":2258:2263   */\n      0x00\n        /* \"#utility.yul\":2307:2310   */\n      dup3\n        /* \"#utility.yul\":2300:2304   */\n      0x1f\n        /* \"#utility.yul\":2292:2298   */\n      dup4\n        /* \"#utility.yul\":2288:2305   */\n      add\n        /* \"#utility.yul\":2284:2311   */\n      slt\n        /* \"#utility.yul\":2274:2396   */\n      tag_103\n      jumpi\n        /* \"#utility.yul\":2315:2394   */\n      tag_104\n      tag_43\n      jump\t// in\n    tag_104:\n        /* \"#utility.yul\":2274:2396   */\n    tag_103:\n        /* \"#utility.yul\":2432:2438   */\n      dup2\n        /* \"#utility.yul\":2419:2439   */\n      calldataload\n        /* \"#utility.yul\":2457:2536   */\n      tag_105\n        /* \"#utility.yul\":2532:2535   */\n      dup5\n        /* \"#utility.yul\":2524:2530   */\n      dup3\n        /* \"#utility.yul\":2517:2521   */\n      0x20\n        /* \"#utility.yul\":2509:2515   */\n      dup7\n        /* \"#utility.yul\":2505:2522   */\n      add\n        /* \"#utility.yul\":2457:2536   */\n      tag_51\n      jump\t// in\n    tag_105:\n        /* \"#utility.yul\":2448:2536   */\n      swap2\n      pop\n        /* \"#utility.yul\":2264:2542   */\n      pop\n        /* \"#utility.yul\":2202:2542   */\n      swap3\n      swap2\n      pop\n      pop\n      jump\t// out\n        /* \"#utility.yul\":2548:3057   */\n    tag_8:\n        /* \"#utility.yul\":2617:2623   */\n      0x00\n        /* \"#utility.yul\":2666:2668   */\n      0x20\n        /* \"#utility.yul\":2654:2663   */\n      dup3\n        /* \"#utility.yul\":2645:2652   */\n      dup5\n        /* \"#utility.yul\":2641:2664   */\n      sub\n        /* \"#utility.yul\":2637:2669   */\n      slt\n        /* \"#utility.yul\":2634:2753   */\n      iszero\n      tag_107\n      jumpi\n        /* \"#utility.yul\":2672:2751   */\n      tag_108\n      tag_41\n      jump\t// in\n    tag_108:\n        /* \"#utility.yul\":2634:2753   */\n    tag_107:\n        /* \"#utility.yul\":2820:2821   */\n      0x00\n        /* \"#utility.yul\":2809:2818   */\n      dup3\n        /* \"#utility.yul\":2805:2822   */\n      add\n        /* \"#utility.yul\":2792:2823   */\n      calldataload\n        /* \"#utility.yul\":2850:2868   */\n      0xffffffffffffffff\n        /* \"#utility.yul\":2842:2848   */\n      dup2\n        /* \"#utility.yul\":2839:2869   */\n      gt\n        /* \"#utility.yul\":2836:2953   */\n      iszero\n      tag_109\n      jumpi\n        /* \"#utility.yul\":2872:2951   */\n      tag_110\n      tag_42\n      jump\t// in\n    tag_110:\n        /* \"#utility.yul\":2836:2953   */\n    tag_109:\n        /* \"#utility.yul\":2977:3040   */\n      tag_111\n        /* \"#utility.yul\":3032:3039   */\n      dup5\n        /* \"#utility.yul\":3023:3029   */\n      dup3\n        /* \"#utility.yul\":3012:3021   */\n      dup6\n        /* \"#utility.yul\":3008:3030   */\n      add\n        /* \"#utility.yul\":2977:3040   */\n      tag_52\n      jump\t// in\n    tag_111:\n        /* \"#utility.yul\":2967:3040   */\n      swap2\n      pop\n        /* \"#utility.yul\":2763:3050   */\n      pop\n        /* \"#utility.yul\":2548:3057   */\n      swap3\n      swap2\n      pop\n      pop\n      jump\t// out\n        /* \"#utility.yul\":3063:3162   */\n    tag_53:\n        /* \"#utility.yul\":3115:3121   */\n      0x00\n        /* \"#utility.yul\":3149:3154   */\n      dup2\n        /* \"#utility.yul\":3143:3155   */\n      mload\n        /* \"#utility.yul\":3133:3155   */\n      swap1\n      pop\n        /* \"#utility.yul\":3063:3162   */\n      swap2\n      swap1\n      pop\n      jump\t// out\n        /* \"#utility.yul\":3168:3337   */\n    tag_54:\n        /* \"#utility.yul\":3252:3263   */\n      0x00\n        /* \"#utility.yul\":3286:3292   */\n      dup3\n        /* \"#utility.yul\":3281:3284   */\n      dup3\n        /* \"#utility.yul\":3274:3293   */\n      mstore\n        /* \"#utility.yul\":3326:3330   */\n      0x20\n        /* \"#utility.yul\":3321:3324   */\n      dup3\n        /* \"#utility.yul\":3317:3331   */\n      add\n        /* \"#utility.yul\":3302:3331   */\n      swap1\n      pop\n        /* \"#utility.yul\":3168:3337   */\n      swap3\n      swap2\n      pop\n      pop\n      jump\t// out\n        /* \"#utility.yul\":3343:3650   */\n    tag_55:\n        /* \"#utility.yul\":3411:3412   */\n      0x00\n        /* \"#utility.yul\":3421:3534   */\n    tag_115:\n        /* \"#utility.yul\":3435:3441   */\n      dup4\n        /* \"#utility.yul\":3432:3433   */\n      dup2\n        /* \"#utility.yul\":3429:3442   */\n      lt\n        /* \"#utility.yul\":3421:3534   */\n      iszero\n      tag_117\n      jumpi\n        /* \"#utility.yul\":3520:3521   */\n      dup1\n        /* \"#utility.yul\":3515:3518   */\n      dup3\n        /* \"#utility.yul\":3511:3522   */\n      add\n        /* \"#utility.yul\":3505:3523   */\n      mload\n        /* \"#utility.yul\":3501:3502   */\n      dup2\n        /* \"#utility.yul\":3496:3499   */\n      dup5\n        /* \"#utility.yul\":3492:3503   */\n      add\n        /* \"#utility.yul\":3485:3524   */\n      mstore\n        /* \"#utility.yul\":3457:3459   */\n      0x20\n        /* \"#utility.yul\":3454:3455   */\n      dup2\n        /* \"#utility.yul\":3450:3460   */\n      add\n        /* \"#utility.yul\":3445:3460   */\n      swap1\n      pop\n        /* \"#utility.yul\":3421:3534   */\n      jump(tag_115)\n    tag_117:\n        /* \"#utility.yul\":3552:3558   */\n      dup4\n        /* \"#utility.yul\":3549:3550   */\n      dup2\n        /* \"#utility.yul\":3546:3559   */\n      gt\n        /* \"#utility.yul\":3543:3644   */\n      iszero\n      tag_118\n      jumpi\n        /* \"#utility.yul\":3632:3633   */\n      0x00\n        /* \"#utility.yul\":3623:3629   */\n      dup5\n        /* \"#utility.yul\":3618:3621   */\n      dup5\n        /* \"#utility.yul\":3614:3630   */\n      add\n        /* \"#utility.yul\":3607:3634   */\n      mstore\n        /* \"#utility.yul\":3543:3644   */\n    tag_118:\n        /* \"#utility.yul\":3392:3650   */\n      pop\n        /* \"#utility.yul\":3343:3650   */\n      pop\n      pop\n      pop\n      jump\t// out\n        /* \"#utility.yul\":3656:4020   */\n    tag_56:\n        /* \"#utility.yul\":3744:3747   */\n      0x00\n        /* \"#utility.yul\":3772:3811   */\n      tag_120\n        /* \"#utility.yul\":3805:3810   */\n      dup3\n        /* \"#utility.yul\":3772:3811   */\n      tag_53\n      jump\t// in\n    tag_120:\n        /* \"#utility.yul\":3827:3898   */\n      tag_121\n        /* \"#utility.yul\":3891:3897   */\n      dup2\n        /* \"#utility.yul\":3886:3889   */\n      dup6\n        /* \"#utility.yul\":3827:3898   */\n      tag_54\n      jump\t// in\n    tag_121:\n        /* \"#utility.yul\":3820:3898   */\n      swap4\n      pop\n        /* \"#utility.yul\":3907:3959   */\n      tag_122\n        /* \"#utility.yul\":3952:3958   */\n      dup2\n        /* \"#utility.yul\":3947:3950   */\n      dup6\n        /* \"#utility.yul\":3940:3944   */\n      0x20\n        /* \"#utility.yul\":3933:3938   */\n      dup7\n        /* \"#utility.yul\":3929:3945   */\n      add\n        /* \"#utility.yul\":3907:3959   */\n      tag_55\n      jump\t// in\n    tag_122:\n        /* \"#utility.yul\":3984:4013   */\n      tag_123\n        /* \"#utility.yul\":4006:4012   */\n      dup2\n        /* \"#utility.yul\":3984:4013   */\n      tag_45\n      jump\t// in\n    tag_123:\n        /* \"#utility.yul\":3979:3982   */\n      dup5\n        /* \"#utility.yul\":3975:4014   */\n      add\n        /* \"#utility.yul\":3968:4014   */\n      swap2\n      pop\n        /* \"#utility.yul\":3748:4020   */\n      pop\n        /* \"#utility.yul\":3656:4020   */\n      swap3\n      swap2\n      pop\n      pop\n      jump\t// out\n        /* \"#utility.yul\":4026:4339   */\n    tag_14:\n        /* \"#utility.yul\":4139:4143   */\n      0x00\n        /* \"#utility.yul\":4177:4179   */\n      0x20\n        /* \"#utility.yul\":4166:4175   */\n      dup3\n        /* \"#utility.yul\":4162:4180   */\n      add\n        /* \"#utility.yul\":4154:4180   */\n      swap1\n      pop\n        /* \"#utility.yul\":4226:4235   */\n      dup2\n        /* \"#utility.yul\":4220:4224   */\n      dup2\n        /* \"#utility.yul\":4216:4236   */\n      sub\n        /* \"#utility.yul\":4212:4213   */\n      0x00\n        /* \"#utility.yul\":4201:4210   */\n      dup4\n        /* \"#utility.yul\":4197:4214   */\n      add\n        /* \"#utility.yul\":4190:4237   */\n      mstore\n        /* \"#utility.yul\":4254:4332   */\n      tag_125\n        /* \"#utility.yul\":4327:4331   */\n      dup2\n        /* \"#utility.yul\":4318:4324   */\n      dup5\n        /* \"#utility.yul\":4254:4332   */\n      tag_56\n      jump\t// in\n    tag_125:\n        /* \"#utility.yul\":4246:4332   */\n      swap1\n      pop\n        /* \"#utility.yul\":4026:4339   */\n      swap3\n      swap2\n      pop\n      pop\n      jump\t// out\n        /* \"#utility.yul\":4345:4422   */\n    tag_57:\n        /* \"#utility.yul\":4382:4389   */\n      0x00\n        /* \"#utility.yul\":4411:4416   */\n      dup2\n        /* \"#utility.yul\":4400:4416   */\n      swap1\n      pop\n        /* \"#utility.yul\":4345:4422   */\n      swap2\n      swap1\n      pop\n      jump\t// out\n        /* \"#utility.yul\":4428:4546   */\n    tag_58:\n        /* \"#utility.yul\":4515:4539   */\n      tag_128\n        /* \"#utility.yul\":4533:4538   */\n      dup2\n        /* \"#utility.yul\":4515:4539   */\n      tag_57\n      jump\t// in\n    tag_128:\n        /* \"#utility.yul\":4510:4513   */\n      dup3\n        /* \"#utility.yul\":4503:4540   */\n      mstore\n        /* \"#utility.yul\":4428:4546   */\n      pop\n      pop\n      jump\t// out\n        /* \"#utility.yul\":4552:4774   */\n    tag_19:\n        /* \"#utility.yul\":4645:4649   */\n      0x00\n        /* \"#utility.yul\":4683:4685   */\n      0x20\n        /* \"#utility.yul\":4672:4681   */\n      dup3\n        /* \"#utility.yul\":4668:4686   */\n      add\n        /* \"#utility.yul\":4660:4686   */\n      swap1\n      pop\n        /* \"#utility.yul\":4696:4767   */\n      tag_130\n        /* \"#utility.yul\":4764:4765   */\n      0x00\n        /* \"#utility.yul\":4753:4762   */\n      dup4\n        /* \"#utility.yul\":4749:4766   */\n      add\n        /* \"#utility.yul\":4740:4746   */\n      dup5\n        /* \"#utility.yul\":4696:4767   */\n      tag_58\n      jump\t// in\n    tag_130:\n        /* \"#utility.yul\":4552:4774   */\n      swap3\n      swap2\n      pop\n      pop\n      jump\t// out\n        /* \"#utility.yul\":4780:4960   */\n    tag_59:\n        /* \"#utility.yul\":4828:4905   */\n      0x4e487b7100000000000000000000000000000000000000000000000000000000\n        /* \"#utility.yul\":4825:4826   */\n      0x00\n        /* \"#utility.yul\":4818:4906   */\n      mstore\n        /* \"#utility.yul\":4925:4929   */\n      0x22\n        /* \"#utility.yul\":4922:4923   */\n      0x04\n        /* \"#utility.yul\":4915:4930   */\n      mstore\n        /* \"#utility.yul\":4949:4953   */\n      0x24\n        /* \"#utility.yul\":4946:4947   */\n      0x00\n        /* \"#utility.yul\":4939:4954   */\n      revert\n        /* \"#utility.yul\":4966:5286   */\n    tag_30:\n        /* \"#utility.yul\":5010:5016   */\n      0x00\n        /* \"#utility.yul\":5047:5048   */\n      0x02\n        /* \"#utility.yul\":5041:5045   */\n      dup3\n        /* \"#utility.yul\":5037:5049   */\n      div\n        /* \"#utility.yul\":5027:5049   */\n      swap1\n      pop\n        /* \"#utility.yul\":5094:5095   */\n      0x01\n        /* \"#utility.yul\":5088:5092   */\n      dup3\n        /* \"#utility.yul\":5084:5096   */\n      and\n        /* \"#utility.yul\":5115:5133   */\n      dup1\n        /* \"#utility.yul\":5105:5186   */\n      tag_133\n      jumpi\n        /* \"#utility.yul\":5171:5175   */\n      0x7f\n        /* \"#utility.yul\":5163:5169   */\n      dup3\n        /* \"#utility.yul\":5159:5176   */\n      and\n        /* \"#utility.yul\":5149:5176   */\n      swap2\n      pop\n        /* \"#utility.yul\":5105:5186   */\n    tag_133:\n        /* \"#utility.yul\":5233:5235   */\n      0x20\n        /* \"#utility.yul\":5225:5231   */\n      dup3\n        /* \"#utility.yul\":5222:5236   */\n      lt\n        /* \"#utility.yul\":5202:5220   */\n      dup2\n        /* \"#utility.yul\":5199:5237   */\n      sub\n        /* \"#utility.yul\":5196:5280   */\n      tag_134\n      jumpi\n        /* \"#utility.yul\":5252:5270   */\n      tag_135\n      tag_59\n      jump\t// in\n    tag_135:\n        /* \"#utility.yul\":5196:5280   */\n    tag_134:\n        /* \"#utility.yul\":5017:5286   */\n      pop\n        /* \"#utility.yul\":4966:5286   */\n      swap2\n      swap1\n      pop\n      jump\t// out\n        /* \"#utility.yul\":5292:5433   */\n    tag_60:\n        /* \"#utility.yul\":5341:5345   */\n      0x00\n        /* \"#utility.yul\":5364:5367   */\n      dup2\n        /* \"#utility.yul\":5356:5367   */\n      swap1\n      pop\n        /* \"#utility.yul\":5387:5390   */\n      dup2\n        /* \"#utility.yul\":5384:5385   */\n      0x00\n        /* \"#utility.yul\":5377:5391   */\n      mstore\n        /* \"#utility.yul\":5421:5425   */\n      0x20\n        /* \"#utility.yul\":5418:5419   */\n      0x00\n        /* \"#utility.yul\":5408:5426   */\n      keccak256\n        /* \"#utility.yul\":5400:5426   */\n      swap1\n      pop\n        /* \"#utility.yul\":5292:5433   */\n      swap2\n      swap1\n      pop\n      jump\t// out\n        /* \"#utility.yul\":5439:5532   */\n    tag_61:\n        /* \"#utility.yul\":5476:5482   */\n      0x00\n        /* \"#utility.yul\":5523:5525   */\n      0x20\n        /* \"#utility.yul\":5518:5520   */\n      0x1f\n        /* \"#utility.yul\":5511:5516   */\n      dup4\n        /* \"#utility.yul\":5507:5521   */\n      add\n        /* \"#utility.yul\":5503:5526   */\n      div\n        /* \"#utility.yul\":5493:5526   */\n      swap1\n      pop\n        /* \"#utility.yul\":5439:5532   */\n      swap2\n      swap1\n      pop\n      jump\t// out\n        /* \"#utility.yul\":5538:5645   */\n    tag_62:\n        /* \"#utility.yul\":5582:5590   */\n      0x00\n        /* \"#utility.yul\":5632:5637   */\n      dup3\n        /* \"#utility.yul\":5626:5630   */\n      dup3\n        /* \"#utility.yul\":5622:5638   */\n      shl\n        /* \"#utility.yul\":5601:5638   */\n      swap1\n      pop\n        /* \"#utility.yul\":5538:5645   */\n      swap3\n      swap2\n      pop\n      pop\n      jump\t// out\n        /* \"#utility.yul\":5651:6044   */\n    tag_63:\n        /* \"#utility.yul\":5720:5726   */\n      0x00\n        /* \"#utility.yul\":5770:5771   */\n      0x08\n        /* \"#utility.yul\":5758:5768   */\n      dup4\n        /* \"#utility.yul\":5754:5772   */\n      mul\n        /* \"#utility.yul\":5793:5890   */\n      tag_140\n        /* \"#utility.yul\":5823:5889   */\n      0xffffffffffffffffffffffffffffffffffffffffffffffffffffffffffffffff\n        /* \"#utility.yul\":5812:5821   */\n      dup3\n        /* \"#utility.yul\":5793:5890   */\n      tag_62\n      jump\t// in\n    tag_140:\n        /* \"#utility.yul\":5911:5950   */\n      tag_141\n        /* \"#utility.yul\":5941:5949   */\n      dup7\n        /* \"#utility.yul\":5930:5939   */\n      dup4\n        /* \"#utility.yul\":5911:5950   */\n      tag_62\n      jump\t// in\n    tag_141:\n        /* \"#utility.yul\":5899:5950   */\n      swap6\n      pop\n        /* \"#utility.yul\":5983:5987   */\n      dup1\n        /* \"#utility.yul\":5979:5988   */\n      not\n        /* \"#utility.yul\":5972:5977   */\n      dup5\n        /* \"#utility.yul\":5968:5989   */\n      and\n        /* \"#utility.yul\":5959:5989   */\n      swap4\n      pop\n        /* \"#utility.yul\":6032:6036   */\n      dup1\n        /* \"#utility.yul\":6022:6030   */\n      dup7\n        /* \"#utility.yul\":6018:6037   */\n      and\n        /* \"#utility.yul\":6011:6016   */\n      dup5\n        /* \"#utility.yul\":6008:6038   */\n      or\n        /* \"#utility.yul\":5998:6038   */\n      swap3\n      pop\n        /* \"#utility.yul\":5727:6044   */\n      pop\n      pop\n        /* \"#utility.yul\":5651:6044   */\n      swap4\n      swap3\n      pop\n      pop\n      pop\n      jump\t// out\n        /* \"#utility.yul\":6050:6110   */\n    tag_64:\n        /* \"#utility.yul\":6078:6081   */\n      0x00\n        /* \"#utility.yul\":6099:6104   */\n      dup2\n        /* \"#utility.yul\":6092:6104   */\n      swap1\n      pop\n        /* \"#utility.yul\":6050:6110   */\n      swap2\n      swap1\n      pop\n      jump\t// out\n        /* \"#utility.yul\":6116:6258   */\n    tag_65:\n        /* \"#utility.yul\":6166:6175   */\n      0x00\n        /* \"#utility.yul\":6199:6252   */\n      tag_144\n        /* \"#utility.yul\":6217:6251   */\n      tag_145\n        /* \"#utility.yul\":6226:6250   */\n      tag_146\n        /* \"#utility.yul\":6244:6249   */\n      dup5\n        /* \"#utility.yul\":6226:6250   */\n      tag_57\n      jump\t// in\n    tag_146:\n        /* \"#utility.yul\":6217:6251   */\n      tag_64\n      jump\t// in\n    tag_145:\n        /* \"#utility.yul\":6199:6252   */\n      tag_57\n      jump\t// in\n    tag_144:\n        /* \"#utility.yul\":6186:6252   */\n      swap1\n      pop\n        /* \"#utility.yul\":6116:6258   */\n      swap2\n      swap1\n      pop\n      jump\t// out\n        /* \"#utility.yul\":6264:6339   */\n    tag_66:\n        /* \"#utility.yul\":6307:6310   */\n      0x00\n        /* \"#utility.yul\":6328:6333   */\n      dup2\n        /* \"#utility.yul\":6321:6333   */\n      swap1\n      pop\n        /* \"#utility.yul\":6264:6339   */\n      swap2\n      swap1\n      pop\n      jump\t// out\n        /* \"#utility.yul\":6345:6614   */\n    tag_67:\n        /* \"#utility.yul\":6455:6494   */\n      tag_149\n        /* \"#utility.yul\":6486:6493   */\n      dup4\n        /* \"#utility.yul\":6455:6494   */\n      tag_65\n      jump\t// in\n    tag_149:\n        /* \"#utility.yul\":6516:6607   */\n      tag_150\n        /* \"#utility.yul\":6565:6606   */\n      tag_151\n        /* \"#utility.yul\":6589:6605   */\n      dup3\n        /* \"#utility.yul\":6565:6606   */\n      tag_66\n      jump\t// in\n    tag_151:\n        /* \"#utility.yul\":6557:6563   */\n      dup5\n        /* \"#utility.yul\":6550:6554   */\n      dup5\n        /* \"#utility.yul\":6544:6555   */\n      sload\n        /* \"#utility.yul\":6516:6607   */\n      tag_63\n      jump\t// in\n    tag_150:\n        /* \"#utility.yul\":6510:6514   */\n      dup3\n        /* \"#utility.yul\":6503:6608   */\n      sstore\n        /* \"#utility.yul\":6421:6614   */\n      pop\n        /* \"#utility.yul\":6345:6614   */\n      pop\n      pop\n      pop\n      jump\t// out\n        /* \"#utility.yul\":6620:6693   */\n    tag_68:\n        /* \"#utility.yul\":6665:6668   */\n      0x00\n        /* \"#utility.yul\":6620:6693   */\n      swap1\n      jump\t// out\n        /* \"#utility.yul\":6699:6888   */\n    tag_69:\n        /* \"#utility.yul\":6776:6808   */\n      tag_154\n      tag_68\n      jump\t// in\n    tag_154:\n        /* \"#utility.yul\":6817:6882   */\n      tag_155\n        /* \"#utility.yul\":6875:6881   */\n      dup2\n        /* \"#utility.yul\":6867:6873   */\n      dup5\n        /* \"#utility.yul\":6861:6865   */\n      dup5\n        /* \"#utility.yul\":6817:6882   */\n      tag_67\n      jump\t// in\n    tag_155:\n        /* \"#utility.yul\":6752:6888   */\n      pop\n        /* \"#utility.yul\":6699:6888   */\n      pop\n      pop\n      jump\t// out\n        /* \"#utility.yul\":6894:7080   */\n    tag_70:\n        /* \"#utility.yul\":6954:7074   */\n    tag_157:\n        /* \"#utility.yul\":6971:6974   */\n      dup2\n        /* \"#utility.yul\":6964:6969   */\n      dup2\n        /* \"#utility.yul\":6961:6975   */\n      lt\n        /* \"#utility.yul\":6954:7074   */\n      iszero\n      tag_159\n      jumpi\n        /* \"#utility.yul\":7025:7064   */\n      tag_160\n        /* \"#utility.yul\":7062:7063   */\n      0x00\n        /* \"#utility.yul\":7055:7060   */\n      dup3\n        /* \"#utility.yul\":7025:7064   */\n      tag_69\n      jump\t// in\n    tag_160:\n        /* \"#utility.yul\":6998:6999   */\n      0x01\n        /* \"#utility.yul\":6991:6996   */\n      dup2\n        /* \"#utility.yul\":6987:7000   */\n      add\n        /* \"#utility.yul\":6978:7000   */\n      swap1\n      pop\n        /* \"#utility.yul\":6954:7074   */\n      jump(tag_157)\n    tag_159:\n        /* \"#utility.yul\":6894:7080   */\n      pop\n      pop\n      jump\t// out\n        /* \"#utility.yul\":7086:7629   */\n    tag_71:\n        /* \"#utility.yul\":7187:7189   */\n      0x1f\n        /* \"#utility.yul\":7182:7185   */\n      dup3\n        /* \"#utility.yul\":7179:7190   */\n      gt\n        /* \"#utility.yul\":7176:7622   */\n      iszero\n      tag_162\n      jumpi\n        /* \"#utility.yul\":7221:7259   */\n      tag_163\n        /* \"#utility.yul\":7253:7258   */\n      dup2\n        /* \"#utility.yul\":7221:7259   */\n      tag_60\n      jump\t// in\n    tag_163:\n        /* \"#utility.yul\":7305:7334   */\n      tag_164\n        /* \"#utility.yul\":7323:7333   */\n      dup5\n        /* \"#utility.yul\":7305:7334   */\n      tag_61\n      jump\t// in\n    tag_164:\n        /* \"#utility.yul\":7295:7303   */\n      dup2\n        /* \"#utility.yul\":7291:7335   */\n      add\n        /* \"#utility.yul\":7488:7490   */\n      0x20\n        /* \"#utility.yul\":7476:7486   */\n      dup6\n        /* \"#utility.yul\":7473:7491   */\n      lt\n        /* \"#utility.yul\":7470:7519   */\n      iszero\n      tag_165\n      jumpi\n        /* \"#utility.yul\":7509:7517   */\n      dup2\n        /* \"#utility.yul\":7494:7517   */\n      swap1\n      pop\n        /* \"#utility.yul\":7470:7519   */\n    tag_165:\n        /* \"#utility.yul\":7532:7612   */\n      tag_166\n        /* \"#utility.yul\":7588:7610   */\n      tag_167\n        /* \"#utility.yul\":7606:7609   */\n      dup6\n        /* \"#utility.yul\":7588:7610   */\n      tag_61\n      jump\t// in\n    tag_167:\n        /* \"#utility.yul\":7578:7586   */\n      dup4\n        /* \"#utility.yul\":7574:7611   */\n      add\n        /* \"#utility.yul\":7561:7572   */\n      dup3\n        /* \"#utility.yul\":7532:7612   */\n      tag_70\n      jump\t// in\n    tag_166:\n        /* \"#utility.yul\":7191:7622   */\n      pop\n      pop\n        /* \"#utility.yul\":7176:7622   */\n    tag_162:\n        /* \"#utility.yul\":7086:7629   */\n      pop\n      pop\n      pop\n      jump\t// out\n        /* \"#utility.yul\":7635:7752   */\n    tag_72:\n        /* \"#utility.yul\":7689:7697   */\n      0x00\n        /* \"#utility.yul\":7739:7744   */\n      dup3\n        /* \"#utility.yul\":7733:7737   */\n      dup3\n        /* \"#utility.yul\":7729:7745   */\n      shr\n        /* \"#utility.yul\":7708:7745   */\n      swap1\n      pop\n        /* \"#utility.yul\":7635:7752   */\n      swap3\n      swap2\n      pop\n      pop\n      jump\t// out\n        /* \"#utility.yul\":7758:7927   */\n    tag_73:\n        /* \"#utility.yul\":7802:7808   */\n      0x00\n        /* \"#utility.yul\":7835:7886   */\n      tag_170\n        /* \"#utility.yul\":7883:7884   */\n      0x00\n        /* \"#utility.yul\":7879:7885   */\n      not\n        /* \"#utility.yul\":7871:7876   */\n      dup5\n        /* \"#utility.yul\":7868:7869   */\n      0x08\n        /* \"#utility.yul\":7864:7877   */\n      mul\n        /* \"#utility.yul\":7835:7886   */\n      tag_72\n      jump\t// in\n    tag_170:\n        /* \"#utility.yul\":7831:7887   */\n      not\n        /* \"#utility.yul\":7916:7920   */\n      dup1\n        /* \"#utility.yul\":7910:7914   */\n      dup4\n        /* \"#utility.yul\":7906:7921   */\n      and\n        /* \"#utility.yul\":7896:7921   */\n      swap2\n      pop\n        /* \"#utility.yul\":7809:7927   */\n      pop\n        /* \"#utility.yul\":7758:7927   */\n      swap3\n      swap2\n      pop\n      pop\n      jump\t// out\n        /* \"#utility.yul\":7932:8227   */\n    tag_74:\n        /* \"#utility.yul\":8008:8012   */\n      0x00\n        /* \"#utility.yul\":8154:8183   */\n      tag_172\n        /* \"#utility.yul\":8179:8182   */\n      dup4\n        /* \"#utility.yul\":8173:8177   */\n      dup4\n        /* \"#utility.yul\":8154:8183   */\n      tag_73\n      jump\t// in\n    tag_172:\n        /* \"#utility.yul\":8146:8183   */\n      swap2\n      pop\n        /* \"#utility.yul\":8216:8219   */\n      dup3\n        /* \"#utility.yul\":8213:8214   */\n      0x02\n        /* \"#utility.yul\":8209:8220   */\n      mul\n        /* \"#utility.yul\":8203:8207   */\n      dup3\n        /* \"#utility.yul\":8200:8221   */\n      or\n        /* \"#utility.yul\":8192:8221   */\n      swap1\n      pop\n        /* \"#utility.yul\":7932:8227   */\n      swap3\n      swap2\n      pop\n      pop\n      jump\t// out\n        /* \"#utility.yul\":8232:9627   */\n    tag_26:\n        /* \"#utility.yul\":8349:8386   */\n      tag_174\n        /* \"#utility.yul\":8382:8385   */\n      dup3\n        /* \"#utility.yul\":8349:8386   */\n      tag_53\n      jump\t// in\n    tag_174:\n        /* \"#utility.yul\":8451:8469   */\n      0xffffffffffffffff\n        /* \"#utility.yul\":8443:8449   */\n      dup2\n        /* \"#utility.yul\":8440:8470   */\n      gt\n        /* \"#utility.yul\":8437:8493   */\n      iszero\n      tag_175\n      jumpi\n        /* \"#utility.yul\":8473:8491   */\n      tag_176\n      tag_46\n      jump\t// in\n    tag_176:\n        /* \"#utility.yul\":8437:8493   */\n    tag_175:\n        /* \"#utility.yul\":8517:8555   */\n      tag_177\n        /* \"#utility.yul\":8549:8553   */\n      dup3\n        /* \"#utility.yul\":8543:8554   */\n      sload\n        /* \"#utility.yul\":8517:8555   */\n      tag_30\n      jump\t// in\n    tag_177:\n        /* \"#utility.yul\":8602:8669   */\n      tag_178\n        /* \"#utility.yul\":8662:8668   */\n      dup3\n        /* \"#utility.yul\":8654:8660   */\n      dup3\n        /* \"#utility.yul\":8648:8652   */\n      dup6\n        /* \"#utility.yul\":8602:8669   */\n      tag_71\n      jump\t// in\n    tag_178:\n        /* \"#utility.yul\":8696:8697   */\n      0x00\n        /* \"#utility.yul\":8720:8724   */\n      0x20\n        /* \"#utility.yul\":8707:8724   */\n      swap1\n      pop\n        /* \"#utility.yul\":8752:8754   */\n      0x1f\n        /* \"#utility.yul\":8744:8750   */\n      dup4\n        /* \"#utility.yul\":8741:8755   */\n      gt\n        /* \"#utility.yul\":8769:8770   */\n      0x01\n        /* \"#utility.yul\":8764:9382   */\n      dup2\n      eq\n      tag_180\n      jumpi\n        /* \"#utility.yul\":9426:9427   */\n      0x00\n        /* \"#utility.yul\":9443:9449   */\n      dup5\n        /* \"#utility.yul\":9440:9517   */\n      iszero\n      tag_181\n      jumpi\n        /* \"#utility.yul\":9492:9501   */\n      dup3\n        /* \"#utility.yul\":9487:9490   */\n      dup8\n        /* \"#utility.yul\":9483:9502   */\n      add\n        /* \"#utility.yul\":9477:9503   */\n      mload\n        /* \"#utility.yul\":9468:9503   */\n      swap1\n      pop\n        /* \"#utility.yul\":9440:9517   */\n    tag_181:\n        /* \"#utility.yul\":9543:9610   */\n      tag_182\n        /* \"#utility.yul\":9603:9609   */\n      dup6\n        /* \"#utility.yul\":9596:9601   */\n      dup3\n        /* \"#utility.yul\":9543:9610   */\n      tag_74\n      jump\t// in\n    tag_182:\n        /* \"#utility.yul\":9537:9541   */\n      dup7\n        /* \"#utility.yul\":9530:9611   */\n      sstore\n        /* \"#utility.yul\":9399:9621   */\n      pop\n        /* \"#utility.yul\":8734:9621   */\n      jump(tag_179)\n        /* \"#utility.yul\":8764:9382   */\n    tag_180:\n        /* \"#utility.yul\":8816:8820   */\n      0x1f\n        /* \"#utility.yul\":8812:8821   */\n      not\n        /* \"#utility.yul\":8804:8810   */\n      dup5\n        /* \"#utility.yul\":8800:8822   */\n      and\n        /* \"#utility.yul\":8850:8887   */\n      tag_183\n        /* \"#utility.yul\":8882:8886   */\n      dup7\n        /* \"#utility.yul\":8850:8887   */\n      tag_60\n      jump\t// in\n    tag_183:\n        /* \"#utility.yul\":8909:8910   */\n      0x00\n        /* \"#utility.yul\":8923:9131   */\n    tag_184:\n        /* \"#utility.yul\":8937:8944   */\n      dup3\n        /* \"#utility.yul\":8934:8935   */\n      dup2\n        /* \"#utility.yul\":8931:8945   */\n      lt\n        /* \"#utility.yul\":8923:9131   */\n      iszero\n      tag_186\n      jumpi\n        /* \"#utility.yul\":9016:9025   */\n      dup5\n        /* \"#utility.yul\":9011:9014   */\n      dup10\n        /* \"#utility.yul\":9007:9026   */\n      add\n        /* \"#utility.yul\":9001:9027   */\n      mload\n        /* \"#utility.yul\":8993:8999   */\n      dup3\n        /* \"#utility.yul\":8986:9028   */\n      sstore\n        /* \"#utility.yul\":9067:9068   */\n      0x01\n        /* \"#utility.yul\":9059:9065   */\n      dup3\n        /* \"#utility.yul\":9055:9069   */\n      add\n        /* \"#utility.yul\":9045:9069   */\n      swap2\n      pop\n        /* \"#utility.yul\":9114:9116   */\n      0x20\n        /* \"#utility.yul\":9103:9112   */\n      dup6\n        /* \"#utility.yul\":9099:9117   */\n      add\n        /* \"#utility.yul\":9086:9117   */\n      swap5\n      pop\n        /* \"#utility.yul\":8960:8964   */\n      0x20\n        /* \"#utility.yul\":8957:8958   */\n      dup2\n        /* \"#utility.yul\":8953:8965   */\n      add\n        /* \"#utility.yul\":8948:8965   */\n      swap1\n      pop\n        /* \"#utility.yul\":8923:9131   */\n      jump(tag_184)\n    tag_186:\n        /* \"#utility.yul\":9159:9165   */\n      dup7\n        /* \"#utility.yul\":9150:9157   */\n      dup4\n        /* \"#utility.yul\":9147:9166   */\n      lt\n        /* \"#utility.yul\":9144:9323   */\n      iszero\n      tag_187\n      jumpi\n        /* \"#utility.yul\":9217:9226   */\n      dup5\n        /* \"#utility.yul\":9212:9215   */\n      dup10\n        /* \"#utility.yul\":9208:9227   */\n      add\n        /* \"#utility.yul\":9202:9228   */\n      mload\n        /* \"#utility.yul\":9260:9308   */\n      tag_188\n        /* \"#utility.yul\":9302:9306   */\n      0x1f\n        /* \"#utility.yul\":9294:9300   */\n      dup10\n        /* \"#utility.yul\":9290:9307   */\n      and\n        /* \"#utility.yul\":9279:9288   */\n      dup3\n        /* \"#utility.yul\":9260:9308   */\n      tag_73\n      jump\t// in\n    tag_188:\n        /* \"#utility.yul\":9252:9258   */\n      dup4\n        /* \"#utility.yul\":9245:9309   */\n      sstore\n        /* \"#utility.yul\":9167:9323   */\n      pop\n        /* \"#utility.yul\":9144:9323   */\n    tag_187:\n        /* \"#utility.yul\":9369:9370   */\n      0x01\n        /* \"#utility.yul\":9365:9366   */\n      0x02\n        /* \"#utility.yul\":9357:9363   */\n      dup9\n        /* \"#utility.yul\":9353:9367   */\n      mul\n        /* \"#utility.yul\":9349:9371   */\n      add\n        /* \"#utility.yul\":9343:9347   */\n      dup9\n        /* \"#utility.yul\":9336:9372   */\n      sstore\n        /* \"#utility.yul\":8771:9382   */\n      pop\n      pop\n      pop\n        /* \"#utility.yul\":8734:9621   */\n    tag_179:\n      pop\n        /* \"#utility.yul\":8324:9627   */\n      pop\n      pop\n      pop\n        /* \"#utility.yul\":8232:9627   */\n      pop\n      pop\n      jump\t// out\n        /* \"#utility.yul\":9633:9813   */\n    tag_75:\n        /* \"#utility.yul\":9681:9758   */\n      0x4e487b7100000000000000000000000000000000000000000000000000000000\n        /* \"#utility.yul\":9678:9679   */\n      0x00\n        /* \"#utility.yul\":9671:9759   */\n      mstore\n        /* \"#utility.yul\":9778:9782   */\n      0x11\n        /* \"#utility.yul\":9775:9776   */\n      0x04\n        /* \"#utility.yul\":9768:9783   */\n      mstore\n        /* \"#utility.yul\":9802:9806   */\n      0x24\n        /* \"#utility.yul\":9799:9800   */\n      0x00\n        /* \"#utility.yul\":9792:9807   */\n      revert\n        /* \"#utility.yul\":9819:10124   */\n    tag_28:\n        /* \"#utility.yul\":9859:9862   */\n      0x00\n        /* \"#utility.yul\":9878:9898   */\n      tag_191\n        /* \"#utility.yul\":9896:9897   */\n      dup3\n        /* \"#utility.yul\":9878:9898   */\n      tag_57\n      jump\t// in\n    tag_191:\n        /* \"#utility.yul\":9873:9898   */\n      swap2\n      pop\n        /* \"#utility.yul\":9912:9932   */\n      tag_192\n        /* \"#utility.yul\":9930:9931   */\n      dup4\n        /* \"#utility.yul\":9912:9932   */\n      tag_57\n      jump\t// in\n    tag_192:\n        /* \"#utility.yul\":9907:9932   */\n      swap3\n      pop\n        /* \"#utility.yul\":10066:10067   */\n      dup3\n        /* \"#utility.yul\":9998:10064   */\n      0xffffffffffffffffffffffffffffffffffffffffffffffffffffffffffffffff\n        /* \"#utility.yul\":9994:10068   */\n      sub\n        /* \"#utility.yul\":9991:9992   */\n      dup3\n        /* \"#utility.yul\":9988:10069   */\n      gt\n        /* \"#utility.yul\":9985:10092   */\n      iszero\n      tag_193\n      jumpi\n        /* \"#utility.yul\":10072:10090   */\n      tag_194\n      tag_75\n      jump\t// in\n    tag_194:\n        /* \"#utility.yul\":9985:10092   */\n    tag_193:\n        /* \"#utility.yul\":10116:10117   */\n      dup3\n        /* \"#utility.yul\":10113:10114   */\n      dup3\n        /* \"#utility.yul\":10109:10118   */\n      add\n        /* \"#utility.yul\":10102:10118   */\n      swap1\n      pop\n        /* \"#utility.yul\":9819:10124   */\n      swap3\n      swap2\n      pop\n      pop\n      jump\t// out\n        /* \"#utility.yul\":10130:10321   */\n    tag_39:\n        /* \"#utility.yul\":10170:10174   */\n      0x00\n        /* \"#utility.yul\":10190:10210   */\n      tag_196\n        /* \"#utility.yul\":10208:10209   */\n      dup3\n        /* \"#utility.yul\":10190:10210   */\n      tag_57\n      jump\t// in\n    tag_196:\n        /* \"#utility.yul\":10185:10210   */\n      swap2\n      pop\n        /* \"#utility.yul\":10224:10244   */\n      tag_197\n        /* \"#utility.yul\":10242:10243   */\n      dup4\n        /* \"#utility.yul\":10224:10244   */\n      tag_57\n      jump\t// in\n    tag_197:\n        /* \"#utility.yul\":10219:10244   */\n      swap3\n      pop\n        /* \"#utility.yul\":10263:10264   */\n      dup3\n        /* \"#utility.yul\":10260:10261   */\n      dup3\n        /* \"#utility.yul\":10257:10265   */\n      lt\n        /* \"#utility.yul\":10254:10288   */\n      iszero\n      tag_198\n      jumpi\n        /* \"#utility.yul\":10268:10286   */\n      tag_199\n      tag_75\n      jump\t// in\n    tag_199:\n        /* \"#utility.yul\":10254:10288   */\n    tag_198:\n        /* \"#utility.yul\":10313:10314   */\n      dup3\n        /* \"#utility.yul\":10310:10311   */\n      dup3\n        /* \"#utility.yul\":10306:10315   */\n      sub\n        /* \"#utility.yul\":10298:10315   */\n      swap1\n      pop\n        /* \"#utility.yul\":10130:10321   */\n      swap3\n      swap2\n      pop\n      pop\n      jump\t// out\n\n    auxdata: 0xa26469706673582212205cfe1ee9301b95a203ad08496bd088fe9c304740635f18afee8e2c38875ac57564736f6c634300080f0033\n}\n",
				"bytecode": {
					"linkReferences": {},
					"object": "60806040526040518060400160405280600b81526020017f48656c6c6f20576f726c64000000000000000000000000000000000000000000815250600090816200004a9190620002d9565b503480156200005857600080fd5b50620003c0565b600081519050919050565b7f4e487b7100000000000000000000000000000000000000000000000000000000600052604160045260246000fd5b7f4e487b7100000000000000000000000000000000000000000000000000000000600052602260045260246000fd5b60006002820490506001821680620000e157607f821691505b602082108103620000f757620000f662000099565b5b50919050565b60008190508160005260206000209050919050565b60006020601f8301049050919050565b600082821b905092915050565b600060088302620001617fffffffffffffffffffffffffffffffffffffffffffffffffffffffffffffffff8262000122565b6200016d868362000122565b95508019841693508086168417925050509392505050565b6000819050919050565b6000819050919050565b6000620001ba620001b4620001ae8462000185565b6200018f565b62000185565b9050919050565b6000819050919050565b620001d68362000199565b620001ee620001e582620001c1565b8484546200012f565b825550505050565b600090565b62000205620001f6565b62000212818484620001cb565b505050565b5b818110156200023a576200022e600082620001fb565b60018101905062000218565b5050565b601f82111562000289576200025381620000fd565b6200025e8462000112565b810160208510156200026e578190505b620002866200027d8562000112565b83018262000217565b50505b505050565b600082821c905092915050565b6000620002ae600019846008026200028e565b1980831691505092915050565b6000620002c983836200029b565b9150826002028217905092915050565b620002e4826200005f565b67ffffffffffffffff8111156200030057620002ff6200006a565b5b6200030c8254620000c8565b620003198282856200023e565b600060209050601f8311600181146200035157600084156200033c578287015190505b620003488582620002bb565b865550620003b8565b601f1984166200036186620000fd565b60005b828110156200038b5784890151825560018201915060208501945060208101905062000364565b86831015620003ab5784890151620003a7601f8916826200029b565b8355505b6001600288020188555050505b505050505050565b6108b480620003d06000396000f3fe60806040526004361061003f5760003560e01c80631d51057c14610044578063492bfa181461006057806352a90c421461008b578063be363e36146100b6575b600080fd5b61005e600480360381019061005991906103c0565b6100cd565b005b34801561006c57600080fd5b5061007561014a565b6040516100829190610491565b60405180910390f35b34801561009757600080fd5b506100a06101d8565b6040516100ad91906104cc565b60405180910390f35b3480156100c257600080fd5b506100cb6101de565b005b670de0b6b3a764000034036100ed5780600090816100eb91906106f3565b505b34600160008282546100ff91906107f4565b9250508190555033600260006101000a81548173ffffffffffffffffffffffffffffffffffffffff021916908373ffffffffffffffffffffffffffffffffffffffff16021790555050565b6000805461015790610516565b80601f016020809104026020016040519081016040528092919081815260200182805461018390610516565b80156101d05780601f106101a5576101008083540402835291602001916101d0565b820191906000526020600020905b8154815290600101906020018083116101b357829003601f168201915b505050505081565b60015481565b600260009054906101000a900473ffffffffffffffffffffffffffffffffffffffff1673ffffffffffffffffffffffffffffffffffffffff166108fc6001549081150290604051600060405180830381858888f19350505050158015610248573d6000803e3d6000fd5b506001546001600082825461025d919061084a565b92505081905550565b6000604051905090565b600080fd5b600080fd5b600080fd5b600080fd5b6000601f19601f8301169050919050565b7f4e487b7100000000000000000000000000000000000000000000000000000000600052604160045260246000fd5b6102cd82610284565b810181811067ffffffffffffffff821117156102ec576102eb610295565b5b80604052505050565b60006102ff610266565b905061030b82826102c4565b919050565b600067ffffffffffffffff82111561032b5761032a610295565b5b61033482610284565b9050602081019050919050565b82818337600083830152505050565b600061036361035e84610310565b6102f5565b90508281526020810184848401111561037f5761037e61027f565b5b61038a848285610341565b509392505050565b600082601f8301126103a7576103a661027a565b5b81356103b7848260208601610350565b91505092915050565b6000602082840312156103d6576103d5610270565b5b600082013567ffffffffffffffff8111156103f4576103f3610275565b5b61040084828501610392565b91505092915050565b600081519050919050565b600082825260208201905092915050565b60005b83811015610443578082015181840152602081019050610428565b83811115610452576000848401525b50505050565b600061046382610409565b61046d8185610414565b935061047d818560208601610425565b61048681610284565b840191505092915050565b600060208201905081810360008301526104ab8184610458565b905092915050565b6000819050919050565b6104c6816104b3565b82525050565b60006020820190506104e160008301846104bd565b92915050565b7f4e487b7100000000000000000000000000000000000000000000000000000000600052602260045260246000fd5b6000600282049050600182168061052e57607f821691505b602082108103610541576105406104e7565b5b50919050565b60008190508160005260206000209050919050565b60006020601f8301049050919050565b600082821b905092915050565b6000600883026105a97fffffffffffffffffffffffffffffffffffffffffffffffffffffffffffffffff8261056c565b6105b3868361056c565b95508019841693508086168417925050509392505050565b6000819050919050565b60006105f06105eb6105e6846104b3565b6105cb565b6104b3565b9050919050565b6000819050919050565b61060a836105d5565b61061e610616826105f7565b848454610579565b825550505050565b600090565b610633610626565b61063e818484610601565b505050565b5b818110156106625761065760008261062b565b600181019050610644565b5050565b601f8211156106a75761067881610547565b6106818461055c565b81016020851015610690578190505b6106a461069c8561055c565b830182610643565b50505b505050565b600082821c905092915050565b60006106ca600019846008026106ac565b1980831691505092915050565b60006106e383836106b9565b9150826002028217905092915050565b6106fc82610409565b67ffffffffffffffff81111561071557610714610295565b5b61071f8254610516565b61072a828285610666565b600060209050601f83116001811461075d576000841561074b578287015190505b61075585826106d7565b8655506107bd565b601f19841661076b86610547565b60005b828110156107935784890151825560018201915060208501945060208101905061076e565b868310156107b057848901516107ac601f8916826106b9565b8355505b6001600288020188555050505b505050505050565b7f4e487b7100000000000000000000000000000000000000000000000000000000600052601160045260246000fd5b60006107ff826104b3565b915061080a836104b3565b9250827fffffffffffffffffffffffffffffffffffffffffffffffffffffffffffffffff0382111561083f5761083e6107c5565b5b828201905092915050565b6000610855826104b3565b9150610860836104b3565b925082821015610873576108726107c5565b5b82820390509291505056fea26469706673582212205cfe1ee9301b95a203ad08496bd088fe9c304740635f18afee8e2c38875ac57564736f6c634300080f0033",
					"opcodes": "PUSH1 0x80 PUSH1 0x40 MSTORE PUSH1 0x40 MLOAD DUP1 PUSH1 0x40 ADD PUSH1 0x40 MSTORE DUP1 PUSH1 0xB DUP2 MSTORE PUSH1 0x20 ADD PUSH32 0x48656C6C6F20576F726C64000000000000000000000000000000000000000000 DUP2 MSTORE POP PUSH1 0x0 SWAP1 DUP2 PUSH3 0x4A SWAP2 SWAP1 PUSH3 0x2D9 JUMP JUMPDEST POP CALLVALUE DUP1 ISZERO PUSH3 0x58 JUMPI PUSH1 0x0 DUP1 REVERT JUMPDEST POP PUSH3 0x3C0 JUMP JUMPDEST PUSH1 0x0 DUP2 MLOAD SWAP1 POP SWAP2 SWAP1 POP JUMP JUMPDEST PUSH32 0x4E487B7100000000000000000000000000000000000000000000000000000000 PUSH1 0x0 MSTORE PUSH1 0x41 PUSH1 0x4 MSTORE PUSH1 0x24 PUSH1 0x0 REVERT JUMPDEST PUSH32 0x4E487B7100000000000000000000000000000000000000000000000000000000 PUSH1 0x0 MSTORE PUSH1 0x22 PUSH1 0x4 MSTORE PUSH1 0x24 PUSH1 0x0 REVERT JUMPDEST PUSH1 0x0 PUSH1 0x2 DUP3 DIV SWAP1 POP PUSH1 0x1 DUP3 AND DUP1 PUSH3 0xE1 JUMPI PUSH1 0x7F DUP3 AND SWAP2 POP JUMPDEST PUSH1 0x20 DUP3 LT DUP2 SUB PUSH3 0xF7 JUMPI PUSH3 0xF6 PUSH3 0x99 JUMP JUMPDEST JUMPDEST POP SWAP2 SWAP1 POP JUMP JUMPDEST PUSH1 0x0 DUP2 SWAP1 POP DUP2 PUSH1 0x0 MSTORE PUSH1 0x20 PUSH1 0x0 KECCAK256 SWAP1 POP SWAP2 SWAP1 POP JUMP JUMPDEST PUSH1 0x0 PUSH1 0x20 PUSH1 0x1F DUP4 ADD DIV SWAP1 POP SWAP2 SWAP1 POP JUMP JUMPDEST PUSH1 0x0 DUP3 DUP3 SHL SWAP1 POP SWAP3 SWAP2 POP POP JUMP JUMPDEST PUSH1 0x0 PUSH1 0x8 DUP4 MUL PUSH3 0x161 PUSH32 0xFFFFFFFFFFFFFFFFFFFFFFFFFFFFFFFFFFFFFFFFFFFFFFFFFFFFFFFFFFFFFFFF DUP3 PUSH3 0x122 JUMP JUMPDEST PUSH3 0x16D DUP7 DUP4 PUSH3 0x122 JUMP JUMPDEST SWAP6 POP DUP1 NOT DUP5 AND SWAP4 POP DUP1 DUP7 AND DUP5 OR SWAP3 POP POP POP SWAP4 SWAP3 POP POP POP JUMP JUMPDEST PUSH1 0x0 DUP2 SWAP1 POP SWAP2 SWAP1 POP JUMP JUMPDEST PUSH1 0x0 DUP2 SWAP1 POP SWAP2 SWAP1 POP JUMP JUMPDEST PUSH1 0x0 PUSH3 0x1BA PUSH3 0x1B4 PUSH3 0x1AE DUP5 PUSH3 0x185 JUMP JUMPDEST PUSH3 0x18F JUMP JUMPDEST PUSH3 0x185 JUMP JUMPDEST SWAP1 POP SWAP2 SWAP1 POP JUMP JUMPDEST PUSH1 0x0 DUP2 SWAP1 POP SWAP2 SWAP1 POP JUMP JUMPDEST PUSH3 0x1D6 DUP4 PUSH3 0x199 JUMP JUMPDEST PUSH3 0x1EE PUSH3 0x1E5 DUP3 PUSH3 0x1C1 JUMP JUMPDEST DUP5 DUP5 SLOAD PUSH3 0x12F JUMP JUMPDEST DUP3 SSTORE POP POP POP POP JUMP JUMPDEST PUSH1 0x0 SWAP1 JUMP JUMPDEST PUSH3 0x205 PUSH3 0x1F6 JUMP JUMPDEST PUSH3 0x212 DUP2 DUP5 DUP5 PUSH3 0x1CB JUMP JUMPDEST POP POP POP JUMP JUMPDEST JUMPDEST DUP2 DUP2 LT ISZERO PUSH3 0x23A JUMPI PUSH3 0x22E PUSH1 0x0 DUP3 PUSH3 0x1FB JUMP JUMPDEST PUSH1 0x1 DUP2 ADD SWAP1 POP PUSH3 0x218 JUMP JUMPDEST POP POP JUMP JUMPDEST PUSH1 0x1F DUP3 GT ISZERO PUSH3 0x289 JUMPI PUSH3 0x253 DUP2 PUSH3 0xFD JUMP JUMPDEST PUSH3 0x25E DUP5 PUSH3 0x112 JUMP JUMPDEST DUP2 ADD PUSH1 0x20 DUP6 LT ISZERO PUSH3 0x26E JUMPI DUP2 SWAP1 POP JUMPDEST PUSH3 0x286 PUSH3 0x27D DUP6 PUSH3 0x112 JUMP JUMPDEST DUP4 ADD DUP3 PUSH3 0x217 JUMP JUMPDEST POP POP JUMPDEST POP POP POP JUMP JUMPDEST PUSH1 0x0 DUP3 DUP3 SHR SWAP1 POP SWAP3 SWAP2 POP POP JUMP JUMPDEST PUSH1 0x0 PUSH3 0x2AE PUSH1 0x0 NOT DUP5 PUSH1 0x8 MUL PUSH3 0x28E JUMP JUMPDEST NOT DUP1 DUP4 AND SWAP2 POP POP SWAP3 SWAP2 POP POP JUMP JUMPDEST PUSH1 0x0 PUSH3 0x2C9 DUP4 DUP4 PUSH3 0x29B JUMP JUMPDEST SWAP2 POP DUP3 PUSH1 0x2 MUL DUP3 OR SWAP1 POP SWAP3 SWAP2 POP POP JUMP JUMPDEST PUSH3 0x2E4 DUP3 PUSH3 0x5F JUMP JUMPDEST PUSH8 0xFFFFFFFFFFFFFFFF DUP2 GT ISZERO PUSH3 0x300 JUMPI PUSH3 0x2FF PUSH3 0x6A JUMP JUMPDEST JUMPDEST PUSH3 0x30C DUP3 SLOAD PUSH3 0xC8 JUMP JUMPDEST PUSH3 0x319 DUP3 DUP3 DUP6 PUSH3 0x23E JUMP JUMPDEST PUSH1 0x0 PUSH1 0x20 SWAP1 POP PUSH1 0x1F DUP4 GT PUSH1 0x1 DUP2 EQ PUSH3 0x351 JUMPI PUSH1 0x0 DUP5 ISZERO PUSH3 0x33C JUMPI DUP3 DUP8 ADD MLOAD SWAP1 POP JUMPDEST PUSH3 0x348 DUP6 DUP3 PUSH3 0x2BB JUMP JUMPDEST DUP7 SSTORE POP PUSH3 0x3B8 JUMP JUMPDEST PUSH1 0x1F NOT DUP5 AND PUSH3 0x361 DUP7 PUSH3 0xFD JUMP JUMPDEST PUSH1 0x0 JUMPDEST DUP3 DUP2 LT ISZERO PUSH3 0x38B JUMPI DUP5 DUP10 ADD MLOAD DUP3 SSTORE PUSH1 0x1 DUP3 ADD SWAP2 POP PUSH1 0x20 DUP6 ADD SWAP5 POP PUSH1 0x20 DUP2 ADD SWAP1 POP PUSH3 0x364 JUMP JUMPDEST DUP7 DUP4 LT ISZERO PUSH3 0x3AB JUMPI DUP5 DUP10 ADD MLOAD PUSH3 0x3A7 PUSH1 0x1F DUP10 AND DUP3 PUSH3 0x29B JUMP JUMPDEST DUP4 SSTORE POP JUMPDEST PUSH1 0x1 PUSH1 0x2 DUP9 MUL ADD DUP9 SSTORE POP POP POP JUMPDEST POP POP POP POP POP POP JUMP JUMPDEST PUSH2 0x8B4 DUP1 PUSH3 0x3D0 PUSH1 0x0 CODECOPY PUSH1 0x0 RETURN INVALID PUSH1 0x80 PUSH1 0x40 MSTORE PUSH1 0x4 CALLDATASIZE LT PUSH2 0x3F JUMPI PUSH1 0x0 CALLDATALOAD PUSH1 0xE0 SHR DUP1 PUSH4 0x1D51057C EQ PUSH2 0x44 JUMPI DUP1 PUSH4 0x492BFA18 EQ PUSH2 0x60 JUMPI DUP1 PUSH4 0x52A90C42 EQ PUSH2 0x8B JUMPI DUP1 PUSH4 0xBE363E36 EQ PUSH2 0xB6 JUMPI JUMPDEST PUSH1 0x0 DUP1 REVERT JUMPDEST PUSH2 0x5E PUSH1 0x4 DUP1 CALLDATASIZE SUB DUP2 ADD SWAP1 PUSH2 0x59 SWAP2 SWAP1 PUSH2 0x3C0 JUMP JUMPDEST PUSH2 0xCD JUMP JUMPDEST STOP JUMPDEST CALLVALUE DUP1 ISZERO PUSH2 0x6C JUMPI PUSH1 0x0 DUP1 REVERT JUMPDEST POP PUSH2 0x75 PUSH2 0x14A JUMP JUMPDEST PUSH1 0x40 MLOAD PUSH2 0x82 SWAP2 SWAP1 PUSH2 0x491 JUMP JUMPDEST PUSH1 0x40 MLOAD DUP1 SWAP2 SUB SWAP1 RETURN JUMPDEST CALLVALUE DUP1 ISZERO PUSH2 0x97 JUMPI PUSH1 0x0 DUP1 REVERT JUMPDEST POP PUSH2 0xA0 PUSH2 0x1D8 JUMP JUMPDEST PUSH1 0x40 MLOAD PUSH2 0xAD SWAP2 SWAP1 PUSH2 0x4CC JUMP JUMPDEST PUSH1 0x40 MLOAD DUP1 SWAP2 SUB SWAP1 RETURN JUMPDEST CALLVALUE DUP1 ISZERO PUSH2 0xC2 JUMPI PUSH1 0x0 DUP1 REVERT JUMPDEST POP PUSH2 0xCB PUSH2 0x1DE JUMP JUMPDEST STOP JUMPDEST PUSH8 0xDE0B6B3A7640000 CALLVALUE SUB PUSH2 0xED JUMPI DUP1 PUSH1 0x0 SWAP1 DUP2 PUSH2 0xEB SWAP2 SWAP1 PUSH2 0x6F3 JUMP JUMPDEST POP JUMPDEST CALLVALUE PUSH1 0x1 PUSH1 0x0 DUP3 DUP3 SLOAD PUSH2 0xFF SWAP2 SWAP1 PUSH2 0x7F4 JUMP JUMPDEST SWAP3 POP POP DUP2 SWAP1 SSTORE POP CALLER PUSH1 0x2 PUSH1 0x0 PUSH2 0x100 EXP DUP2 SLOAD DUP2 PUSH20 0xFFFFFFFFFFFFFFFFFFFFFFFFFFFFFFFFFFFFFFFF MUL NOT AND SWAP1 DUP4 PUSH20 0xFFFFFFFFFFFFFFFFFFFFFFFFFFFFFFFFFFFFFFFF AND MUL OR SWAP1 SSTORE POP POP JUMP JUMPDEST PUSH1 0x0 DUP1 SLOAD PUSH2 0x157 SWAP1 PUSH2 0x516 JUMP JUMPDEST DUP1 PUSH1 0x1F ADD PUSH1 0x20 DUP1 SWAP2 DIV MUL PUSH1 0x20 ADD PUSH1 0x40 MLOAD SWAP1 DUP2 ADD PUSH1 0x40 MSTORE DUP1 SWAP3 SWAP2 SWAP1 DUP2 DUP2 MSTORE PUSH1 0x20 ADD DUP3 DUP1 SLOAD PUSH2 0x183 SWAP1 PUSH2 0x516 JUMP JUMPDEST DUP1 ISZERO PUSH2 0x1D0 JUMPI DUP1 PUSH1 0x1F LT PUSH2 0x1A5 JUMPI PUSH2 0x100 DUP1 DUP4 SLOAD DIV MUL DUP4 MSTORE SWAP2 PUSH1 0x20 ADD SWAP2 PUSH2 0x1D0 JUMP JUMPDEST DUP3 ADD SWAP2 SWAP1 PUSH1 0x0 MSTORE PUSH1 0x20 PUSH1 0x0 KECCAK256 SWAP1 JUMPDEST DUP2 SLOAD DUP2 MSTORE SWAP1 PUSH1 0x1 ADD SWAP1 PUSH1 0x20 ADD DUP1 DUP4 GT PUSH2 0x1B3 JUMPI DUP3 SWAP1 SUB PUSH1 0x1F AND DUP3 ADD SWAP2 JUMPDEST POP POP POP POP POP DUP2 JUMP JUMPDEST PUSH1 0x1 SLOAD DUP2 JUMP JUMPDEST PUSH1 0x2 PUSH1 0x0 SWAP1 SLOAD SWAP1 PUSH2 0x100 EXP SWAP1 DIV PUSH20 0xFFFFFFFFFFFFFFFFFFFFFFFFFFFFFFFFFFFFFFFF AND PUSH20 0xFFFFFFFFFFFFFFFFFFFFFFFFFFFFFFFFFFFFFFFF AND PUSH2 0x8FC PUSH1 0x1 SLOAD SWAP1 DUP2 ISZERO MUL SWAP1 PUSH1 0x40 MLOAD PUSH1 0x0 PUSH1 0x40 MLOAD DUP1 DUP4 SUB DUP2 DUP6 DUP9 DUP9 CALL SWAP4 POP POP POP POP ISZERO DUP1 ISZERO PUSH2 0x248 JUMPI RETURNDATASIZE PUSH1 0x0 DUP1 RETURNDATACOPY RETURNDATASIZE PUSH1 0x0 REVERT JUMPDEST POP PUSH1 0x1 SLOAD PUSH1 0x1 PUSH1 0x0 DUP3 DUP3 SLOAD PUSH2 0x25D SWAP2 SWAP1 PUSH2 0x84A JUMP JUMPDEST SWAP3 POP POP DUP2 SWAP1 SSTORE POP JUMP JUMPDEST PUSH1 0x0 PUSH1 0x40 MLOAD SWAP1 POP SWAP1 JUMP JUMPDEST PUSH1 0x0 DUP1 REVERT JUMPDEST PUSH1 0x0 DUP1 REVERT JUMPDEST PUSH1 0x0 DUP1 REVERT JUMPDEST PUSH1 0x0 DUP1 REVERT JUMPDEST PUSH1 0x0 PUSH1 0x1F NOT PUSH1 0x1F DUP4 ADD AND SWAP1 POP SWAP2 SWAP1 POP JUMP JUMPDEST PUSH32 0x4E487B7100000000000000000000000000000000000000000000000000000000 PUSH1 0x0 MSTORE PUSH1 0x41 PUSH1 0x4 MSTORE PUSH1 0x24 PUSH1 0x0 REVERT JUMPDEST PUSH2 0x2CD DUP3 PUSH2 0x284 JUMP JUMPDEST DUP2 ADD DUP2 DUP2 LT PUSH8 0xFFFFFFFFFFFFFFFF DUP3 GT OR ISZERO PUSH2 0x2EC JUMPI PUSH2 0x2EB PUSH2 0x295 JUMP JUMPDEST JUMPDEST DUP1 PUSH1 0x40 MSTORE POP POP POP JUMP JUMPDEST PUSH1 0x0 PUSH2 0x2FF PUSH2 0x266 JUMP JUMPDEST SWAP1 POP PUSH2 0x30B DUP3 DUP3 PUSH2 0x2C4 JUMP JUMPDEST SWAP2 SWAP1 POP JUMP JUMPDEST PUSH1 0x0 PUSH8 0xFFFFFFFFFFFFFFFF DUP3 GT ISZERO PUSH2 0x32B JUMPI PUSH2 0x32A PUSH2 0x295 JUMP JUMPDEST JUMPDEST PUSH2 0x334 DUP3 PUSH2 0x284 JUMP JUMPDEST SWAP1 POP PUSH1 0x20 DUP2 ADD SWAP1 POP SWAP2 SWAP1 POP JUMP JUMPDEST DUP3 DUP2 DUP4 CALLDATACOPY PUSH1 0x0 DUP4 DUP4 ADD MSTORE POP POP POP JUMP JUMPDEST PUSH1 0x0 PUSH2 0x363 PUSH2 0x35E DUP5 PUSH2 0x310 JUMP JUMPDEST PUSH2 0x2F5 JUMP JUMPDEST SWAP1 POP DUP3 DUP2 MSTORE PUSH1 0x20 DUP2 ADD DUP5 DUP5 DUP5 ADD GT ISZERO PUSH2 0x37F JUMPI PUSH2 0x37E PUSH2 0x27F JUMP JUMPDEST JUMPDEST PUSH2 0x38A DUP5 DUP3 DUP6 PUSH2 0x341 JUMP JUMPDEST POP SWAP4 SWAP3 POP POP POP JUMP JUMPDEST PUSH1 0x0 DUP3 PUSH1 0x1F DUP4 ADD SLT PUSH2 0x3A7 JUMPI PUSH2 0x3A6 PUSH2 0x27A JUMP JUMPDEST JUMPDEST DUP2 CALLDATALOAD PUSH2 0x3B7 DUP5 DUP3 PUSH1 0x20 DUP7 ADD PUSH2 0x350 JUMP JUMPDEST SWAP2 POP POP SWAP3 SWAP2 POP POP JUMP JUMPDEST PUSH1 0x0 PUSH1 0x20 DUP3 DUP5 SUB SLT ISZERO PUSH2 0x3D6 JUMPI PUSH2 0x3D5 PUSH2 0x270 JUMP JUMPDEST JUMPDEST PUSH1 0x0 DUP3 ADD CALLDATALOAD PUSH8 0xFFFFFFFFFFFFFFFF DUP2 GT ISZERO PUSH2 0x3F4 JUMPI PUSH2 0x3F3 PUSH2 0x275 JUMP JUMPDEST JUMPDEST PUSH2 0x400 DUP5 DUP3 DUP6 ADD PUSH2 0x392 JUMP JUMPDEST SWAP2 POP POP SWAP3 SWAP2 POP POP JUMP JUMPDEST PUSH1 0x0 DUP2 MLOAD SWAP1 POP SWAP2 SWAP1 POP JUMP JUMPDEST PUSH1 0x0 DUP3 DUP3 MSTORE PUSH1 0x20 DUP3 ADD SWAP1 POP SWAP3 SWAP2 POP POP JUMP JUMPDEST PUSH1 0x0 JUMPDEST DUP4 DUP2 LT ISZERO PUSH2 0x443 JUMPI DUP1 DUP3 ADD MLOAD DUP2 DUP5 ADD MSTORE PUSH1 0x20 DUP2 ADD SWAP1 POP PUSH2 0x428 JUMP JUMPDEST DUP4 DUP2 GT ISZERO PUSH2 0x452 JUMPI PUSH1 0x0 DUP5 DUP5 ADD MSTORE JUMPDEST POP POP POP POP JUMP JUMPDEST PUSH1 0x0 PUSH2 0x463 DUP3 PUSH2 0x409 JUMP JUMPDEST PUSH2 0x46D DUP2 DUP6 PUSH2 0x414 JUMP JUMPDEST SWAP4 POP PUSH2 0x47D DUP2 DUP6 PUSH1 0x20 DUP7 ADD PUSH2 0x425 JUMP JUMPDEST PUSH2 0x486 DUP2 PUSH2 0x284 JUMP JUMPDEST DUP5 ADD SWAP2 POP POP SWAP3 SWAP2 POP POP JUMP JUMPDEST PUSH1 0x0 PUSH1 0x20 DUP3 ADD SWAP1 POP DUP2 DUP2 SUB PUSH1 0x0 DUP4 ADD MSTORE PUSH2 0x4AB DUP2 DUP5 PUSH2 0x458 JUMP JUMPDEST SWAP1 POP SWAP3 SWAP2 POP POP JUMP JUMPDEST PUSH1 0x0 DUP2 SWAP1 POP SWAP2 SWAP1 POP JUMP JUMPDEST PUSH2 0x4C6 DUP2 PUSH2 0x4B3 JUMP JUMPDEST DUP3 MSTORE POP POP JUMP JUMPDEST PUSH1 0x0 PUSH1 0x20 DUP3 ADD SWAP1 POP PUSH2 0x4E1 PUSH1 0x0 DUP4 ADD DUP5 PUSH2 0x4BD JUMP JUMPDEST SWAP3 SWAP2 POP POP JUMP JUMPDEST PUSH32 0x4E487B7100000000000000000000000000000000000000000000000000000000 PUSH1 0x0 MSTORE PUSH1 0x22 PUSH1 0x4 MSTORE PUSH1 0x24 PUSH1 0x0 REVERT JUMPDEST PUSH1 0x0 PUSH1 0x2 DUP3 DIV SWAP1 POP PUSH1 0x1 DUP3 AND DUP1 PUSH2 0x52E JUMPI PUSH1 0x7F DUP3 AND SWAP2 POP JUMPDEST PUSH1 0x20 DUP3 LT DUP2 SUB PUSH2 0x541 JUMPI PUSH2 0x540 PUSH2 0x4E7 JUMP JUMPDEST JUMPDEST POP SWAP2 SWAP1 POP JUMP JUMPDEST PUSH1 0x0 DUP2 SWAP1 POP DUP2 PUSH1 0x0 MSTORE PUSH1 0x20 PUSH1 0x0 KECCAK256 SWAP1 POP SWAP2 SWAP1 POP JUMP JUMPDEST PUSH1 0x0 PUSH1 0x20 PUSH1 0x1F DUP4 ADD DIV SWAP1 POP SWAP2 SWAP1 POP JUMP JUMPDEST PUSH1 0x0 DUP3 DUP3 SHL SWAP1 POP SWAP3 SWAP2 POP POP JUMP JUMPDEST PUSH1 0x0 PUSH1 0x8 DUP4 MUL PUSH2 0x5A9 PUSH32 0xFFFFFFFFFFFFFFFFFFFFFFFFFFFFFFFFFFFFFFFFFFFFFFFFFFFFFFFFFFFFFFFF DUP3 PUSH2 0x56C JUMP JUMPDEST PUSH2 0x5B3 DUP7 DUP4 PUSH2 0x56C JUMP JUMPDEST SWAP6 POP DUP1 NOT DUP5 AND SWAP4 POP DUP1 DUP7 AND DUP5 OR SWAP3 POP POP POP SWAP4 SWAP3 POP POP POP JUMP JUMPDEST PUSH1 0x0 DUP2 SWAP1 POP SWAP2 SWAP1 POP JUMP JUMPDEST PUSH1 0x0 PUSH2 0x5F0 PUSH2 0x5EB PUSH2 0x5E6 DUP5 PUSH2 0x4B3 JUMP JUMPDEST PUSH2 0x5CB JUMP JUMPDEST PUSH2 0x4B3 JUMP JUMPDEST SWAP1 POP SWAP2 SWAP1 POP JUMP JUMPDEST PUSH1 0x0 DUP2 SWAP1 POP SWAP2 SWAP1 POP JUMP JUMPDEST PUSH2 0x60A DUP4 PUSH2 0x5D5 JUMP JUMPDEST PUSH2 0x61E PUSH2 0x616 DUP3 PUSH2 0x5F7 JUMP JUMPDEST DUP5 DUP5 SLOAD PUSH2 0x579 JUMP JUMPDEST DUP3 SSTORE POP POP POP POP JUMP JUMPDEST PUSH1 0x0 SWAP1 JUMP JUMPDEST PUSH2 0x633 PUSH2 0x626 JUMP JUMPDEST PUSH2 0x63E DUP2 DUP5 DUP5 PUSH2 0x601 JUMP JUMPDEST POP POP POP JUMP JUMPDEST JUMPDEST DUP2 DUP2 LT ISZERO PUSH2 0x662 JUMPI PUSH2 0x657 PUSH1 0x0 DUP3 PUSH2 0x62B JUMP JUMPDEST PUSH1 0x1 DUP2 ADD SWAP1 POP PUSH2 0x644 JUMP JUMPDEST POP POP JUMP JUMPDEST PUSH1 0x1F DUP3 GT ISZERO PUSH2 0x6A7 JUMPI PUSH2 0x678 DUP2 PUSH2 0x547 JUMP JUMPDEST PUSH2 0x681 DUP5 PUSH2 0x55C JUMP JUMPDEST DUP2 ADD PUSH1 0x20 DUP6 LT ISZERO PUSH2 0x690 JUMPI DUP2 SWAP1 POP JUMPDEST PUSH2 0x6A4 PUSH2 0x69C DUP6 PUSH2 0x55C JUMP JUMPDEST DUP4 ADD DUP3 PUSH2 0x643 JUMP JUMPDEST POP POP JUMPDEST POP POP POP JUMP JUMPDEST PUSH1 0x0 DUP3 DUP3 SHR SWAP1 POP SWAP3 SWAP2 POP POP JUMP JUMPDEST PUSH1 0x0 PUSH2 0x6CA PUSH1 0x0 NOT DUP5 PUSH1 0x8 MUL PUSH2 0x6AC JUMP JUMPDEST NOT DUP1 DUP4 AND SWAP2 POP POP SWAP3 SWAP2 POP POP JUMP JUMPDEST PUSH1 0x0 PUSH2 0x6E3 DUP4 DUP4 PUSH2 0x6B9 JUMP JUMPDEST SWAP2 POP DUP3 PUSH1 0x2 MUL DUP3 OR SWAP1 POP SWAP3 SWAP2 POP POP JUMP JUMPDEST PUSH2 0x6FC DUP3 PUSH2 0x409 JUMP JUMPDEST PUSH8 0xFFFFFFFFFFFFFFFF DUP2 GT ISZERO PUSH2 0x715 JUMPI PUSH2 0x714 PUSH2 0x295 JUMP JUMPDEST JUMPDEST PUSH2 0x71F DUP3 SLOAD PUSH2 0x516 JUMP JUMPDEST PUSH2 0x72A DUP3 DUP3 DUP6 PUSH2 0x666 JUMP JUMPDEST PUSH1 0x0 PUSH1 0x20 SWAP1 POP PUSH1 0x1F DUP4 GT PUSH1 0x1 DUP2 EQ PUSH2 0x75D JUMPI PUSH1 0x0 DUP5 ISZERO PUSH2 0x74B JUMPI DUP3 DUP8 ADD MLOAD SWAP1 POP JUMPDEST PUSH2 0x755 DUP6 DUP3 PUSH2 0x6D7 JUMP JUMPDEST DUP7 SSTORE POP PUSH2 0x7BD JUMP JUMPDEST PUSH1 0x1F NOT DUP5 AND PUSH2 0x76B DUP7 PUSH2 0x547 JUMP JUMPDEST PUSH1 0x0 JUMPDEST DUP3 DUP2 LT ISZERO PUSH2 0x793 JUMPI DUP5 DUP10 ADD MLOAD DUP3 SSTORE PUSH1 0x1 DUP3 ADD SWAP2 POP PUSH1 0x20 DUP6 ADD SWAP5 POP PUSH1 0x20 DUP2 ADD SWAP1 POP PUSH2 0x76E JUMP JUMPDEST DUP7 DUP4 LT ISZERO PUSH2 0x7B0 JUMPI DUP5 DUP10 ADD MLOAD PUSH2 0x7AC PUSH1 0x1F DUP10 AND DUP3 PUSH2 0x6B9 JUMP JUMPDEST DUP4 SSTORE POP JUMPDEST PUSH1 0x1 PUSH1 0x2 DUP9 MUL ADD DUP9 SSTORE POP POP POP JUMPDEST POP POP POP POP POP POP JUMP JUMPDEST PUSH32 0x4E487B7100000000000000000000000000000000000000000000000000000000 PUSH1 0x0 MSTORE PUSH1 0x11 PUSH1 0x4 MSTORE PUSH1 0x24 PUSH1 0x0 REVERT JUMPDEST PUSH1 0x0 PUSH2 0x7FF DUP3 PUSH2 0x4B3 JUMP JUMPDEST SWAP2 POP PUSH2 0x80A DUP4 PUSH2 0x4B3 JUMP JUMPDEST SWAP3 POP DUP3 PUSH32 0xFFFFFFFFFFFFFFFFFFFFFFFFFFFFFFFFFFFFFFFFFFFFFFFFFFFFFFFFFFFFFFFF SUB DUP3 GT ISZERO PUSH2 0x83F JUMPI PUSH2 0x83E PUSH2 0x7C5 JUMP JUMPDEST JUMPDEST DUP3 DUP3 ADD SWAP1 POP SWAP3 SWAP2 POP POP JUMP JUMPDEST PUSH1 0x0 PUSH2 0x855 DUP3 PUSH2 0x4B3 JUMP JUMPDEST SWAP2 POP PUSH2 0x860 DUP4 PUSH2 0x4B3 JUMP JUMPDEST SWAP3 POP DUP3 DUP3 LT ISZERO PUSH2 0x873 JUMPI PUSH2 0x872 PUSH2 0x7C5 JUMP JUMPDEST JUMPDEST DUP3 DUP3 SUB SWAP1 POP SWAP3 SWAP2 POP POP JUMP INVALID LOG2 PUSH5 0x6970667358 0x22 SLT KECCAK256 0x5C INVALID 0x1E 0xE9 ADDRESS SHL SWAP6 LOG2 SUB 0xAD ADDMOD 0x49 PUSH12 0xD088FE9C304740635F18AFEE DUP15 0x2C CODESIZE DUP8 GAS 0xC5 PUSH22 0x64736F6C634300080F00330000000000000000000000 "
				},
				"gasEstimates": {
					"creation": {
						"codeDepositCost": "445600",
						"executionCost": "infinite",
						"totalCost": "infinite"
					},
					"external": {
						"balanceReceived()": "2451",
						"myString()": "infinite",
						"sendMoneyBack()": "infinite",
						"updateMyString(string)": "infinite"
					}
				},
				"methodIdentifiers": {
					"balanceReceived()": "52a90c42",
					"myString()": "492bfa18",
					"sendMoneyBack()": "be363e36",
					"updateMyString(string)": "1d51057c"
				}
			},
			"storageLayout": {
				"storage": [
					{
						"astId": 4,
						"contract": "revision/WalletConnet.sol:SampleContract",
						"label": "myString",
						"offset": 0,
						"slot": "0",
						"type": "t_string_storage"
					},
					{
						"astId": 6,
						"contract": "revision/WalletConnet.sol:SampleContract",
						"label": "balanceReceived",
						"offset": 0,
						"slot": "1",
						"type": "t_uint256"
					},
					{
						"astId": 8,
						"contract": "revision/WalletConnet.sol:SampleContract",
						"label": "addressSender",
						"offset": 0,
						"slot": "2",
						"type": "t_address"
					}
				],
				"types": {
					"t_address": {
						"encoding": "inplace",
						"label": "address",
						"numberOfBytes": "20"
					},
					"t_string_storage": {
						"encoding": "bytes",
						"label": "string",
						"numberOfBytes": "32"
					},
					"t_uint256": {
						"encoding": "inplace",
						"label": "uint256",
						"numberOfBytes": "32"
					}
				}
			},
			"userdoc": {
				"kind": "user",
				"methods": {},
				"version": 1
			}
		}
	}
}