{
	"revision/ExceptionRequire.sol": {
		"Wallet": {
			"abi": [
				{
					"inputs": [
						{
							"internalType": "address",
							"name": "",
							"type": "address"
						}
					],
					"name": "balanceReceived",
					"outputs": [
						{
							"internalType": "uint8",
							"name": "",
							"type": "uint8"
						}
					],
					"stateMutability": "view",
					"type": "function"
				},
				{
					"inputs": [
						{
							"internalType": "uint256",
							"name": "denominator",
							"type": "uint256"
						}
					],
					"name": "checkNum",
					"outputs": [
						{
							"internalType": "bool",
							"name": "",
							"type": "bool"
						}
					],
					"stateMutability": "pure",
					"type": "function"
				},
				{
					"inputs": [],
					"name": "deposit",
					"outputs": [],
					"stateMutability": "payable",
					"type": "function"
				},
				{
					"inputs": [
						{
							"internalType": "uint256",
							"name": "denominator",
							"type": "uint256"
						}
					],
					"name": "divide",
					"outputs": [
						{
							"internalType": "bool",
							"name": "",
							"type": "bool"
						}
					],
					"stateMutability": "pure",
					"type": "function"
				},
				{
					"inputs": [
						{
							"internalType": "address payable",
							"name": "_to",
							"type": "address"
						},
						{
							"internalType": "uint8",
							"name": "_amount",
							"type": "uint8"
						}
					],
					"name": "withdrawToAddress",
					"outputs": [],
					"stateMutability": "nonpayable",
					"type": "function"
				}
			],
			"devdoc": {
				"kind": "dev",
				"methods": {},
				"version": 1
			},
			"evm": {
				"assembly": "    /* \"revision/ExceptionRequire.sol\":56:1153  contract Wallet {... */\n  mstore(0x40, 0x80)\n  callvalue\n  dup1\n  iszero\n  tag_1\n  jumpi\n  0x00\n  dup1\n  revert\ntag_1:\n  pop\n  dataSize(sub_0)\n  dup1\n  dataOffset(sub_0)\n  0x00\n  codecopy\n  0x00\n  return\nstop\n\nsub_0: assembly {\n        /* \"revision/ExceptionRequire.sol\":56:1153  contract Wallet {... */\n      mstore(0x40, 0x80)\n      jumpi(tag_1, lt(calldatasize, 0x04))\n      shr(0xe0, calldataload(0x00))\n      dup1\n      0x3e823f79\n      eq\n      tag_2\n      jumpi\n      dup1\n      0x70076662\n      eq\n      tag_3\n      jumpi\n      dup1\n      0xd0e30db0\n      eq\n      tag_4\n      jumpi\n      dup1\n      0xd18a42e1\n      eq\n      tag_5\n      jumpi\n      dup1\n      0xfd5cbe32\n      eq\n      tag_6\n      jumpi\n    tag_1:\n      0x00\n      dup1\n      revert\n        /* \"revision/ExceptionRequire.sol\":571:844  function divide( uint256 denominator)... */\n    tag_2:\n      callvalue\n      dup1\n      iszero\n      tag_7\n      jumpi\n      0x00\n      dup1\n      revert\n    tag_7:\n      pop\n      tag_8\n      0x04\n      dup1\n      calldatasize\n      sub\n      dup2\n      add\n      swap1\n      tag_9\n      swap2\n      swap1\n      tag_10\n      jump\t// in\n    tag_9:\n      tag_11\n      jump\t// in\n    tag_8:\n      mload(0x40)\n      tag_12\n      swap2\n      swap1\n      tag_13\n      jump\t// in\n    tag_12:\n      mload(0x40)\n      dup1\n      swap2\n      sub\n      swap1\n      return\n        /* \"revision/ExceptionRequire.sol\":284:565  function withdrawToAddress(address payable _to, uint8 _amount) public {... */\n    tag_3:\n      callvalue\n      dup1\n      iszero\n      tag_14\n      jumpi\n      0x00\n      dup1\n      revert\n    tag_14:\n      pop\n      tag_15\n      0x04\n      dup1\n      calldatasize\n      sub\n      dup2\n      add\n      swap1\n      tag_16\n      swap2\n      swap1\n      tag_17\n      jump\t// in\n    tag_16:\n      tag_18\n      jump\t// in\n    tag_15:\n      stop\n        /* \"revision/ExceptionRequire.sol\":133:278  function deposit() public payable {... */\n    tag_4:\n      tag_19\n      tag_20\n      jump\t// in\n    tag_19:\n      stop\n        /* \"revision/ExceptionRequire.sol\":78:126  mapping(address => uint8) public balanceReceived */\n    tag_5:\n      callvalue\n      dup1\n      iszero\n      tag_21\n      jumpi\n      0x00\n      dup1\n      revert\n    tag_21:\n      pop\n      tag_22\n      0x04\n      dup1\n      calldatasize\n      sub\n      dup2\n      add\n      swap1\n      tag_23\n      swap2\n      swap1\n      tag_24\n      jump\t// in\n    tag_23:\n      tag_25\n      jump\t// in\n    tag_22:\n      mload(0x40)\n      tag_26\n      swap2\n      swap1\n      tag_27\n      jump\t// in\n    tag_26:\n      mload(0x40)\n      dup1\n      swap2\n      sub\n      swap1\n      return\n        /* \"revision/ExceptionRequire.sol\":851:1151  function checkNum( uint256 denominator)... */\n    tag_6:\n      callvalue\n      dup1\n      iszero\n      tag_28\n      jumpi\n      0x00\n      dup1\n      revert\n    tag_28:\n      pop\n      tag_29\n      0x04\n      dup1\n      calldatasize\n      sub\n      dup2\n      add\n      swap1\n      tag_30\n      swap2\n      swap1\n      tag_10\n      jump\t// in\n    tag_30:\n      tag_31\n      jump\t// in\n    tag_29:\n      mload(0x40)\n      tag_32\n      swap2\n      swap1\n      tag_13\n      jump\t// in\n    tag_32:\n      mload(0x40)\n      dup1\n      swap2\n      sub\n      swap1\n      return\n        /* \"revision/ExceptionRequire.sol\":571:844  function divide( uint256 denominator)... */\n    tag_11:\n        /* \"revision/ExceptionRequire.sol\":654:658  bool */\n      0x00\n        /* \"revision/ExceptionRequire.sol\":747:748  0 */\n      dup1\n        /* \"revision/ExceptionRequire.sol\":732:743  denominator */\n      dup3\n        /* \"revision/ExceptionRequire.sol\":732:748  denominator != 0 */\n      eq\n      iszero\n        /* \"revision/ExceptionRequire.sol\":725:749  assert(denominator != 0) */\n      tag_34\n      jumpi\n      mstore(0x00, 0x4e487b7100000000000000000000000000000000000000000000000000000000)\n      mstore(0x04, 0x01)\n      revert(0x00, 0x24)\n    tag_34:\n        /* \"revision/ExceptionRequire.sol\":836:837  0 */\n      0x00\n        /* \"revision/ExceptionRequire.sol\":821:832  denominator */\n      dup3\n        /* \"revision/ExceptionRequire.sol\":821:837  denominator == 0 */\n      eq\n        /* \"revision/ExceptionRequire.sol\":814:837  return denominator == 0 */\n      swap1\n      pop\n        /* \"revision/ExceptionRequire.sol\":571:844  function divide( uint256 denominator)... */\n      swap2\n      swap1\n      pop\n      jump\t// out\n        /* \"revision/ExceptionRequire.sol\":284:565  function withdrawToAddress(address payable _to, uint8 _amount) public {... */\n    tag_18:\n        /* \"revision/ExceptionRequire.sol\":396:411  balanceReceived */\n      0x00\n        /* \"revision/ExceptionRequire.sol\":396:423  balanceReceived[msg.sender] */\n      dup1\n        /* \"revision/ExceptionRequire.sol\":412:422  msg.sender */\n      caller\n        /* \"revision/ExceptionRequire.sol\":396:423  balanceReceived[msg.sender] */\n      0xffffffffffffffffffffffffffffffffffffffff\n      and\n      0xffffffffffffffffffffffffffffffffffffffff\n      and\n      dup2\n      mstore\n      0x20\n      add\n      swap1\n      dup2\n      mstore\n      0x20\n      add\n      0x00\n      keccak256\n      0x00\n      swap1\n      sload\n      swap1\n      0x0100\n      exp\n      swap1\n      div\n      0xff\n      and\n        /* \"revision/ExceptionRequire.sol\":385:423  _amount <= balanceReceived[msg.sender] */\n      0xff\n      and\n        /* \"revision/ExceptionRequire.sol\":385:392  _amount */\n      dup2\n        /* \"revision/ExceptionRequire.sol\":385:423  _amount <= balanceReceived[msg.sender] */\n      0xff\n      and\n      gt\n      iszero\n        /* \"revision/ExceptionRequire.sol\":364:479  require(... */\n      tag_36\n      jumpi\n      mload(0x40)\n      0x08c379a000000000000000000000000000000000000000000000000000000000\n      dup2\n      mstore\n      0x04\n      add\n      tag_37\n      swap1\n      tag_38\n      jump\t// in\n    tag_37:\n      mload(0x40)\n      dup1\n      swap2\n      sub\n      swap1\n      revert\n    tag_36:\n        /* \"revision/ExceptionRequire.sol\":520:527  _amount */\n      dup1\n        /* \"revision/ExceptionRequire.sol\":489:504  balanceReceived */\n      0x00\n        /* \"revision/ExceptionRequire.sol\":489:516  balanceReceived[msg.sender] */\n      dup1\n        /* \"revision/ExceptionRequire.sol\":505:515  msg.sender */\n      caller\n        /* \"revision/ExceptionRequire.sol\":489:516  balanceReceived[msg.sender] */\n      0xffffffffffffffffffffffffffffffffffffffff\n      and\n      0xffffffffffffffffffffffffffffffffffffffff\n      and\n      dup2\n      mstore\n      0x20\n      add\n      swap1\n      dup2\n      mstore\n      0x20\n      add\n      0x00\n      keccak256\n      0x00\n        /* \"revision/ExceptionRequire.sol\":489:527  balanceReceived[msg.sender] -= _amount */\n      dup3\n      dup3\n      dup3\n      swap1\n      sload\n      swap1\n      0x0100\n      exp\n      swap1\n      div\n      0xff\n      and\n      tag_39\n      swap2\n      swap1\n      tag_40\n      jump\t// in\n    tag_39:\n      swap3\n      pop\n      0x0100\n      exp\n      dup2\n      sload\n      dup2\n      0xff\n      mul\n      not\n      and\n      swap1\n      dup4\n      0xff\n      and\n      mul\n      or\n      swap1\n      sstore\n      pop\n        /* \"revision/ExceptionRequire.sol\":537:540  _to */\n      dup2\n        /* \"revision/ExceptionRequire.sol\":537:549  _to.transfer */\n      0xffffffffffffffffffffffffffffffffffffffff\n      and\n        /* \"revision/ExceptionRequire.sol\":537:558  _to.transfer(_amount) */\n      0x08fc\n        /* \"revision/ExceptionRequire.sol\":550:557  _amount */\n      dup3\n        /* \"revision/ExceptionRequire.sol\":537:558  _to.transfer(_amount) */\n      0xff\n      and\n      swap1\n      dup2\n      iszero\n      mul\n      swap1\n      mload(0x40)\n      0x00\n      mload(0x40)\n      dup1\n      dup4\n      sub\n      dup2\n      dup6\n      dup9\n      dup9\n      call\n      swap4\n      pop\n      pop\n      pop\n      pop\n      iszero\n      dup1\n      iszero\n      tag_42\n      jumpi\n      returndatasize\n      0x00\n      dup1\n      returndatacopy\n      revert(0x00, returndatasize)\n    tag_42:\n      pop\n        /* \"revision/ExceptionRequire.sol\":284:565  function withdrawToAddress(address payable _to, uint8 _amount) public {... */\n      pop\n      pop\n      jump\t// out\n        /* \"revision/ExceptionRequire.sol\":133:278  function deposit() public payable {... */\n    tag_20:\n        /* \"revision/ExceptionRequire.sol\":203:212  msg.value */\n      callvalue\n        /* \"revision/ExceptionRequire.sol\":184:213  msg.value == uint8(msg.value) */\n      0xff\n      and\n        /* \"revision/ExceptionRequire.sol\":184:193  msg.value */\n      callvalue\n        /* \"revision/ExceptionRequire.sol\":184:213  msg.value == uint8(msg.value) */\n      eq\n        /* \"revision/ExceptionRequire.sol\":177:214  assert(msg.value == uint8(msg.value)) */\n      tag_44\n      jumpi\n      mstore(0x00, 0x4e487b7100000000000000000000000000000000000000000000000000000000)\n      mstore(0x04, 0x01)\n      revert(0x00, 0x24)\n    tag_44:\n        /* \"revision/ExceptionRequire.sol\":261:270  msg.value */\n      callvalue\n        /* \"revision/ExceptionRequire.sol\":224:239  balanceReceived */\n      0x00\n        /* \"revision/ExceptionRequire.sol\":224:251  balanceReceived[msg.sender] */\n      dup1\n        /* \"revision/ExceptionRequire.sol\":240:250  msg.sender */\n      caller\n        /* \"revision/ExceptionRequire.sol\":224:251  balanceReceived[msg.sender] */\n      0xffffffffffffffffffffffffffffffffffffffff\n      and\n      0xffffffffffffffffffffffffffffffffffffffff\n      and\n      dup2\n      mstore\n      0x20\n      add\n      swap1\n      dup2\n      mstore\n      0x20\n      add\n      0x00\n      keccak256\n      0x00\n        /* \"revision/ExceptionRequire.sol\":224:271  balanceReceived[msg.sender] += uint8(msg.value) */\n      dup3\n      dup3\n      dup3\n      swap1\n      sload\n      swap1\n      0x0100\n      exp\n      swap1\n      div\n      0xff\n      and\n      tag_45\n      swap2\n      swap1\n      tag_46\n      jump\t// in\n    tag_45:\n      swap3\n      pop\n      0x0100\n      exp\n      dup2\n      sload\n      dup2\n      0xff\n      mul\n      not\n      and\n      swap1\n      dup4\n      0xff\n      and\n      mul\n      or\n      swap1\n      sstore\n      pop\n        /* \"revision/ExceptionRequire.sol\":133:278  function deposit() public payable {... */\n      jump\t// out\n        /* \"revision/ExceptionRequire.sol\":78:126  mapping(address => uint8) public balanceReceived */\n    tag_25:\n      mstore(0x20, 0x00)\n      dup1\n      0x00\n      mstore\n      keccak256(0x00, 0x40)\n      0x00\n      swap2\n      pop\n      sload\n      swap1\n      0x0100\n      exp\n      swap1\n      div\n      0xff\n      and\n      dup2\n      jump\t// out\n        /* \"revision/ExceptionRequire.sol\":851:1151  function checkNum( uint256 denominator)... */\n    tag_31:\n        /* \"revision/ExceptionRequire.sol\":936:940  bool */\n      0x00\n        /* \"revision/ExceptionRequire.sol\":1030:1031  0 */\n      dup1\n        /* \"revision/ExceptionRequire.sol\":1015:1026  denominator */\n      dup3\n        /* \"revision/ExceptionRequire.sol\":1015:1031  denominator == 0 */\n      eq\n        /* \"revision/ExceptionRequire.sol\":1007:1056  require(denominator == 0, \"num 0 is not allowed\") */\n      tag_48\n      jumpi\n      mload(0x40)\n      0x08c379a000000000000000000000000000000000000000000000000000000000\n      dup2\n      mstore\n      0x04\n      add\n      tag_49\n      swap1\n      tag_50\n      jump\t// in\n    tag_49:\n      mload(0x40)\n      dup1\n      swap2\n      sub\n      swap1\n      revert\n    tag_48:\n        /* \"revision/ExceptionRequire.sol\":1143:1144  0 */\n      0x00\n        /* \"revision/ExceptionRequire.sol\":1128:1139  denominator */\n      dup3\n        /* \"revision/ExceptionRequire.sol\":1128:1144  denominator == 0 */\n      eq\n        /* \"revision/ExceptionRequire.sol\":1121:1144  return denominator == 0 */\n      swap1\n      pop\n        /* \"revision/ExceptionRequire.sol\":851:1151  function checkNum( uint256 denominator)... */\n      swap2\n      swap1\n      pop\n      jump\t// out\n        /* \"#utility.yul\":7:146   */\n    tag_52:\n      0x00\n        /* \"#utility.yul\":91:97   */\n      dup2\n        /* \"#utility.yul\":78:98   */\n      calldataload\n        /* \"#utility.yul\":69:98   */\n      swap1\n      pop\n        /* \"#utility.yul\":107:140   */\n      tag_54\n        /* \"#utility.yul\":134:139   */\n      dup2\n        /* \"#utility.yul\":107:140   */\n      tag_55\n      jump\t// in\n    tag_54:\n        /* \"#utility.yul\":59:146   */\n      swap3\n      swap2\n      pop\n      pop\n      jump\t// out\n        /* \"#utility.yul\":152:307   */\n    tag_56:\n      0x00\n        /* \"#utility.yul\":244:250   */\n      dup2\n        /* \"#utility.yul\":231:251   */\n      calldataload\n        /* \"#utility.yul\":222:251   */\n      swap1\n      pop\n        /* \"#utility.yul\":260:301   */\n      tag_58\n        /* \"#utility.yul\":295:300   */\n      dup2\n        /* \"#utility.yul\":260:301   */\n      tag_59\n      jump\t// in\n    tag_58:\n        /* \"#utility.yul\":212:307   */\n      swap3\n      swap2\n      pop\n      pop\n      jump\t// out\n        /* \"#utility.yul\":313:452   */\n    tag_60:\n      0x00\n        /* \"#utility.yul\":397:403   */\n      dup2\n        /* \"#utility.yul\":384:404   */\n      calldataload\n        /* \"#utility.yul\":375:404   */\n      swap1\n      pop\n        /* \"#utility.yul\":413:446   */\n      tag_62\n        /* \"#utility.yul\":440:445   */\n      dup2\n        /* \"#utility.yul\":413:446   */\n      tag_63\n      jump\t// in\n    tag_62:\n        /* \"#utility.yul\":365:452   */\n      swap3\n      swap2\n      pop\n      pop\n      jump\t// out\n        /* \"#utility.yul\":458:593   */\n    tag_64:\n      0x00\n        /* \"#utility.yul\":540:546   */\n      dup2\n        /* \"#utility.yul\":527:547   */\n      calldataload\n        /* \"#utility.yul\":518:547   */\n      swap1\n      pop\n        /* \"#utility.yul\":556:587   */\n      tag_66\n        /* \"#utility.yul\":581:586   */\n      dup2\n        /* \"#utility.yul\":556:587   */\n      tag_67\n      jump\t// in\n    tag_66:\n        /* \"#utility.yul\":508:593   */\n      swap3\n      swap2\n      pop\n      pop\n      jump\t// out\n        /* \"#utility.yul\":599:861   */\n    tag_24:\n      0x00\n        /* \"#utility.yul\":707:709   */\n      0x20\n        /* \"#utility.yul\":695:704   */\n      dup3\n        /* \"#utility.yul\":686:693   */\n      dup5\n        /* \"#utility.yul\":682:705   */\n      sub\n        /* \"#utility.yul\":678:710   */\n      slt\n        /* \"#utility.yul\":675:677   */\n      iszero\n      tag_69\n      jumpi\n        /* \"#utility.yul\":723:724   */\n      0x00\n        /* \"#utility.yul\":720:721   */\n      dup1\n        /* \"#utility.yul\":713:725   */\n      revert\n        /* \"#utility.yul\":675:677   */\n    tag_69:\n        /* \"#utility.yul\":766:767   */\n      0x00\n        /* \"#utility.yul\":791:844   */\n      tag_70\n        /* \"#utility.yul\":836:843   */\n      dup5\n        /* \"#utility.yul\":827:833   */\n      dup3\n        /* \"#utility.yul\":816:825   */\n      dup6\n        /* \"#utility.yul\":812:834   */\n      add\n        /* \"#utility.yul\":791:844   */\n      tag_52\n      jump\t// in\n    tag_70:\n        /* \"#utility.yul\":781:844   */\n      swap2\n      pop\n        /* \"#utility.yul\":737:854   */\n      pop\n        /* \"#utility.yul\":665:861   */\n      swap3\n      swap2\n      pop\n      pop\n      jump\t// out\n        /* \"#utility.yul\":867:1286   */\n    tag_17:\n      0x00\n      dup1\n        /* \"#utility.yul\":998:1000   */\n      0x40\n        /* \"#utility.yul\":986:995   */\n      dup4\n        /* \"#utility.yul\":977:984   */\n      dup6\n        /* \"#utility.yul\":973:996   */\n      sub\n        /* \"#utility.yul\":969:1001   */\n      slt\n        /* \"#utility.yul\":966:968   */\n      iszero\n      tag_72\n      jumpi\n        /* \"#utility.yul\":1014:1015   */\n      0x00\n        /* \"#utility.yul\":1011:1012   */\n      dup1\n        /* \"#utility.yul\":1004:1016   */\n      revert\n        /* \"#utility.yul\":966:968   */\n    tag_72:\n        /* \"#utility.yul\":1057:1058   */\n      0x00\n        /* \"#utility.yul\":1082:1143   */\n      tag_73\n        /* \"#utility.yul\":1135:1142   */\n      dup6\n        /* \"#utility.yul\":1126:1132   */\n      dup3\n        /* \"#utility.yul\":1115:1124   */\n      dup7\n        /* \"#utility.yul\":1111:1133   */\n      add\n        /* \"#utility.yul\":1082:1143   */\n      tag_56\n      jump\t// in\n    tag_73:\n        /* \"#utility.yul\":1072:1143   */\n      swap3\n      pop\n        /* \"#utility.yul\":1028:1153   */\n      pop\n        /* \"#utility.yul\":1192:1194   */\n      0x20\n        /* \"#utility.yul\":1218:1269   */\n      tag_74\n        /* \"#utility.yul\":1261:1268   */\n      dup6\n        /* \"#utility.yul\":1252:1258   */\n      dup3\n        /* \"#utility.yul\":1241:1250   */\n      dup7\n        /* \"#utility.yul\":1237:1259   */\n      add\n        /* \"#utility.yul\":1218:1269   */\n      tag_64\n      jump\t// in\n    tag_74:\n        /* \"#utility.yul\":1208:1269   */\n      swap2\n      pop\n        /* \"#utility.yul\":1163:1279   */\n      pop\n        /* \"#utility.yul\":956:1286   */\n      swap3\n      pop\n      swap3\n      swap1\n      pop\n      jump\t// out\n        /* \"#utility.yul\":1292:1554   */\n    tag_10:\n      0x00\n        /* \"#utility.yul\":1400:1402   */\n      0x20\n        /* \"#utility.yul\":1388:1397   */\n      dup3\n        /* \"#utility.yul\":1379:1386   */\n      dup5\n        /* \"#utility.yul\":1375:1398   */\n      sub\n        /* \"#utility.yul\":1371:1403   */\n      slt\n        /* \"#utility.yul\":1368:1370   */\n      iszero\n      tag_76\n      jumpi\n        /* \"#utility.yul\":1416:1417   */\n      0x00\n        /* \"#utility.yul\":1413:1414   */\n      dup1\n        /* \"#utility.yul\":1406:1418   */\n      revert\n        /* \"#utility.yul\":1368:1370   */\n    tag_76:\n        /* \"#utility.yul\":1459:1460   */\n      0x00\n        /* \"#utility.yul\":1484:1537   */\n      tag_77\n        /* \"#utility.yul\":1529:1536   */\n      dup5\n        /* \"#utility.yul\":1520:1526   */\n      dup3\n        /* \"#utility.yul\":1509:1518   */\n      dup6\n        /* \"#utility.yul\":1505:1527   */\n      add\n        /* \"#utility.yul\":1484:1537   */\n      tag_60\n      jump\t// in\n    tag_77:\n        /* \"#utility.yul\":1474:1537   */\n      swap2\n      pop\n        /* \"#utility.yul\":1430:1547   */\n      pop\n        /* \"#utility.yul\":1358:1554   */\n      swap3\n      swap2\n      pop\n      pop\n      jump\t// out\n        /* \"#utility.yul\":1560:1669   */\n    tag_78:\n        /* \"#utility.yul\":1641:1662   */\n      tag_80\n        /* \"#utility.yul\":1656:1661   */\n      dup2\n        /* \"#utility.yul\":1641:1662   */\n      tag_81\n      jump\t// in\n    tag_80:\n        /* \"#utility.yul\":1636:1639   */\n      dup3\n        /* \"#utility.yul\":1629:1663   */\n      mstore\n        /* \"#utility.yul\":1619:1669   */\n      pop\n      pop\n      jump\t// out\n        /* \"#utility.yul\":1675:1993   */\n    tag_82:\n      0x00\n        /* \"#utility.yul\":1838:1905   */\n      tag_84\n        /* \"#utility.yul\":1902:1904   */\n      0x14\n        /* \"#utility.yul\":1897:1900   */\n      dup4\n        /* \"#utility.yul\":1838:1905   */\n      tag_85\n      jump\t// in\n    tag_84:\n        /* \"#utility.yul\":1831:1905   */\n      swap2\n      pop\n        /* \"#utility.yul\":1935:1957   */\n      0x6e756d2030206973206e6f7420616c6c6f776564000000000000000000000000\n        /* \"#utility.yul\":1931:1932   */\n      0x00\n        /* \"#utility.yul\":1926:1929   */\n      dup4\n        /* \"#utility.yul\":1922:1933   */\n      add\n        /* \"#utility.yul\":1915:1958   */\n      mstore\n        /* \"#utility.yul\":1984:1986   */\n      0x20\n        /* \"#utility.yul\":1979:1982   */\n      dup3\n        /* \"#utility.yul\":1975:1987   */\n      add\n        /* \"#utility.yul\":1968:1987   */\n      swap1\n      pop\n        /* \"#utility.yul\":1821:1993   */\n      swap2\n      swap1\n      pop\n      jump\t// out\n        /* \"#utility.yul\":1999:2327   */\n    tag_86:\n      0x00\n        /* \"#utility.yul\":2162:2229   */\n      tag_88\n        /* \"#utility.yul\":2226:2228   */\n      0x1e\n        /* \"#utility.yul\":2221:2224   */\n      dup4\n        /* \"#utility.yul\":2162:2229   */\n      tag_85\n      jump\t// in\n    tag_88:\n        /* \"#utility.yul\":2155:2229   */\n      swap2\n      pop\n        /* \"#utility.yul\":2259:2291   */\n      0x496e73756666696369656e742066756e642c2061626f7274696e672e2e2e0000\n        /* \"#utility.yul\":2255:2256   */\n      0x00\n        /* \"#utility.yul\":2250:2253   */\n      dup4\n        /* \"#utility.yul\":2246:2257   */\n      add\n        /* \"#utility.yul\":2239:2292   */\n      mstore\n        /* \"#utility.yul\":2318:2320   */\n      0x20\n        /* \"#utility.yul\":2313:2316   */\n      dup3\n        /* \"#utility.yul\":2309:2321   */\n      add\n        /* \"#utility.yul\":2302:2321   */\n      swap1\n      pop\n        /* \"#utility.yul\":2145:2327   */\n      swap2\n      swap1\n      pop\n      jump\t// out\n        /* \"#utility.yul\":2333:2445   */\n    tag_89:\n        /* \"#utility.yul\":2416:2438   */\n      tag_91\n        /* \"#utility.yul\":2432:2437   */\n      dup2\n        /* \"#utility.yul\":2416:2438   */\n      tag_92\n      jump\t// in\n    tag_91:\n        /* \"#utility.yul\":2411:2414   */\n      dup3\n        /* \"#utility.yul\":2404:2439   */\n      mstore\n        /* \"#utility.yul\":2394:2445   */\n      pop\n      pop\n      jump\t// out\n        /* \"#utility.yul\":2451:2661   */\n    tag_13:\n      0x00\n        /* \"#utility.yul\":2576:2578   */\n      0x20\n        /* \"#utility.yul\":2565:2574   */\n      dup3\n        /* \"#utility.yul\":2561:2579   */\n      add\n        /* \"#utility.yul\":2553:2579   */\n      swap1\n      pop\n        /* \"#utility.yul\":2589:2654   */\n      tag_94\n        /* \"#utility.yul\":2651:2652   */\n      0x00\n        /* \"#utility.yul\":2640:2649   */\n      dup4\n        /* \"#utility.yul\":2636:2653   */\n      add\n        /* \"#utility.yul\":2627:2633   */\n      dup5\n        /* \"#utility.yul\":2589:2654   */\n      tag_78\n      jump\t// in\n    tag_94:\n        /* \"#utility.yul\":2543:2661   */\n      swap3\n      swap2\n      pop\n      pop\n      jump\t// out\n        /* \"#utility.yul\":2667:3086   */\n    tag_50:\n      0x00\n        /* \"#utility.yul\":2871:2873   */\n      0x20\n        /* \"#utility.yul\":2860:2869   */\n      dup3\n        /* \"#utility.yul\":2856:2874   */\n      add\n        /* \"#utility.yul\":2848:2874   */\n      swap1\n      pop\n        /* \"#utility.yul\":2920:2929   */\n      dup2\n        /* \"#utility.yul\":2914:2918   */\n      dup2\n        /* \"#utility.yul\":2910:2930   */\n      sub\n        /* \"#utility.yul\":2906:2907   */\n      0x00\n        /* \"#utility.yul\":2895:2904   */\n      dup4\n        /* \"#utility.yul\":2891:2908   */\n      add\n        /* \"#utility.yul\":2884:2931   */\n      mstore\n        /* \"#utility.yul\":2948:3079   */\n      tag_96\n        /* \"#utility.yul\":3074:3078   */\n      dup2\n        /* \"#utility.yul\":2948:3079   */\n      tag_82\n      jump\t// in\n    tag_96:\n        /* \"#utility.yul\":2940:3079   */\n      swap1\n      pop\n        /* \"#utility.yul\":2838:3086   */\n      swap2\n      swap1\n      pop\n      jump\t// out\n        /* \"#utility.yul\":3092:3511   */\n    tag_38:\n      0x00\n        /* \"#utility.yul\":3296:3298   */\n      0x20\n        /* \"#utility.yul\":3285:3294   */\n      dup3\n        /* \"#utility.yul\":3281:3299   */\n      add\n        /* \"#utility.yul\":3273:3299   */\n      swap1\n      pop\n        /* \"#utility.yul\":3345:3354   */\n      dup2\n        /* \"#utility.yul\":3339:3343   */\n      dup2\n        /* \"#utility.yul\":3335:3355   */\n      sub\n        /* \"#utility.yul\":3331:3332   */\n      0x00\n        /* \"#utility.yul\":3320:3329   */\n      dup4\n        /* \"#utility.yul\":3316:3333   */\n      add\n        /* \"#utility.yul\":3309:3356   */\n      mstore\n        /* \"#utility.yul\":3373:3504   */\n      tag_98\n        /* \"#utility.yul\":3499:3503   */\n      dup2\n        /* \"#utility.yul\":3373:3504   */\n      tag_86\n      jump\t// in\n    tag_98:\n        /* \"#utility.yul\":3365:3504   */\n      swap1\n      pop\n        /* \"#utility.yul\":3263:3511   */\n      swap2\n      swap1\n      pop\n      jump\t// out\n        /* \"#utility.yul\":3517:3731   */\n    tag_27:\n      0x00\n        /* \"#utility.yul\":3644:3646   */\n      0x20\n        /* \"#utility.yul\":3633:3642   */\n      dup3\n        /* \"#utility.yul\":3629:3647   */\n      add\n        /* \"#utility.yul\":3621:3647   */\n      swap1\n      pop\n        /* \"#utility.yul\":3657:3724   */\n      tag_100\n        /* \"#utility.yul\":3721:3722   */\n      0x00\n        /* \"#utility.yul\":3710:3719   */\n      dup4\n        /* \"#utility.yul\":3706:3723   */\n      add\n        /* \"#utility.yul\":3697:3703   */\n      dup5\n        /* \"#utility.yul\":3657:3724   */\n      tag_89\n      jump\t// in\n    tag_100:\n        /* \"#utility.yul\":3611:3731   */\n      swap3\n      swap2\n      pop\n      pop\n      jump\t// out\n        /* \"#utility.yul\":3737:3906   */\n    tag_85:\n      0x00\n        /* \"#utility.yul\":3855:3861   */\n      dup3\n        /* \"#utility.yul\":3850:3853   */\n      dup3\n        /* \"#utility.yul\":3843:3862   */\n      mstore\n        /* \"#utility.yul\":3895:3899   */\n      0x20\n        /* \"#utility.yul\":3890:3893   */\n      dup3\n        /* \"#utility.yul\":3886:3900   */\n      add\n        /* \"#utility.yul\":3871:3900   */\n      swap1\n      pop\n        /* \"#utility.yul\":3833:3906   */\n      swap3\n      swap2\n      pop\n      pop\n      jump\t// out\n        /* \"#utility.yul\":3912:4149   */\n    tag_46:\n      0x00\n        /* \"#utility.yul\":3969:3987   */\n      tag_103\n        /* \"#utility.yul\":3985:3986   */\n      dup3\n        /* \"#utility.yul\":3969:3987   */\n      tag_92\n      jump\t// in\n    tag_103:\n        /* \"#utility.yul\":3964:3987   */\n      swap2\n      pop\n        /* \"#utility.yul\":4001:4019   */\n      tag_104\n        /* \"#utility.yul\":4017:4018   */\n      dup4\n        /* \"#utility.yul\":4001:4019   */\n      tag_92\n      jump\t// in\n    tag_104:\n        /* \"#utility.yul\":3996:4019   */\n      swap3\n      pop\n        /* \"#utility.yul\":4091:4092   */\n      dup3\n        /* \"#utility.yul\":4085:4089   */\n      0xff\n        /* \"#utility.yul\":4081:4093   */\n      sub\n        /* \"#utility.yul\":4078:4079   */\n      dup3\n        /* \"#utility.yul\":4075:4094   */\n      gt\n        /* \"#utility.yul\":4072:4074   */\n      iszero\n      tag_105\n      jumpi\n        /* \"#utility.yul\":4097:4115   */\n      tag_106\n      tag_107\n      jump\t// in\n    tag_106:\n        /* \"#utility.yul\":4072:4074   */\n    tag_105:\n        /* \"#utility.yul\":4141:4142   */\n      dup3\n        /* \"#utility.yul\":4138:4139   */\n      dup3\n        /* \"#utility.yul\":4134:4143   */\n      add\n        /* \"#utility.yul\":4127:4143   */\n      swap1\n      pop\n        /* \"#utility.yul\":3954:4149   */\n      swap3\n      swap2\n      pop\n      pop\n      jump\t// out\n        /* \"#utility.yul\":4155:4340   */\n    tag_40:\n      0x00\n        /* \"#utility.yul\":4213:4231   */\n      tag_109\n        /* \"#utility.yul\":4229:4230   */\n      dup3\n        /* \"#utility.yul\":4213:4231   */\n      tag_92\n      jump\t// in\n    tag_109:\n        /* \"#utility.yul\":4208:4231   */\n      swap2\n      pop\n        /* \"#utility.yul\":4245:4263   */\n      tag_110\n        /* \"#utility.yul\":4261:4262   */\n      dup4\n        /* \"#utility.yul\":4245:4263   */\n      tag_92\n      jump\t// in\n    tag_110:\n        /* \"#utility.yul\":4240:4263   */\n      swap3\n      pop\n        /* \"#utility.yul\":4282:4283   */\n      dup3\n        /* \"#utility.yul\":4279:4280   */\n      dup3\n        /* \"#utility.yul\":4276:4284   */\n      lt\n        /* \"#utility.yul\":4273:4275   */\n      iszero\n      tag_111\n      jumpi\n        /* \"#utility.yul\":4287:4305   */\n      tag_112\n      tag_107\n      jump\t// in\n    tag_112:\n        /* \"#utility.yul\":4273:4275   */\n    tag_111:\n        /* \"#utility.yul\":4332:4333   */\n      dup3\n        /* \"#utility.yul\":4329:4330   */\n      dup3\n        /* \"#utility.yul\":4325:4334   */\n      sub\n        /* \"#utility.yul\":4317:4334   */\n      swap1\n      pop\n        /* \"#utility.yul\":4198:4340   */\n      swap3\n      swap2\n      pop\n      pop\n      jump\t// out\n        /* \"#utility.yul\":4346:4442   */\n    tag_113:\n      0x00\n        /* \"#utility.yul\":4412:4436   */\n      tag_115\n        /* \"#utility.yul\":4430:4435   */\n      dup3\n        /* \"#utility.yul\":4412:4436   */\n      tag_116\n      jump\t// in\n    tag_115:\n        /* \"#utility.yul\":4401:4436   */\n      swap1\n      pop\n        /* \"#utility.yul\":4391:4442   */\n      swap2\n      swap1\n      pop\n      jump\t// out\n        /* \"#utility.yul\":4448:4552   */\n    tag_117:\n      0x00\n        /* \"#utility.yul\":4522:4546   */\n      tag_119\n        /* \"#utility.yul\":4540:4545   */\n      dup3\n        /* \"#utility.yul\":4522:4546   */\n      tag_116\n      jump\t// in\n    tag_119:\n        /* \"#utility.yul\":4511:4546   */\n      swap1\n      pop\n        /* \"#utility.yul\":4501:4552   */\n      swap2\n      swap1\n      pop\n      jump\t// out\n        /* \"#utility.yul\":4558:4648   */\n    tag_81:\n      0x00\n        /* \"#utility.yul\":4635:4640   */\n      dup2\n        /* \"#utility.yul\":4628:4641   */\n      iszero\n        /* \"#utility.yul\":4621:4642   */\n      iszero\n        /* \"#utility.yul\":4610:4642   */\n      swap1\n      pop\n        /* \"#utility.yul\":4600:4648   */\n      swap2\n      swap1\n      pop\n      jump\t// out\n        /* \"#utility.yul\":4654:4780   */\n    tag_116:\n      0x00\n        /* \"#utility.yul\":4731:4773   */\n      0xffffffffffffffffffffffffffffffffffffffff\n        /* \"#utility.yul\":4724:4729   */\n      dup3\n        /* \"#utility.yul\":4720:4774   */\n      and\n        /* \"#utility.yul\":4709:4774   */\n      swap1\n      pop\n        /* \"#utility.yul\":4699:4780   */\n      swap2\n      swap1\n      pop\n      jump\t// out\n        /* \"#utility.yul\":4786:4863   */\n    tag_122:\n      0x00\n        /* \"#utility.yul\":4852:4857   */\n      dup2\n        /* \"#utility.yul\":4841:4857   */\n      swap1\n      pop\n        /* \"#utility.yul\":4831:4863   */\n      swap2\n      swap1\n      pop\n      jump\t// out\n        /* \"#utility.yul\":4869:4955   */\n    tag_92:\n      0x00\n        /* \"#utility.yul\":4944:4948   */\n      0xff\n        /* \"#utility.yul\":4937:4942   */\n      dup3\n        /* \"#utility.yul\":4933:4949   */\n      and\n        /* \"#utility.yul\":4922:4949   */\n      swap1\n      pop\n        /* \"#utility.yul\":4912:4955   */\n      swap2\n      swap1\n      pop\n      jump\t// out\n        /* \"#utility.yul\":4961:5141   */\n    tag_107:\n        /* \"#utility.yul\":5009:5086   */\n      0x4e487b7100000000000000000000000000000000000000000000000000000000\n        /* \"#utility.yul\":5006:5007   */\n      0x00\n        /* \"#utility.yul\":4999:5087   */\n      mstore\n        /* \"#utility.yul\":5106:5110   */\n      0x11\n        /* \"#utility.yul\":5103:5104   */\n      0x04\n        /* \"#utility.yul\":5096:5111   */\n      mstore\n        /* \"#utility.yul\":5130:5134   */\n      0x24\n        /* \"#utility.yul\":5127:5128   */\n      0x00\n        /* \"#utility.yul\":5120:5135   */\n      revert\n        /* \"#utility.yul\":5147:5269   */\n    tag_55:\n        /* \"#utility.yul\":5220:5244   */\n      tag_127\n        /* \"#utility.yul\":5238:5243   */\n      dup2\n        /* \"#utility.yul\":5220:5244   */\n      tag_113\n      jump\t// in\n    tag_127:\n        /* \"#utility.yul\":5213:5218   */\n      dup2\n        /* \"#utility.yul\":5210:5245   */\n      eq\n        /* \"#utility.yul\":5200:5202   */\n      tag_128\n      jumpi\n        /* \"#utility.yul\":5259:5260   */\n      0x00\n        /* \"#utility.yul\":5256:5257   */\n      dup1\n        /* \"#utility.yul\":5249:5261   */\n      revert\n        /* \"#utility.yul\":5200:5202   */\n    tag_128:\n        /* \"#utility.yul\":5190:5269   */\n      pop\n      jump\t// out\n        /* \"#utility.yul\":5275:5413   */\n    tag_59:\n        /* \"#utility.yul\":5356:5388   */\n      tag_130\n        /* \"#utility.yul\":5382:5387   */\n      dup2\n        /* \"#utility.yul\":5356:5388   */\n      tag_117\n      jump\t// in\n    tag_130:\n        /* \"#utility.yul\":5349:5354   */\n      dup2\n        /* \"#utility.yul\":5346:5389   */\n      eq\n        /* \"#utility.yul\":5336:5338   */\n      tag_131\n      jumpi\n        /* \"#utility.yul\":5403:5404   */\n      0x00\n        /* \"#utility.yul\":5400:5401   */\n      dup1\n        /* \"#utility.yul\":5393:5405   */\n      revert\n        /* \"#utility.yul\":5336:5338   */\n    tag_131:\n        /* \"#utility.yul\":5326:5413   */\n      pop\n      jump\t// out\n        /* \"#utility.yul\":5419:5541   */\n    tag_63:\n        /* \"#utility.yul\":5492:5516   */\n      tag_133\n        /* \"#utility.yul\":5510:5515   */\n      dup2\n        /* \"#utility.yul\":5492:5516   */\n      tag_122\n      jump\t// in\n    tag_133:\n        /* \"#utility.yul\":5485:5490   */\n      dup2\n        /* \"#utility.yul\":5482:5517   */\n      eq\n        /* \"#utility.yul\":5472:5474   */\n      tag_134\n      jumpi\n        /* \"#utility.yul\":5531:5532   */\n      0x00\n        /* \"#utility.yul\":5528:5529   */\n      dup1\n        /* \"#utility.yul\":5521:5533   */\n      revert\n        /* \"#utility.yul\":5472:5474   */\n    tag_134:\n        /* \"#utility.yul\":5462:5541   */\n      pop\n      jump\t// out\n        /* \"#utility.yul\":5547:5665   */\n    tag_67:\n        /* \"#utility.yul\":5618:5640   */\n      tag_136\n        /* \"#utility.yul\":5634:5639   */\n      dup2\n        /* \"#utility.yul\":5618:5640   */\n      tag_92\n      jump\t// in\n    tag_136:\n        /* \"#utility.yul\":5611:5616   */\n      dup2\n        /* \"#utility.yul\":5608:5641   */\n      eq\n        /* \"#utility.yul\":5598:5600   */\n      tag_137\n      jumpi\n        /* \"#utility.yul\":5655:5656   */\n      0x00\n        /* \"#utility.yul\":5652:5653   */\n      dup1\n        /* \"#utility.yul\":5645:5657   */\n      revert\n        /* \"#utility.yul\":5598:5600   */\n    tag_137:\n        /* \"#utility.yul\":5588:5665   */\n      pop\n      jump\t// out\n\n    auxdata: 0xa26469706673582212200f866dfd163619d57ff5ff9579eaf035c1affb2e447dc3d81139b72aff0442af64736f6c63430008000033\n}\n",
				"bytecode": {
					"linkReferences": {},
					"object": "608060405234801561001057600080fd5b50610787806100206000396000f3fe60806040526004361061004a5760003560e01c80633e823f791461004f578063700766621461008c578063d0e30db0146100b5578063d18a42e1146100bf578063fd5cbe32146100fc575b600080fd5b34801561005b57600080fd5b50610076600480360381019061007191906104a6565b610139565b604051610083919061056d565b60405180910390f35b34801561009857600080fd5b506100b360048036038101906100ae919061046a565b61017d565b005b6100bd6102d1565b005b3480156100cb57600080fd5b506100e660048036038101906100e19190610441565b61037e565b6040516100f391906105c8565b60405180910390f35b34801561010857600080fd5b50610123600480360381019061011e91906104a6565b61039e565b604051610130919061056d565b60405180910390f35b600080821415610172577f4e487b7100000000000000000000000000000000000000000000000000000000600052600160045260246000fd5b600082149050919050565b6000803373ffffffffffffffffffffffffffffffffffffffff1673ffffffffffffffffffffffffffffffffffffffff16815260200190815260200160002060009054906101000a900460ff1660ff168160ff161115610211576040517f08c379a0000000000000000000000000000000000000000000000000000000008152600401610208906105a8565b60405180910390fd5b806000803373ffffffffffffffffffffffffffffffffffffffff1673ffffffffffffffffffffffffffffffffffffffff16815260200190815260200160002060008282829054906101000a900460ff1661026b919061062b565b92506101000a81548160ff021916908360ff1602179055508173ffffffffffffffffffffffffffffffffffffffff166108fc8260ff169081150290604051600060405180830381858888f193505050501580156102cc573d6000803e3d6000fd5b505050565b3460ff16341461030a577f4e487b7100000000000000000000000000000000000000000000000000000000600052600160045260246000fd5b346000803373ffffffffffffffffffffffffffffffffffffffff1673ffffffffffffffffffffffffffffffffffffffff16815260200190815260200160002060008282829054906101000a900460ff1661036491906105f4565b92506101000a81548160ff021916908360ff160217905550565b60006020528060005260406000206000915054906101000a900460ff1681565b60008082146103e2576040517f08c379a00000000000000000000000000000000000000000000000000000000081526004016103d990610588565b60405180910390fd5b600082149050919050565b6000813590506103fc816106f5565b92915050565b6000813590506104118161070c565b92915050565b60008135905061042681610723565b92915050565b60008135905061043b8161073a565b92915050565b60006020828403121561045357600080fd5b6000610461848285016103ed565b91505092915050565b6000806040838503121561047d57600080fd5b600061048b85828601610402565b925050602061049c8582860161042c565b9150509250929050565b6000602082840312156104b857600080fd5b60006104c684828501610417565b91505092915050565b6104d881610683565b82525050565b60006104eb6014836105e3565b91507f6e756d2030206973206e6f7420616c6c6f7765640000000000000000000000006000830152602082019050919050565b600061052b601e836105e3565b91507f496e73756666696369656e742066756e642c2061626f7274696e672e2e2e00006000830152602082019050919050565b610567816106b9565b82525050565b600060208201905061058260008301846104cf565b92915050565b600060208201905081810360008301526105a1816104de565b9050919050565b600060208201905081810360008301526105c18161051e565b9050919050565b60006020820190506105dd600083018461055e565b92915050565b600082825260208201905092915050565b60006105ff826106b9565b915061060a836106b9565b92508260ff038211156106205761061f6106c6565b5b828201905092915050565b6000610636826106b9565b9150610641836106b9565b925082821015610654576106536106c6565b5b828203905092915050565b600061066a8261068f565b9050919050565b600061067c8261068f565b9050919050565b60008115159050919050565b600073ffffffffffffffffffffffffffffffffffffffff82169050919050565b6000819050919050565b600060ff82169050919050565b7f4e487b7100000000000000000000000000000000000000000000000000000000600052601160045260246000fd5b6106fe8161065f565b811461070957600080fd5b50565b61071581610671565b811461072057600080fd5b50565b61072c816106af565b811461073757600080fd5b50565b610743816106b9565b811461074e57600080fd5b5056fea26469706673582212200f866dfd163619d57ff5ff9579eaf035c1affb2e447dc3d81139b72aff0442af64736f6c63430008000033",
					"opcodes": "PUSH1 0x80 PUSH1 0x40 MSTORE CALLVALUE DUP1 ISZERO PUSH2 0x10 JUMPI PUSH1 0x0 DUP1 REVERT JUMPDEST POP PUSH2 0x787 DUP1 PUSH2 0x20 PUSH1 0x0 CODECOPY PUSH1 0x0 RETURN INVALID PUSH1 0x80 PUSH1 0x40 MSTORE PUSH1 0x4 CALLDATASIZE LT PUSH2 0x4A JUMPI PUSH1 0x0 CALLDATALOAD PUSH1 0xE0 SHR DUP1 PUSH4 0x3E823F79 EQ PUSH2 0x4F JUMPI DUP1 PUSH4 0x70076662 EQ PUSH2 0x8C JUMPI DUP1 PUSH4 0xD0E30DB0 EQ PUSH2 0xB5 JUMPI DUP1 PUSH4 0xD18A42E1 EQ PUSH2 0xBF JUMPI DUP1 PUSH4 0xFD5CBE32 EQ PUSH2 0xFC JUMPI JUMPDEST PUSH1 0x0 DUP1 REVERT JUMPDEST CALLVALUE DUP1 ISZERO PUSH2 0x5B JUMPI PUSH1 0x0 DUP1 REVERT JUMPDEST POP PUSH2 0x76 PUSH1 0x4 DUP1 CALLDATASIZE SUB DUP2 ADD SWAP1 PUSH2 0x71 SWAP2 SWAP1 PUSH2 0x4A6 JUMP JUMPDEST PUSH2 0x139 JUMP JUMPDEST PUSH1 0x40 MLOAD PUSH2 0x83 SWAP2 SWAP1 PUSH2 0x56D JUMP JUMPDEST PUSH1 0x40 MLOAD DUP1 SWAP2 SUB SWAP1 RETURN JUMPDEST CALLVALUE DUP1 ISZERO PUSH2 0x98 JUMPI PUSH1 0x0 DUP1 REVERT JUMPDEST POP PUSH2 0xB3 PUSH1 0x4 DUP1 CALLDATASIZE SUB DUP2 ADD SWAP1 PUSH2 0xAE SWAP2 SWAP1 PUSH2 0x46A JUMP JUMPDEST PUSH2 0x17D JUMP JUMPDEST STOP JUMPDEST PUSH2 0xBD PUSH2 0x2D1 JUMP JUMPDEST STOP JUMPDEST CALLVALUE DUP1 ISZERO PUSH2 0xCB JUMPI PUSH1 0x0 DUP1 REVERT JUMPDEST POP PUSH2 0xE6 PUSH1 0x4 DUP1 CALLDATASIZE SUB DUP2 ADD SWAP1 PUSH2 0xE1 SWAP2 SWAP1 PUSH2 0x441 JUMP JUMPDEST PUSH2 0x37E JUMP JUMPDEST PUSH1 0x40 MLOAD PUSH2 0xF3 SWAP2 SWAP1 PUSH2 0x5C8 JUMP JUMPDEST PUSH1 0x40 MLOAD DUP1 SWAP2 SUB SWAP1 RETURN JUMPDEST CALLVALUE DUP1 ISZERO PUSH2 0x108 JUMPI PUSH1 0x0 DUP1 REVERT JUMPDEST POP PUSH2 0x123 PUSH1 0x4 DUP1 CALLDATASIZE SUB DUP2 ADD SWAP1 PUSH2 0x11E SWAP2 SWAP1 PUSH2 0x4A6 JUMP JUMPDEST PUSH2 0x39E JUMP JUMPDEST PUSH1 0x40 MLOAD PUSH2 0x130 SWAP2 SWAP1 PUSH2 0x56D JUMP JUMPDEST PUSH1 0x40 MLOAD DUP1 SWAP2 SUB SWAP1 RETURN JUMPDEST PUSH1 0x0 DUP1 DUP3 EQ ISZERO PUSH2 0x172 JUMPI PUSH32 0x4E487B7100000000000000000000000000000000000000000000000000000000 PUSH1 0x0 MSTORE PUSH1 0x1 PUSH1 0x4 MSTORE PUSH1 0x24 PUSH1 0x0 REVERT JUMPDEST PUSH1 0x0 DUP3 EQ SWAP1 POP SWAP2 SWAP1 POP JUMP JUMPDEST PUSH1 0x0 DUP1 CALLER PUSH20 0xFFFFFFFFFFFFFFFFFFFFFFFFFFFFFFFFFFFFFFFF AND PUSH20 0xFFFFFFFFFFFFFFFFFFFFFFFFFFFFFFFFFFFFFFFF AND DUP2 MSTORE PUSH1 0x20 ADD SWAP1 DUP2 MSTORE PUSH1 0x20 ADD PUSH1 0x0 KECCAK256 PUSH1 0x0 SWAP1 SLOAD SWAP1 PUSH2 0x100 EXP SWAP1 DIV PUSH1 0xFF AND PUSH1 0xFF AND DUP2 PUSH1 0xFF AND GT ISZERO PUSH2 0x211 JUMPI PUSH1 0x40 MLOAD PUSH32 0x8C379A000000000000000000000000000000000000000000000000000000000 DUP2 MSTORE PUSH1 0x4 ADD PUSH2 0x208 SWAP1 PUSH2 0x5A8 JUMP JUMPDEST PUSH1 0x40 MLOAD DUP1 SWAP2 SUB SWAP1 REVERT JUMPDEST DUP1 PUSH1 0x0 DUP1 CALLER PUSH20 0xFFFFFFFFFFFFFFFFFFFFFFFFFFFFFFFFFFFFFFFF AND PUSH20 0xFFFFFFFFFFFFFFFFFFFFFFFFFFFFFFFFFFFFFFFF AND DUP2 MSTORE PUSH1 0x20 ADD SWAP1 DUP2 MSTORE PUSH1 0x20 ADD PUSH1 0x0 KECCAK256 PUSH1 0x0 DUP3 DUP3 DUP3 SWAP1 SLOAD SWAP1 PUSH2 0x100 EXP SWAP1 DIV PUSH1 0xFF AND PUSH2 0x26B SWAP2 SWAP1 PUSH2 0x62B JUMP JUMPDEST SWAP3 POP PUSH2 0x100 EXP DUP2 SLOAD DUP2 PUSH1 0xFF MUL NOT AND SWAP1 DUP4 PUSH1 0xFF AND MUL OR SWAP1 SSTORE POP DUP2 PUSH20 0xFFFFFFFFFFFFFFFFFFFFFFFFFFFFFFFFFFFFFFFF AND PUSH2 0x8FC DUP3 PUSH1 0xFF AND SWAP1 DUP2 ISZERO MUL SWAP1 PUSH1 0x40 MLOAD PUSH1 0x0 PUSH1 0x40 MLOAD DUP1 DUP4 SUB DUP2 DUP6 DUP9 DUP9 CALL SWAP4 POP POP POP POP ISZERO DUP1 ISZERO PUSH2 0x2CC JUMPI RETURNDATASIZE PUSH1 0x0 DUP1 RETURNDATACOPY RETURNDATASIZE PUSH1 0x0 REVERT JUMPDEST POP POP POP JUMP JUMPDEST CALLVALUE PUSH1 0xFF AND CALLVALUE EQ PUSH2 0x30A JUMPI PUSH32 0x4E487B7100000000000000000000000000000000000000000000000000000000 PUSH1 0x0 MSTORE PUSH1 0x1 PUSH1 0x4 MSTORE PUSH1 0x24 PUSH1 0x0 REVERT JUMPDEST CALLVALUE PUSH1 0x0 DUP1 CALLER PUSH20 0xFFFFFFFFFFFFFFFFFFFFFFFFFFFFFFFFFFFFFFFF AND PUSH20 0xFFFFFFFFFFFFFFFFFFFFFFFFFFFFFFFFFFFFFFFF AND DUP2 MSTORE PUSH1 0x20 ADD SWAP1 DUP2 MSTORE PUSH1 0x20 ADD PUSH1 0x0 KECCAK256 PUSH1 0x0 DUP3 DUP3 DUP3 SWAP1 SLOAD SWAP1 PUSH2 0x100 EXP SWAP1 DIV PUSH1 0xFF AND PUSH2 0x364 SWAP2 SWAP1 PUSH2 0x5F4 JUMP JUMPDEST SWAP3 POP PUSH2 0x100 EXP DUP2 SLOAD DUP2 PUSH1 0xFF MUL NOT AND SWAP1 DUP4 PUSH1 0xFF AND MUL OR SWAP1 SSTORE POP JUMP JUMPDEST PUSH1 0x0 PUSH1 0x20 MSTORE DUP1 PUSH1 0x0 MSTORE PUSH1 0x40 PUSH1 0x0 KECCAK256 PUSH1 0x0 SWAP2 POP SLOAD SWAP1 PUSH2 0x100 EXP SWAP1 DIV PUSH1 0xFF AND DUP2 JUMP JUMPDEST PUSH1 0x0 DUP1 DUP3 EQ PUSH2 0x3E2 JUMPI PUSH1 0x40 MLOAD PUSH32 0x8C379A000000000000000000000000000000000000000000000000000000000 DUP2 MSTORE PUSH1 0x4 ADD PUSH2 0x3D9 SWAP1 PUSH2 0x588 JUMP JUMPDEST PUSH1 0x40 MLOAD DUP1 SWAP2 SUB SWAP1 REVERT JUMPDEST PUSH1 0x0 DUP3 EQ SWAP1 POP SWAP2 SWAP1 POP JUMP JUMPDEST PUSH1 0x0 DUP2 CALLDATALOAD SWAP1 POP PUSH2 0x3FC DUP2 PUSH2 0x6F5 JUMP JUMPDEST SWAP3 SWAP2 POP POP JUMP JUMPDEST PUSH1 0x0 DUP2 CALLDATALOAD SWAP1 POP PUSH2 0x411 DUP2 PUSH2 0x70C JUMP JUMPDEST SWAP3 SWAP2 POP POP JUMP JUMPDEST PUSH1 0x0 DUP2 CALLDATALOAD SWAP1 POP PUSH2 0x426 DUP2 PUSH2 0x723 JUMP JUMPDEST SWAP3 SWAP2 POP POP JUMP JUMPDEST PUSH1 0x0 DUP2 CALLDATALOAD SWAP1 POP PUSH2 0x43B DUP2 PUSH2 0x73A JUMP JUMPDEST SWAP3 SWAP2 POP POP JUMP JUMPDEST PUSH1 0x0 PUSH1 0x20 DUP3 DUP5 SUB SLT ISZERO PUSH2 0x453 JUMPI PUSH1 0x0 DUP1 REVERT JUMPDEST PUSH1 0x0 PUSH2 0x461 DUP5 DUP3 DUP6 ADD PUSH2 0x3ED JUMP JUMPDEST SWAP2 POP POP SWAP3 SWAP2 POP POP JUMP JUMPDEST PUSH1 0x0 DUP1 PUSH1 0x40 DUP4 DUP6 SUB SLT ISZERO PUSH2 0x47D JUMPI PUSH1 0x0 DUP1 REVERT JUMPDEST PUSH1 0x0 PUSH2 0x48B DUP6 DUP3 DUP7 ADD PUSH2 0x402 JUMP JUMPDEST SWAP3 POP POP PUSH1 0x20 PUSH2 0x49C DUP6 DUP3 DUP7 ADD PUSH2 0x42C JUMP JUMPDEST SWAP2 POP POP SWAP3 POP SWAP3 SWAP1 POP JUMP JUMPDEST PUSH1 0x0 PUSH1 0x20 DUP3 DUP5 SUB SLT ISZERO PUSH2 0x4B8 JUMPI PUSH1 0x0 DUP1 REVERT JUMPDEST PUSH1 0x0 PUSH2 0x4C6 DUP5 DUP3 DUP6 ADD PUSH2 0x417 JUMP JUMPDEST SWAP2 POP POP SWAP3 SWAP2 POP POP JUMP JUMPDEST PUSH2 0x4D8 DUP2 PUSH2 0x683 JUMP JUMPDEST DUP3 MSTORE POP POP JUMP JUMPDEST PUSH1 0x0 PUSH2 0x4EB PUSH1 0x14 DUP4 PUSH2 0x5E3 JUMP JUMPDEST SWAP2 POP PUSH32 0x6E756D2030206973206E6F7420616C6C6F776564000000000000000000000000 PUSH1 0x0 DUP4 ADD MSTORE PUSH1 0x20 DUP3 ADD SWAP1 POP SWAP2 SWAP1 POP JUMP JUMPDEST PUSH1 0x0 PUSH2 0x52B PUSH1 0x1E DUP4 PUSH2 0x5E3 JUMP JUMPDEST SWAP2 POP PUSH32 0x496E73756666696369656E742066756E642C2061626F7274696E672E2E2E0000 PUSH1 0x0 DUP4 ADD MSTORE PUSH1 0x20 DUP3 ADD SWAP1 POP SWAP2 SWAP1 POP JUMP JUMPDEST PUSH2 0x567 DUP2 PUSH2 0x6B9 JUMP JUMPDEST DUP3 MSTORE POP POP JUMP JUMPDEST PUSH1 0x0 PUSH1 0x20 DUP3 ADD SWAP1 POP PUSH2 0x582 PUSH1 0x0 DUP4 ADD DUP5 PUSH2 0x4CF JUMP JUMPDEST SWAP3 SWAP2 POP POP JUMP JUMPDEST PUSH1 0x0 PUSH1 0x20 DUP3 ADD SWAP1 POP DUP2 DUP2 SUB PUSH1 0x0 DUP4 ADD MSTORE PUSH2 0x5A1 DUP2 PUSH2 0x4DE JUMP JUMPDEST SWAP1 POP SWAP2 SWAP1 POP JUMP JUMPDEST PUSH1 0x0 PUSH1 0x20 DUP3 ADD SWAP1 POP DUP2 DUP2 SUB PUSH1 0x0 DUP4 ADD MSTORE PUSH2 0x5C1 DUP2 PUSH2 0x51E JUMP JUMPDEST SWAP1 POP SWAP2 SWAP1 POP JUMP JUMPDEST PUSH1 0x0 PUSH1 0x20 DUP3 ADD SWAP1 POP PUSH2 0x5DD PUSH1 0x0 DUP4 ADD DUP5 PUSH2 0x55E JUMP JUMPDEST SWAP3 SWAP2 POP POP JUMP JUMPDEST PUSH1 0x0 DUP3 DUP3 MSTORE PUSH1 0x20 DUP3 ADD SWAP1 POP SWAP3 SWAP2 POP POP JUMP JUMPDEST PUSH1 0x0 PUSH2 0x5FF DUP3 PUSH2 0x6B9 JUMP JUMPDEST SWAP2 POP PUSH2 0x60A DUP4 PUSH2 0x6B9 JUMP JUMPDEST SWAP3 POP DUP3 PUSH1 0xFF SUB DUP3 GT ISZERO PUSH2 0x620 JUMPI PUSH2 0x61F PUSH2 0x6C6 JUMP JUMPDEST JUMPDEST DUP3 DUP3 ADD SWAP1 POP SWAP3 SWAP2 POP POP JUMP JUMPDEST PUSH1 0x0 PUSH2 0x636 DUP3 PUSH2 0x6B9 JUMP JUMPDEST SWAP2 POP PUSH2 0x641 DUP4 PUSH2 0x6B9 JUMP JUMPDEST SWAP3 POP DUP3 DUP3 LT ISZERO PUSH2 0x654 JUMPI PUSH2 0x653 PUSH2 0x6C6 JUMP JUMPDEST JUMPDEST DUP3 DUP3 SUB SWAP1 POP SWAP3 SWAP2 POP POP JUMP JUMPDEST PUSH1 0x0 PUSH2 0x66A DUP3 PUSH2 0x68F JUMP JUMPDEST SWAP1 POP SWAP2 SWAP1 POP JUMP JUMPDEST PUSH1 0x0 PUSH2 0x67C DUP3 PUSH2 0x68F JUMP JUMPDEST SWAP1 POP SWAP2 SWAP1 POP JUMP JUMPDEST PUSH1 0x0 DUP2 ISZERO ISZERO SWAP1 POP SWAP2 SWAP1 POP JUMP JUMPDEST PUSH1 0x0 PUSH20 0xFFFFFFFFFFFFFFFFFFFFFFFFFFFFFFFFFFFFFFFF DUP3 AND SWAP1 POP SWAP2 SWAP1 POP JUMP JUMPDEST PUSH1 0x0 DUP2 SWAP1 POP SWAP2 SWAP1 POP JUMP JUMPDEST PUSH1 0x0 PUSH1 0xFF DUP3 AND SWAP1 POP SWAP2 SWAP1 POP JUMP JUMPDEST PUSH32 0x4E487B7100000000000000000000000000000000000000000000000000000000 PUSH1 0x0 MSTORE PUSH1 0x11 PUSH1 0x4 MSTORE PUSH1 0x24 PUSH1 0x0 REVERT JUMPDEST PUSH2 0x6FE DUP2 PUSH2 0x65F JUMP JUMPDEST DUP2 EQ PUSH2 0x709 JUMPI PUSH1 0x0 DUP1 REVERT JUMPDEST POP JUMP JUMPDEST PUSH2 0x715 DUP2 PUSH2 0x671 JUMP JUMPDEST DUP2 EQ PUSH2 0x720 JUMPI PUSH1 0x0 DUP1 REVERT JUMPDEST POP JUMP JUMPDEST PUSH2 0x72C DUP2 PUSH2 0x6AF JUMP JUMPDEST DUP2 EQ PUSH2 0x737 JUMPI PUSH1 0x0 DUP1 REVERT JUMPDEST POP JUMP JUMPDEST PUSH2 0x743 DUP2 PUSH2 0x6B9 JUMP JUMPDEST DUP2 EQ PUSH2 0x74E JUMPI PUSH1 0x0 DUP1 REVERT JUMPDEST POP JUMP INVALID LOG2 PUSH5 0x6970667358 0x22 SLT KECCAK256 0xF DUP7 PUSH14 0xFD163619D57FF5FF9579EAF035C1 0xAF 0xFB 0x2E DIFFICULTY PUSH30 0xC3D81139B72AFF0442AF64736F6C63430008000033000000000000000000 "
				},
				"gasEstimates": {
					"creation": {
						"codeDepositCost": "385400",
						"executionCost": "424",
						"totalCost": "385824"
					},
					"external": {
						"balanceReceived(address)": "1589",
						"checkNum(uint256)": "756",
						"deposit()": "infinite",
						"divide(uint256)": "618",
						"withdrawToAddress(address,uint8)": "infinite"
					}
				},
				"methodIdentifiers": {
					"balanceReceived(address)": "d18a42e1",
					"checkNum(uint256)": "fd5cbe32",
					"deposit()": "d0e30db0",
					"divide(uint256)": "3e823f79",
					"withdrawToAddress(address,uint8)": "70076662"
				}
			},
			"storageLayout": {
				"storage": [
					{
						"astId": 5,
						"contract": "revision/ExceptionRequire.sol:Wallet",
						"label": "balanceReceived",
						"offset": 0,
						"slot": "0",
						"type": "t_mapping(t_address,t_uint8)"
					}
				],
				"types": {
					"t_address": {
						"encoding": "inplace",
						"label": "address",
						"numberOfBytes": "20"
					},
					"t_mapping(t_address,t_uint8)": {
						"encoding": "mapping",
						"key": "t_address",
						"label": "mapping(address => uint8)",
						"numberOfBytes": "32",
						"value": "t_uint8"
					},
					"t_uint8": {
						"encoding": "inplace",
						"label": "uint8",
						"numberOfBytes": "1"
					}
				}
			},
			"userdoc": {
				"kind": "user",
				"methods": {},
				"version": 1
			}
		}
	}
}