{
	"revision/MappingAndStruct.sol": {
		"Wallet": {
			"abi": [
				{
					"inputs": [
						{
							"internalType": "address",
							"name": "",
							"type": "address"
						}
					],
					"name": "balances",
					"outputs": [
						{
							"internalType": "uint256",
							"name": "totalBlance",
							"type": "uint256"
						},
						{
							"internalType": "uint256",
							"name": "numDeposits",
							"type": "uint256"
						},
						{
							"internalType": "uint256",
							"name": "numWithdraws",
							"type": "uint256"
						}
					],
					"stateMutability": "view",
					"type": "function"
				},
				{
					"inputs": [],
					"name": "deposit",
					"outputs": [],
					"stateMutability": "payable",
					"type": "function"
				},
				{
					"inputs": [
						{
							"internalType": "address",
							"name": "_from",
							"type": "address"
						},
						{
							"internalType": "uint256",
							"name": "_numDeposit",
							"type": "uint256"
						}
					],
					"name": "getDepositNum",
					"outputs": [
						{
							"components": [
								{
									"internalType": "uint256",
									"name": "amount",
									"type": "uint256"
								},
								{
									"internalType": "uint256",
									"name": "timestamp",
									"type": "uint256"
								}
							],
							"internalType": "struct Wallet.Transaction",
							"name": "",
							"type": "tuple"
						}
					],
					"stateMutability": "view",
					"type": "function"
				},
				{
					"inputs": [
						{
							"internalType": "address payable",
							"name": "_to",
							"type": "address"
						},
						{
							"internalType": "uint256",
							"name": "_amount",
							"type": "uint256"
						}
					],
					"name": "withdrawToAddress",
					"outputs": [],
					"stateMutability": "nonpayable",
					"type": "function"
				}
			],
			"devdoc": {
				"kind": "dev",
				"methods": {},
				"version": 1
			},
			"evm": {
				"assembly": "    /* \"revision/MappingAndStruct.sol\":57:1332  contract Wallet {... */\n  mstore(0x40, 0x80)\n  callvalue\n  dup1\n  iszero\n  tag_1\n  jumpi\n  0x00\n  dup1\n  revert\ntag_1:\n  pop\n  dataSize(sub_0)\n  dup1\n  dataOffset(sub_0)\n  0x00\n  codecopy\n  0x00\n  return\nstop\n\nsub_0: assembly {\n        /* \"revision/MappingAndStruct.sol\":57:1332  contract Wallet {... */\n      mstore(0x40, 0x80)\n      jumpi(tag_1, lt(calldatasize, 0x04))\n      shr(0xe0, calldataload(0x00))\n      dup1\n      0x27e235e3\n      eq\n      tag_2\n      jumpi\n      dup1\n      0x35bdac34\n      eq\n      tag_3\n      jumpi\n      dup1\n      0x55e14fe6\n      eq\n      tag_4\n      jumpi\n      dup1\n      0xd0e30db0\n      eq\n      tag_5\n      jumpi\n    tag_1:\n      0x00\n      dup1\n      revert\n        /* \"revision/MappingAndStruct.sol\":379:422  mapping(address => Balance) public balances */\n    tag_2:\n      callvalue\n      dup1\n      iszero\n      tag_6\n      jumpi\n      0x00\n      dup1\n      revert\n    tag_6:\n      pop\n      tag_7\n      0x04\n      dup1\n      calldatasize\n      sub\n      dup2\n      add\n      swap1\n      tag_8\n      swap2\n      swap1\n      tag_9\n      jump\t// in\n    tag_8:\n      tag_10\n      jump\t// in\n    tag_7:\n      mload(0x40)\n      tag_11\n      swap4\n      swap3\n      swap2\n      swap1\n      tag_12\n      jump\t// in\n    tag_11:\n      mload(0x40)\n      dup1\n      swap2\n      sub\n      swap1\n      return\n        /* \"revision/MappingAndStruct.sol\":931:1330  function withdrawToAddress(address payable _to, uint256 _amount) public {... */\n    tag_3:\n      callvalue\n      dup1\n      iszero\n      tag_13\n      jumpi\n      0x00\n      dup1\n      revert\n    tag_13:\n      pop\n      tag_14\n      0x04\n      dup1\n      calldatasize\n      sub\n      dup2\n      add\n      swap1\n      tag_15\n      swap2\n      swap1\n      tag_16\n      jump\t// in\n    tag_15:\n      tag_17\n      jump\t// in\n    tag_14:\n      stop\n        /* \"revision/MappingAndStruct.sol\":434:592  function getDepositNum(address _from, uint _numDeposit) public view returns(Transaction memory) {... */\n    tag_4:\n      callvalue\n      dup1\n      iszero\n      tag_18\n      jumpi\n      0x00\n      dup1\n      revert\n    tag_18:\n      pop\n      tag_19\n      0x04\n      dup1\n      calldatasize\n      sub\n      dup2\n      add\n      swap1\n      tag_20\n      swap2\n      swap1\n      tag_21\n      jump\t// in\n    tag_20:\n      tag_22\n      jump\t// in\n    tag_19:\n      mload(0x40)\n      tag_23\n      swap2\n      swap1\n      tag_24\n      jump\t// in\n    tag_23:\n      mload(0x40)\n      dup1\n      swap2\n      sub\n      swap1\n      return\n        /* \"revision/MappingAndStruct.sol\":599:925  function deposit() public payable {... */\n    tag_5:\n      tag_25\n      tag_26\n      jump\t// in\n    tag_25:\n      stop\n        /* \"revision/MappingAndStruct.sol\":379:422  mapping(address => Balance) public balances */\n    tag_10:\n      mstore(0x20, 0x00)\n      dup1\n      0x00\n      mstore\n      keccak256(0x00, 0x40)\n      0x00\n      swap2\n      pop\n      swap1\n      pop\n      dup1\n      0x00\n      add\n      sload\n      swap1\n      dup1\n      0x01\n      add\n      sload\n      swap1\n      dup1\n      0x02\n      add\n      sload\n      swap1\n      pop\n      dup4\n      jump\t// out\n        /* \"revision/MappingAndStruct.sol\":931:1330  function withdrawToAddress(address payable _to, uint256 _amount) public {... */\n    tag_17:\n        /* \"revision/MappingAndStruct.sol\":1049:1056  _amount */\n      dup1\n        /* \"revision/MappingAndStruct.sol\":1013:1021  balances */\n      0x00\n        /* \"revision/MappingAndStruct.sol\":1013:1033  balances[msg.sender] */\n      dup1\n        /* \"revision/MappingAndStruct.sol\":1022:1032  msg.sender */\n      caller\n        /* \"revision/MappingAndStruct.sol\":1013:1033  balances[msg.sender] */\n      0xffffffffffffffffffffffffffffffffffffffff\n      and\n      0xffffffffffffffffffffffffffffffffffffffff\n      and\n      dup2\n      mstore\n      0x20\n      add\n      swap1\n      dup2\n      mstore\n      0x20\n      add\n      0x00\n      keccak256\n        /* \"revision/MappingAndStruct.sol\":1013:1045  balances[msg.sender].totalBlance */\n      0x00\n      add\n      0x00\n        /* \"revision/MappingAndStruct.sol\":1013:1056  balances[msg.sender].totalBlance -= _amount */\n      dup3\n      dup3\n      sload\n      tag_28\n      swap2\n      swap1\n      tag_29\n      jump\t// in\n    tag_28:\n      swap3\n      pop\n      pop\n      dup2\n      swap1\n      sstore\n      pop\n        /* \"revision/MappingAndStruct.sol\":1066:1095  Transaction memory withdrawal */\n      0x00\n        /* \"revision/MappingAndStruct.sol\":1098:1135  Transaction(_amount, block.timestamp) */\n      mload(0x40)\n      dup1\n      0x40\n      add\n      0x40\n      mstore\n      dup1\n        /* \"revision/MappingAndStruct.sol\":1110:1117  _amount */\n      dup4\n        /* \"revision/MappingAndStruct.sol\":1098:1135  Transaction(_amount, block.timestamp) */\n      dup2\n      mstore\n      0x20\n      add\n        /* \"revision/MappingAndStruct.sol\":1119:1134  block.timestamp */\n      timestamp\n        /* \"revision/MappingAndStruct.sol\":1098:1135  Transaction(_amount, block.timestamp) */\n      dup2\n      mstore\n      pop\n        /* \"revision/MappingAndStruct.sol\":1066:1135  Transaction memory withdrawal = Transaction(_amount, block.timestamp) */\n      swap1\n      pop\n        /* \"revision/MappingAndStruct.sol\":1235:1245  withdrawal */\n      dup1\n        /* \"revision/MappingAndStruct.sol\":1145:1153  balances */\n      0x00\n        /* \"revision/MappingAndStruct.sol\":1145:1165  balances[msg.sender] */\n      dup1\n        /* \"revision/MappingAndStruct.sol\":1154:1164  msg.sender */\n      caller\n        /* \"revision/MappingAndStruct.sol\":1145:1165  balances[msg.sender] */\n      0xffffffffffffffffffffffffffffffffffffffff\n      and\n      0xffffffffffffffffffffffffffffffffffffffff\n      and\n      dup2\n      mstore\n      0x20\n      add\n      swap1\n      dup2\n      mstore\n      0x20\n      add\n      0x00\n      keccak256\n        /* \"revision/MappingAndStruct.sol\":1145:1175  balances[msg.sender].withdraws */\n      0x04\n      add\n        /* \"revision/MappingAndStruct.sol\":1145:1232  balances[msg.sender].withdraws[... */\n      0x00\n        /* \"revision/MappingAndStruct.sol\":1189:1197  balances */\n      dup1\n        /* \"revision/MappingAndStruct.sol\":1189:1209  balances[msg.sender] */\n      0x00\n        /* \"revision/MappingAndStruct.sol\":1198:1208  msg.sender */\n      caller\n        /* \"revision/MappingAndStruct.sol\":1189:1209  balances[msg.sender] */\n      0xffffffffffffffffffffffffffffffffffffffff\n      and\n      0xffffffffffffffffffffffffffffffffffffffff\n      and\n      dup2\n      mstore\n      0x20\n      add\n      swap1\n      dup2\n      mstore\n      0x20\n      add\n      0x00\n      keccak256\n        /* \"revision/MappingAndStruct.sol\":1189:1222  balances[msg.sender].numWithdraws */\n      0x02\n      add\n      sload\n        /* \"revision/MappingAndStruct.sol\":1145:1232  balances[msg.sender].withdraws[... */\n      dup2\n      mstore\n      0x20\n      add\n      swap1\n      dup2\n      mstore\n      0x20\n      add\n      0x00\n      keccak256\n        /* \"revision/MappingAndStruct.sol\":1145:1245  balances[msg.sender].withdraws[... */\n      0x00\n      dup3\n      add\n      mload\n      dup2\n      0x00\n      add\n      sstore\n      0x20\n      dup3\n      add\n      mload\n      dup2\n      0x01\n      add\n      sstore\n      swap1\n      pop\n      pop\n        /* \"revision/MappingAndStruct.sol\":1256:1264  balances */\n      0x00\n        /* \"revision/MappingAndStruct.sol\":1256:1276  balances[msg.sender] */\n      dup1\n        /* \"revision/MappingAndStruct.sol\":1265:1275  msg.sender */\n      caller\n        /* \"revision/MappingAndStruct.sol\":1256:1276  balances[msg.sender] */\n      0xffffffffffffffffffffffffffffffffffffffff\n      and\n      0xffffffffffffffffffffffffffffffffffffffff\n      and\n      dup2\n      mstore\n      0x20\n      add\n      swap1\n      dup2\n      mstore\n      0x20\n      add\n      0x00\n      keccak256\n        /* \"revision/MappingAndStruct.sol\":1256:1289  balances[msg.sender].numWithdraws */\n      0x02\n      add\n      0x00\n        /* \"revision/MappingAndStruct.sol\":1256:1291  balances[msg.sender].numWithdraws++ */\n      dup2\n      sload\n      dup1\n      swap3\n      swap2\n      swap1\n      tag_30\n      swap1\n      tag_31\n      jump\t// in\n    tag_30:\n      swap2\n      swap1\n      pop\n      sstore\n      pop\n        /* \"revision/MappingAndStruct.sol\":1302:1305  _to */\n      dup3\n        /* \"revision/MappingAndStruct.sol\":1302:1314  _to.transfer */\n      0xffffffffffffffffffffffffffffffffffffffff\n      and\n        /* \"revision/MappingAndStruct.sol\":1302:1323  _to.transfer(_amount) */\n      0x08fc\n        /* \"revision/MappingAndStruct.sol\":1315:1322  _amount */\n      dup4\n        /* \"revision/MappingAndStruct.sol\":1302:1323  _to.transfer(_amount) */\n      swap1\n      dup2\n      iszero\n      mul\n      swap1\n      mload(0x40)\n      0x00\n      mload(0x40)\n      dup1\n      dup4\n      sub\n      dup2\n      dup6\n      dup9\n      dup9\n      call\n      swap4\n      pop\n      pop\n      pop\n      pop\n      iszero\n      dup1\n      iszero\n      tag_33\n      jumpi\n      returndatasize\n      0x00\n      dup1\n      returndatacopy\n      revert(0x00, returndatasize)\n    tag_33:\n      pop\n        /* \"revision/MappingAndStruct.sol\":1003:1330  {... */\n      pop\n        /* \"revision/MappingAndStruct.sol\":931:1330  function withdrawToAddress(address payable _to, uint256 _amount) public {... */\n      pop\n      pop\n      jump\t// out\n        /* \"revision/MappingAndStruct.sol\":434:592  function getDepositNum(address _from, uint _numDeposit) public view returns(Transaction memory) {... */\n    tag_22:\n        /* \"revision/MappingAndStruct.sol\":510:528  Transaction memory */\n      tag_34\n      tag_35\n      jump\t// in\n    tag_34:\n        /* \"revision/MappingAndStruct.sol\":548:556  balances */\n      0x00\n        /* \"revision/MappingAndStruct.sol\":548:563  balances[_from] */\n      dup1\n        /* \"revision/MappingAndStruct.sol\":557:562  _from */\n      dup5\n        /* \"revision/MappingAndStruct.sol\":548:563  balances[_from] */\n      0xffffffffffffffffffffffffffffffffffffffff\n      and\n      0xffffffffffffffffffffffffffffffffffffffff\n      and\n      dup2\n      mstore\n      0x20\n      add\n      swap1\n      dup2\n      mstore\n      0x20\n      add\n      0x00\n      keccak256\n        /* \"revision/MappingAndStruct.sol\":548:572  balances[_from].deposits */\n      0x03\n      add\n        /* \"revision/MappingAndStruct.sol\":548:585  balances[_from].deposits[_numDeposit] */\n      0x00\n        /* \"revision/MappingAndStruct.sol\":573:584  _numDeposit */\n      dup4\n        /* \"revision/MappingAndStruct.sol\":548:585  balances[_from].deposits[_numDeposit] */\n      dup2\n      mstore\n      0x20\n      add\n      swap1\n      dup2\n      mstore\n      0x20\n      add\n      0x00\n      keccak256\n        /* \"revision/MappingAndStruct.sol\":540:585  return  balances[_from].deposits[_numDeposit] */\n      mload(0x40)\n      dup1\n      0x40\n      add\n      0x40\n      mstore\n      swap1\n      dup2\n      0x00\n      dup3\n      add\n      sload\n      dup2\n      mstore\n      0x20\n      add\n      0x01\n      dup3\n      add\n      sload\n      dup2\n      mstore\n      pop\n      pop\n      swap1\n      pop\n        /* \"revision/MappingAndStruct.sol\":434:592  function getDepositNum(address _from, uint _numDeposit) public view returns(Transaction memory) {... */\n      swap3\n      swap2\n      pop\n      pop\n      jump\t// out\n        /* \"revision/MappingAndStruct.sol\":599:925  function deposit() public payable {... */\n    tag_26:\n        /* \"revision/MappingAndStruct.sol\":679:688  msg.value */\n      callvalue\n        /* \"revision/MappingAndStruct.sol\":643:651  balances */\n      0x00\n        /* \"revision/MappingAndStruct.sol\":643:663  balances[msg.sender] */\n      dup1\n        /* \"revision/MappingAndStruct.sol\":652:662  msg.sender */\n      caller\n        /* \"revision/MappingAndStruct.sol\":643:663  balances[msg.sender] */\n      0xffffffffffffffffffffffffffffffffffffffff\n      and\n      0xffffffffffffffffffffffffffffffffffffffff\n      and\n      dup2\n      mstore\n      0x20\n      add\n      swap1\n      dup2\n      mstore\n      0x20\n      add\n      0x00\n      keccak256\n        /* \"revision/MappingAndStruct.sol\":643:675  balances[msg.sender].totalBlance */\n      0x00\n      add\n      0x00\n        /* \"revision/MappingAndStruct.sol\":643:688  balances[msg.sender].totalBlance += msg.value */\n      dup3\n      dup3\n      sload\n      tag_38\n      swap2\n      swap1\n      tag_39\n      jump\t// in\n    tag_38:\n      swap3\n      pop\n      pop\n      dup2\n      swap1\n      sstore\n      pop\n        /* \"revision/MappingAndStruct.sol\":698:725  Transaction memory deposits */\n      0x00\n        /* \"revision/MappingAndStruct.sol\":728:767  Transaction(msg.value, block.timestamp) */\n      mload(0x40)\n      dup1\n      0x40\n      add\n      0x40\n      mstore\n      dup1\n        /* \"revision/MappingAndStruct.sol\":740:749  msg.value */\n      callvalue\n        /* \"revision/MappingAndStruct.sol\":728:767  Transaction(msg.value, block.timestamp) */\n      dup2\n      mstore\n      0x20\n      add\n        /* \"revision/MappingAndStruct.sol\":751:766  block.timestamp */\n      timestamp\n        /* \"revision/MappingAndStruct.sol\":728:767  Transaction(msg.value, block.timestamp) */\n      dup2\n      mstore\n      pop\n        /* \"revision/MappingAndStruct.sol\":698:767  Transaction memory deposits = Transaction(msg.value, block.timestamp) */\n      swap1\n      pop\n        /* \"revision/MappingAndStruct.sol\":865:873  deposits */\n      dup1\n        /* \"revision/MappingAndStruct.sol\":777:785  balances */\n      0x00\n        /* \"revision/MappingAndStruct.sol\":777:797  balances[msg.sender] */\n      dup1\n        /* \"revision/MappingAndStruct.sol\":786:796  msg.sender */\n      caller\n        /* \"revision/MappingAndStruct.sol\":777:797  balances[msg.sender] */\n      0xffffffffffffffffffffffffffffffffffffffff\n      and\n      0xffffffffffffffffffffffffffffffffffffffff\n      and\n      dup2\n      mstore\n      0x20\n      add\n      swap1\n      dup2\n      mstore\n      0x20\n      add\n      0x00\n      keccak256\n        /* \"revision/MappingAndStruct.sol\":777:806  balances[msg.sender].deposits */\n      0x03\n      add\n        /* \"revision/MappingAndStruct.sol\":777:862  balances[msg.sender].deposits[... */\n      0x00\n        /* \"revision/MappingAndStruct.sol\":820:828  balances */\n      dup1\n        /* \"revision/MappingAndStruct.sol\":820:840  balances[msg.sender] */\n      0x00\n        /* \"revision/MappingAndStruct.sol\":829:839  msg.sender */\n      caller\n        /* \"revision/MappingAndStruct.sol\":820:840  balances[msg.sender] */\n      0xffffffffffffffffffffffffffffffffffffffff\n      and\n      0xffffffffffffffffffffffffffffffffffffffff\n      and\n      dup2\n      mstore\n      0x20\n      add\n      swap1\n      dup2\n      mstore\n      0x20\n      add\n      0x00\n      keccak256\n        /* \"revision/MappingAndStruct.sol\":820:852  balances[msg.sender].numDeposits */\n      0x01\n      add\n      sload\n        /* \"revision/MappingAndStruct.sol\":777:862  balances[msg.sender].deposits[... */\n      dup2\n      mstore\n      0x20\n      add\n      swap1\n      dup2\n      mstore\n      0x20\n      add\n      0x00\n      keccak256\n        /* \"revision/MappingAndStruct.sol\":777:873  balances[msg.sender].deposits[... */\n      0x00\n      dup3\n      add\n      mload\n      dup2\n      0x00\n      add\n      sstore\n      0x20\n      dup3\n      add\n      mload\n      dup2\n      0x01\n      add\n      sstore\n      swap1\n      pop\n      pop\n        /* \"revision/MappingAndStruct.sol\":884:892  balances */\n      0x00\n        /* \"revision/MappingAndStruct.sol\":884:904  balances[msg.sender] */\n      dup1\n        /* \"revision/MappingAndStruct.sol\":893:903  msg.sender */\n      caller\n        /* \"revision/MappingAndStruct.sol\":884:904  balances[msg.sender] */\n      0xffffffffffffffffffffffffffffffffffffffff\n      and\n      0xffffffffffffffffffffffffffffffffffffffff\n      and\n      dup2\n      mstore\n      0x20\n      add\n      swap1\n      dup2\n      mstore\n      0x20\n      add\n      0x00\n      keccak256\n        /* \"revision/MappingAndStruct.sol\":884:916  balances[msg.sender].numDeposits */\n      0x01\n      add\n      0x00\n        /* \"revision/MappingAndStruct.sol\":884:918  balances[msg.sender].numDeposits++ */\n      dup2\n      sload\n      dup1\n      swap3\n      swap2\n      swap1\n      tag_40\n      swap1\n      tag_31\n      jump\t// in\n    tag_40:\n      swap2\n      swap1\n      pop\n      sstore\n      pop\n        /* \"revision/MappingAndStruct.sol\":633:925  {... */\n      pop\n        /* \"revision/MappingAndStruct.sol\":599:925  function deposit() public payable {... */\n      jump\t// out\n    tag_35:\n      mload(0x40)\n      dup1\n      0x40\n      add\n      0x40\n      mstore\n      dup1\n      0x00\n      dup2\n      mstore\n      0x20\n      add\n      0x00\n      dup2\n      mstore\n      pop\n      swap1\n      jump\t// out\n        /* \"#utility.yul\":88:205   */\n    tag_42:\n        /* \"#utility.yul\":197:198   */\n      0x00\n        /* \"#utility.yul\":194:195   */\n      dup1\n        /* \"#utility.yul\":187:199   */\n      revert\n        /* \"#utility.yul\":334:460   */\n    tag_44:\n        /* \"#utility.yul\":371:378   */\n      0x00\n        /* \"#utility.yul\":411:453   */\n      0xffffffffffffffffffffffffffffffffffffffff\n        /* \"#utility.yul\":404:409   */\n      dup3\n        /* \"#utility.yul\":400:454   */\n      and\n        /* \"#utility.yul\":389:454   */\n      swap1\n      pop\n        /* \"#utility.yul\":334:460   */\n      swap2\n      swap1\n      pop\n      jump\t// out\n        /* \"#utility.yul\":466:562   */\n    tag_45:\n        /* \"#utility.yul\":503:510   */\n      0x00\n        /* \"#utility.yul\":532:556   */\n      tag_64\n        /* \"#utility.yul\":550:555   */\n      dup3\n        /* \"#utility.yul\":532:556   */\n      tag_44\n      jump\t// in\n    tag_64:\n        /* \"#utility.yul\":521:556   */\n      swap1\n      pop\n        /* \"#utility.yul\":466:562   */\n      swap2\n      swap1\n      pop\n      jump\t// out\n        /* \"#utility.yul\":568:690   */\n    tag_46:\n        /* \"#utility.yul\":641:665   */\n      tag_66\n        /* \"#utility.yul\":659:664   */\n      dup2\n        /* \"#utility.yul\":641:665   */\n      tag_45\n      jump\t// in\n    tag_66:\n        /* \"#utility.yul\":634:639   */\n      dup2\n        /* \"#utility.yul\":631:666   */\n      eq\n        /* \"#utility.yul\":621:684   */\n      tag_67\n      jumpi\n        /* \"#utility.yul\":680:681   */\n      0x00\n        /* \"#utility.yul\":677:678   */\n      dup1\n        /* \"#utility.yul\":670:682   */\n      revert\n        /* \"#utility.yul\":621:684   */\n    tag_67:\n        /* \"#utility.yul\":568:690   */\n      pop\n      jump\t// out\n        /* \"#utility.yul\":696:835   */\n    tag_47:\n        /* \"#utility.yul\":742:747   */\n      0x00\n        /* \"#utility.yul\":780:786   */\n      dup2\n        /* \"#utility.yul\":767:787   */\n      calldataload\n        /* \"#utility.yul\":758:787   */\n      swap1\n      pop\n        /* \"#utility.yul\":796:829   */\n      tag_69\n        /* \"#utility.yul\":823:828   */\n      dup2\n        /* \"#utility.yul\":796:829   */\n      tag_46\n      jump\t// in\n    tag_69:\n        /* \"#utility.yul\":696:835   */\n      swap3\n      swap2\n      pop\n      pop\n      jump\t// out\n        /* \"#utility.yul\":841:1170   */\n    tag_9:\n        /* \"#utility.yul\":900:906   */\n      0x00\n        /* \"#utility.yul\":949:951   */\n      0x20\n        /* \"#utility.yul\":937:946   */\n      dup3\n        /* \"#utility.yul\":928:935   */\n      dup5\n        /* \"#utility.yul\":924:947   */\n      sub\n        /* \"#utility.yul\":920:952   */\n      slt\n        /* \"#utility.yul\":917:1036   */\n      iszero\n      tag_71\n      jumpi\n        /* \"#utility.yul\":955:1034   */\n      tag_72\n      tag_42\n      jump\t// in\n    tag_72:\n        /* \"#utility.yul\":917:1036   */\n    tag_71:\n        /* \"#utility.yul\":1075:1076   */\n      0x00\n        /* \"#utility.yul\":1100:1153   */\n      tag_73\n        /* \"#utility.yul\":1145:1152   */\n      dup5\n        /* \"#utility.yul\":1136:1142   */\n      dup3\n        /* \"#utility.yul\":1125:1134   */\n      dup6\n        /* \"#utility.yul\":1121:1143   */\n      add\n        /* \"#utility.yul\":1100:1153   */\n      tag_47\n      jump\t// in\n    tag_73:\n        /* \"#utility.yul\":1090:1153   */\n      swap2\n      pop\n        /* \"#utility.yul\":1046:1163   */\n      pop\n        /* \"#utility.yul\":841:1170   */\n      swap3\n      swap2\n      pop\n      pop\n      jump\t// out\n        /* \"#utility.yul\":1176:1253   */\n    tag_48:\n        /* \"#utility.yul\":1213:1220   */\n      0x00\n        /* \"#utility.yul\":1242:1247   */\n      dup2\n        /* \"#utility.yul\":1231:1247   */\n      swap1\n      pop\n        /* \"#utility.yul\":1176:1253   */\n      swap2\n      swap1\n      pop\n      jump\t// out\n        /* \"#utility.yul\":1259:1377   */\n    tag_49:\n        /* \"#utility.yul\":1346:1370   */\n      tag_76\n        /* \"#utility.yul\":1364:1369   */\n      dup2\n        /* \"#utility.yul\":1346:1370   */\n      tag_48\n      jump\t// in\n    tag_76:\n        /* \"#utility.yul\":1341:1344   */\n      dup3\n        /* \"#utility.yul\":1334:1371   */\n      mstore\n        /* \"#utility.yul\":1259:1377   */\n      pop\n      pop\n      jump\t// out\n        /* \"#utility.yul\":1383:1825   */\n    tag_12:\n        /* \"#utility.yul\":1532:1536   */\n      0x00\n        /* \"#utility.yul\":1570:1572   */\n      0x60\n        /* \"#utility.yul\":1559:1568   */\n      dup3\n        /* \"#utility.yul\":1555:1573   */\n      add\n        /* \"#utility.yul\":1547:1573   */\n      swap1\n      pop\n        /* \"#utility.yul\":1583:1654   */\n      tag_78\n        /* \"#utility.yul\":1651:1652   */\n      0x00\n        /* \"#utility.yul\":1640:1649   */\n      dup4\n        /* \"#utility.yul\":1636:1653   */\n      add\n        /* \"#utility.yul\":1627:1633   */\n      dup7\n        /* \"#utility.yul\":1583:1654   */\n      tag_49\n      jump\t// in\n    tag_78:\n        /* \"#utility.yul\":1664:1736   */\n      tag_79\n        /* \"#utility.yul\":1732:1734   */\n      0x20\n        /* \"#utility.yul\":1721:1730   */\n      dup4\n        /* \"#utility.yul\":1717:1735   */\n      add\n        /* \"#utility.yul\":1708:1714   */\n      dup6\n        /* \"#utility.yul\":1664:1736   */\n      tag_49\n      jump\t// in\n    tag_79:\n        /* \"#utility.yul\":1746:1818   */\n      tag_80\n        /* \"#utility.yul\":1814:1816   */\n      0x40\n        /* \"#utility.yul\":1803:1812   */\n      dup4\n        /* \"#utility.yul\":1799:1817   */\n      add\n        /* \"#utility.yul\":1790:1796   */\n      dup5\n        /* \"#utility.yul\":1746:1818   */\n      tag_49\n      jump\t// in\n    tag_80:\n        /* \"#utility.yul\":1383:1825   */\n      swap5\n      swap4\n      pop\n      pop\n      pop\n      pop\n      jump\t// out\n        /* \"#utility.yul\":1831:1935   */\n    tag_50:\n        /* \"#utility.yul\":1876:1883   */\n      0x00\n        /* \"#utility.yul\":1905:1929   */\n      tag_82\n        /* \"#utility.yul\":1923:1928   */\n      dup3\n        /* \"#utility.yul\":1905:1929   */\n      tag_44\n      jump\t// in\n    tag_82:\n        /* \"#utility.yul\":1894:1929   */\n      swap1\n      pop\n        /* \"#utility.yul\":1831:1935   */\n      swap2\n      swap1\n      pop\n      jump\t// out\n        /* \"#utility.yul\":1941:2079   */\n    tag_51:\n        /* \"#utility.yul\":2022:2054   */\n      tag_84\n        /* \"#utility.yul\":2048:2053   */\n      dup2\n        /* \"#utility.yul\":2022:2054   */\n      tag_50\n      jump\t// in\n    tag_84:\n        /* \"#utility.yul\":2015:2020   */\n      dup2\n        /* \"#utility.yul\":2012:2055   */\n      eq\n        /* \"#utility.yul\":2002:2073   */\n      tag_85\n      jumpi\n        /* \"#utility.yul\":2069:2070   */\n      0x00\n        /* \"#utility.yul\":2066:2067   */\n      dup1\n        /* \"#utility.yul\":2059:2071   */\n      revert\n        /* \"#utility.yul\":2002:2073   */\n    tag_85:\n        /* \"#utility.yul\":1941:2079   */\n      pop\n      jump\t// out\n        /* \"#utility.yul\":2085:2240   */\n    tag_52:\n        /* \"#utility.yul\":2139:2144   */\n      0x00\n        /* \"#utility.yul\":2177:2183   */\n      dup2\n        /* \"#utility.yul\":2164:2184   */\n      calldataload\n        /* \"#utility.yul\":2155:2184   */\n      swap1\n      pop\n        /* \"#utility.yul\":2193:2234   */\n      tag_87\n        /* \"#utility.yul\":2228:2233   */\n      dup2\n        /* \"#utility.yul\":2193:2234   */\n      tag_51\n      jump\t// in\n    tag_87:\n        /* \"#utility.yul\":2085:2240   */\n      swap3\n      swap2\n      pop\n      pop\n      jump\t// out\n        /* \"#utility.yul\":2246:2368   */\n    tag_53:\n        /* \"#utility.yul\":2319:2343   */\n      tag_89\n        /* \"#utility.yul\":2337:2342   */\n      dup2\n        /* \"#utility.yul\":2319:2343   */\n      tag_48\n      jump\t// in\n    tag_89:\n        /* \"#utility.yul\":2312:2317   */\n      dup2\n        /* \"#utility.yul\":2309:2344   */\n      eq\n        /* \"#utility.yul\":2299:2362   */\n      tag_90\n      jumpi\n        /* \"#utility.yul\":2358:2359   */\n      0x00\n        /* \"#utility.yul\":2355:2356   */\n      dup1\n        /* \"#utility.yul\":2348:2360   */\n      revert\n        /* \"#utility.yul\":2299:2362   */\n    tag_90:\n        /* \"#utility.yul\":2246:2368   */\n      pop\n      jump\t// out\n        /* \"#utility.yul\":2374:2513   */\n    tag_54:\n        /* \"#utility.yul\":2420:2425   */\n      0x00\n        /* \"#utility.yul\":2458:2464   */\n      dup2\n        /* \"#utility.yul\":2445:2465   */\n      calldataload\n        /* \"#utility.yul\":2436:2465   */\n      swap1\n      pop\n        /* \"#utility.yul\":2474:2507   */\n      tag_92\n        /* \"#utility.yul\":2501:2506   */\n      dup2\n        /* \"#utility.yul\":2474:2507   */\n      tag_53\n      jump\t// in\n    tag_92:\n        /* \"#utility.yul\":2374:2513   */\n      swap3\n      swap2\n      pop\n      pop\n      jump\t// out\n        /* \"#utility.yul\":2519:3009   */\n    tag_16:\n        /* \"#utility.yul\":2595:2601   */\n      0x00\n        /* \"#utility.yul\":2603:2609   */\n      dup1\n        /* \"#utility.yul\":2652:2654   */\n      0x40\n        /* \"#utility.yul\":2640:2649   */\n      dup4\n        /* \"#utility.yul\":2631:2638   */\n      dup6\n        /* \"#utility.yul\":2627:2650   */\n      sub\n        /* \"#utility.yul\":2623:2655   */\n      slt\n        /* \"#utility.yul\":2620:2739   */\n      iszero\n      tag_94\n      jumpi\n        /* \"#utility.yul\":2658:2737   */\n      tag_95\n      tag_42\n      jump\t// in\n    tag_95:\n        /* \"#utility.yul\":2620:2739   */\n    tag_94:\n        /* \"#utility.yul\":2778:2779   */\n      0x00\n        /* \"#utility.yul\":2803:2864   */\n      tag_96\n        /* \"#utility.yul\":2856:2863   */\n      dup6\n        /* \"#utility.yul\":2847:2853   */\n      dup3\n        /* \"#utility.yul\":2836:2845   */\n      dup7\n        /* \"#utility.yul\":2832:2854   */\n      add\n        /* \"#utility.yul\":2803:2864   */\n      tag_52\n      jump\t// in\n    tag_96:\n        /* \"#utility.yul\":2793:2864   */\n      swap3\n      pop\n        /* \"#utility.yul\":2749:2874   */\n      pop\n        /* \"#utility.yul\":2913:2915   */\n      0x20\n        /* \"#utility.yul\":2939:2992   */\n      tag_97\n        /* \"#utility.yul\":2984:2991   */\n      dup6\n        /* \"#utility.yul\":2975:2981   */\n      dup3\n        /* \"#utility.yul\":2964:2973   */\n      dup7\n        /* \"#utility.yul\":2960:2982   */\n      add\n        /* \"#utility.yul\":2939:2992   */\n      tag_54\n      jump\t// in\n    tag_97:\n        /* \"#utility.yul\":2929:2992   */\n      swap2\n      pop\n        /* \"#utility.yul\":2884:3002   */\n      pop\n        /* \"#utility.yul\":2519:3009   */\n      swap3\n      pop\n      swap3\n      swap1\n      pop\n      jump\t// out\n        /* \"#utility.yul\":3015:3489   */\n    tag_21:\n        /* \"#utility.yul\":3083:3089   */\n      0x00\n        /* \"#utility.yul\":3091:3097   */\n      dup1\n        /* \"#utility.yul\":3140:3142   */\n      0x40\n        /* \"#utility.yul\":3128:3137   */\n      dup4\n        /* \"#utility.yul\":3119:3126   */\n      dup6\n        /* \"#utility.yul\":3115:3138   */\n      sub\n        /* \"#utility.yul\":3111:3143   */\n      slt\n        /* \"#utility.yul\":3108:3227   */\n      iszero\n      tag_99\n      jumpi\n        /* \"#utility.yul\":3146:3225   */\n      tag_100\n      tag_42\n      jump\t// in\n    tag_100:\n        /* \"#utility.yul\":3108:3227   */\n    tag_99:\n        /* \"#utility.yul\":3266:3267   */\n      0x00\n        /* \"#utility.yul\":3291:3344   */\n      tag_101\n        /* \"#utility.yul\":3336:3343   */\n      dup6\n        /* \"#utility.yul\":3327:3333   */\n      dup3\n        /* \"#utility.yul\":3316:3325   */\n      dup7\n        /* \"#utility.yul\":3312:3334   */\n      add\n        /* \"#utility.yul\":3291:3344   */\n      tag_47\n      jump\t// in\n    tag_101:\n        /* \"#utility.yul\":3281:3344   */\n      swap3\n      pop\n        /* \"#utility.yul\":3237:3354   */\n      pop\n        /* \"#utility.yul\":3393:3395   */\n      0x20\n        /* \"#utility.yul\":3419:3472   */\n      tag_102\n        /* \"#utility.yul\":3464:3471   */\n      dup6\n        /* \"#utility.yul\":3455:3461   */\n      dup3\n        /* \"#utility.yul\":3444:3453   */\n      dup7\n        /* \"#utility.yul\":3440:3462   */\n      add\n        /* \"#utility.yul\":3419:3472   */\n      tag_54\n      jump\t// in\n    tag_102:\n        /* \"#utility.yul\":3409:3472   */\n      swap2\n      pop\n        /* \"#utility.yul\":3364:3482   */\n      pop\n        /* \"#utility.yul\":3015:3489   */\n      swap3\n      pop\n      swap3\n      swap1\n      pop\n      jump\t// out\n        /* \"#utility.yul\":3495:3603   */\n    tag_55:\n        /* \"#utility.yul\":3572:3596   */\n      tag_104\n        /* \"#utility.yul\":3590:3595   */\n      dup2\n        /* \"#utility.yul\":3572:3596   */\n      tag_48\n      jump\t// in\n    tag_104:\n        /* \"#utility.yul\":3567:3570   */\n      dup3\n        /* \"#utility.yul\":3560:3597   */\n      mstore\n        /* \"#utility.yul\":3495:3603   */\n      pop\n      pop\n      jump\t// out\n        /* \"#utility.yul\":3671:4187   */\n    tag_56:\n        /* \"#utility.yul\":3820:3824   */\n      0x40\n        /* \"#utility.yul\":3815:3818   */\n      dup3\n        /* \"#utility.yul\":3811:3825   */\n      add\n        /* \"#utility.yul\":3909:3913   */\n      0x00\n        /* \"#utility.yul\":3902:3907   */\n      dup3\n        /* \"#utility.yul\":3898:3914   */\n      add\n        /* \"#utility.yul\":3892:3915   */\n      mload\n        /* \"#utility.yul\":3928:3991   */\n      tag_106\n        /* \"#utility.yul\":3985:3989   */\n      0x00\n        /* \"#utility.yul\":3980:3983   */\n      dup6\n        /* \"#utility.yul\":3976:3990   */\n      add\n        /* \"#utility.yul\":3962:3974   */\n      dup3\n        /* \"#utility.yul\":3928:3991   */\n      tag_55\n      jump\t// in\n    tag_106:\n        /* \"#utility.yul\":3835:4001   */\n      pop\n        /* \"#utility.yul\":4088:4092   */\n      0x20\n        /* \"#utility.yul\":4081:4086   */\n      dup3\n        /* \"#utility.yul\":4077:4093   */\n      add\n        /* \"#utility.yul\":4071:4094   */\n      mload\n        /* \"#utility.yul\":4107:4170   */\n      tag_107\n        /* \"#utility.yul\":4164:4168   */\n      0x20\n        /* \"#utility.yul\":4159:4162   */\n      dup6\n        /* \"#utility.yul\":4155:4169   */\n      add\n        /* \"#utility.yul\":4141:4153   */\n      dup3\n        /* \"#utility.yul\":4107:4170   */\n      tag_55\n      jump\t// in\n    tag_107:\n        /* \"#utility.yul\":4011:4180   */\n      pop\n        /* \"#utility.yul\":3789:4187   */\n      pop\n        /* \"#utility.yul\":3671:4187   */\n      pop\n      pop\n      jump\t// out\n        /* \"#utility.yul\":4193:4519   */\n    tag_24:\n        /* \"#utility.yul\":4338:4342   */\n      0x00\n        /* \"#utility.yul\":4376:4378   */\n      0x40\n        /* \"#utility.yul\":4365:4374   */\n      dup3\n        /* \"#utility.yul\":4361:4379   */\n      add\n        /* \"#utility.yul\":4353:4379   */\n      swap1\n      pop\n        /* \"#utility.yul\":4389:4512   */\n      tag_109\n        /* \"#utility.yul\":4509:4510   */\n      0x00\n        /* \"#utility.yul\":4498:4507   */\n      dup4\n        /* \"#utility.yul\":4494:4511   */\n      add\n        /* \"#utility.yul\":4485:4491   */\n      dup5\n        /* \"#utility.yul\":4389:4512   */\n      tag_56\n      jump\t// in\n    tag_109:\n        /* \"#utility.yul\":4193:4519   */\n      swap3\n      swap2\n      pop\n      pop\n      jump\t// out\n        /* \"#utility.yul\":4525:4705   */\n    tag_57:\n        /* \"#utility.yul\":4573:4650   */\n      0x4e487b7100000000000000000000000000000000000000000000000000000000\n        /* \"#utility.yul\":4570:4571   */\n      0x00\n        /* \"#utility.yul\":4563:4651   */\n      mstore\n        /* \"#utility.yul\":4670:4674   */\n      0x11\n        /* \"#utility.yul\":4667:4668   */\n      0x04\n        /* \"#utility.yul\":4660:4675   */\n      mstore\n        /* \"#utility.yul\":4694:4698   */\n      0x24\n        /* \"#utility.yul\":4691:4692   */\n      0x00\n        /* \"#utility.yul\":4684:4699   */\n      revert\n        /* \"#utility.yul\":4711:4902   */\n    tag_29:\n        /* \"#utility.yul\":4751:4755   */\n      0x00\n        /* \"#utility.yul\":4771:4791   */\n      tag_112\n        /* \"#utility.yul\":4789:4790   */\n      dup3\n        /* \"#utility.yul\":4771:4791   */\n      tag_48\n      jump\t// in\n    tag_112:\n        /* \"#utility.yul\":4766:4791   */\n      swap2\n      pop\n        /* \"#utility.yul\":4805:4825   */\n      tag_113\n        /* \"#utility.yul\":4823:4824   */\n      dup4\n        /* \"#utility.yul\":4805:4825   */\n      tag_48\n      jump\t// in\n    tag_113:\n        /* \"#utility.yul\":4800:4825   */\n      swap3\n      pop\n        /* \"#utility.yul\":4844:4845   */\n      dup3\n        /* \"#utility.yul\":4841:4842   */\n      dup3\n        /* \"#utility.yul\":4838:4846   */\n      lt\n        /* \"#utility.yul\":4835:4869   */\n      iszero\n      tag_114\n      jumpi\n        /* \"#utility.yul\":4849:4867   */\n      tag_115\n      tag_57\n      jump\t// in\n    tag_115:\n        /* \"#utility.yul\":4835:4869   */\n    tag_114:\n        /* \"#utility.yul\":4894:4895   */\n      dup3\n        /* \"#utility.yul\":4891:4892   */\n      dup3\n        /* \"#utility.yul\":4887:4896   */\n      sub\n        /* \"#utility.yul\":4879:4896   */\n      swap1\n      pop\n        /* \"#utility.yul\":4711:4902   */\n      swap3\n      swap2\n      pop\n      pop\n      jump\t// out\n        /* \"#utility.yul\":4908:5141   */\n    tag_31:\n        /* \"#utility.yul\":4947:4950   */\n      0x00\n        /* \"#utility.yul\":4970:4994   */\n      tag_117\n        /* \"#utility.yul\":4988:4993   */\n      dup3\n        /* \"#utility.yul\":4970:4994   */\n      tag_48\n      jump\t// in\n    tag_117:\n        /* \"#utility.yul\":4961:4994   */\n      swap2\n      pop\n        /* \"#utility.yul\":5016:5082   */\n      0xffffffffffffffffffffffffffffffffffffffffffffffffffffffffffffffff\n        /* \"#utility.yul\":5009:5014   */\n      dup3\n        /* \"#utility.yul\":5006:5083   */\n      sub\n        /* \"#utility.yul\":5003:5106   */\n      tag_118\n      jumpi\n        /* \"#utility.yul\":5086:5104   */\n      tag_119\n      tag_57\n      jump\t// in\n    tag_119:\n        /* \"#utility.yul\":5003:5106   */\n    tag_118:\n        /* \"#utility.yul\":5133:5134   */\n      0x01\n        /* \"#utility.yul\":5126:5131   */\n      dup3\n        /* \"#utility.yul\":5122:5135   */\n      add\n        /* \"#utility.yul\":5115:5135   */\n      swap1\n      pop\n        /* \"#utility.yul\":4908:5141   */\n      swap2\n      swap1\n      pop\n      jump\t// out\n        /* \"#utility.yul\":5147:5452   */\n    tag_39:\n        /* \"#utility.yul\":5187:5190   */\n      0x00\n        /* \"#utility.yul\":5206:5226   */\n      tag_121\n        /* \"#utility.yul\":5224:5225   */\n      dup3\n        /* \"#utility.yul\":5206:5226   */\n      tag_48\n      jump\t// in\n    tag_121:\n        /* \"#utility.yul\":5201:5226   */\n      swap2\n      pop\n        /* \"#utility.yul\":5240:5260   */\n      tag_122\n        /* \"#utility.yul\":5258:5259   */\n      dup4\n        /* \"#utility.yul\":5240:5260   */\n      tag_48\n      jump\t// in\n    tag_122:\n        /* \"#utility.yul\":5235:5260   */\n      swap3\n      pop\n        /* \"#utility.yul\":5394:5395   */\n      dup3\n        /* \"#utility.yul\":5326:5392   */\n      0xffffffffffffffffffffffffffffffffffffffffffffffffffffffffffffffff\n        /* \"#utility.yul\":5322:5396   */\n      sub\n        /* \"#utility.yul\":5319:5320   */\n      dup3\n        /* \"#utility.yul\":5316:5397   */\n      gt\n        /* \"#utility.yul\":5313:5420   */\n      iszero\n      tag_123\n      jumpi\n        /* \"#utility.yul\":5400:5418   */\n      tag_124\n      tag_57\n      jump\t// in\n    tag_124:\n        /* \"#utility.yul\":5313:5420   */\n    tag_123:\n        /* \"#utility.yul\":5444:5445   */\n      dup3\n        /* \"#utility.yul\":5441:5442   */\n      dup3\n        /* \"#utility.yul\":5437:5446   */\n      add\n        /* \"#utility.yul\":5430:5446   */\n      swap1\n      pop\n        /* \"#utility.yul\":5147:5452   */\n      swap3\n      swap2\n      pop\n      pop\n      jump\t// out\n\n    auxdata: 0xa26469706673582212206176ba120a92b7843550af689eb54fbe04038c3cf95f8b33d8edbfcf4603c21164736f6c634300080f0033\n}\n",
				"bytecode": {
					"linkReferences": {},
					"object": "608060405234801561001057600080fd5b50610847806100206000396000f3fe60806040526004361061003f5760003560e01c806327e235e31461004457806335bdac341461008357806355e14fe6146100ac578063d0e30db0146100e9575b600080fd5b34801561005057600080fd5b5061006b60048036038101906100669190610550565b6100f3565b60405161007a93929190610596565b60405180910390f35b34801561008f57600080fd5b506100aa60048036038101906100a59190610637565b61011d565b005b3480156100b857600080fd5b506100d360048036038101906100ce9190610677565b6102dc565b6040516100e091906106f5565b60405180910390f35b6100f161035d565b005b60006020528060005260406000206000915090508060000154908060010154908060020154905083565b806000803373ffffffffffffffffffffffffffffffffffffffff1673ffffffffffffffffffffffffffffffffffffffff168152602001908152602001600020600001600082825461016e919061073f565b9250508190555060006040518060400160405280838152602001428152509050806000803373ffffffffffffffffffffffffffffffffffffffff1673ffffffffffffffffffffffffffffffffffffffff16815260200190815260200160002060040160008060003373ffffffffffffffffffffffffffffffffffffffff1673ffffffffffffffffffffffffffffffffffffffff16815260200190815260200160002060020154815260200190815260200160002060008201518160000155602082015181600101559050506000803373ffffffffffffffffffffffffffffffffffffffff1673ffffffffffffffffffffffffffffffffffffffff168152602001908152602001600020600201600081548092919061028b90610773565b91905055508273ffffffffffffffffffffffffffffffffffffffff166108fc839081150290604051600060405180830381858888f193505050501580156102d6573d6000803e3d6000fd5b50505050565b6102e46104d3565b6000808473ffffffffffffffffffffffffffffffffffffffff1673ffffffffffffffffffffffffffffffffffffffff168152602001908152602001600020600301600083815260200190815260200160002060405180604001604052908160008201548152602001600182015481525050905092915050565b346000803373ffffffffffffffffffffffffffffffffffffffff1673ffffffffffffffffffffffffffffffffffffffff16815260200190815260200160002060000160008282546103ae91906107bb565b9250508190555060006040518060400160405280348152602001428152509050806000803373ffffffffffffffffffffffffffffffffffffffff1673ffffffffffffffffffffffffffffffffffffffff16815260200190815260200160002060030160008060003373ffffffffffffffffffffffffffffffffffffffff1673ffffffffffffffffffffffffffffffffffffffff16815260200190815260200160002060010154815260200190815260200160002060008201518160000155602082015181600101559050506000803373ffffffffffffffffffffffffffffffffffffffff1673ffffffffffffffffffffffffffffffffffffffff16815260200190815260200160002060010160008154809291906104cb90610773565b919050555050565b604051806040016040528060008152602001600081525090565b600080fd5b600073ffffffffffffffffffffffffffffffffffffffff82169050919050565b600061051d826104f2565b9050919050565b61052d81610512565b811461053857600080fd5b50565b60008135905061054a81610524565b92915050565b600060208284031215610566576105656104ed565b5b60006105748482850161053b565b91505092915050565b6000819050919050565b6105908161057d565b82525050565b60006060820190506105ab6000830186610587565b6105b86020830185610587565b6105c56040830184610587565b949350505050565b60006105d8826104f2565b9050919050565b6105e8816105cd565b81146105f357600080fd5b50565b600081359050610605816105df565b92915050565b6106148161057d565b811461061f57600080fd5b50565b6000813590506106318161060b565b92915050565b6000806040838503121561064e5761064d6104ed565b5b600061065c858286016105f6565b925050602061066d85828601610622565b9150509250929050565b6000806040838503121561068e5761068d6104ed565b5b600061069c8582860161053b565b92505060206106ad85828601610622565b9150509250929050565b6106c08161057d565b82525050565b6040820160008201516106dc60008501826106b7565b5060208201516106ef60208501826106b7565b50505050565b600060408201905061070a60008301846106c6565b92915050565b7f4e487b7100000000000000000000000000000000000000000000000000000000600052601160045260246000fd5b600061074a8261057d565b91506107558361057d565b92508282101561076857610767610710565b5b828203905092915050565b600061077e8261057d565b91507fffffffffffffffffffffffffffffffffffffffffffffffffffffffffffffffff82036107b0576107af610710565b5b600182019050919050565b60006107c68261057d565b91506107d18361057d565b9250827fffffffffffffffffffffffffffffffffffffffffffffffffffffffffffffffff0382111561080657610805610710565b5b82820190509291505056fea26469706673582212206176ba120a92b7843550af689eb54fbe04038c3cf95f8b33d8edbfcf4603c21164736f6c634300080f0033",
					"opcodes": "PUSH1 0x80 PUSH1 0x40 MSTORE CALLVALUE DUP1 ISZERO PUSH2 0x10 JUMPI PUSH1 0x0 DUP1 REVERT JUMPDEST POP PUSH2 0x847 DUP1 PUSH2 0x20 PUSH1 0x0 CODECOPY PUSH1 0x0 RETURN INVALID PUSH1 0x80 PUSH1 0x40 MSTORE PUSH1 0x4 CALLDATASIZE LT PUSH2 0x3F JUMPI PUSH1 0x0 CALLDATALOAD PUSH1 0xE0 SHR DUP1 PUSH4 0x27E235E3 EQ PUSH2 0x44 JUMPI DUP1 PUSH4 0x35BDAC34 EQ PUSH2 0x83 JUMPI DUP1 PUSH4 0x55E14FE6 EQ PUSH2 0xAC JUMPI DUP1 PUSH4 0xD0E30DB0 EQ PUSH2 0xE9 JUMPI JUMPDEST PUSH1 0x0 DUP1 REVERT JUMPDEST CALLVALUE DUP1 ISZERO PUSH2 0x50 JUMPI PUSH1 0x0 DUP1 REVERT JUMPDEST POP PUSH2 0x6B PUSH1 0x4 DUP1 CALLDATASIZE SUB DUP2 ADD SWAP1 PUSH2 0x66 SWAP2 SWAP1 PUSH2 0x550 JUMP JUMPDEST PUSH2 0xF3 JUMP JUMPDEST PUSH1 0x40 MLOAD PUSH2 0x7A SWAP4 SWAP3 SWAP2 SWAP1 PUSH2 0x596 JUMP JUMPDEST PUSH1 0x40 MLOAD DUP1 SWAP2 SUB SWAP1 RETURN JUMPDEST CALLVALUE DUP1 ISZERO PUSH2 0x8F JUMPI PUSH1 0x0 DUP1 REVERT JUMPDEST POP PUSH2 0xAA PUSH1 0x4 DUP1 CALLDATASIZE SUB DUP2 ADD SWAP1 PUSH2 0xA5 SWAP2 SWAP1 PUSH2 0x637 JUMP JUMPDEST PUSH2 0x11D JUMP JUMPDEST STOP JUMPDEST CALLVALUE DUP1 ISZERO PUSH2 0xB8 JUMPI PUSH1 0x0 DUP1 REVERT JUMPDEST POP PUSH2 0xD3 PUSH1 0x4 DUP1 CALLDATASIZE SUB DUP2 ADD SWAP1 PUSH2 0xCE SWAP2 SWAP1 PUSH2 0x677 JUMP JUMPDEST PUSH2 0x2DC JUMP JUMPDEST PUSH1 0x40 MLOAD PUSH2 0xE0 SWAP2 SWAP1 PUSH2 0x6F5 JUMP JUMPDEST PUSH1 0x40 MLOAD DUP1 SWAP2 SUB SWAP1 RETURN JUMPDEST PUSH2 0xF1 PUSH2 0x35D JUMP JUMPDEST STOP JUMPDEST PUSH1 0x0 PUSH1 0x20 MSTORE DUP1 PUSH1 0x0 MSTORE PUSH1 0x40 PUSH1 0x0 KECCAK256 PUSH1 0x0 SWAP2 POP SWAP1 POP DUP1 PUSH1 0x0 ADD SLOAD SWAP1 DUP1 PUSH1 0x1 ADD SLOAD SWAP1 DUP1 PUSH1 0x2 ADD SLOAD SWAP1 POP DUP4 JUMP JUMPDEST DUP1 PUSH1 0x0 DUP1 CALLER PUSH20 0xFFFFFFFFFFFFFFFFFFFFFFFFFFFFFFFFFFFFFFFF AND PUSH20 0xFFFFFFFFFFFFFFFFFFFFFFFFFFFFFFFFFFFFFFFF AND DUP2 MSTORE PUSH1 0x20 ADD SWAP1 DUP2 MSTORE PUSH1 0x20 ADD PUSH1 0x0 KECCAK256 PUSH1 0x0 ADD PUSH1 0x0 DUP3 DUP3 SLOAD PUSH2 0x16E SWAP2 SWAP1 PUSH2 0x73F JUMP JUMPDEST SWAP3 POP POP DUP2 SWAP1 SSTORE POP PUSH1 0x0 PUSH1 0x40 MLOAD DUP1 PUSH1 0x40 ADD PUSH1 0x40 MSTORE DUP1 DUP4 DUP2 MSTORE PUSH1 0x20 ADD TIMESTAMP DUP2 MSTORE POP SWAP1 POP DUP1 PUSH1 0x0 DUP1 CALLER PUSH20 0xFFFFFFFFFFFFFFFFFFFFFFFFFFFFFFFFFFFFFFFF AND PUSH20 0xFFFFFFFFFFFFFFFFFFFFFFFFFFFFFFFFFFFFFFFF AND DUP2 MSTORE PUSH1 0x20 ADD SWAP1 DUP2 MSTORE PUSH1 0x20 ADD PUSH1 0x0 KECCAK256 PUSH1 0x4 ADD PUSH1 0x0 DUP1 PUSH1 0x0 CALLER PUSH20 0xFFFFFFFFFFFFFFFFFFFFFFFFFFFFFFFFFFFFFFFF AND PUSH20 0xFFFFFFFFFFFFFFFFFFFFFFFFFFFFFFFFFFFFFFFF AND DUP2 MSTORE PUSH1 0x20 ADD SWAP1 DUP2 MSTORE PUSH1 0x20 ADD PUSH1 0x0 KECCAK256 PUSH1 0x2 ADD SLOAD DUP2 MSTORE PUSH1 0x20 ADD SWAP1 DUP2 MSTORE PUSH1 0x20 ADD PUSH1 0x0 KECCAK256 PUSH1 0x0 DUP3 ADD MLOAD DUP2 PUSH1 0x0 ADD SSTORE PUSH1 0x20 DUP3 ADD MLOAD DUP2 PUSH1 0x1 ADD SSTORE SWAP1 POP POP PUSH1 0x0 DUP1 CALLER PUSH20 0xFFFFFFFFFFFFFFFFFFFFFFFFFFFFFFFFFFFFFFFF AND PUSH20 0xFFFFFFFFFFFFFFFFFFFFFFFFFFFFFFFFFFFFFFFF AND DUP2 MSTORE PUSH1 0x20 ADD SWAP1 DUP2 MSTORE PUSH1 0x20 ADD PUSH1 0x0 KECCAK256 PUSH1 0x2 ADD PUSH1 0x0 DUP2 SLOAD DUP1 SWAP3 SWAP2 SWAP1 PUSH2 0x28B SWAP1 PUSH2 0x773 JUMP JUMPDEST SWAP2 SWAP1 POP SSTORE POP DUP3 PUSH20 0xFFFFFFFFFFFFFFFFFFFFFFFFFFFFFFFFFFFFFFFF AND PUSH2 0x8FC DUP4 SWAP1 DUP2 ISZERO MUL SWAP1 PUSH1 0x40 MLOAD PUSH1 0x0 PUSH1 0x40 MLOAD DUP1 DUP4 SUB DUP2 DUP6 DUP9 DUP9 CALL SWAP4 POP POP POP POP ISZERO DUP1 ISZERO PUSH2 0x2D6 JUMPI RETURNDATASIZE PUSH1 0x0 DUP1 RETURNDATACOPY RETURNDATASIZE PUSH1 0x0 REVERT JUMPDEST POP POP POP POP JUMP JUMPDEST PUSH2 0x2E4 PUSH2 0x4D3 JUMP JUMPDEST PUSH1 0x0 DUP1 DUP5 PUSH20 0xFFFFFFFFFFFFFFFFFFFFFFFFFFFFFFFFFFFFFFFF AND PUSH20 0xFFFFFFFFFFFFFFFFFFFFFFFFFFFFFFFFFFFFFFFF AND DUP2 MSTORE PUSH1 0x20 ADD SWAP1 DUP2 MSTORE PUSH1 0x20 ADD PUSH1 0x0 KECCAK256 PUSH1 0x3 ADD PUSH1 0x0 DUP4 DUP2 MSTORE PUSH1 0x20 ADD SWAP1 DUP2 MSTORE PUSH1 0x20 ADD PUSH1 0x0 KECCAK256 PUSH1 0x40 MLOAD DUP1 PUSH1 0x40 ADD PUSH1 0x40 MSTORE SWAP1 DUP2 PUSH1 0x0 DUP3 ADD SLOAD DUP2 MSTORE PUSH1 0x20 ADD PUSH1 0x1 DUP3 ADD SLOAD DUP2 MSTORE POP POP SWAP1 POP SWAP3 SWAP2 POP POP JUMP JUMPDEST CALLVALUE PUSH1 0x0 DUP1 CALLER PUSH20 0xFFFFFFFFFFFFFFFFFFFFFFFFFFFFFFFFFFFFFFFF AND PUSH20 0xFFFFFFFFFFFFFFFFFFFFFFFFFFFFFFFFFFFFFFFF AND DUP2 MSTORE PUSH1 0x20 ADD SWAP1 DUP2 MSTORE PUSH1 0x20 ADD PUSH1 0x0 KECCAK256 PUSH1 0x0 ADD PUSH1 0x0 DUP3 DUP3 SLOAD PUSH2 0x3AE SWAP2 SWAP1 PUSH2 0x7BB JUMP JUMPDEST SWAP3 POP POP DUP2 SWAP1 SSTORE POP PUSH1 0x0 PUSH1 0x40 MLOAD DUP1 PUSH1 0x40 ADD PUSH1 0x40 MSTORE DUP1 CALLVALUE DUP2 MSTORE PUSH1 0x20 ADD TIMESTAMP DUP2 MSTORE POP SWAP1 POP DUP1 PUSH1 0x0 DUP1 CALLER PUSH20 0xFFFFFFFFFFFFFFFFFFFFFFFFFFFFFFFFFFFFFFFF AND PUSH20 0xFFFFFFFFFFFFFFFFFFFFFFFFFFFFFFFFFFFFFFFF AND DUP2 MSTORE PUSH1 0x20 ADD SWAP1 DUP2 MSTORE PUSH1 0x20 ADD PUSH1 0x0 KECCAK256 PUSH1 0x3 ADD PUSH1 0x0 DUP1 PUSH1 0x0 CALLER PUSH20 0xFFFFFFFFFFFFFFFFFFFFFFFFFFFFFFFFFFFFFFFF AND PUSH20 0xFFFFFFFFFFFFFFFFFFFFFFFFFFFFFFFFFFFFFFFF AND DUP2 MSTORE PUSH1 0x20 ADD SWAP1 DUP2 MSTORE PUSH1 0x20 ADD PUSH1 0x0 KECCAK256 PUSH1 0x1 ADD SLOAD DUP2 MSTORE PUSH1 0x20 ADD SWAP1 DUP2 MSTORE PUSH1 0x20 ADD PUSH1 0x0 KECCAK256 PUSH1 0x0 DUP3 ADD MLOAD DUP2 PUSH1 0x0 ADD SSTORE PUSH1 0x20 DUP3 ADD MLOAD DUP2 PUSH1 0x1 ADD SSTORE SWAP1 POP POP PUSH1 0x0 DUP1 CALLER PUSH20 0xFFFFFFFFFFFFFFFFFFFFFFFFFFFFFFFFFFFFFFFF AND PUSH20 0xFFFFFFFFFFFFFFFFFFFFFFFFFFFFFFFFFFFFFFFF AND DUP2 MSTORE PUSH1 0x20 ADD SWAP1 DUP2 MSTORE PUSH1 0x20 ADD PUSH1 0x0 KECCAK256 PUSH1 0x1 ADD PUSH1 0x0 DUP2 SLOAD DUP1 SWAP3 SWAP2 SWAP1 PUSH2 0x4CB SWAP1 PUSH2 0x773 JUMP JUMPDEST SWAP2 SWAP1 POP SSTORE POP POP JUMP JUMPDEST PUSH1 0x40 MLOAD DUP1 PUSH1 0x40 ADD PUSH1 0x40 MSTORE DUP1 PUSH1 0x0 DUP2 MSTORE PUSH1 0x20 ADD PUSH1 0x0 DUP2 MSTORE POP SWAP1 JUMP JUMPDEST PUSH1 0x0 DUP1 REVERT JUMPDEST PUSH1 0x0 PUSH20 0xFFFFFFFFFFFFFFFFFFFFFFFFFFFFFFFFFFFFFFFF DUP3 AND SWAP1 POP SWAP2 SWAP1 POP JUMP JUMPDEST PUSH1 0x0 PUSH2 0x51D DUP3 PUSH2 0x4F2 JUMP JUMPDEST SWAP1 POP SWAP2 SWAP1 POP JUMP JUMPDEST PUSH2 0x52D DUP2 PUSH2 0x512 JUMP JUMPDEST DUP2 EQ PUSH2 0x538 JUMPI PUSH1 0x0 DUP1 REVERT JUMPDEST POP JUMP JUMPDEST PUSH1 0x0 DUP2 CALLDATALOAD SWAP1 POP PUSH2 0x54A DUP2 PUSH2 0x524 JUMP JUMPDEST SWAP3 SWAP2 POP POP JUMP JUMPDEST PUSH1 0x0 PUSH1 0x20 DUP3 DUP5 SUB SLT ISZERO PUSH2 0x566 JUMPI PUSH2 0x565 PUSH2 0x4ED JUMP JUMPDEST JUMPDEST PUSH1 0x0 PUSH2 0x574 DUP5 DUP3 DUP6 ADD PUSH2 0x53B JUMP JUMPDEST SWAP2 POP POP SWAP3 SWAP2 POP POP JUMP JUMPDEST PUSH1 0x0 DUP2 SWAP1 POP SWAP2 SWAP1 POP JUMP JUMPDEST PUSH2 0x590 DUP2 PUSH2 0x57D JUMP JUMPDEST DUP3 MSTORE POP POP JUMP JUMPDEST PUSH1 0x0 PUSH1 0x60 DUP3 ADD SWAP1 POP PUSH2 0x5AB PUSH1 0x0 DUP4 ADD DUP7 PUSH2 0x587 JUMP JUMPDEST PUSH2 0x5B8 PUSH1 0x20 DUP4 ADD DUP6 PUSH2 0x587 JUMP JUMPDEST PUSH2 0x5C5 PUSH1 0x40 DUP4 ADD DUP5 PUSH2 0x587 JUMP JUMPDEST SWAP5 SWAP4 POP POP POP POP JUMP JUMPDEST PUSH1 0x0 PUSH2 0x5D8 DUP3 PUSH2 0x4F2 JUMP JUMPDEST SWAP1 POP SWAP2 SWAP1 POP JUMP JUMPDEST PUSH2 0x5E8 DUP2 PUSH2 0x5CD JUMP JUMPDEST DUP2 EQ PUSH2 0x5F3 JUMPI PUSH1 0x0 DUP1 REVERT JUMPDEST POP JUMP JUMPDEST PUSH1 0x0 DUP2 CALLDATALOAD SWAP1 POP PUSH2 0x605 DUP2 PUSH2 0x5DF JUMP JUMPDEST SWAP3 SWAP2 POP POP JUMP JUMPDEST PUSH2 0x614 DUP2 PUSH2 0x57D JUMP JUMPDEST DUP2 EQ PUSH2 0x61F JUMPI PUSH1 0x0 DUP1 REVERT JUMPDEST POP JUMP JUMPDEST PUSH1 0x0 DUP2 CALLDATALOAD SWAP1 POP PUSH2 0x631 DUP2 PUSH2 0x60B JUMP JUMPDEST SWAP3 SWAP2 POP POP JUMP JUMPDEST PUSH1 0x0 DUP1 PUSH1 0x40 DUP4 DUP6 SUB SLT ISZERO PUSH2 0x64E JUMPI PUSH2 0x64D PUSH2 0x4ED JUMP JUMPDEST JUMPDEST PUSH1 0x0 PUSH2 0x65C DUP6 DUP3 DUP7 ADD PUSH2 0x5F6 JUMP JUMPDEST SWAP3 POP POP PUSH1 0x20 PUSH2 0x66D DUP6 DUP3 DUP7 ADD PUSH2 0x622 JUMP JUMPDEST SWAP2 POP POP SWAP3 POP SWAP3 SWAP1 POP JUMP JUMPDEST PUSH1 0x0 DUP1 PUSH1 0x40 DUP4 DUP6 SUB SLT ISZERO PUSH2 0x68E JUMPI PUSH2 0x68D PUSH2 0x4ED JUMP JUMPDEST JUMPDEST PUSH1 0x0 PUSH2 0x69C DUP6 DUP3 DUP7 ADD PUSH2 0x53B JUMP JUMPDEST SWAP3 POP POP PUSH1 0x20 PUSH2 0x6AD DUP6 DUP3 DUP7 ADD PUSH2 0x622 JUMP JUMPDEST SWAP2 POP POP SWAP3 POP SWAP3 SWAP1 POP JUMP JUMPDEST PUSH2 0x6C0 DUP2 PUSH2 0x57D JUMP JUMPDEST DUP3 MSTORE POP POP JUMP JUMPDEST PUSH1 0x40 DUP3 ADD PUSH1 0x0 DUP3 ADD MLOAD PUSH2 0x6DC PUSH1 0x0 DUP6 ADD DUP3 PUSH2 0x6B7 JUMP JUMPDEST POP PUSH1 0x20 DUP3 ADD MLOAD PUSH2 0x6EF PUSH1 0x20 DUP6 ADD DUP3 PUSH2 0x6B7 JUMP JUMPDEST POP POP POP POP JUMP JUMPDEST PUSH1 0x0 PUSH1 0x40 DUP3 ADD SWAP1 POP PUSH2 0x70A PUSH1 0x0 DUP4 ADD DUP5 PUSH2 0x6C6 JUMP JUMPDEST SWAP3 SWAP2 POP POP JUMP JUMPDEST PUSH32 0x4E487B7100000000000000000000000000000000000000000000000000000000 PUSH1 0x0 MSTORE PUSH1 0x11 PUSH1 0x4 MSTORE PUSH1 0x24 PUSH1 0x0 REVERT JUMPDEST PUSH1 0x0 PUSH2 0x74A DUP3 PUSH2 0x57D JUMP JUMPDEST SWAP2 POP PUSH2 0x755 DUP4 PUSH2 0x57D JUMP JUMPDEST SWAP3 POP DUP3 DUP3 LT ISZERO PUSH2 0x768 JUMPI PUSH2 0x767 PUSH2 0x710 JUMP JUMPDEST JUMPDEST DUP3 DUP3 SUB SWAP1 POP SWAP3 SWAP2 POP POP JUMP JUMPDEST PUSH1 0x0 PUSH2 0x77E DUP3 PUSH2 0x57D JUMP JUMPDEST SWAP2 POP PUSH32 0xFFFFFFFFFFFFFFFFFFFFFFFFFFFFFFFFFFFFFFFFFFFFFFFFFFFFFFFFFFFFFFFF DUP3 SUB PUSH2 0x7B0 JUMPI PUSH2 0x7AF PUSH2 0x710 JUMP JUMPDEST JUMPDEST PUSH1 0x1 DUP3 ADD SWAP1 POP SWAP2 SWAP1 POP JUMP JUMPDEST PUSH1 0x0 PUSH2 0x7C6 DUP3 PUSH2 0x57D JUMP JUMPDEST SWAP2 POP PUSH2 0x7D1 DUP4 PUSH2 0x57D JUMP JUMPDEST SWAP3 POP DUP3 PUSH32 0xFFFFFFFFFFFFFFFFFFFFFFFFFFFFFFFFFFFFFFFFFFFFFFFFFFFFFFFFFFFFFFFF SUB DUP3 GT ISZERO PUSH2 0x806 JUMPI PUSH2 0x805 PUSH2 0x710 JUMP JUMPDEST JUMPDEST DUP3 DUP3 ADD SWAP1 POP SWAP3 SWAP2 POP POP JUMP INVALID LOG2 PUSH5 0x6970667358 0x22 SLT KECCAK256 PUSH2 0x76BA SLT EXP SWAP3 0xB7 DUP5 CALLDATALOAD POP 0xAF PUSH9 0x9EB54FBE04038C3CF9 0x5F DUP12 CALLER 0xD8 0xED 0xBF 0xCF CHAINID SUB 0xC2 GT PUSH5 0x736F6C6343 STOP ADDMOD 0xF STOP CALLER "
				},
				"gasEstimates": {
					"creation": {
						"codeDepositCost": "423800",
						"executionCost": "461",
						"totalCost": "424261"
					},
					"external": {
						"balances(address)": "infinite",
						"deposit()": "infinite",
						"getDepositNum(address,uint256)": "infinite",
						"withdrawToAddress(address,uint256)": "infinite"
					}
				},
				"methodIdentifiers": {
					"balances(address)": "27e235e3",
					"deposit()": "d0e30db0",
					"getDepositNum(address,uint256)": "55e14fe6",
					"withdrawToAddress(address,uint256)": "35bdac34"
				}
			},
			"storageLayout": {
				"storage": [
					{
						"astId": 28,
						"contract": "revision/MappingAndStruct.sol:Wallet",
						"label": "balances",
						"offset": 0,
						"slot": "0",
						"type": "t_mapping(t_address,t_struct(Balance)23_storage)"
					}
				],
				"types": {
					"t_address": {
						"encoding": "inplace",
						"label": "address",
						"numberOfBytes": "20"
					},
					"t_mapping(t_address,t_struct(Balance)23_storage)": {
						"encoding": "mapping",
						"key": "t_address",
						"label": "mapping(address => struct Wallet.Balance)",
						"numberOfBytes": "32",
						"value": "t_struct(Balance)23_storage"
					},
					"t_mapping(t_uint256,t_struct(Transaction)6_storage)": {
						"encoding": "mapping",
						"key": "t_uint256",
						"label": "mapping(uint256 => struct Wallet.Transaction)",
						"numberOfBytes": "32",
						"value": "t_struct(Transaction)6_storage"
					},
					"t_struct(Balance)23_storage": {
						"encoding": "inplace",
						"label": "struct Wallet.Balance",
						"members": [
							{
								"astId": 8,
								"contract": "revision/MappingAndStruct.sol:Wallet",
								"label": "totalBlance",
								"offset": 0,
								"slot": "0",
								"type": "t_uint256"
							},
							{
								"astId": 10,
								"contract": "revision/MappingAndStruct.sol:Wallet",
								"label": "numDeposits",
								"offset": 0,
								"slot": "1",
								"type": "t_uint256"
							},
							{
								"astId": 12,
								"contract": "revision/MappingAndStruct.sol:Wallet",
								"label": "numWithdraws",
								"offset": 0,
								"slot": "2",
								"type": "t_uint256"
							},
							{
								"astId": 17,
								"contract": "revision/MappingAndStruct.sol:Wallet",
								"label": "deposits",
								"offset": 0,
								"slot": "3",
								"type": "t_mapping(t_uint256,t_struct(Transaction)6_storage)"
							},
							{
								"astId": 22,
								"contract": "revision/MappingAndStruct.sol:Wallet",
								"label": "withdraws",
								"offset": 0,
								"slot": "4",
								"type": "t_mapping(t_uint256,t_struct(Transaction)6_storage)"
							}
						],
						"numberOfBytes": "160"
					},
					"t_struct(Transaction)6_storage": {
						"encoding": "inplace",
						"label": "struct Wallet.Transaction",
						"members": [
							{
								"astId": 3,
								"contract": "revision/MappingAndStruct.sol:Wallet",
								"label": "amount",
								"offset": 0,
								"slot": "0",
								"type": "t_uint256"
							},
							{
								"astId": 5,
								"contract": "revision/MappingAndStruct.sol:Wallet",
								"label": "timestamp",
								"offset": 0,
								"slot": "1",
								"type": "t_uint256"
							}
						],
						"numberOfBytes": "64"
					},
					"t_uint256": {
						"encoding": "inplace",
						"label": "uint256",
						"numberOfBytes": "32"
					}
				}
			},
			"userdoc": {
				"kind": "user",
				"methods": {},
				"version": 1
			}
		}
	}
}