{
	"ERC20/MyToken.sol": {
		"MyToken": {
			"abi": [
				{
					"inputs": [
						{
							"internalType": "uint256",
							"name": "cap",
							"type": "uint256"
						},
						{
							"internalType": "uint256",
							"name": "reward",
							"type": "uint256"
						}
					],
					"stateMutability": "nonpayable",
					"type": "constructor"
				},
				{
					"anonymous": false,
					"inputs": [
						{
							"indexed": true,
							"internalType": "address",
							"name": "owner",
							"type": "address"
						},
						{
							"indexed": true,
							"internalType": "address",
							"name": "spender",
							"type": "address"
						},
						{
							"indexed": false,
							"internalType": "uint256",
							"name": "value",
							"type": "uint256"
						}
					],
					"name": "Approval",
					"type": "event"
				},
				{
					"anonymous": false,
					"inputs": [
						{
							"indexed": true,
							"internalType": "address",
							"name": "from",
							"type": "address"
						},
						{
							"indexed": true,
							"internalType": "address",
							"name": "to",
							"type": "address"
						},
						{
							"indexed": false,
							"internalType": "uint256",
							"name": "value",
							"type": "uint256"
						}
					],
					"name": "Transfer",
					"type": "event"
				},
				{
					"inputs": [
						{
							"internalType": "address",
							"name": "owner",
							"type": "address"
						},
						{
							"internalType": "address",
							"name": "spender",
							"type": "address"
						}
					],
					"name": "allowance",
					"outputs": [
						{
							"internalType": "uint256",
							"name": "",
							"type": "uint256"
						}
					],
					"stateMutability": "view",
					"type": "function"
				},
				{
					"inputs": [
						{
							"internalType": "address",
							"name": "spender",
							"type": "address"
						},
						{
							"internalType": "uint256",
							"name": "amount",
							"type": "uint256"
						}
					],
					"name": "approve",
					"outputs": [
						{
							"internalType": "bool",
							"name": "",
							"type": "bool"
						}
					],
					"stateMutability": "nonpayable",
					"type": "function"
				},
				{
					"inputs": [
						{
							"internalType": "address",
							"name": "account",
							"type": "address"
						}
					],
					"name": "balanceOf",
					"outputs": [
						{
							"internalType": "uint256",
							"name": "",
							"type": "uint256"
						}
					],
					"stateMutability": "view",
					"type": "function"
				},
				{
					"inputs": [],
					"name": "blockReward",
					"outputs": [
						{
							"internalType": "uint256",
							"name": "",
							"type": "uint256"
						}
					],
					"stateMutability": "view",
					"type": "function"
				},
				{
					"inputs": [
						{
							"internalType": "uint256",
							"name": "amount",
							"type": "uint256"
						}
					],
					"name": "burn",
					"outputs": [],
					"stateMutability": "nonpayable",
					"type": "function"
				},
				{
					"inputs": [
						{
							"internalType": "address",
							"name": "account",
							"type": "address"
						},
						{
							"internalType": "uint256",
							"name": "amount",
							"type": "uint256"
						}
					],
					"name": "burnFrom",
					"outputs": [],
					"stateMutability": "nonpayable",
					"type": "function"
				},
				{
					"inputs": [],
					"name": "cap",
					"outputs": [
						{
							"internalType": "uint256",
							"name": "",
							"type": "uint256"
						}
					],
					"stateMutability": "view",
					"type": "function"
				},
				{
					"inputs": [],
					"name": "decimals",
					"outputs": [
						{
							"internalType": "uint8",
							"name": "",
							"type": "uint8"
						}
					],
					"stateMutability": "view",
					"type": "function"
				},
				{
					"inputs": [
						{
							"internalType": "address",
							"name": "spender",
							"type": "address"
						},
						{
							"internalType": "uint256",
							"name": "subtractedValue",
							"type": "uint256"
						}
					],
					"name": "decreaseAllowance",
					"outputs": [
						{
							"internalType": "bool",
							"name": "",
							"type": "bool"
						}
					],
					"stateMutability": "nonpayable",
					"type": "function"
				},
				{
					"inputs": [],
					"name": "destroyContract",
					"outputs": [],
					"stateMutability": "nonpayable",
					"type": "function"
				},
				{
					"inputs": [
						{
							"internalType": "address",
							"name": "spender",
							"type": "address"
						},
						{
							"internalType": "uint256",
							"name": "addedValue",
							"type": "uint256"
						}
					],
					"name": "increaseAllowance",
					"outputs": [
						{
							"internalType": "bool",
							"name": "",
							"type": "bool"
						}
					],
					"stateMutability": "nonpayable",
					"type": "function"
				},
				{
					"inputs": [],
					"name": "name",
					"outputs": [
						{
							"internalType": "string",
							"name": "",
							"type": "string"
						}
					],
					"stateMutability": "view",
					"type": "function"
				},
				{
					"inputs": [],
					"name": "owner",
					"outputs": [
						{
							"internalType": "address payable",
							"name": "",
							"type": "address"
						}
					],
					"stateMutability": "view",
					"type": "function"
				},
				{
					"inputs": [
						{
							"internalType": "uint256",
							"name": "reward",
							"type": "uint256"
						}
					],
					"name": "setBlockReward",
					"outputs": [],
					"stateMutability": "nonpayable",
					"type": "function"
				},
				{
					"inputs": [],
					"name": "symbol",
					"outputs": [
						{
							"internalType": "string",
							"name": "",
							"type": "string"
						}
					],
					"stateMutability": "view",
					"type": "function"
				},
				{
					"inputs": [],
					"name": "totalSupply",
					"outputs": [
						{
							"internalType": "uint256",
							"name": "",
							"type": "uint256"
						}
					],
					"stateMutability": "view",
					"type": "function"
				},
				{
					"inputs": [
						{
							"internalType": "address",
							"name": "to",
							"type": "address"
						},
						{
							"internalType": "uint256",
							"name": "amount",
							"type": "uint256"
						}
					],
					"name": "transfer",
					"outputs": [
						{
							"internalType": "bool",
							"name": "",
							"type": "bool"
						}
					],
					"stateMutability": "nonpayable",
					"type": "function"
				},
				{
					"inputs": [
						{
							"internalType": "address",
							"name": "from",
							"type": "address"
						},
						{
							"internalType": "address",
							"name": "to",
							"type": "address"
						},
						{
							"internalType": "uint256",
							"name": "amount",
							"type": "uint256"
						}
					],
					"name": "transferFrom",
					"outputs": [
						{
							"internalType": "bool",
							"name": "",
							"type": "bool"
						}
					],
					"stateMutability": "nonpayable",
					"type": "function"
				}
			],
			"devdoc": {
				"events": {
					"Approval(address,address,uint256)": {
						"details": "Emitted when the allowance of a `spender` for an `owner` is set by a call to {approve}. `value` is the new allowance."
					},
					"Transfer(address,address,uint256)": {
						"details": "Emitted when `value` tokens are moved from one account (`from`) to another (`to`). Note that `value` may be zero."
					}
				},
				"kind": "dev",
				"methods": {
					"allowance(address,address)": {
						"details": "See {IERC20-allowance}."
					},
					"approve(address,uint256)": {
						"details": "See {IERC20-approve}. NOTE: If `amount` is the maximum `uint256`, the allowance is not updated on `transferFrom`. This is semantically equivalent to an infinite approval. Requirements: - `spender` cannot be the zero address."
					},
					"balanceOf(address)": {
						"details": "See {IERC20-balanceOf}."
					},
					"burn(uint256)": {
						"details": "Destroys `amount` tokens from the caller. See {ERC20-_burn}."
					},
					"burnFrom(address,uint256)": {
						"details": "Destroys `amount` tokens from `account`, deducting from the caller's allowance. See {ERC20-_burn} and {ERC20-allowance}. Requirements: - the caller must have allowance for ``accounts``'s tokens of at least `amount`."
					},
					"cap()": {
						"details": "Returns the cap on the token's total supply."
					},
					"decimals()": {
						"details": "Returns the number of decimals used to get its user representation. For example, if `decimals` equals `2`, a balance of `505` tokens should be displayed to a user as `5.05` (`505 / 10 ** 2`). Tokens usually opt for a value of 18, imitating the relationship between Ether and Wei. This is the value {ERC20} uses, unless this function is overridden; NOTE: This information is only used for _display_ purposes: it in no way affects any of the arithmetic of the contract, including {IERC20-balanceOf} and {IERC20-transfer}."
					},
					"decreaseAllowance(address,uint256)": {
						"details": "Atomically decreases the allowance granted to `spender` by the caller. This is an alternative to {approve} that can be used as a mitigation for problems described in {IERC20-approve}. Emits an {Approval} event indicating the updated allowance. Requirements: - `spender` cannot be the zero address. - `spender` must have allowance for the caller of at least `subtractedValue`."
					},
					"increaseAllowance(address,uint256)": {
						"details": "Atomically increases the allowance granted to `spender` by the caller. This is an alternative to {approve} that can be used as a mitigation for problems described in {IERC20-approve}. Emits an {Approval} event indicating the updated allowance. Requirements: - `spender` cannot be the zero address."
					},
					"name()": {
						"details": "Returns the name of the token."
					},
					"symbol()": {
						"details": "Returns the symbol of the token, usually a shorter version of the name."
					},
					"totalSupply()": {
						"details": "See {IERC20-totalSupply}."
					},
					"transfer(address,uint256)": {
						"details": "See {IERC20-transfer}. Requirements: - `to` cannot be the zero address. - the caller must have a balance of at least `amount`."
					},
					"transferFrom(address,address,uint256)": {
						"details": "See {IERC20-transferFrom}. Emits an {Approval} event indicating the updated allowance. This is not required by the EIP. See the note at the beginning of {ERC20}. NOTE: Does not update the allowance if the current allowance is the maximum `uint256`. Requirements: - `from` and `to` cannot be the zero address. - `from` must have a balance of at least `amount`. - the caller must have allowance for ``from``'s tokens of at least `amount`."
					}
				},
				"version": 1
			},
			"evm": {
				"assembly": "    /* \"ERC20/MyToken.sol\":263:1988  contract MyToken is ERC20Capped, ERC20Burnable {... */\n  mstore(0x40, 0xa0)\n    /* \"ERC20/MyToken.sol\":383:689  constructor(uint256 cap, uint256 reward)... */\n  callvalue\n  dup1\n  iszero\n  tag_1\n  jumpi\n  0x00\n  dup1\n  revert\ntag_1:\n  pop\n  mload(0x40)\n  sub(codesize, bytecodeSize)\n  dup1\n  bytecodeSize\n  dup4\n  codecopy\n  dup2\n  dup2\n  add\n  0x40\n  mstore\n  dup2\n  add\n  swap1\n  tag_2\n  swap2\n  swap1\n  tag_3\n  jump\t// in\ntag_2:\n    /* \"ERC20/MyToken.sol\":487:497  decimals() */\n  tag_5\n    /* \"ERC20/MyToken.sol\":487:495  decimals */\n  shl(0x20, tag_6)\n    /* \"ERC20/MyToken.sol\":487:497  decimals() */\n  0x20\n  shr\n  jump\t// in\ntag_5:\n    /* \"ERC20/MyToken.sol\":483:485  10 */\n  0x0a\n    /* \"ERC20/MyToken.sol\":483:497  10**decimals() */\n  tag_7\n  swap2\n  swap1\n  tag_8\n  jump\t// in\ntag_7:\n    /* \"ERC20/MyToken.sol\":476:479  cap */\n  dup3\n    /* \"ERC20/MyToken.sol\":476:498  cap * (10**decimals()) */\n  tag_9\n  swap2\n  swap1\n  tag_10\n  jump\t// in\ntag_9:\n    /* \"@openzeppelin/contracts/token/ERC20/ERC20.sol\":1976:2089  constructor(string memory name_, string memory symbol_) {... */\n  mload(0x40)\n  dup1\n  0x40\n  add\n  0x40\n  mstore\n  dup1\n  0x07\n  dup2\n  mstore\n  0x20\n  add\n  0x4d79546f6b656e00000000000000000000000000000000000000000000000000\n  dup2\n  mstore\n  pop\n  mload(0x40)\n  dup1\n  0x40\n  add\n  0x40\n  mstore\n  dup1\n  0x03\n  dup2\n  mstore\n  0x20\n  add\n  0x4d59540000000000000000000000000000000000000000000000000000000000\n  dup2\n  mstore\n  pop\n    /* \"@openzeppelin/contracts/token/ERC20/ERC20.sol\":2050:2055  name_ */\n  dup2\n    /* \"@openzeppelin/contracts/token/ERC20/ERC20.sol\":2042:2047  _name */\n  0x03\n    /* \"@openzeppelin/contracts/token/ERC20/ERC20.sol\":2042:2055  _name = name_ */\n  swap1\n  dup2\n  tag_14\n  swap2\n  swap1\n  tag_15\n  jump\t// in\ntag_14:\n  pop\n    /* \"@openzeppelin/contracts/token/ERC20/ERC20.sol\":2075:2082  symbol_ */\n  dup1\n    /* \"@openzeppelin/contracts/token/ERC20/ERC20.sol\":2065:2072  _symbol */\n  0x04\n    /* \"@openzeppelin/contracts/token/ERC20/ERC20.sol\":2065:2082  _symbol = symbol_ */\n  swap1\n  dup2\n  tag_16\n  swap2\n  swap1\n  tag_15\n  jump\t// in\ntag_16:\n  pop\n    /* \"@openzeppelin/contracts/token/ERC20/ERC20.sol\":1976:2089  constructor(string memory name_, string memory symbol_) {... */\n  pop\n  pop\n    /* \"@openzeppelin/contracts/token/ERC20/extensions/ERC20Capped.sol\":501:502  0 */\n  0x00\n    /* \"@openzeppelin/contracts/token/ERC20/extensions/ERC20Capped.sol\":494:498  cap_ */\n  dup2\n    /* \"@openzeppelin/contracts/token/ERC20/extensions/ERC20Capped.sol\":494:502  cap_ > 0 */\n  gt\n    /* \"@openzeppelin/contracts/token/ERC20/extensions/ERC20Capped.sol\":486:528  require(cap_ > 0, \"ERC20Capped: cap is 0\") */\n  tag_18\n  jumpi\n  mload(0x40)\n  0x08c379a000000000000000000000000000000000000000000000000000000000\n  dup2\n  mstore\n  0x04\n  add\n  tag_19\n  swap1\n  tag_20\n  jump\t// in\ntag_19:\n  mload(0x40)\n  dup1\n  swap2\n  sub\n  swap1\n  revert\ntag_18:\n    /* \"@openzeppelin/contracts/token/ERC20/extensions/ERC20Capped.sol\":545:549  cap_ */\n  dup1\n    /* \"@openzeppelin/contracts/token/ERC20/extensions/ERC20Capped.sol\":538:549  _cap = cap_ */\n  0x80\n  dup2\n  dup2\n  mstore\n  pop\n  pop\n    /* \"@openzeppelin/contracts/token/ERC20/extensions/ERC20Capped.sol\":450:556  constructor(uint256 cap_) {... */\n  pop\n    /* \"ERC20/MyToken.sol\":530:540  msg.sender */\n  caller\n    /* \"ERC20/MyToken.sol\":514:519  owner */\n  0x05\n  0x00\n    /* \"ERC20/MyToken.sol\":514:541  owner = payable(msg.sender) */\n  0x0100\n  exp\n  dup2\n  sload\n  dup2\n  0xffffffffffffffffffffffffffffffffffffffff\n  mul\n  not\n  and\n  swap1\n  dup4\n  0xffffffffffffffffffffffffffffffffffffffff\n  and\n  mul\n  or\n  swap1\n  sstore\n  pop\n    /* \"ERC20/MyToken.sol\":551:592  _mint(owner, 70000000 * (10**decimals())) */\n  tag_22\n    /* \"ERC20/MyToken.sol\":557:562  owner */\n  0x05\n  0x00\n  swap1\n  sload\n  swap1\n  0x0100\n  exp\n  swap1\n  div\n  0xffffffffffffffffffffffffffffffffffffffff\n  and\n    /* \"ERC20/MyToken.sol\":580:590  decimals() */\n  tag_23\n    /* \"ERC20/MyToken.sol\":580:588  decimals */\n  shl(0x20, tag_6)\n    /* \"ERC20/MyToken.sol\":580:590  decimals() */\n  0x20\n  shr\n  jump\t// in\ntag_23:\n    /* \"ERC20/MyToken.sol\":576:578  10 */\n  0x0a\n    /* \"ERC20/MyToken.sol\":576:590  10**decimals() */\n  tag_24\n  swap2\n  swap1\n  tag_8\n  jump\t// in\ntag_24:\n    /* \"ERC20/MyToken.sol\":564:572  70000000 */\n  0x042c1d80\n    /* \"ERC20/MyToken.sol\":564:591  70000000 * (10**decimals()) */\n  tag_25\n  swap2\n  swap1\n  tag_10\n  jump\t// in\ntag_25:\n    /* \"ERC20/MyToken.sol\":551:556  _mint */\n  shl(0x20, tag_26)\n    /* \"ERC20/MyToken.sol\":551:592  _mint(owner, 70000000 * (10**decimals())) */\n  0x20\n  shr\n  jump\t// in\ntag_22:\n    /* \"ERC20/MyToken.sol\":630:640  decimals() */\n  tag_27\n    /* \"ERC20/MyToken.sol\":630:638  decimals */\n  shl(0x20, tag_6)\n    /* \"ERC20/MyToken.sol\":630:640  decimals() */\n  0x20\n  shr\n  jump\t// in\ntag_27:\n    /* \"ERC20/MyToken.sol\":626:628  10 */\n  0x0a\n    /* \"ERC20/MyToken.sol\":626:640  10**decimals() */\n  tag_28\n  swap2\n  swap1\n  tag_8\n  jump\t// in\ntag_28:\n    /* \"ERC20/MyToken.sol\":616:622  reward */\n  dup2\n    /* \"ERC20/MyToken.sol\":616:641  reward * (10**decimals()) */\n  tag_29\n  swap2\n  swap1\n  tag_10\n  jump\t// in\ntag_29:\n    /* \"ERC20/MyToken.sol\":602:613  blockReward */\n  0x06\n    /* \"ERC20/MyToken.sol\":602:641  blockReward = reward * (10**decimals()) */\n  dup2\n  swap1\n  sstore\n  pop\n    /* \"ERC20/MyToken.sol\":383:689  constructor(uint256 cap, uint256 reward)... */\n  pop\n  pop\n    /* \"ERC20/MyToken.sol\":263:1988  contract MyToken is ERC20Capped, ERC20Burnable {... */\n  jump(tag_30)\n    /* \"@openzeppelin/contracts/token/ERC20/ERC20.sol\":3091:3182  function decimals() public view virtual override returns (uint8) {... */\ntag_6:\n    /* \"@openzeppelin/contracts/token/ERC20/ERC20.sol\":3149:3154  uint8 */\n  0x00\n    /* \"@openzeppelin/contracts/token/ERC20/ERC20.sol\":3173:3175  18 */\n  0x12\n    /* \"@openzeppelin/contracts/token/ERC20/ERC20.sol\":3166:3175  return 18 */\n  swap1\n  pop\n    /* \"@openzeppelin/contracts/token/ERC20/ERC20.sol\":3091:3182  function decimals() public view virtual override returns (uint8) {... */\n  swap1\n  jump\t// out\n    /* \"ERC20/MyToken.sol\":1292:1578  function _mint(address account, uint256 amount)... */\ntag_26:\n    /* \"ERC20/MyToken.sol\":1477:1482  cap() */\n  tag_33\n    /* \"ERC20/MyToken.sol\":1477:1480  cap */\n  shl(0x20, tag_34)\n    /* \"ERC20/MyToken.sol\":1477:1482  cap() */\n  0x20\n  shr\n  jump\t// in\ntag_33:\n    /* \"ERC20/MyToken.sol\":1467:1473  amount */\n  dup2\n    /* \"ERC20/MyToken.sol\":1445:1464  ERC20.totalSupply() */\n  tag_35\n    /* \"ERC20/MyToken.sol\":1445:1462  ERC20.totalSupply */\n  shl(0x20, tag_36)\n    /* \"ERC20/MyToken.sol\":1445:1464  ERC20.totalSupply() */\n  0x20\n  shr\n  jump\t// in\ntag_35:\n    /* \"ERC20/MyToken.sol\":1445:1473  ERC20.totalSupply() + amount */\n  tag_37\n  swap2\n  swap1\n  tag_38\n  jump\t// in\ntag_37:\n    /* \"ERC20/MyToken.sol\":1445:1482  ERC20.totalSupply() + amount <= cap() */\n  gt\n  iszero\n    /* \"ERC20/MyToken.sol\":1424:1533  require(... */\n  tag_39\n  jumpi\n  mload(0x40)\n  0x08c379a000000000000000000000000000000000000000000000000000000000\n  dup2\n  mstore\n  0x04\n  add\n  tag_40\n  swap1\n  tag_41\n  jump\t// in\ntag_40:\n  mload(0x40)\n  dup1\n  swap2\n  sub\n  swap1\n  revert\ntag_39:\n    /* \"ERC20/MyToken.sol\":1543:1571  super._mint(account, amount) */\n  tag_42\n    /* \"ERC20/MyToken.sol\":1555:1562  account */\n  dup3\n    /* \"ERC20/MyToken.sol\":1564:1570  amount */\n  dup3\n    /* \"ERC20/MyToken.sol\":1543:1554  super._mint */\n  shl(0x20, tag_43)\n    /* \"ERC20/MyToken.sol\":1543:1571  super._mint(account, amount) */\n  0x20\n  shr\n  jump\t// in\ntag_42:\n    /* \"ERC20/MyToken.sol\":1292:1578  function _mint(address account, uint256 amount)... */\n  pop\n  pop\n  jump\t// out\n    /* \"@openzeppelin/contracts/token/ERC20/extensions/ERC20Capped.sol\":635:716  function cap() public view virtual returns (uint256) {... */\ntag_34:\n    /* \"@openzeppelin/contracts/token/ERC20/extensions/ERC20Capped.sol\":679:686  uint256 */\n  0x00\n    /* \"@openzeppelin/contracts/token/ERC20/extensions/ERC20Capped.sol\":705:709  _cap */\n  mload(0x80)\n    /* \"@openzeppelin/contracts/token/ERC20/extensions/ERC20Capped.sol\":698:709  return _cap */\n  swap1\n  pop\n    /* \"@openzeppelin/contracts/token/ERC20/extensions/ERC20Capped.sol\":635:716  function cap() public view virtual returns (uint256) {... */\n  swap1\n  jump\t// out\n    /* \"@openzeppelin/contracts/token/ERC20/ERC20.sol\":3242:3348  function totalSupply() public view virtual override returns (uint256) {... */\ntag_36:\n    /* \"@openzeppelin/contracts/token/ERC20/ERC20.sol\":3303:3310  uint256 */\n  0x00\n    /* \"@openzeppelin/contracts/token/ERC20/ERC20.sol\":3329:3341  _totalSupply */\n  sload(0x02)\n    /* \"@openzeppelin/contracts/token/ERC20/ERC20.sol\":3322:3341  return _totalSupply */\n  swap1\n  pop\n    /* \"@openzeppelin/contracts/token/ERC20/ERC20.sol\":3242:3348  function totalSupply() public view virtual override returns (uint256) {... */\n  swap1\n  jump\t// out\n    /* \"@openzeppelin/contracts/token/ERC20/extensions/ERC20Capped.sol\":769:973  function _mint(address account, uint256 amount) internal virtual override {... */\ntag_43:\n    /* \"@openzeppelin/contracts/token/ERC20/extensions/ERC20Capped.sol\":893:898  cap() */\n  tag_47\n    /* \"@openzeppelin/contracts/token/ERC20/extensions/ERC20Capped.sol\":893:896  cap */\n  shl(0x20, tag_34)\n    /* \"@openzeppelin/contracts/token/ERC20/extensions/ERC20Capped.sol\":893:898  cap() */\n  0x20\n  shr\n  jump\t// in\ntag_47:\n    /* \"@openzeppelin/contracts/token/ERC20/extensions/ERC20Capped.sol\":883:889  amount */\n  dup2\n    /* \"@openzeppelin/contracts/token/ERC20/extensions/ERC20Capped.sol\":861:880  ERC20.totalSupply() */\n  tag_48\n    /* \"@openzeppelin/contracts/token/ERC20/extensions/ERC20Capped.sol\":861:878  ERC20.totalSupply */\n  shl(0x20, tag_36)\n    /* \"@openzeppelin/contracts/token/ERC20/extensions/ERC20Capped.sol\":861:880  ERC20.totalSupply() */\n  0x20\n  shr\n  jump\t// in\ntag_48:\n    /* \"@openzeppelin/contracts/token/ERC20/extensions/ERC20Capped.sol\":861:889  ERC20.totalSupply() + amount */\n  tag_49\n  swap2\n  swap1\n  tag_38\n  jump\t// in\ntag_49:\n    /* \"@openzeppelin/contracts/token/ERC20/extensions/ERC20Capped.sol\":861:898  ERC20.totalSupply() + amount <= cap() */\n  gt\n  iszero\n    /* \"@openzeppelin/contracts/token/ERC20/extensions/ERC20Capped.sol\":853:928  require(ERC20.totalSupply() + amount <= cap(), \"ERC20Capped: cap exceeded\") */\n  tag_50\n  jumpi\n  mload(0x40)\n  0x08c379a000000000000000000000000000000000000000000000000000000000\n  dup2\n  mstore\n  0x04\n  add\n  tag_51\n  swap1\n  tag_41\n  jump\t// in\ntag_51:\n  mload(0x40)\n  dup1\n  swap2\n  sub\n  swap1\n  revert\ntag_50:\n    /* \"@openzeppelin/contracts/token/ERC20/extensions/ERC20Capped.sol\":938:966  super._mint(account, amount) */\n  tag_52\n    /* \"@openzeppelin/contracts/token/ERC20/extensions/ERC20Capped.sol\":950:957  account */\n  dup3\n    /* \"@openzeppelin/contracts/token/ERC20/extensions/ERC20Capped.sol\":959:965  amount */\n  dup3\n    /* \"@openzeppelin/contracts/token/ERC20/extensions/ERC20Capped.sol\":938:949  super._mint */\n  shl(0x20, tag_53)\n    /* \"@openzeppelin/contracts/token/ERC20/extensions/ERC20Capped.sol\":938:966  super._mint(account, amount) */\n  0x20\n  shr\n  jump\t// in\ntag_52:\n    /* \"@openzeppelin/contracts/token/ERC20/extensions/ERC20Capped.sol\":769:973  function _mint(address account, uint256 amount) internal virtual override {... */\n  pop\n  pop\n  jump\t// out\n    /* \"@openzeppelin/contracts/token/ERC20/ERC20.sol\":8567:9102  function _mint(address account, uint256 amount) internal virtual {... */\ntag_53:\n    /* \"@openzeppelin/contracts/token/ERC20/ERC20.sol\":8669:8670  0 */\n  0x00\n    /* \"@openzeppelin/contracts/token/ERC20/ERC20.sol\":8650:8671  account != address(0) */\n  0xffffffffffffffffffffffffffffffffffffffff\n  and\n    /* \"@openzeppelin/contracts/token/ERC20/ERC20.sol\":8650:8657  account */\n  dup3\n    /* \"@openzeppelin/contracts/token/ERC20/ERC20.sol\":8650:8671  account != address(0) */\n  0xffffffffffffffffffffffffffffffffffffffff\n  and\n  sub\n    /* \"@openzeppelin/contracts/token/ERC20/ERC20.sol\":8642:8707  require(account != address(0), \"ERC20: mint to the zero address\") */\n  tag_55\n  jumpi\n  mload(0x40)\n  0x08c379a000000000000000000000000000000000000000000000000000000000\n  dup2\n  mstore\n  0x04\n  add\n  tag_56\n  swap1\n  tag_57\n  jump\t// in\ntag_56:\n  mload(0x40)\n  dup1\n  swap2\n  sub\n  swap1\n  revert\ntag_55:\n    /* \"@openzeppelin/contracts/token/ERC20/ERC20.sol\":8718:8767  _beforeTokenTransfer(address(0), account, amount) */\n  tag_58\n    /* \"@openzeppelin/contracts/token/ERC20/ERC20.sol\":8747:8748  0 */\n  0x00\n    /* \"@openzeppelin/contracts/token/ERC20/ERC20.sol\":8751:8758  account */\n  dup4\n    /* \"@openzeppelin/contracts/token/ERC20/ERC20.sol\":8760:8766  amount */\n  dup4\n    /* \"@openzeppelin/contracts/token/ERC20/ERC20.sol\":8718:8738  _beforeTokenTransfer */\n  shl(0x20, tag_59)\n    /* \"@openzeppelin/contracts/token/ERC20/ERC20.sol\":8718:8767  _beforeTokenTransfer(address(0), account, amount) */\n  0x20\n  shr\n  jump\t// in\ntag_58:\n    /* \"@openzeppelin/contracts/token/ERC20/ERC20.sol\":8794:8800  amount */\n  dup1\n    /* \"@openzeppelin/contracts/token/ERC20/ERC20.sol\":8778:8790  _totalSupply */\n  0x02\n  0x00\n    /* \"@openzeppelin/contracts/token/ERC20/ERC20.sol\":8778:8800  _totalSupply += amount */\n  dup3\n  dup3\n  sload\n  tag_60\n  swap2\n  swap1\n  tag_38\n  jump\t// in\ntag_60:\n  swap3\n  pop\n  pop\n  dup2\n  swap1\n  sstore\n  pop\n    /* \"@openzeppelin/contracts/token/ERC20/ERC20.sol\":8968:8974  amount */\n  dup1\n    /* \"@openzeppelin/contracts/token/ERC20/ERC20.sol\":8946:8955  _balances */\n  0x00\n    /* \"@openzeppelin/contracts/token/ERC20/ERC20.sol\":8946:8964  _balances[account] */\n  dup1\n    /* \"@openzeppelin/contracts/token/ERC20/ERC20.sol\":8956:8963  account */\n  dup5\n    /* \"@openzeppelin/contracts/token/ERC20/ERC20.sol\":8946:8964  _balances[account] */\n  0xffffffffffffffffffffffffffffffffffffffff\n  and\n  0xffffffffffffffffffffffffffffffffffffffff\n  and\n  dup2\n  mstore\n  0x20\n  add\n  swap1\n  dup2\n  mstore\n  0x20\n  add\n  0x00\n  keccak256\n  0x00\n    /* \"@openzeppelin/contracts/token/ERC20/ERC20.sol\":8946:8974  _balances[account] += amount */\n  dup3\n  dup3\n  sload\n  add\n  swap3\n  pop\n  pop\n  dup2\n  swap1\n  sstore\n  pop\n    /* \"@openzeppelin/contracts/token/ERC20/ERC20.sol\":9020:9027  account */\n  dup2\n    /* \"@openzeppelin/contracts/token/ERC20/ERC20.sol\":8999:9036  Transfer(address(0), account, amount) */\n  0xffffffffffffffffffffffffffffffffffffffff\n  and\n    /* \"@openzeppelin/contracts/token/ERC20/ERC20.sol\":9016:9017  0 */\n  0x00\n    /* \"@openzeppelin/contracts/token/ERC20/ERC20.sol\":8999:9036  Transfer(address(0), account, amount) */\n  0xffffffffffffffffffffffffffffffffffffffff\n  and\n  0xddf252ad1be2c89b69c2b068fc378daa952ba7f163c4a11628f55a4df523b3ef\n    /* \"@openzeppelin/contracts/token/ERC20/ERC20.sol\":9029:9035  amount */\n  dup4\n    /* \"@openzeppelin/contracts/token/ERC20/ERC20.sol\":8999:9036  Transfer(address(0), account, amount) */\n  mload(0x40)\n  tag_61\n  swap2\n  swap1\n  tag_62\n  jump\t// in\ntag_61:\n  mload(0x40)\n  dup1\n  swap2\n  sub\n  swap1\n  log3\n    /* \"@openzeppelin/contracts/token/ERC20/ERC20.sol\":9047:9095  _afterTokenTransfer(address(0), account, amount) */\n  tag_63\n    /* \"@openzeppelin/contracts/token/ERC20/ERC20.sol\":9075:9076  0 */\n  0x00\n    /* \"@openzeppelin/contracts/token/ERC20/ERC20.sol\":9079:9086  account */\n  dup4\n    /* \"@openzeppelin/contracts/token/ERC20/ERC20.sol\":9088:9094  amount */\n  dup4\n    /* \"@openzeppelin/contracts/token/ERC20/ERC20.sol\":9047:9066  _afterTokenTransfer */\n  shl(0x20, tag_64)\n    /* \"@openzeppelin/contracts/token/ERC20/ERC20.sol\":9047:9095  _afterTokenTransfer(address(0), account, amount) */\n  0x20\n  shr\n  jump\t// in\ntag_63:\n    /* \"@openzeppelin/contracts/token/ERC20/ERC20.sol\":8567:9102  function _mint(address account, uint256 amount) internal virtual {... */\n  pop\n  pop\n  jump\t// out\n    /* \"ERC20/MyToken.sol\":917:1286  function _beforeTokenTransfer(... */\ntag_59:\n    /* \"ERC20/MyToken.sol\":1079:1093  block.coinbase */\n  coinbase\n    /* \"ERC20/MyToken.sol\":1071:1093  from != block.coinbase */\n  0xffffffffffffffffffffffffffffffffffffffff\n  and\n    /* \"ERC20/MyToken.sol\":1071:1075  from */\n  dup4\n    /* \"ERC20/MyToken.sol\":1071:1093  from != block.coinbase */\n  0xffffffffffffffffffffffffffffffffffffffff\n  and\n  eq\n  iszero\n    /* \"ERC20/MyToken.sol\":1071:1129  from != block.coinbase &&... */\n  dup1\n  iszero\n  tag_66\n  jumpi\n  pop\n    /* \"ERC20/MyToken.sol\":1115:1129  block.coinbase */\n  coinbase\n    /* \"ERC20/MyToken.sol\":1109:1129  to != block.coinbase */\n  0xffffffffffffffffffffffffffffffffffffffff\n  and\n    /* \"ERC20/MyToken.sol\":1109:1111  to */\n  dup3\n    /* \"ERC20/MyToken.sol\":1109:1129  to != block.coinbase */\n  0xffffffffffffffffffffffffffffffffffffffff\n  and\n  eq\n  iszero\n    /* \"ERC20/MyToken.sol\":1071:1129  from != block.coinbase &&... */\ntag_66:\n    /* \"ERC20/MyToken.sol\":1071:1173  from != block.coinbase &&... */\n  dup1\n  iszero\n  tag_67\n  jumpi\n  pop\n    /* \"ERC20/MyToken.sol\":1171:1172  0 */\n  0x00\n    /* \"ERC20/MyToken.sol\":1145:1173  block.coinbase != address(0) */\n  0xffffffffffffffffffffffffffffffffffffffff\n  and\n    /* \"ERC20/MyToken.sol\":1145:1159  block.coinbase */\n  coinbase\n    /* \"ERC20/MyToken.sol\":1145:1173  block.coinbase != address(0) */\n  0xffffffffffffffffffffffffffffffffffffffff\n  and\n  eq\n  iszero\n    /* \"ERC20/MyToken.sol\":1071:1173  from != block.coinbase &&... */\ntag_67:\n    /* \"ERC20/MyToken.sol\":1054:1226  if (... */\n  iszero\n  tag_68\n  jumpi\n    /* \"ERC20/MyToken.sol\":1198:1215  _mintMinerRewad() */\n  tag_69\n    /* \"ERC20/MyToken.sol\":1198:1213  _mintMinerRewad */\n  shl(0x20, tag_70)\n    /* \"ERC20/MyToken.sol\":1198:1215  _mintMinerRewad() */\n  0x20\n  shr\n  jump\t// in\ntag_69:\n    /* \"ERC20/MyToken.sol\":1054:1226  if (... */\ntag_68:\n    /* \"ERC20/MyToken.sol\":1236:1279  super._beforeTokenTransfer(from, to, value) */\n  tag_71\n    /* \"ERC20/MyToken.sol\":1263:1267  from */\n  dup4\n    /* \"ERC20/MyToken.sol\":1269:1271  to */\n  dup4\n    /* \"ERC20/MyToken.sol\":1273:1278  value */\n  dup4\n    /* \"ERC20/MyToken.sol\":1236:1262  super._beforeTokenTransfer */\n  shl(0x20, tag_72)\n    /* \"ERC20/MyToken.sol\":1236:1279  super._beforeTokenTransfer(from, to, value) */\n  0x20\n  shr\n  jump\t// in\ntag_71:\n    /* \"ERC20/MyToken.sol\":917:1286  function _beforeTokenTransfer(... */\n  pop\n  pop\n  pop\n  jump\t// out\n    /* \"@openzeppelin/contracts/token/ERC20/ERC20.sol\":12889:13009  function _afterTokenTransfer(... */\ntag_64:\n  pop\n  pop\n  pop\n  jump\t// out\n    /* \"ERC20/MyToken.sol\":723:810  function _mintMinerRewad() internal {... */\ntag_70:\n    /* \"ERC20/MyToken.sol\":769:803  _mint(block.coinbase, blockReward) */\n  tag_75\n    /* \"ERC20/MyToken.sol\":775:789  block.coinbase */\n  coinbase\n    /* \"ERC20/MyToken.sol\":791:802  blockReward */\n  sload(0x06)\n    /* \"ERC20/MyToken.sol\":769:774  _mint */\n  shl(0x20, tag_26)\n    /* \"ERC20/MyToken.sol\":769:803  _mint(block.coinbase, blockReward) */\n  0x20\n  shr\n  jump\t// in\ntag_75:\n    /* \"ERC20/MyToken.sol\":723:810  function _mintMinerRewad() internal {... */\n  jump\t// out\n    /* \"@openzeppelin/contracts/token/ERC20/ERC20.sol\":12180:12301  function _beforeTokenTransfer(... */\ntag_72:\n  pop\n  pop\n  pop\n  jump\t// out\n    /* \"#utility.yul\":88:205   */\ntag_78:\n    /* \"#utility.yul\":197:198   */\n  0x00\n    /* \"#utility.yul\":194:195   */\n  dup1\n    /* \"#utility.yul\":187:199   */\n  revert\n    /* \"#utility.yul\":334:411   */\ntag_80:\n    /* \"#utility.yul\":371:378   */\n  0x00\n    /* \"#utility.yul\":400:405   */\n  dup2\n    /* \"#utility.yul\":389:405   */\n  swap1\n  pop\n    /* \"#utility.yul\":334:411   */\n  swap2\n  swap1\n  pop\n  jump\t// out\n    /* \"#utility.yul\":417:539   */\ntag_81:\n    /* \"#utility.yul\":490:514   */\n  tag_121\n    /* \"#utility.yul\":508:513   */\n  dup2\n    /* \"#utility.yul\":490:514   */\n  tag_80\n  jump\t// in\ntag_121:\n    /* \"#utility.yul\":483:488   */\n  dup2\n    /* \"#utility.yul\":480:515   */\n  eq\n    /* \"#utility.yul\":470:533   */\n  tag_122\n  jumpi\n    /* \"#utility.yul\":529:530   */\n  0x00\n    /* \"#utility.yul\":526:527   */\n  dup1\n    /* \"#utility.yul\":519:531   */\n  revert\n    /* \"#utility.yul\":470:533   */\ntag_122:\n    /* \"#utility.yul\":417:539   */\n  pop\n  jump\t// out\n    /* \"#utility.yul\":545:688   */\ntag_82:\n    /* \"#utility.yul\":602:607   */\n  0x00\n    /* \"#utility.yul\":633:639   */\n  dup2\n    /* \"#utility.yul\":627:640   */\n  mload\n    /* \"#utility.yul\":618:640   */\n  swap1\n  pop\n    /* \"#utility.yul\":649:682   */\n  tag_124\n    /* \"#utility.yul\":676:681   */\n  dup2\n    /* \"#utility.yul\":649:682   */\n  tag_81\n  jump\t// in\ntag_124:\n    /* \"#utility.yul\":545:688   */\n  swap3\n  swap2\n  pop\n  pop\n  jump\t// out\n    /* \"#utility.yul\":694:1201   */\ntag_3:\n    /* \"#utility.yul\":773:779   */\n  0x00\n    /* \"#utility.yul\":781:787   */\n  dup1\n    /* \"#utility.yul\":830:832   */\n  0x40\n    /* \"#utility.yul\":818:827   */\n  dup4\n    /* \"#utility.yul\":809:816   */\n  dup6\n    /* \"#utility.yul\":805:828   */\n  sub\n    /* \"#utility.yul\":801:833   */\n  slt\n    /* \"#utility.yul\":798:917   */\n  iszero\n  tag_126\n  jumpi\n    /* \"#utility.yul\":836:915   */\n  tag_127\n  tag_78\n  jump\t// in\ntag_127:\n    /* \"#utility.yul\":798:917   */\ntag_126:\n    /* \"#utility.yul\":956:957   */\n  0x00\n    /* \"#utility.yul\":981:1045   */\n  tag_128\n    /* \"#utility.yul\":1037:1044   */\n  dup6\n    /* \"#utility.yul\":1028:1034   */\n  dup3\n    /* \"#utility.yul\":1017:1026   */\n  dup7\n    /* \"#utility.yul\":1013:1035   */\n  add\n    /* \"#utility.yul\":981:1045   */\n  tag_82\n  jump\t// in\ntag_128:\n    /* \"#utility.yul\":971:1045   */\n  swap3\n  pop\n    /* \"#utility.yul\":927:1055   */\n  pop\n    /* \"#utility.yul\":1094:1096   */\n  0x20\n    /* \"#utility.yul\":1120:1184   */\n  tag_129\n    /* \"#utility.yul\":1176:1183   */\n  dup6\n    /* \"#utility.yul\":1167:1173   */\n  dup3\n    /* \"#utility.yul\":1156:1165   */\n  dup7\n    /* \"#utility.yul\":1152:1174   */\n  add\n    /* \"#utility.yul\":1120:1184   */\n  tag_82\n  jump\t// in\ntag_129:\n    /* \"#utility.yul\":1110:1184   */\n  swap2\n  pop\n    /* \"#utility.yul\":1065:1194   */\n  pop\n    /* \"#utility.yul\":694:1201   */\n  swap3\n  pop\n  swap3\n  swap1\n  pop\n  jump\t// out\n    /* \"#utility.yul\":1207:1387   */\ntag_83:\n    /* \"#utility.yul\":1255:1332   */\n  0x4e487b7100000000000000000000000000000000000000000000000000000000\n    /* \"#utility.yul\":1252:1253   */\n  0x00\n    /* \"#utility.yul\":1245:1333   */\n  mstore\n    /* \"#utility.yul\":1352:1356   */\n  0x11\n    /* \"#utility.yul\":1349:1350   */\n  0x04\n    /* \"#utility.yul\":1342:1357   */\n  mstore\n    /* \"#utility.yul\":1376:1380   */\n  0x24\n    /* \"#utility.yul\":1373:1374   */\n  0x00\n    /* \"#utility.yul\":1366:1381   */\n  revert\n    /* \"#utility.yul\":1393:1495   */\ntag_84:\n    /* \"#utility.yul\":1435:1443   */\n  0x00\n    /* \"#utility.yul\":1482:1487   */\n  dup2\n    /* \"#utility.yul\":1479:1480   */\n  0x01\n    /* \"#utility.yul\":1475:1488   */\n  shr\n    /* \"#utility.yul\":1454:1488   */\n  swap1\n  pop\n    /* \"#utility.yul\":1393:1495   */\n  swap2\n  swap1\n  pop\n  jump\t// out\n    /* \"#utility.yul\":1501:2349   */\ntag_85:\n    /* \"#utility.yul\":1562:1567   */\n  0x00\n    /* \"#utility.yul\":1569:1573   */\n  dup1\n    /* \"#utility.yul\":1593:1599   */\n  dup3\n    /* \"#utility.yul\":1584:1599   */\n  swap2\n  pop\n    /* \"#utility.yul\":1617:1622   */\n  dup4\n    /* \"#utility.yul\":1608:1622   */\n  swap1\n  pop\n    /* \"#utility.yul\":1631:2343   */\ntag_133:\n    /* \"#utility.yul\":1652:1653   */\n  0x01\n    /* \"#utility.yul\":1642:1650   */\n  dup6\n    /* \"#utility.yul\":1639:1654   */\n  gt\n    /* \"#utility.yul\":1631:2343   */\n  iszero\n  tag_135\n  jumpi\n    /* \"#utility.yul\":1747:1751   */\n  dup1\n    /* \"#utility.yul\":1742:1745   */\n  dup7\n    /* \"#utility.yul\":1738:1752   */\n  div\n    /* \"#utility.yul\":1732:1736   */\n  dup2\n    /* \"#utility.yul\":1729:1753   */\n  gt\n    /* \"#utility.yul\":1726:1776   */\n  iszero\n  tag_136\n  jumpi\n    /* \"#utility.yul\":1756:1774   */\n  tag_137\n  tag_83\n  jump\t// in\ntag_137:\n    /* \"#utility.yul\":1726:1776   */\ntag_136:\n    /* \"#utility.yul\":1806:1807   */\n  0x01\n    /* \"#utility.yul\":1796:1804   */\n  dup6\n    /* \"#utility.yul\":1792:1808   */\n  and\n    /* \"#utility.yul\":1789:2240   */\n  iszero\n  tag_138\n  jumpi\n    /* \"#utility.yul\":2221:2225   */\n  dup1\n    /* \"#utility.yul\":2214:2219   */\n  dup3\n    /* \"#utility.yul\":2210:2226   */\n  mul\n    /* \"#utility.yul\":2201:2226   */\n  swap2\n  pop\n    /* \"#utility.yul\":1789:2240   */\ntag_138:\n    /* \"#utility.yul\":2271:2275   */\n  dup1\n    /* \"#utility.yul\":2265:2269   */\n  dup2\n    /* \"#utility.yul\":2261:2276   */\n  mul\n    /* \"#utility.yul\":2253:2276   */\n  swap1\n  pop\n    /* \"#utility.yul\":2301:2333   */\n  tag_139\n    /* \"#utility.yul\":2324:2332   */\n  dup6\n    /* \"#utility.yul\":2301:2333   */\n  tag_84\n  jump\t// in\ntag_139:\n    /* \"#utility.yul\":2289:2333   */\n  swap5\n  pop\n    /* \"#utility.yul\":1631:2343   */\n  jump(tag_133)\ntag_135:\n    /* \"#utility.yul\":1501:2349   */\n  swap5\n  pop\n  swap5\n  swap3\n  pop\n  pop\n  pop\n  jump\t// out\n    /* \"#utility.yul\":2355:3428   */\ntag_86:\n    /* \"#utility.yul\":2409:2414   */\n  0x00\n    /* \"#utility.yul\":2600:2608   */\n  dup3\n    /* \"#utility.yul\":2590:2630   */\n  tag_141\n  jumpi\n    /* \"#utility.yul\":2621:2622   */\n  0x01\n    /* \"#utility.yul\":2612:2622   */\n  swap1\n  pop\n    /* \"#utility.yul\":2623:2628   */\n  jump(tag_140)\n    /* \"#utility.yul\":2590:2630   */\ntag_141:\n    /* \"#utility.yul\":2649:2653   */\n  dup2\n    /* \"#utility.yul\":2639:2675   */\n  tag_142\n  jumpi\n    /* \"#utility.yul\":2666:2667   */\n  0x00\n    /* \"#utility.yul\":2657:2667   */\n  swap1\n  pop\n    /* \"#utility.yul\":2668:2673   */\n  jump(tag_140)\n    /* \"#utility.yul\":2639:2675   */\ntag_142:\n    /* \"#utility.yul\":2735:2739   */\n  dup2\n    /* \"#utility.yul\":2783:2784   */\n  0x01\n    /* \"#utility.yul\":2778:2805   */\n  dup2\n  eq\n  tag_144\n  jumpi\n    /* \"#utility.yul\":2819:2820   */\n  0x02\n    /* \"#utility.yul\":2814:3005   */\n  dup2\n  eq\n  tag_145\n  jumpi\n    /* \"#utility.yul\":2728:3005   */\n  jump(tag_143)\n    /* \"#utility.yul\":2778:2805   */\ntag_144:\n    /* \"#utility.yul\":2796:2797   */\n  0x01\n    /* \"#utility.yul\":2787:2797   */\n  swap2\n  pop\n    /* \"#utility.yul\":2798:2803   */\n  pop\n  jump(tag_140)\n    /* \"#utility.yul\":2814:3005   */\ntag_145:\n    /* \"#utility.yul\":2859:2862   */\n  0xff\n    /* \"#utility.yul\":2849:2857   */\n  dup5\n    /* \"#utility.yul\":2846:2863   */\n  gt\n    /* \"#utility.yul\":2843:2886   */\n  iszero\n  tag_146\n  jumpi\n    /* \"#utility.yul\":2866:2884   */\n  tag_147\n  tag_83\n  jump\t// in\ntag_147:\n    /* \"#utility.yul\":2843:2886   */\ntag_146:\n    /* \"#utility.yul\":2915:2923   */\n  dup4\n    /* \"#utility.yul\":2912:2913   */\n  0x02\n    /* \"#utility.yul\":2908:2924   */\n  exp\n    /* \"#utility.yul\":2899:2924   */\n  swap2\n  pop\n    /* \"#utility.yul\":2950:2953   */\n  dup5\n    /* \"#utility.yul\":2943:2948   */\n  dup3\n    /* \"#utility.yul\":2940:2954   */\n  gt\n    /* \"#utility.yul\":2937:2977   */\n  iszero\n  tag_148\n  jumpi\n    /* \"#utility.yul\":2957:2975   */\n  tag_149\n  tag_83\n  jump\t// in\ntag_149:\n    /* \"#utility.yul\":2937:2977   */\ntag_148:\n    /* \"#utility.yul\":2990:2995   */\n  pop\n  jump(tag_140)\n    /* \"#utility.yul\":2728:3005   */\ntag_143:\n  pop\n    /* \"#utility.yul\":3114:3116   */\n  0x20\n    /* \"#utility.yul\":3104:3112   */\n  dup4\n    /* \"#utility.yul\":3101:3117   */\n  lt\n    /* \"#utility.yul\":3095:3098   */\n  0x0133\n    /* \"#utility.yul\":3089:3093   */\n  dup4\n    /* \"#utility.yul\":3086:3099   */\n  lt\n    /* \"#utility.yul\":3082:3118   */\n  and\n    /* \"#utility.yul\":3064:3066   */\n  0x4e\n    /* \"#utility.yul\":3054:3062   */\n  dup5\n    /* \"#utility.yul\":3051:3067   */\n  lt\n    /* \"#utility.yul\":3046:3048   */\n  0x0b\n    /* \"#utility.yul\":3040:3044   */\n  dup5\n    /* \"#utility.yul\":3037:3049   */\n  lt\n    /* \"#utility.yul\":3033:3068   */\n  and\n    /* \"#utility.yul\":3017:3128   */\n  or\n    /* \"#utility.yul\":3014:3260   */\n  iszero\n  tag_150\n  jumpi\n    /* \"#utility.yul\":3170:3178   */\n  dup3\n    /* \"#utility.yul\":3164:3168   */\n  dup3\n    /* \"#utility.yul\":3160:3179   */\n  exp\n    /* \"#utility.yul\":3151:3179   */\n  swap1\n  pop\n    /* \"#utility.yul\":3205:3208   */\n  dup4\n    /* \"#utility.yul\":3198:3203   */\n  dup2\n    /* \"#utility.yul\":3195:3209   */\n  gt\n    /* \"#utility.yul\":3192:3232   */\n  iszero\n  tag_151\n  jumpi\n    /* \"#utility.yul\":3212:3230   */\n  tag_152\n  tag_83\n  jump\t// in\ntag_152:\n    /* \"#utility.yul\":3192:3232   */\ntag_151:\n    /* \"#utility.yul\":3245:3250   */\n  jump(tag_140)\n    /* \"#utility.yul\":3014:3260   */\ntag_150:\n    /* \"#utility.yul\":3285:3327   */\n  tag_153\n    /* \"#utility.yul\":3323:3326   */\n  dup5\n    /* \"#utility.yul\":3313:3321   */\n  dup5\n    /* \"#utility.yul\":3307:3311   */\n  dup5\n    /* \"#utility.yul\":3304:3305   */\n  0x01\n    /* \"#utility.yul\":3285:3327   */\n  tag_85\n  jump\t// in\ntag_153:\n    /* \"#utility.yul\":3270:3327   */\n  swap3\n  pop\n  swap1\n  pop\n    /* \"#utility.yul\":3359:3363   */\n  dup2\n    /* \"#utility.yul\":3354:3357   */\n  dup5\n    /* \"#utility.yul\":3350:3364   */\n  div\n    /* \"#utility.yul\":3343:3348   */\n  dup2\n    /* \"#utility.yul\":3340:3365   */\n  gt\n    /* \"#utility.yul\":3337:3388   */\n  iszero\n  tag_154\n  jumpi\n    /* \"#utility.yul\":3368:3386   */\n  tag_155\n  tag_83\n  jump\t// in\ntag_155:\n    /* \"#utility.yul\":3337:3388   */\ntag_154:\n    /* \"#utility.yul\":3417:3421   */\n  dup2\n    /* \"#utility.yul\":3410:3415   */\n  dup2\n    /* \"#utility.yul\":3406:3422   */\n  mul\n    /* \"#utility.yul\":3397:3422   */\n  swap1\n  pop\n    /* \"#utility.yul\":2355:3428   */\ntag_140:\n  swap4\n  swap3\n  pop\n  pop\n  pop\n  jump\t// out\n    /* \"#utility.yul\":3434:3520   */\ntag_87:\n    /* \"#utility.yul\":3469:3476   */\n  0x00\n    /* \"#utility.yul\":3509:3513   */\n  0xff\n    /* \"#utility.yul\":3502:3507   */\n  dup3\n    /* \"#utility.yul\":3498:3514   */\n  and\n    /* \"#utility.yul\":3487:3514   */\n  swap1\n  pop\n    /* \"#utility.yul\":3434:3520   */\n  swap2\n  swap1\n  pop\n  jump\t// out\n    /* \"#utility.yul\":3526:3807   */\ntag_8:\n    /* \"#utility.yul\":3584:3589   */\n  0x00\n    /* \"#utility.yul\":3608:3631   */\n  tag_158\n    /* \"#utility.yul\":3626:3630   */\n  dup3\n    /* \"#utility.yul\":3608:3631   */\n  tag_80\n  jump\t// in\ntag_158:\n    /* \"#utility.yul\":3600:3631   */\n  swap2\n  pop\n    /* \"#utility.yul\":3652:3677   */\n  tag_159\n    /* \"#utility.yul\":3668:3676   */\n  dup4\n    /* \"#utility.yul\":3652:3677   */\n  tag_87\n  jump\t// in\ntag_159:\n    /* \"#utility.yul\":3640:3677   */\n  swap3\n  pop\n    /* \"#utility.yul\":3696:3800   */\n  tag_160\n    /* \"#utility.yul\":3733:3799   */\n  0xffffffffffffffffffffffffffffffffffffffffffffffffffffffffffffffff\n    /* \"#utility.yul\":3723:3731   */\n  dup5\n    /* \"#utility.yul\":3717:3721   */\n  dup5\n    /* \"#utility.yul\":3696:3800   */\n  tag_86\n  jump\t// in\ntag_160:\n    /* \"#utility.yul\":3687:3800   */\n  swap1\n  pop\n    /* \"#utility.yul\":3526:3807   */\n  swap3\n  swap2\n  pop\n  pop\n  jump\t// out\n    /* \"#utility.yul\":3813:4223   */\ntag_10:\n    /* \"#utility.yul\":3853:3860   */\n  0x00\n    /* \"#utility.yul\":3876:3896   */\n  tag_162\n    /* \"#utility.yul\":3894:3895   */\n  dup3\n    /* \"#utility.yul\":3876:3896   */\n  tag_80\n  jump\t// in\ntag_162:\n    /* \"#utility.yul\":3871:3896   */\n  swap2\n  pop\n    /* \"#utility.yul\":3910:3930   */\n  tag_163\n    /* \"#utility.yul\":3928:3929   */\n  dup4\n    /* \"#utility.yul\":3910:3930   */\n  tag_80\n  jump\t// in\ntag_163:\n    /* \"#utility.yul\":3905:3930   */\n  swap3\n  pop\n    /* \"#utility.yul\":3965:3966   */\n  dup3\n    /* \"#utility.yul\":3962:3963   */\n  dup3\n    /* \"#utility.yul\":3958:3967   */\n  mul\n    /* \"#utility.yul\":3987:4017   */\n  tag_164\n    /* \"#utility.yul\":4005:4016   */\n  dup2\n    /* \"#utility.yul\":3987:4017   */\n  tag_80\n  jump\t// in\ntag_164:\n    /* \"#utility.yul\":3976:4017   */\n  swap2\n  pop\n    /* \"#utility.yul\":4166:4167   */\n  dup3\n    /* \"#utility.yul\":4157:4164   */\n  dup3\n    /* \"#utility.yul\":4153:4168   */\n  div\n    /* \"#utility.yul\":4150:4151   */\n  dup5\n    /* \"#utility.yul\":4147:4169   */\n  eq\n    /* \"#utility.yul\":4127:4128   */\n  dup4\n    /* \"#utility.yul\":4120:4129   */\n  iszero\n    /* \"#utility.yul\":4100:4183   */\n  or\n    /* \"#utility.yul\":4077:4216   */\n  tag_165\n  jumpi\n    /* \"#utility.yul\":4196:4214   */\n  tag_166\n  tag_83\n  jump\t// in\ntag_166:\n    /* \"#utility.yul\":4077:4216   */\ntag_165:\n    /* \"#utility.yul\":3861:4223   */\n  pop\n    /* \"#utility.yul\":3813:4223   */\n  swap3\n  swap2\n  pop\n  pop\n  jump\t// out\n    /* \"#utility.yul\":4229:4328   */\ntag_88:\n    /* \"#utility.yul\":4281:4287   */\n  0x00\n    /* \"#utility.yul\":4315:4320   */\n  dup2\n    /* \"#utility.yul\":4309:4321   */\n  mload\n    /* \"#utility.yul\":4299:4321   */\n  swap1\n  pop\n    /* \"#utility.yul\":4229:4328   */\n  swap2\n  swap1\n  pop\n  jump\t// out\n    /* \"#utility.yul\":4334:4514   */\ntag_89:\n    /* \"#utility.yul\":4382:4459   */\n  0x4e487b7100000000000000000000000000000000000000000000000000000000\n    /* \"#utility.yul\":4379:4380   */\n  0x00\n    /* \"#utility.yul\":4372:4460   */\n  mstore\n    /* \"#utility.yul\":4479:4483   */\n  0x41\n    /* \"#utility.yul\":4476:4477   */\n  0x04\n    /* \"#utility.yul\":4469:4484   */\n  mstore\n    /* \"#utility.yul\":4503:4507   */\n  0x24\n    /* \"#utility.yul\":4500:4501   */\n  0x00\n    /* \"#utility.yul\":4493:4508   */\n  revert\n    /* \"#utility.yul\":4520:4700   */\ntag_90:\n    /* \"#utility.yul\":4568:4645   */\n  0x4e487b7100000000000000000000000000000000000000000000000000000000\n    /* \"#utility.yul\":4565:4566   */\n  0x00\n    /* \"#utility.yul\":4558:4646   */\n  mstore\n    /* \"#utility.yul\":4665:4669   */\n  0x22\n    /* \"#utility.yul\":4662:4663   */\n  0x04\n    /* \"#utility.yul\":4655:4670   */\n  mstore\n    /* \"#utility.yul\":4689:4693   */\n  0x24\n    /* \"#utility.yul\":4686:4687   */\n  0x00\n    /* \"#utility.yul\":4679:4694   */\n  revert\n    /* \"#utility.yul\":4706:5026   */\ntag_91:\n    /* \"#utility.yul\":4750:4756   */\n  0x00\n    /* \"#utility.yul\":4787:4788   */\n  0x02\n    /* \"#utility.yul\":4781:4785   */\n  dup3\n    /* \"#utility.yul\":4777:4789   */\n  div\n    /* \"#utility.yul\":4767:4789   */\n  swap1\n  pop\n    /* \"#utility.yul\":4834:4835   */\n  0x01\n    /* \"#utility.yul\":4828:4832   */\n  dup3\n    /* \"#utility.yul\":4824:4836   */\n  and\n    /* \"#utility.yul\":4855:4873   */\n  dup1\n    /* \"#utility.yul\":4845:4926   */\n  tag_171\n  jumpi\n    /* \"#utility.yul\":4911:4915   */\n  0x7f\n    /* \"#utility.yul\":4903:4909   */\n  dup3\n    /* \"#utility.yul\":4899:4916   */\n  and\n    /* \"#utility.yul\":4889:4916   */\n  swap2\n  pop\n    /* \"#utility.yul\":4845:4926   */\ntag_171:\n    /* \"#utility.yul\":4973:4975   */\n  0x20\n    /* \"#utility.yul\":4965:4971   */\n  dup3\n    /* \"#utility.yul\":4962:4976   */\n  lt\n    /* \"#utility.yul\":4942:4960   */\n  dup2\n    /* \"#utility.yul\":4939:4977   */\n  sub\n    /* \"#utility.yul\":4936:5020   */\n  tag_172\n  jumpi\n    /* \"#utility.yul\":4992:5010   */\n  tag_173\n  tag_90\n  jump\t// in\ntag_173:\n    /* \"#utility.yul\":4936:5020   */\ntag_172:\n    /* \"#utility.yul\":4757:5026   */\n  pop\n    /* \"#utility.yul\":4706:5026   */\n  swap2\n  swap1\n  pop\n  jump\t// out\n    /* \"#utility.yul\":5032:5173   */\ntag_92:\n    /* \"#utility.yul\":5081:5085   */\n  0x00\n    /* \"#utility.yul\":5104:5107   */\n  dup2\n    /* \"#utility.yul\":5096:5107   */\n  swap1\n  pop\n    /* \"#utility.yul\":5127:5130   */\n  dup2\n    /* \"#utility.yul\":5124:5125   */\n  0x00\n    /* \"#utility.yul\":5117:5131   */\n  mstore\n    /* \"#utility.yul\":5161:5165   */\n  0x20\n    /* \"#utility.yul\":5158:5159   */\n  0x00\n    /* \"#utility.yul\":5148:5166   */\n  keccak256\n    /* \"#utility.yul\":5140:5166   */\n  swap1\n  pop\n    /* \"#utility.yul\":5032:5173   */\n  swap2\n  swap1\n  pop\n  jump\t// out\n    /* \"#utility.yul\":5179:5272   */\ntag_93:\n    /* \"#utility.yul\":5216:5222   */\n  0x00\n    /* \"#utility.yul\":5263:5265   */\n  0x20\n    /* \"#utility.yul\":5258:5260   */\n  0x1f\n    /* \"#utility.yul\":5251:5256   */\n  dup4\n    /* \"#utility.yul\":5247:5261   */\n  add\n    /* \"#utility.yul\":5243:5266   */\n  div\n    /* \"#utility.yul\":5233:5266   */\n  swap1\n  pop\n    /* \"#utility.yul\":5179:5272   */\n  swap2\n  swap1\n  pop\n  jump\t// out\n    /* \"#utility.yul\":5278:5385   */\ntag_94:\n    /* \"#utility.yul\":5322:5330   */\n  0x00\n    /* \"#utility.yul\":5372:5377   */\n  dup3\n    /* \"#utility.yul\":5366:5370   */\n  dup3\n    /* \"#utility.yul\":5362:5378   */\n  shl\n    /* \"#utility.yul\":5341:5378   */\n  swap1\n  pop\n    /* \"#utility.yul\":5278:5385   */\n  swap3\n  swap2\n  pop\n  pop\n  jump\t// out\n    /* \"#utility.yul\":5391:5784   */\ntag_95:\n    /* \"#utility.yul\":5460:5466   */\n  0x00\n    /* \"#utility.yul\":5510:5511   */\n  0x08\n    /* \"#utility.yul\":5498:5508   */\n  dup4\n    /* \"#utility.yul\":5494:5512   */\n  mul\n    /* \"#utility.yul\":5533:5630   */\n  tag_178\n    /* \"#utility.yul\":5563:5629   */\n  0xffffffffffffffffffffffffffffffffffffffffffffffffffffffffffffffff\n    /* \"#utility.yul\":5552:5561   */\n  dup3\n    /* \"#utility.yul\":5533:5630   */\n  tag_94\n  jump\t// in\ntag_178:\n    /* \"#utility.yul\":5651:5690   */\n  tag_179\n    /* \"#utility.yul\":5681:5689   */\n  dup7\n    /* \"#utility.yul\":5670:5679   */\n  dup4\n    /* \"#utility.yul\":5651:5690   */\n  tag_94\n  jump\t// in\ntag_179:\n    /* \"#utility.yul\":5639:5690   */\n  swap6\n  pop\n    /* \"#utility.yul\":5723:5727   */\n  dup1\n    /* \"#utility.yul\":5719:5728   */\n  not\n    /* \"#utility.yul\":5712:5717   */\n  dup5\n    /* \"#utility.yul\":5708:5729   */\n  and\n    /* \"#utility.yul\":5699:5729   */\n  swap4\n  pop\n    /* \"#utility.yul\":5772:5776   */\n  dup1\n    /* \"#utility.yul\":5762:5770   */\n  dup7\n    /* \"#utility.yul\":5758:5777   */\n  and\n    /* \"#utility.yul\":5751:5756   */\n  dup5\n    /* \"#utility.yul\":5748:5778   */\n  or\n    /* \"#utility.yul\":5738:5778   */\n  swap3\n  pop\n    /* \"#utility.yul\":5467:5784   */\n  pop\n  pop\n    /* \"#utility.yul\":5391:5784   */\n  swap4\n  swap3\n  pop\n  pop\n  pop\n  jump\t// out\n    /* \"#utility.yul\":5790:5850   */\ntag_96:\n    /* \"#utility.yul\":5818:5821   */\n  0x00\n    /* \"#utility.yul\":5839:5844   */\n  dup2\n    /* \"#utility.yul\":5832:5844   */\n  swap1\n  pop\n    /* \"#utility.yul\":5790:5850   */\n  swap2\n  swap1\n  pop\n  jump\t// out\n    /* \"#utility.yul\":5856:5998   */\ntag_97:\n    /* \"#utility.yul\":5906:5915   */\n  0x00\n    /* \"#utility.yul\":5939:5992   */\n  tag_182\n    /* \"#utility.yul\":5957:5991   */\n  tag_183\n    /* \"#utility.yul\":5966:5990   */\n  tag_184\n    /* \"#utility.yul\":5984:5989   */\n  dup5\n    /* \"#utility.yul\":5966:5990   */\n  tag_80\n  jump\t// in\ntag_184:\n    /* \"#utility.yul\":5957:5991   */\n  tag_96\n  jump\t// in\ntag_183:\n    /* \"#utility.yul\":5939:5992   */\n  tag_80\n  jump\t// in\ntag_182:\n    /* \"#utility.yul\":5926:5992   */\n  swap1\n  pop\n    /* \"#utility.yul\":5856:5998   */\n  swap2\n  swap1\n  pop\n  jump\t// out\n    /* \"#utility.yul\":6004:6079   */\ntag_98:\n    /* \"#utility.yul\":6047:6050   */\n  0x00\n    /* \"#utility.yul\":6068:6073   */\n  dup2\n    /* \"#utility.yul\":6061:6073   */\n  swap1\n  pop\n    /* \"#utility.yul\":6004:6079   */\n  swap2\n  swap1\n  pop\n  jump\t// out\n    /* \"#utility.yul\":6085:6354   */\ntag_99:\n    /* \"#utility.yul\":6195:6234   */\n  tag_187\n    /* \"#utility.yul\":6226:6233   */\n  dup4\n    /* \"#utility.yul\":6195:6234   */\n  tag_97\n  jump\t// in\ntag_187:\n    /* \"#utility.yul\":6256:6347   */\n  tag_188\n    /* \"#utility.yul\":6305:6346   */\n  tag_189\n    /* \"#utility.yul\":6329:6345   */\n  dup3\n    /* \"#utility.yul\":6305:6346   */\n  tag_98\n  jump\t// in\ntag_189:\n    /* \"#utility.yul\":6297:6303   */\n  dup5\n    /* \"#utility.yul\":6290:6294   */\n  dup5\n    /* \"#utility.yul\":6284:6295   */\n  sload\n    /* \"#utility.yul\":6256:6347   */\n  tag_95\n  jump\t// in\ntag_188:\n    /* \"#utility.yul\":6250:6254   */\n  dup3\n    /* \"#utility.yul\":6243:6348   */\n  sstore\n    /* \"#utility.yul\":6161:6354   */\n  pop\n    /* \"#utility.yul\":6085:6354   */\n  pop\n  pop\n  pop\n  jump\t// out\n    /* \"#utility.yul\":6360:6433   */\ntag_100:\n    /* \"#utility.yul\":6405:6408   */\n  0x00\n    /* \"#utility.yul\":6360:6433   */\n  swap1\n  jump\t// out\n    /* \"#utility.yul\":6439:6628   */\ntag_101:\n    /* \"#utility.yul\":6516:6548   */\n  tag_192\n  tag_100\n  jump\t// in\ntag_192:\n    /* \"#utility.yul\":6557:6622   */\n  tag_193\n    /* \"#utility.yul\":6615:6621   */\n  dup2\n    /* \"#utility.yul\":6607:6613   */\n  dup5\n    /* \"#utility.yul\":6601:6605   */\n  dup5\n    /* \"#utility.yul\":6557:6622   */\n  tag_99\n  jump\t// in\ntag_193:\n    /* \"#utility.yul\":6492:6628   */\n  pop\n    /* \"#utility.yul\":6439:6628   */\n  pop\n  pop\n  jump\t// out\n    /* \"#utility.yul\":6634:6820   */\ntag_102:\n    /* \"#utility.yul\":6694:6814   */\ntag_195:\n    /* \"#utility.yul\":6711:6714   */\n  dup2\n    /* \"#utility.yul\":6704:6709   */\n  dup2\n    /* \"#utility.yul\":6701:6715   */\n  lt\n    /* \"#utility.yul\":6694:6814   */\n  iszero\n  tag_197\n  jumpi\n    /* \"#utility.yul\":6765:6804   */\n  tag_198\n    /* \"#utility.yul\":6802:6803   */\n  0x00\n    /* \"#utility.yul\":6795:6800   */\n  dup3\n    /* \"#utility.yul\":6765:6804   */\n  tag_101\n  jump\t// in\ntag_198:\n    /* \"#utility.yul\":6738:6739   */\n  0x01\n    /* \"#utility.yul\":6731:6736   */\n  dup2\n    /* \"#utility.yul\":6727:6740   */\n  add\n    /* \"#utility.yul\":6718:6740   */\n  swap1\n  pop\n    /* \"#utility.yul\":6694:6814   */\n  jump(tag_195)\ntag_197:\n    /* \"#utility.yul\":6634:6820   */\n  pop\n  pop\n  jump\t// out\n    /* \"#utility.yul\":6826:7369   */\ntag_103:\n    /* \"#utility.yul\":6927:6929   */\n  0x1f\n    /* \"#utility.yul\":6922:6925   */\n  dup3\n    /* \"#utility.yul\":6919:6930   */\n  gt\n    /* \"#utility.yul\":6916:7362   */\n  iszero\n  tag_200\n  jumpi\n    /* \"#utility.yul\":6961:6999   */\n  tag_201\n    /* \"#utility.yul\":6993:6998   */\n  dup2\n    /* \"#utility.yul\":6961:6999   */\n  tag_92\n  jump\t// in\ntag_201:\n    /* \"#utility.yul\":7045:7074   */\n  tag_202\n    /* \"#utility.yul\":7063:7073   */\n  dup5\n    /* \"#utility.yul\":7045:7074   */\n  tag_93\n  jump\t// in\ntag_202:\n    /* \"#utility.yul\":7035:7043   */\n  dup2\n    /* \"#utility.yul\":7031:7075   */\n  add\n    /* \"#utility.yul\":7228:7230   */\n  0x20\n    /* \"#utility.yul\":7216:7226   */\n  dup6\n    /* \"#utility.yul\":7213:7231   */\n  lt\n    /* \"#utility.yul\":7210:7259   */\n  iszero\n  tag_203\n  jumpi\n    /* \"#utility.yul\":7249:7257   */\n  dup2\n    /* \"#utility.yul\":7234:7257   */\n  swap1\n  pop\n    /* \"#utility.yul\":7210:7259   */\ntag_203:\n    /* \"#utility.yul\":7272:7352   */\n  tag_204\n    /* \"#utility.yul\":7328:7350   */\n  tag_205\n    /* \"#utility.yul\":7346:7349   */\n  dup6\n    /* \"#utility.yul\":7328:7350   */\n  tag_93\n  jump\t// in\ntag_205:\n    /* \"#utility.yul\":7318:7326   */\n  dup4\n    /* \"#utility.yul\":7314:7351   */\n  add\n    /* \"#utility.yul\":7301:7312   */\n  dup3\n    /* \"#utility.yul\":7272:7352   */\n  tag_102\n  jump\t// in\ntag_204:\n    /* \"#utility.yul\":6931:7362   */\n  pop\n  pop\n    /* \"#utility.yul\":6916:7362   */\ntag_200:\n    /* \"#utility.yul\":6826:7369   */\n  pop\n  pop\n  pop\n  jump\t// out\n    /* \"#utility.yul\":7375:7492   */\ntag_104:\n    /* \"#utility.yul\":7429:7437   */\n  0x00\n    /* \"#utility.yul\":7479:7484   */\n  dup3\n    /* \"#utility.yul\":7473:7477   */\n  dup3\n    /* \"#utility.yul\":7469:7485   */\n  shr\n    /* \"#utility.yul\":7448:7485   */\n  swap1\n  pop\n    /* \"#utility.yul\":7375:7492   */\n  swap3\n  swap2\n  pop\n  pop\n  jump\t// out\n    /* \"#utility.yul\":7498:7667   */\ntag_105:\n    /* \"#utility.yul\":7542:7548   */\n  0x00\n    /* \"#utility.yul\":7575:7626   */\n  tag_208\n    /* \"#utility.yul\":7623:7624   */\n  0x00\n    /* \"#utility.yul\":7619:7625   */\n  not\n    /* \"#utility.yul\":7611:7616   */\n  dup5\n    /* \"#utility.yul\":7608:7609   */\n  0x08\n    /* \"#utility.yul\":7604:7617   */\n  mul\n    /* \"#utility.yul\":7575:7626   */\n  tag_104\n  jump\t// in\ntag_208:\n    /* \"#utility.yul\":7571:7627   */\n  not\n    /* \"#utility.yul\":7656:7660   */\n  dup1\n    /* \"#utility.yul\":7650:7654   */\n  dup4\n    /* \"#utility.yul\":7646:7661   */\n  and\n    /* \"#utility.yul\":7636:7661   */\n  swap2\n  pop\n    /* \"#utility.yul\":7549:7667   */\n  pop\n    /* \"#utility.yul\":7498:7667   */\n  swap3\n  swap2\n  pop\n  pop\n  jump\t// out\n    /* \"#utility.yul\":7672:7967   */\ntag_106:\n    /* \"#utility.yul\":7748:7752   */\n  0x00\n    /* \"#utility.yul\":7894:7923   */\n  tag_210\n    /* \"#utility.yul\":7919:7922   */\n  dup4\n    /* \"#utility.yul\":7913:7917   */\n  dup4\n    /* \"#utility.yul\":7894:7923   */\n  tag_105\n  jump\t// in\ntag_210:\n    /* \"#utility.yul\":7886:7923   */\n  swap2\n  pop\n    /* \"#utility.yul\":7956:7959   */\n  dup3\n    /* \"#utility.yul\":7953:7954   */\n  0x02\n    /* \"#utility.yul\":7949:7960   */\n  mul\n    /* \"#utility.yul\":7943:7947   */\n  dup3\n    /* \"#utility.yul\":7940:7961   */\n  or\n    /* \"#utility.yul\":7932:7961   */\n  swap1\n  pop\n    /* \"#utility.yul\":7672:7967   */\n  swap3\n  swap2\n  pop\n  pop\n  jump\t// out\n    /* \"#utility.yul\":7972:9367   */\ntag_15:\n    /* \"#utility.yul\":8089:8126   */\n  tag_212\n    /* \"#utility.yul\":8122:8125   */\n  dup3\n    /* \"#utility.yul\":8089:8126   */\n  tag_88\n  jump\t// in\ntag_212:\n    /* \"#utility.yul\":8191:8209   */\n  0xffffffffffffffff\n    /* \"#utility.yul\":8183:8189   */\n  dup2\n    /* \"#utility.yul\":8180:8210   */\n  gt\n    /* \"#utility.yul\":8177:8233   */\n  iszero\n  tag_213\n  jumpi\n    /* \"#utility.yul\":8213:8231   */\n  tag_214\n  tag_89\n  jump\t// in\ntag_214:\n    /* \"#utility.yul\":8177:8233   */\ntag_213:\n    /* \"#utility.yul\":8257:8295   */\n  tag_215\n    /* \"#utility.yul\":8289:8293   */\n  dup3\n    /* \"#utility.yul\":8283:8294   */\n  sload\n    /* \"#utility.yul\":8257:8295   */\n  tag_91\n  jump\t// in\ntag_215:\n    /* \"#utility.yul\":8342:8409   */\n  tag_216\n    /* \"#utility.yul\":8402:8408   */\n  dup3\n    /* \"#utility.yul\":8394:8400   */\n  dup3\n    /* \"#utility.yul\":8388:8392   */\n  dup6\n    /* \"#utility.yul\":8342:8409   */\n  tag_103\n  jump\t// in\ntag_216:\n    /* \"#utility.yul\":8436:8437   */\n  0x00\n    /* \"#utility.yul\":8460:8464   */\n  0x20\n    /* \"#utility.yul\":8447:8464   */\n  swap1\n  pop\n    /* \"#utility.yul\":8492:8494   */\n  0x1f\n    /* \"#utility.yul\":8484:8490   */\n  dup4\n    /* \"#utility.yul\":8481:8495   */\n  gt\n    /* \"#utility.yul\":8509:8510   */\n  0x01\n    /* \"#utility.yul\":8504:9122   */\n  dup2\n  eq\n  tag_218\n  jumpi\n    /* \"#utility.yul\":9166:9167   */\n  0x00\n    /* \"#utility.yul\":9183:9189   */\n  dup5\n    /* \"#utility.yul\":9180:9257   */\n  iszero\n  tag_219\n  jumpi\n    /* \"#utility.yul\":9232:9241   */\n  dup3\n    /* \"#utility.yul\":9227:9230   */\n  dup8\n    /* \"#utility.yul\":9223:9242   */\n  add\n    /* \"#utility.yul\":9217:9243   */\n  mload\n    /* \"#utility.yul\":9208:9243   */\n  swap1\n  pop\n    /* \"#utility.yul\":9180:9257   */\ntag_219:\n    /* \"#utility.yul\":9283:9350   */\n  tag_220\n    /* \"#utility.yul\":9343:9349   */\n  dup6\n    /* \"#utility.yul\":9336:9341   */\n  dup3\n    /* \"#utility.yul\":9283:9350   */\n  tag_106\n  jump\t// in\ntag_220:\n    /* \"#utility.yul\":9277:9281   */\n  dup7\n    /* \"#utility.yul\":9270:9351   */\n  sstore\n    /* \"#utility.yul\":9139:9361   */\n  pop\n    /* \"#utility.yul\":8474:9361   */\n  jump(tag_217)\n    /* \"#utility.yul\":8504:9122   */\ntag_218:\n    /* \"#utility.yul\":8556:8560   */\n  0x1f\n    /* \"#utility.yul\":8552:8561   */\n  not\n    /* \"#utility.yul\":8544:8550   */\n  dup5\n    /* \"#utility.yul\":8540:8562   */\n  and\n    /* \"#utility.yul\":8590:8627   */\n  tag_221\n    /* \"#utility.yul\":8622:8626   */\n  dup7\n    /* \"#utility.yul\":8590:8627   */\n  tag_92\n  jump\t// in\ntag_221:\n    /* \"#utility.yul\":8649:8650   */\n  0x00\n    /* \"#utility.yul\":8663:8871   */\ntag_222:\n    /* \"#utility.yul\":8677:8684   */\n  dup3\n    /* \"#utility.yul\":8674:8675   */\n  dup2\n    /* \"#utility.yul\":8671:8685   */\n  lt\n    /* \"#utility.yul\":8663:8871   */\n  iszero\n  tag_224\n  jumpi\n    /* \"#utility.yul\":8756:8765   */\n  dup5\n    /* \"#utility.yul\":8751:8754   */\n  dup10\n    /* \"#utility.yul\":8747:8766   */\n  add\n    /* \"#utility.yul\":8741:8767   */\n  mload\n    /* \"#utility.yul\":8733:8739   */\n  dup3\n    /* \"#utility.yul\":8726:8768   */\n  sstore\n    /* \"#utility.yul\":8807:8808   */\n  0x01\n    /* \"#utility.yul\":8799:8805   */\n  dup3\n    /* \"#utility.yul\":8795:8809   */\n  add\n    /* \"#utility.yul\":8785:8809   */\n  swap2\n  pop\n    /* \"#utility.yul\":8854:8856   */\n  0x20\n    /* \"#utility.yul\":8843:8852   */\n  dup6\n    /* \"#utility.yul\":8839:8857   */\n  add\n    /* \"#utility.yul\":8826:8857   */\n  swap5\n  pop\n    /* \"#utility.yul\":8700:8704   */\n  0x20\n    /* \"#utility.yul\":8697:8698   */\n  dup2\n    /* \"#utility.yul\":8693:8705   */\n  add\n    /* \"#utility.yul\":8688:8705   */\n  swap1\n  pop\n    /* \"#utility.yul\":8663:8871   */\n  jump(tag_222)\ntag_224:\n    /* \"#utility.yul\":8899:8905   */\n  dup7\n    /* \"#utility.yul\":8890:8897   */\n  dup4\n    /* \"#utility.yul\":8887:8906   */\n  lt\n    /* \"#utility.yul\":8884:9063   */\n  iszero\n  tag_225\n  jumpi\n    /* \"#utility.yul\":8957:8966   */\n  dup5\n    /* \"#utility.yul\":8952:8955   */\n  dup10\n    /* \"#utility.yul\":8948:8967   */\n  add\n    /* \"#utility.yul\":8942:8968   */\n  mload\n    /* \"#utility.yul\":9000:9048   */\n  tag_226\n    /* \"#utility.yul\":9042:9046   */\n  0x1f\n    /* \"#utility.yul\":9034:9040   */\n  dup10\n    /* \"#utility.yul\":9030:9047   */\n  and\n    /* \"#utility.yul\":9019:9028   */\n  dup3\n    /* \"#utility.yul\":9000:9048   */\n  tag_105\n  jump\t// in\ntag_226:\n    /* \"#utility.yul\":8992:8998   */\n  dup4\n    /* \"#utility.yul\":8985:9049   */\n  sstore\n    /* \"#utility.yul\":8907:9063   */\n  pop\n    /* \"#utility.yul\":8884:9063   */\ntag_225:\n    /* \"#utility.yul\":9109:9110   */\n  0x01\n    /* \"#utility.yul\":9105:9106   */\n  0x02\n    /* \"#utility.yul\":9097:9103   */\n  dup9\n    /* \"#utility.yul\":9093:9107   */\n  mul\n    /* \"#utility.yul\":9089:9111   */\n  add\n    /* \"#utility.yul\":9083:9087   */\n  dup9\n    /* \"#utility.yul\":9076:9112   */\n  sstore\n    /* \"#utility.yul\":8511:9122   */\n  pop\n  pop\n  pop\n    /* \"#utility.yul\":8474:9361   */\ntag_217:\n  pop\n    /* \"#utility.yul\":8064:9367   */\n  pop\n  pop\n  pop\n    /* \"#utility.yul\":7972:9367   */\n  pop\n  pop\n  jump\t// out\n    /* \"#utility.yul\":9373:9542   */\ntag_107:\n    /* \"#utility.yul\":9457:9468   */\n  0x00\n    /* \"#utility.yul\":9491:9497   */\n  dup3\n    /* \"#utility.yul\":9486:9489   */\n  dup3\n    /* \"#utility.yul\":9479:9498   */\n  mstore\n    /* \"#utility.yul\":9531:9535   */\n  0x20\n    /* \"#utility.yul\":9526:9529   */\n  dup3\n    /* \"#utility.yul\":9522:9536   */\n  add\n    /* \"#utility.yul\":9507:9536   */\n  swap1\n  pop\n    /* \"#utility.yul\":9373:9542   */\n  swap3\n  swap2\n  pop\n  pop\n  jump\t// out\n    /* \"#utility.yul\":9548:9719   */\ntag_108:\n    /* \"#utility.yul\":9688:9711   */\n  0x45524332304361707065643a2063617020697320300000000000000000000000\n    /* \"#utility.yul\":9684:9685   */\n  0x00\n    /* \"#utility.yul\":9676:9682   */\n  dup3\n    /* \"#utility.yul\":9672:9686   */\n  add\n    /* \"#utility.yul\":9665:9712   */\n  mstore\n    /* \"#utility.yul\":9548:9719   */\n  pop\n  jump\t// out\n    /* \"#utility.yul\":9725:10091   */\ntag_109:\n    /* \"#utility.yul\":9867:9870   */\n  0x00\n    /* \"#utility.yul\":9888:9955   */\n  tag_230\n    /* \"#utility.yul\":9952:9954   */\n  0x15\n    /* \"#utility.yul\":9947:9950   */\n  dup4\n    /* \"#utility.yul\":9888:9955   */\n  tag_107\n  jump\t// in\ntag_230:\n    /* \"#utility.yul\":9881:9955   */\n  swap2\n  pop\n    /* \"#utility.yul\":9964:10057   */\n  tag_231\n    /* \"#utility.yul\":10053:10056   */\n  dup3\n    /* \"#utility.yul\":9964:10057   */\n  tag_108\n  jump\t// in\ntag_231:\n    /* \"#utility.yul\":10082:10084   */\n  0x20\n    /* \"#utility.yul\":10077:10080   */\n  dup3\n    /* \"#utility.yul\":10073:10085   */\n  add\n    /* \"#utility.yul\":10066:10085   */\n  swap1\n  pop\n    /* \"#utility.yul\":9725:10091   */\n  swap2\n  swap1\n  pop\n  jump\t// out\n    /* \"#utility.yul\":10097:10516   */\ntag_20:\n    /* \"#utility.yul\":10263:10267   */\n  0x00\n    /* \"#utility.yul\":10301:10303   */\n  0x20\n    /* \"#utility.yul\":10290:10299   */\n  dup3\n    /* \"#utility.yul\":10286:10304   */\n  add\n    /* \"#utility.yul\":10278:10304   */\n  swap1\n  pop\n    /* \"#utility.yul\":10350:10359   */\n  dup2\n    /* \"#utility.yul\":10344:10348   */\n  dup2\n    /* \"#utility.yul\":10340:10360   */\n  sub\n    /* \"#utility.yul\":10336:10337   */\n  0x00\n    /* \"#utility.yul\":10325:10334   */\n  dup4\n    /* \"#utility.yul\":10321:10338   */\n  add\n    /* \"#utility.yul\":10314:10361   */\n  mstore\n    /* \"#utility.yul\":10378:10509   */\n  tag_233\n    /* \"#utility.yul\":10504:10508   */\n  dup2\n    /* \"#utility.yul\":10378:10509   */\n  tag_109\n  jump\t// in\ntag_233:\n    /* \"#utility.yul\":10370:10509   */\n  swap1\n  pop\n    /* \"#utility.yul\":10097:10516   */\n  swap2\n  swap1\n  pop\n  jump\t// out\n    /* \"#utility.yul\":10522:10713   */\ntag_38:\n    /* \"#utility.yul\":10562:10565   */\n  0x00\n    /* \"#utility.yul\":10581:10601   */\n  tag_235\n    /* \"#utility.yul\":10599:10600   */\n  dup3\n    /* \"#utility.yul\":10581:10601   */\n  tag_80\n  jump\t// in\ntag_235:\n    /* \"#utility.yul\":10576:10601   */\n  swap2\n  pop\n    /* \"#utility.yul\":10615:10635   */\n  tag_236\n    /* \"#utility.yul\":10633:10634   */\n  dup4\n    /* \"#utility.yul\":10615:10635   */\n  tag_80\n  jump\t// in\ntag_236:\n    /* \"#utility.yul\":10610:10635   */\n  swap3\n  pop\n    /* \"#utility.yul\":10658:10659   */\n  dup3\n    /* \"#utility.yul\":10655:10656   */\n  dup3\n    /* \"#utility.yul\":10651:10660   */\n  add\n    /* \"#utility.yul\":10644:10660   */\n  swap1\n  pop\n    /* \"#utility.yul\":10679:10682   */\n  dup1\n    /* \"#utility.yul\":10676:10677   */\n  dup3\n    /* \"#utility.yul\":10673:10683   */\n  gt\n    /* \"#utility.yul\":10670:10706   */\n  iszero\n  tag_237\n  jumpi\n    /* \"#utility.yul\":10686:10704   */\n  tag_238\n  tag_83\n  jump\t// in\ntag_238:\n    /* \"#utility.yul\":10670:10706   */\ntag_237:\n    /* \"#utility.yul\":10522:10713   */\n  swap3\n  swap2\n  pop\n  pop\n  jump\t// out\n    /* \"#utility.yul\":10719:10894   */\ntag_110:\n    /* \"#utility.yul\":10859:10886   */\n  0x45524332304361707065643a2063617020657863656564656400000000000000\n    /* \"#utility.yul\":10855:10856   */\n  0x00\n    /* \"#utility.yul\":10847:10853   */\n  dup3\n    /* \"#utility.yul\":10843:10857   */\n  add\n    /* \"#utility.yul\":10836:10887   */\n  mstore\n    /* \"#utility.yul\":10719:10894   */\n  pop\n  jump\t// out\n    /* \"#utility.yul\":10900:11266   */\ntag_111:\n    /* \"#utility.yul\":11042:11045   */\n  0x00\n    /* \"#utility.yul\":11063:11130   */\n  tag_241\n    /* \"#utility.yul\":11127:11129   */\n  0x19\n    /* \"#utility.yul\":11122:11125   */\n  dup4\n    /* \"#utility.yul\":11063:11130   */\n  tag_107\n  jump\t// in\ntag_241:\n    /* \"#utility.yul\":11056:11130   */\n  swap2\n  pop\n    /* \"#utility.yul\":11139:11232   */\n  tag_242\n    /* \"#utility.yul\":11228:11231   */\n  dup3\n    /* \"#utility.yul\":11139:11232   */\n  tag_110\n  jump\t// in\ntag_242:\n    /* \"#utility.yul\":11257:11259   */\n  0x20\n    /* \"#utility.yul\":11252:11255   */\n  dup3\n    /* \"#utility.yul\":11248:11260   */\n  add\n    /* \"#utility.yul\":11241:11260   */\n  swap1\n  pop\n    /* \"#utility.yul\":10900:11266   */\n  swap2\n  swap1\n  pop\n  jump\t// out\n    /* \"#utility.yul\":11272:11691   */\ntag_41:\n    /* \"#utility.yul\":11438:11442   */\n  0x00\n    /* \"#utility.yul\":11476:11478   */\n  0x20\n    /* \"#utility.yul\":11465:11474   */\n  dup3\n    /* \"#utility.yul\":11461:11479   */\n  add\n    /* \"#utility.yul\":11453:11479   */\n  swap1\n  pop\n    /* \"#utility.yul\":11525:11534   */\n  dup2\n    /* \"#utility.yul\":11519:11523   */\n  dup2\n    /* \"#utility.yul\":11515:11535   */\n  sub\n    /* \"#utility.yul\":11511:11512   */\n  0x00\n    /* \"#utility.yul\":11500:11509   */\n  dup4\n    /* \"#utility.yul\":11496:11513   */\n  add\n    /* \"#utility.yul\":11489:11536   */\n  mstore\n    /* \"#utility.yul\":11553:11684   */\n  tag_244\n    /* \"#utility.yul\":11679:11683   */\n  dup2\n    /* \"#utility.yul\":11553:11684   */\n  tag_111\n  jump\t// in\ntag_244:\n    /* \"#utility.yul\":11545:11684   */\n  swap1\n  pop\n    /* \"#utility.yul\":11272:11691   */\n  swap2\n  swap1\n  pop\n  jump\t// out\n    /* \"#utility.yul\":11697:11878   */\ntag_112:\n    /* \"#utility.yul\":11837:11870   */\n  0x45524332303a206d696e7420746f20746865207a65726f206164647265737300\n    /* \"#utility.yul\":11833:11834   */\n  0x00\n    /* \"#utility.yul\":11825:11831   */\n  dup3\n    /* \"#utility.yul\":11821:11835   */\n  add\n    /* \"#utility.yul\":11814:11871   */\n  mstore\n    /* \"#utility.yul\":11697:11878   */\n  pop\n  jump\t// out\n    /* \"#utility.yul\":11884:12250   */\ntag_113:\n    /* \"#utility.yul\":12026:12029   */\n  0x00\n    /* \"#utility.yul\":12047:12114   */\n  tag_247\n    /* \"#utility.yul\":12111:12113   */\n  0x1f\n    /* \"#utility.yul\":12106:12109   */\n  dup4\n    /* \"#utility.yul\":12047:12114   */\n  tag_107\n  jump\t// in\ntag_247:\n    /* \"#utility.yul\":12040:12114   */\n  swap2\n  pop\n    /* \"#utility.yul\":12123:12216   */\n  tag_248\n    /* \"#utility.yul\":12212:12215   */\n  dup3\n    /* \"#utility.yul\":12123:12216   */\n  tag_112\n  jump\t// in\ntag_248:\n    /* \"#utility.yul\":12241:12243   */\n  0x20\n    /* \"#utility.yul\":12236:12239   */\n  dup3\n    /* \"#utility.yul\":12232:12244   */\n  add\n    /* \"#utility.yul\":12225:12244   */\n  swap1\n  pop\n    /* \"#utility.yul\":11884:12250   */\n  swap2\n  swap1\n  pop\n  jump\t// out\n    /* \"#utility.yul\":12256:12675   */\ntag_57:\n    /* \"#utility.yul\":12422:12426   */\n  0x00\n    /* \"#utility.yul\":12460:12462   */\n  0x20\n    /* \"#utility.yul\":12449:12458   */\n  dup3\n    /* \"#utility.yul\":12445:12463   */\n  add\n    /* \"#utility.yul\":12437:12463   */\n  swap1\n  pop\n    /* \"#utility.yul\":12509:12518   */\n  dup2\n    /* \"#utility.yul\":12503:12507   */\n  dup2\n    /* \"#utility.yul\":12499:12519   */\n  sub\n    /* \"#utility.yul\":12495:12496   */\n  0x00\n    /* \"#utility.yul\":12484:12493   */\n  dup4\n    /* \"#utility.yul\":12480:12497   */\n  add\n    /* \"#utility.yul\":12473:12520   */\n  mstore\n    /* \"#utility.yul\":12537:12668   */\n  tag_250\n    /* \"#utility.yul\":12663:12667   */\n  dup2\n    /* \"#utility.yul\":12537:12668   */\n  tag_113\n  jump\t// in\ntag_250:\n    /* \"#utility.yul\":12529:12668   */\n  swap1\n  pop\n    /* \"#utility.yul\":12256:12675   */\n  swap2\n  swap1\n  pop\n  jump\t// out\n    /* \"#utility.yul\":12681:12799   */\ntag_114:\n    /* \"#utility.yul\":12768:12792   */\n  tag_252\n    /* \"#utility.yul\":12786:12791   */\n  dup2\n    /* \"#utility.yul\":12768:12792   */\n  tag_80\n  jump\t// in\ntag_252:\n    /* \"#utility.yul\":12763:12766   */\n  dup3\n    /* \"#utility.yul\":12756:12793   */\n  mstore\n    /* \"#utility.yul\":12681:12799   */\n  pop\n  pop\n  jump\t// out\n    /* \"#utility.yul\":12805:13027   */\ntag_62:\n    /* \"#utility.yul\":12898:12902   */\n  0x00\n    /* \"#utility.yul\":12936:12938   */\n  0x20\n    /* \"#utility.yul\":12925:12934   */\n  dup3\n    /* \"#utility.yul\":12921:12939   */\n  add\n    /* \"#utility.yul\":12913:12939   */\n  swap1\n  pop\n    /* \"#utility.yul\":12949:13020   */\n  tag_254\n    /* \"#utility.yul\":13017:13018   */\n  0x00\n    /* \"#utility.yul\":13006:13015   */\n  dup4\n    /* \"#utility.yul\":13002:13019   */\n  add\n    /* \"#utility.yul\":12993:12999   */\n  dup5\n    /* \"#utility.yul\":12949:13020   */\n  tag_114\n  jump\t// in\ntag_254:\n    /* \"#utility.yul\":12805:13027   */\n  swap3\n  swap2\n  pop\n  pop\n  jump\t// out\n    /* \"ERC20/MyToken.sol\":263:1988  contract MyToken is ERC20Capped, ERC20Burnable {... */\ntag_30:\n  mload(0x80)\n  codecopy(0x00, dataOffset(sub_0), dataSize(sub_0))\n  0x00\n  assignImmutable(\"0x45d94b36b6c591269b78e981be09aa23f420e08a8de62d492aecd72fd20b693b\")\n  return(0x00, dataSize(sub_0))\nstop\n\nsub_0: assembly {\n        /* \"ERC20/MyToken.sol\":263:1988  contract MyToken is ERC20Capped, ERC20Burnable {... */\n      mstore(0x40, 0x80)\n      callvalue\n      dup1\n      iszero\n      tag_1\n      jumpi\n      0x00\n      dup1\n      revert\n    tag_1:\n      pop\n      jumpi(tag_2, lt(calldatasize, 0x04))\n      shr(0xe0, calldataload(0x00))\n      dup1\n      0x39509351\n      gt\n      tag_21\n      jumpi\n      dup1\n      0x8da5cb5b\n      gt\n      tag_22\n      jumpi\n      dup1\n      0x8da5cb5b\n      eq\n      tag_16\n      jumpi\n      dup1\n      0x95d89b41\n      eq\n      tag_17\n      jumpi\n      dup1\n      0xa457c2d7\n      eq\n      tag_18\n      jumpi\n      dup1\n      0xa9059cbb\n      eq\n      tag_19\n      jumpi\n      dup1\n      0xdd62ed3e\n      eq\n      tag_20\n      jumpi\n      jump(tag_2)\n    tag_22:\n      dup1\n      0x39509351\n      eq\n      tag_12\n      jumpi\n      dup1\n      0x42966c68\n      eq\n      tag_13\n      jumpi\n      dup1\n      0x70a08231\n      eq\n      tag_14\n      jumpi\n      dup1\n      0x79cc6790\n      eq\n      tag_15\n      jumpi\n      jump(tag_2)\n    tag_21:\n      dup1\n      0x18160ddd\n      gt\n      tag_23\n      jumpi\n      dup1\n      0x18160ddd\n      eq\n      tag_7\n      jumpi\n      dup1\n      0x1a18e707\n      eq\n      tag_8\n      jumpi\n      dup1\n      0x23b872dd\n      eq\n      tag_9\n      jumpi\n      dup1\n      0x313ce567\n      eq\n      tag_10\n      jumpi\n      dup1\n      0x355274ea\n      eq\n      tag_11\n      jumpi\n      jump(tag_2)\n    tag_23:\n      dup1\n      0x06fdde03\n      eq\n      tag_3\n      jumpi\n      dup1\n      0x092a5cce\n      eq\n      tag_4\n      jumpi\n      dup1\n      0x095ea7b3\n      eq\n      tag_5\n      jumpi\n      dup1\n      0x0ac168a1\n      eq\n      tag_6\n      jumpi\n    tag_2:\n      0x00\n      dup1\n      revert\n        /* \"@openzeppelin/contracts/token/ERC20/ERC20.sol\":2154:2252  function name() public view virtual override returns (string memory) {... */\n    tag_3:\n      tag_24\n      tag_25\n      jump\t// in\n    tag_24:\n      mload(0x40)\n      tag_26\n      swap2\n      swap1\n      tag_27\n      jump\t// in\n    tag_26:\n      mload(0x40)\n      dup1\n      swap2\n      sub\n      swap1\n      return\n        /* \"ERC20/MyToken.sol\":1614:1694  function destroyContract() public onlyOwner {... */\n    tag_4:\n      tag_28\n      tag_29\n      jump\t// in\n    tag_28:\n      stop\n        /* \"@openzeppelin/contracts/token/ERC20/ERC20.sol\":4431:4628  function approve(address spender, uint256 amount) public virtual override returns (bool) {... */\n    tag_5:\n      tag_30\n      0x04\n      dup1\n      calldatasize\n      sub\n      dup2\n      add\n      swap1\n      tag_31\n      swap2\n      swap1\n      tag_32\n      jump\t// in\n    tag_31:\n      tag_33\n      jump\t// in\n    tag_30:\n      mload(0x40)\n      tag_34\n      swap2\n      swap1\n      tag_35\n      jump\t// in\n    tag_34:\n      mload(0x40)\n      dup1\n      swap2\n      sub\n      swap1\n      return\n        /* \"ERC20/MyToken.sol\":350:376  uint256 public blockReward */\n    tag_6:\n      tag_36\n      tag_37\n      jump\t// in\n    tag_36:\n      mload(0x40)\n      tag_38\n      swap2\n      swap1\n      tag_39\n      jump\t// in\n    tag_38:\n      mload(0x40)\n      dup1\n      swap2\n      sub\n      swap1\n      return\n        /* \"@openzeppelin/contracts/token/ERC20/ERC20.sol\":3242:3348  function totalSupply() public view virtual override returns (uint256) {... */\n    tag_7:\n      tag_40\n      tag_41\n      jump\t// in\n    tag_40:\n      mload(0x40)\n      tag_42\n      swap2\n      swap1\n      tag_39\n      jump\t// in\n    tag_42:\n      mload(0x40)\n      dup1\n      swap2\n      sub\n      swap1\n      return\n        /* \"ERC20/MyToken.sol\":1725:1838  function setBlockReward(uint256 reward) public onlyOwner {... */\n    tag_8:\n      tag_43\n      0x04\n      dup1\n      calldatasize\n      sub\n      dup2\n      add\n      swap1\n      tag_44\n      swap2\n      swap1\n      tag_45\n      jump\t// in\n    tag_44:\n      tag_46\n      jump\t// in\n    tag_43:\n      stop\n        /* \"@openzeppelin/contracts/token/ERC20/ERC20.sol\":5190:5476  function transferFrom(... */\n    tag_9:\n      tag_47\n      0x04\n      dup1\n      calldatasize\n      sub\n      dup2\n      add\n      swap1\n      tag_48\n      swap2\n      swap1\n      tag_49\n      jump\t// in\n    tag_48:\n      tag_50\n      jump\t// in\n    tag_47:\n      mload(0x40)\n      tag_51\n      swap2\n      swap1\n      tag_35\n      jump\t// in\n    tag_51:\n      mload(0x40)\n      dup1\n      swap2\n      sub\n      swap1\n      return\n        /* \"@openzeppelin/contracts/token/ERC20/ERC20.sol\":3091:3182  function decimals() public view virtual override returns (uint8) {... */\n    tag_10:\n      tag_52\n      tag_53\n      jump\t// in\n    tag_52:\n      mload(0x40)\n      tag_54\n      swap2\n      swap1\n      tag_55\n      jump\t// in\n    tag_54:\n      mload(0x40)\n      dup1\n      swap2\n      sub\n      swap1\n      return\n        /* \"@openzeppelin/contracts/token/ERC20/extensions/ERC20Capped.sol\":635:716  function cap() public view virtual returns (uint256) {... */\n    tag_11:\n      tag_56\n      tag_57\n      jump\t// in\n    tag_56:\n      mload(0x40)\n      tag_58\n      swap2\n      swap1\n      tag_39\n      jump\t// in\n    tag_58:\n      mload(0x40)\n      dup1\n      swap2\n      sub\n      swap1\n      return\n        /* \"@openzeppelin/contracts/token/ERC20/ERC20.sol\":5871:6105  function increaseAllowance(address spender, uint256 addedValue) public virtual returns (bool) {... */\n    tag_12:\n      tag_59\n      0x04\n      dup1\n      calldatasize\n      sub\n      dup2\n      add\n      swap1\n      tag_60\n      swap2\n      swap1\n      tag_32\n      jump\t// in\n    tag_60:\n      tag_61\n      jump\t// in\n    tag_59:\n      mload(0x40)\n      tag_62\n      swap2\n      swap1\n      tag_35\n      jump\t// in\n    tag_62:\n      mload(0x40)\n      dup1\n      swap2\n      sub\n      swap1\n      return\n        /* \"@openzeppelin/contracts/token/ERC20/extensions/ERC20Burnable.sol\":578:667  function burn(uint256 amount) public virtual {... */\n    tag_13:\n      tag_63\n      0x04\n      dup1\n      calldatasize\n      sub\n      dup2\n      add\n      swap1\n      tag_64\n      swap2\n      swap1\n      tag_45\n      jump\t// in\n    tag_64:\n      tag_65\n      jump\t// in\n    tag_63:\n      stop\n        /* \"@openzeppelin/contracts/token/ERC20/ERC20.sol\":3406:3531  function balanceOf(address account) public view virtual override returns (uint256) {... */\n    tag_14:\n      tag_66\n      0x04\n      dup1\n      calldatasize\n      sub\n      dup2\n      add\n      swap1\n      tag_67\n      swap2\n      swap1\n      tag_68\n      jump\t// in\n    tag_67:\n      tag_69\n      jump\t// in\n    tag_66:\n      mload(0x40)\n      tag_70\n      swap2\n      swap1\n      tag_39\n      jump\t// in\n    tag_70:\n      mload(0x40)\n      dup1\n      swap2\n      sub\n      swap1\n      return\n        /* \"@openzeppelin/contracts/token/ERC20/extensions/ERC20Burnable.sol\":973:1134  function burnFrom(address account, uint256 amount) public virtual {... */\n    tag_15:\n      tag_71\n      0x04\n      dup1\n      calldatasize\n      sub\n      dup2\n      add\n      swap1\n      tag_72\n      swap2\n      swap1\n      tag_32\n      jump\t// in\n    tag_72:\n      tag_73\n      jump\t// in\n    tag_71:\n      stop\n        /* \"ERC20/MyToken.sol\":316:344  address payable public owner */\n    tag_16:\n      tag_74\n      tag_75\n      jump\t// in\n    tag_74:\n      mload(0x40)\n      tag_76\n      swap2\n      swap1\n      tag_77\n      jump\t// in\n    tag_76:\n      mload(0x40)\n      dup1\n      swap2\n      sub\n      swap1\n      return\n        /* \"@openzeppelin/contracts/token/ERC20/ERC20.sol\":2365:2467  function symbol() public view virtual override returns (string memory) {... */\n    tag_17:\n      tag_78\n      tag_79\n      jump\t// in\n    tag_78:\n      mload(0x40)\n      tag_80\n      swap2\n      swap1\n      tag_27\n      jump\t// in\n    tag_80:\n      mload(0x40)\n      dup1\n      swap2\n      sub\n      swap1\n      return\n        /* \"@openzeppelin/contracts/token/ERC20/ERC20.sol\":6592:7019  function decreaseAllowance(address spender, uint256 subtractedValue) public virtual returns (bool) {... */\n    tag_18:\n      tag_81\n      0x04\n      dup1\n      calldatasize\n      sub\n      dup2\n      add\n      swap1\n      tag_82\n      swap2\n      swap1\n      tag_32\n      jump\t// in\n    tag_82:\n      tag_83\n      jump\t// in\n    tag_81:\n      mload(0x40)\n      tag_84\n      swap2\n      swap1\n      tag_35\n      jump\t// in\n    tag_84:\n      mload(0x40)\n      dup1\n      swap2\n      sub\n      swap1\n      return\n        /* \"@openzeppelin/contracts/token/ERC20/ERC20.sol\":3727:3916  function transfer(address to, uint256 amount) public virtual override returns (bool) {... */\n    tag_19:\n      tag_85\n      0x04\n      dup1\n      calldatasize\n      sub\n      dup2\n      add\n      swap1\n      tag_86\n      swap2\n      swap1\n      tag_32\n      jump\t// in\n    tag_86:\n      tag_87\n      jump\t// in\n    tag_85:\n      mload(0x40)\n      tag_88\n      swap2\n      swap1\n      tag_35\n      jump\t// in\n    tag_88:\n      mload(0x40)\n      dup1\n      swap2\n      sub\n      swap1\n      return\n        /* \"@openzeppelin/contracts/token/ERC20/ERC20.sol\":3974:4123  function allowance(address owner, address spender) public view virtual override returns (uint256) {... */\n    tag_20:\n      tag_89\n      0x04\n      dup1\n      calldatasize\n      sub\n      dup2\n      add\n      swap1\n      tag_90\n      swap2\n      swap1\n      tag_91\n      jump\t// in\n    tag_90:\n      tag_92\n      jump\t// in\n    tag_89:\n      mload(0x40)\n      tag_93\n      swap2\n      swap1\n      tag_39\n      jump\t// in\n    tag_93:\n      mload(0x40)\n      dup1\n      swap2\n      sub\n      swap1\n      return\n        /* \"@openzeppelin/contracts/token/ERC20/ERC20.sol\":2154:2252  function name() public view virtual override returns (string memory) {... */\n    tag_25:\n        /* \"@openzeppelin/contracts/token/ERC20/ERC20.sol\":2208:2221  string memory */\n      0x60\n        /* \"@openzeppelin/contracts/token/ERC20/ERC20.sol\":2240:2245  _name */\n      0x03\n        /* \"@openzeppelin/contracts/token/ERC20/ERC20.sol\":2233:2245  return _name */\n      dup1\n      sload\n      tag_95\n      swap1\n      tag_96\n      jump\t// in\n    tag_95:\n      dup1\n      0x1f\n      add\n      0x20\n      dup1\n      swap2\n      div\n      mul\n      0x20\n      add\n      mload(0x40)\n      swap1\n      dup2\n      add\n      0x40\n      mstore\n      dup1\n      swap3\n      swap2\n      swap1\n      dup2\n      dup2\n      mstore\n      0x20\n      add\n      dup3\n      dup1\n      sload\n      tag_97\n      swap1\n      tag_96\n      jump\t// in\n    tag_97:\n      dup1\n      iszero\n      tag_98\n      jumpi\n      dup1\n      0x1f\n      lt\n      tag_99\n      jumpi\n      0x0100\n      dup1\n      dup4\n      sload\n      div\n      mul\n      dup4\n      mstore\n      swap2\n      0x20\n      add\n      swap2\n      jump(tag_98)\n    tag_99:\n      dup3\n      add\n      swap2\n      swap1\n      0x00\n      mstore\n      keccak256(0x00, 0x20)\n      swap1\n    tag_100:\n      dup2\n      sload\n      dup2\n      mstore\n      swap1\n      0x01\n      add\n      swap1\n      0x20\n      add\n      dup1\n      dup4\n      gt\n      tag_100\n      jumpi\n      dup3\n      swap1\n      sub\n      0x1f\n      and\n      dup3\n      add\n      swap2\n    tag_98:\n      pop\n      pop\n      pop\n      pop\n      pop\n      swap1\n      pop\n        /* \"@openzeppelin/contracts/token/ERC20/ERC20.sol\":2154:2252  function name() public view virtual override returns (string memory) {... */\n      swap1\n      jump\t// out\n        /* \"ERC20/MyToken.sol\":1614:1694  function destroyContract() public onlyOwner {... */\n    tag_29:\n        /* \"ERC20/MyToken.sol\":1921:1926  owner */\n      0x05\n      0x00\n      swap1\n      sload\n      swap1\n      0x0100\n      exp\n      swap1\n      div\n      0xffffffffffffffffffffffffffffffffffffffff\n      and\n        /* \"ERC20/MyToken.sol\":1907:1926  msg.sender == owner */\n      0xffffffffffffffffffffffffffffffffffffffff\n      and\n        /* \"ERC20/MyToken.sol\":1907:1917  msg.sender */\n      caller\n        /* \"ERC20/MyToken.sol\":1907:1926  msg.sender == owner */\n      0xffffffffffffffffffffffffffffffffffffffff\n      and\n      eq\n        /* \"ERC20/MyToken.sol\":1899:1968  require(msg.sender == owner, \"Only the owner can call this function\") */\n      tag_102\n      jumpi\n      mload(0x40)\n      0x08c379a000000000000000000000000000000000000000000000000000000000\n      dup2\n      mstore\n      0x04\n      add\n      tag_103\n      swap1\n      tag_104\n      jump\t// in\n    tag_103:\n      mload(0x40)\n      dup1\n      swap2\n      sub\n      swap1\n      revert\n    tag_102:\n        /* \"ERC20/MyToken.sol\":1681:1686  owner */\n      0x05\n      0x00\n      swap1\n      sload\n      swap1\n      0x0100\n      exp\n      swap1\n      div\n      0xffffffffffffffffffffffffffffffffffffffff\n      and\n        /* \"ERC20/MyToken.sol\":1668:1687  selfdestruct(owner) */\n      0xffffffffffffffffffffffffffffffffffffffff\n      and\n      selfdestruct\n        /* \"@openzeppelin/contracts/token/ERC20/ERC20.sol\":4431:4628  function approve(address spender, uint256 amount) public virtual override returns (bool) {... */\n    tag_33:\n        /* \"@openzeppelin/contracts/token/ERC20/ERC20.sol\":4514:4518  bool */\n      0x00\n        /* \"@openzeppelin/contracts/token/ERC20/ERC20.sol\":4530:4543  address owner */\n      dup1\n        /* \"@openzeppelin/contracts/token/ERC20/ERC20.sol\":4546:4558  _msgSender() */\n      tag_107\n        /* \"@openzeppelin/contracts/token/ERC20/ERC20.sol\":4546:4556  _msgSender */\n      tag_108\n        /* \"@openzeppelin/contracts/token/ERC20/ERC20.sol\":4546:4558  _msgSender() */\n      jump\t// in\n    tag_107:\n        /* \"@openzeppelin/contracts/token/ERC20/ERC20.sol\":4530:4558  address owner = _msgSender() */\n      swap1\n      pop\n        /* \"@openzeppelin/contracts/token/ERC20/ERC20.sol\":4568:4600  _approve(owner, spender, amount) */\n      tag_109\n        /* \"@openzeppelin/contracts/token/ERC20/ERC20.sol\":4577:4582  owner */\n      dup2\n        /* \"@openzeppelin/contracts/token/ERC20/ERC20.sol\":4584:4591  spender */\n      dup6\n        /* \"@openzeppelin/contracts/token/ERC20/ERC20.sol\":4593:4599  amount */\n      dup6\n        /* \"@openzeppelin/contracts/token/ERC20/ERC20.sol\":4568:4576  _approve */\n      tag_110\n        /* \"@openzeppelin/contracts/token/ERC20/ERC20.sol\":4568:4600  _approve(owner, spender, amount) */\n      jump\t// in\n    tag_109:\n        /* \"@openzeppelin/contracts/token/ERC20/ERC20.sol\":4617:4621  true */\n      0x01\n        /* \"@openzeppelin/contracts/token/ERC20/ERC20.sol\":4610:4621  return true */\n      swap2\n      pop\n      pop\n        /* \"@openzeppelin/contracts/token/ERC20/ERC20.sol\":4431:4628  function approve(address spender, uint256 amount) public virtual override returns (bool) {... */\n      swap3\n      swap2\n      pop\n      pop\n      jump\t// out\n        /* \"ERC20/MyToken.sol\":350:376  uint256 public blockReward */\n    tag_37:\n      sload(0x06)\n      dup2\n      jump\t// out\n        /* \"@openzeppelin/contracts/token/ERC20/ERC20.sol\":3242:3348  function totalSupply() public view virtual override returns (uint256) {... */\n    tag_41:\n        /* \"@openzeppelin/contracts/token/ERC20/ERC20.sol\":3303:3310  uint256 */\n      0x00\n        /* \"@openzeppelin/contracts/token/ERC20/ERC20.sol\":3329:3341  _totalSupply */\n      sload(0x02)\n        /* \"@openzeppelin/contracts/token/ERC20/ERC20.sol\":3322:3341  return _totalSupply */\n      swap1\n      pop\n        /* \"@openzeppelin/contracts/token/ERC20/ERC20.sol\":3242:3348  function totalSupply() public view virtual override returns (uint256) {... */\n      swap1\n      jump\t// out\n        /* \"ERC20/MyToken.sol\":1725:1838  function setBlockReward(uint256 reward) public onlyOwner {... */\n    tag_46:\n        /* \"ERC20/MyToken.sol\":1921:1926  owner */\n      0x05\n      0x00\n      swap1\n      sload\n      swap1\n      0x0100\n      exp\n      swap1\n      div\n      0xffffffffffffffffffffffffffffffffffffffff\n      and\n        /* \"ERC20/MyToken.sol\":1907:1926  msg.sender == owner */\n      0xffffffffffffffffffffffffffffffffffffffff\n      and\n        /* \"ERC20/MyToken.sol\":1907:1917  msg.sender */\n      caller\n        /* \"ERC20/MyToken.sol\":1907:1926  msg.sender == owner */\n      0xffffffffffffffffffffffffffffffffffffffff\n      and\n      eq\n        /* \"ERC20/MyToken.sol\":1899:1968  require(msg.sender == owner, \"Only the owner can call this function\") */\n      tag_113\n      jumpi\n      mload(0x40)\n      0x08c379a000000000000000000000000000000000000000000000000000000000\n      dup2\n      mstore\n      0x04\n      add\n      tag_114\n      swap1\n      tag_104\n      jump\t// in\n    tag_114:\n      mload(0x40)\n      dup1\n      swap2\n      sub\n      swap1\n      revert\n    tag_113:\n        /* \"ERC20/MyToken.sol\":1820:1830  decimals() */\n      tag_116\n        /* \"ERC20/MyToken.sol\":1820:1828  decimals */\n      tag_53\n        /* \"ERC20/MyToken.sol\":1820:1830  decimals() */\n      jump\t// in\n    tag_116:\n        /* \"ERC20/MyToken.sol\":1816:1818  10 */\n      0x0a\n        /* \"ERC20/MyToken.sol\":1816:1830  10**decimals() */\n      tag_117\n      swap2\n      swap1\n      tag_118\n      jump\t// in\n    tag_117:\n        /* \"ERC20/MyToken.sol\":1806:1812  reward */\n      dup2\n        /* \"ERC20/MyToken.sol\":1806:1831  reward * (10**decimals()) */\n      tag_119\n      swap2\n      swap1\n      tag_120\n      jump\t// in\n    tag_119:\n        /* \"ERC20/MyToken.sol\":1792:1803  blockReward */\n      0x06\n        /* \"ERC20/MyToken.sol\":1792:1831  blockReward = reward * (10**decimals()) */\n      dup2\n      swap1\n      sstore\n      pop\n        /* \"ERC20/MyToken.sol\":1725:1838  function setBlockReward(uint256 reward) public onlyOwner {... */\n      pop\n      jump\t// out\n        /* \"@openzeppelin/contracts/token/ERC20/ERC20.sol\":5190:5476  function transferFrom(... */\n    tag_50:\n        /* \"@openzeppelin/contracts/token/ERC20/ERC20.sol\":5317:5321  bool */\n      0x00\n        /* \"@openzeppelin/contracts/token/ERC20/ERC20.sol\":5333:5348  address spender */\n      dup1\n        /* \"@openzeppelin/contracts/token/ERC20/ERC20.sol\":5351:5363  _msgSender() */\n      tag_122\n        /* \"@openzeppelin/contracts/token/ERC20/ERC20.sol\":5351:5361  _msgSender */\n      tag_108\n        /* \"@openzeppelin/contracts/token/ERC20/ERC20.sol\":5351:5363  _msgSender() */\n      jump\t// in\n    tag_122:\n        /* \"@openzeppelin/contracts/token/ERC20/ERC20.sol\":5333:5363  address spender = _msgSender() */\n      swap1\n      pop\n        /* \"@openzeppelin/contracts/token/ERC20/ERC20.sol\":5373:5411  _spendAllowance(from, spender, amount) */\n      tag_123\n        /* \"@openzeppelin/contracts/token/ERC20/ERC20.sol\":5389:5393  from */\n      dup6\n        /* \"@openzeppelin/contracts/token/ERC20/ERC20.sol\":5395:5402  spender */\n      dup3\n        /* \"@openzeppelin/contracts/token/ERC20/ERC20.sol\":5404:5410  amount */\n      dup6\n        /* \"@openzeppelin/contracts/token/ERC20/ERC20.sol\":5373:5388  _spendAllowance */\n      tag_124\n        /* \"@openzeppelin/contracts/token/ERC20/ERC20.sol\":5373:5411  _spendAllowance(from, spender, amount) */\n      jump\t// in\n    tag_123:\n        /* \"@openzeppelin/contracts/token/ERC20/ERC20.sol\":5421:5448  _transfer(from, to, amount) */\n      tag_125\n        /* \"@openzeppelin/contracts/token/ERC20/ERC20.sol\":5431:5435  from */\n      dup6\n        /* \"@openzeppelin/contracts/token/ERC20/ERC20.sol\":5437:5439  to */\n      dup6\n        /* \"@openzeppelin/contracts/token/ERC20/ERC20.sol\":5441:5447  amount */\n      dup6\n        /* \"@openzeppelin/contracts/token/ERC20/ERC20.sol\":5421:5430  _transfer */\n      tag_126\n        /* \"@openzeppelin/contracts/token/ERC20/ERC20.sol\":5421:5448  _transfer(from, to, amount) */\n      jump\t// in\n    tag_125:\n        /* \"@openzeppelin/contracts/token/ERC20/ERC20.sol\":5465:5469  true */\n      0x01\n        /* \"@openzeppelin/contracts/token/ERC20/ERC20.sol\":5458:5469  return true */\n      swap2\n      pop\n      pop\n        /* \"@openzeppelin/contracts/token/ERC20/ERC20.sol\":5190:5476  function transferFrom(... */\n      swap4\n      swap3\n      pop\n      pop\n      pop\n      jump\t// out\n        /* \"@openzeppelin/contracts/token/ERC20/ERC20.sol\":3091:3182  function decimals() public view virtual override returns (uint8) {... */\n    tag_53:\n        /* \"@openzeppelin/contracts/token/ERC20/ERC20.sol\":3149:3154  uint8 */\n      0x00\n        /* \"@openzeppelin/contracts/token/ERC20/ERC20.sol\":3173:3175  18 */\n      0x12\n        /* \"@openzeppelin/contracts/token/ERC20/ERC20.sol\":3166:3175  return 18 */\n      swap1\n      pop\n        /* \"@openzeppelin/contracts/token/ERC20/ERC20.sol\":3091:3182  function decimals() public view virtual override returns (uint8) {... */\n      swap1\n      jump\t// out\n        /* \"@openzeppelin/contracts/token/ERC20/extensions/ERC20Capped.sol\":635:716  function cap() public view virtual returns (uint256) {... */\n    tag_57:\n        /* \"@openzeppelin/contracts/token/ERC20/extensions/ERC20Capped.sol\":679:686  uint256 */\n      0x00\n        /* \"@openzeppelin/contracts/token/ERC20/extensions/ERC20Capped.sol\":705:709  _cap */\n      immutable(\"0x45d94b36b6c591269b78e981be09aa23f420e08a8de62d492aecd72fd20b693b\")\n        /* \"@openzeppelin/contracts/token/ERC20/extensions/ERC20Capped.sol\":698:709  return _cap */\n      swap1\n      pop\n        /* \"@openzeppelin/contracts/token/ERC20/extensions/ERC20Capped.sol\":635:716  function cap() public view virtual returns (uint256) {... */\n      swap1\n      jump\t// out\n        /* \"@openzeppelin/contracts/token/ERC20/ERC20.sol\":5871:6105  function increaseAllowance(address spender, uint256 addedValue) public virtual returns (bool) {... */\n    tag_61:\n        /* \"@openzeppelin/contracts/token/ERC20/ERC20.sol\":5959:5963  bool */\n      0x00\n        /* \"@openzeppelin/contracts/token/ERC20/ERC20.sol\":5975:5988  address owner */\n      dup1\n        /* \"@openzeppelin/contracts/token/ERC20/ERC20.sol\":5991:6003  _msgSender() */\n      tag_130\n        /* \"@openzeppelin/contracts/token/ERC20/ERC20.sol\":5991:6001  _msgSender */\n      tag_108\n        /* \"@openzeppelin/contracts/token/ERC20/ERC20.sol\":5991:6003  _msgSender() */\n      jump\t// in\n    tag_130:\n        /* \"@openzeppelin/contracts/token/ERC20/ERC20.sol\":5975:6003  address owner = _msgSender() */\n      swap1\n      pop\n        /* \"@openzeppelin/contracts/token/ERC20/ERC20.sol\":6013:6077  _approve(owner, spender, allowance(owner, spender) + addedValue) */\n      tag_131\n        /* \"@openzeppelin/contracts/token/ERC20/ERC20.sol\":6022:6027  owner */\n      dup2\n        /* \"@openzeppelin/contracts/token/ERC20/ERC20.sol\":6029:6036  spender */\n      dup6\n        /* \"@openzeppelin/contracts/token/ERC20/ERC20.sol\":6066:6076  addedValue */\n      dup6\n        /* \"@openzeppelin/contracts/token/ERC20/ERC20.sol\":6038:6063  allowance(owner, spender) */\n      tag_132\n        /* \"@openzeppelin/contracts/token/ERC20/ERC20.sol\":6048:6053  owner */\n      dup6\n        /* \"@openzeppelin/contracts/token/ERC20/ERC20.sol\":6055:6062  spender */\n      dup10\n        /* \"@openzeppelin/contracts/token/ERC20/ERC20.sol\":6038:6047  allowance */\n      tag_92\n        /* \"@openzeppelin/contracts/token/ERC20/ERC20.sol\":6038:6063  allowance(owner, spender) */\n      jump\t// in\n    tag_132:\n        /* \"@openzeppelin/contracts/token/ERC20/ERC20.sol\":6038:6076  allowance(owner, spender) + addedValue */\n      tag_133\n      swap2\n      swap1\n      tag_134\n      jump\t// in\n    tag_133:\n        /* \"@openzeppelin/contracts/token/ERC20/ERC20.sol\":6013:6021  _approve */\n      tag_110\n        /* \"@openzeppelin/contracts/token/ERC20/ERC20.sol\":6013:6077  _approve(owner, spender, allowance(owner, spender) + addedValue) */\n      jump\t// in\n    tag_131:\n        /* \"@openzeppelin/contracts/token/ERC20/ERC20.sol\":6094:6098  true */\n      0x01\n        /* \"@openzeppelin/contracts/token/ERC20/ERC20.sol\":6087:6098  return true */\n      swap2\n      pop\n      pop\n        /* \"@openzeppelin/contracts/token/ERC20/ERC20.sol\":5871:6105  function increaseAllowance(address spender, uint256 addedValue) public virtual returns (bool) {... */\n      swap3\n      swap2\n      pop\n      pop\n      jump\t// out\n        /* \"@openzeppelin/contracts/token/ERC20/extensions/ERC20Burnable.sol\":578:667  function burn(uint256 amount) public virtual {... */\n    tag_65:\n        /* \"@openzeppelin/contracts/token/ERC20/extensions/ERC20Burnable.sol\":633:660  _burn(_msgSender(), amount) */\n      tag_136\n        /* \"@openzeppelin/contracts/token/ERC20/extensions/ERC20Burnable.sol\":639:651  _msgSender() */\n      tag_137\n        /* \"@openzeppelin/contracts/token/ERC20/extensions/ERC20Burnable.sol\":639:649  _msgSender */\n      tag_108\n        /* \"@openzeppelin/contracts/token/ERC20/extensions/ERC20Burnable.sol\":639:651  _msgSender() */\n      jump\t// in\n    tag_137:\n        /* \"@openzeppelin/contracts/token/ERC20/extensions/ERC20Burnable.sol\":653:659  amount */\n      dup3\n        /* \"@openzeppelin/contracts/token/ERC20/extensions/ERC20Burnable.sol\":633:638  _burn */\n      tag_138\n        /* \"@openzeppelin/contracts/token/ERC20/extensions/ERC20Burnable.sol\":633:660  _burn(_msgSender(), amount) */\n      jump\t// in\n    tag_136:\n        /* \"@openzeppelin/contracts/token/ERC20/extensions/ERC20Burnable.sol\":578:667  function burn(uint256 amount) public virtual {... */\n      pop\n      jump\t// out\n        /* \"@openzeppelin/contracts/token/ERC20/ERC20.sol\":3406:3531  function balanceOf(address account) public view virtual override returns (uint256) {... */\n    tag_69:\n        /* \"@openzeppelin/contracts/token/ERC20/ERC20.sol\":3480:3487  uint256 */\n      0x00\n        /* \"@openzeppelin/contracts/token/ERC20/ERC20.sol\":3506:3515  _balances */\n      dup1\n        /* \"@openzeppelin/contracts/token/ERC20/ERC20.sol\":3506:3524  _balances[account] */\n      0x00\n        /* \"@openzeppelin/contracts/token/ERC20/ERC20.sol\":3516:3523  account */\n      dup4\n        /* \"@openzeppelin/contracts/token/ERC20/ERC20.sol\":3506:3524  _balances[account] */\n      0xffffffffffffffffffffffffffffffffffffffff\n      and\n      0xffffffffffffffffffffffffffffffffffffffff\n      and\n      dup2\n      mstore\n      0x20\n      add\n      swap1\n      dup2\n      mstore\n      0x20\n      add\n      0x00\n      keccak256\n      sload\n        /* \"@openzeppelin/contracts/token/ERC20/ERC20.sol\":3499:3524  return _balances[account] */\n      swap1\n      pop\n        /* \"@openzeppelin/contracts/token/ERC20/ERC20.sol\":3406:3531  function balanceOf(address account) public view virtual override returns (uint256) {... */\n      swap2\n      swap1\n      pop\n      jump\t// out\n        /* \"@openzeppelin/contracts/token/ERC20/extensions/ERC20Burnable.sol\":973:1134  function burnFrom(address account, uint256 amount) public virtual {... */\n    tag_73:\n        /* \"@openzeppelin/contracts/token/ERC20/extensions/ERC20Burnable.sol\":1049:1095  _spendAllowance(account, _msgSender(), amount) */\n      tag_141\n        /* \"@openzeppelin/contracts/token/ERC20/extensions/ERC20Burnable.sol\":1065:1072  account */\n      dup3\n        /* \"@openzeppelin/contracts/token/ERC20/extensions/ERC20Burnable.sol\":1074:1086  _msgSender() */\n      tag_142\n        /* \"@openzeppelin/contracts/token/ERC20/extensions/ERC20Burnable.sol\":1074:1084  _msgSender */\n      tag_108\n        /* \"@openzeppelin/contracts/token/ERC20/extensions/ERC20Burnable.sol\":1074:1086  _msgSender() */\n      jump\t// in\n    tag_142:\n        /* \"@openzeppelin/contracts/token/ERC20/extensions/ERC20Burnable.sol\":1088:1094  amount */\n      dup4\n        /* \"@openzeppelin/contracts/token/ERC20/extensions/ERC20Burnable.sol\":1049:1064  _spendAllowance */\n      tag_124\n        /* \"@openzeppelin/contracts/token/ERC20/extensions/ERC20Burnable.sol\":1049:1095  _spendAllowance(account, _msgSender(), amount) */\n      jump\t// in\n    tag_141:\n        /* \"@openzeppelin/contracts/token/ERC20/extensions/ERC20Burnable.sol\":1105:1127  _burn(account, amount) */\n      tag_143\n        /* \"@openzeppelin/contracts/token/ERC20/extensions/ERC20Burnable.sol\":1111:1118  account */\n      dup3\n        /* \"@openzeppelin/contracts/token/ERC20/extensions/ERC20Burnable.sol\":1120:1126  amount */\n      dup3\n        /* \"@openzeppelin/contracts/token/ERC20/extensions/ERC20Burnable.sol\":1105:1110  _burn */\n      tag_138\n        /* \"@openzeppelin/contracts/token/ERC20/extensions/ERC20Burnable.sol\":1105:1127  _burn(account, amount) */\n      jump\t// in\n    tag_143:\n        /* \"@openzeppelin/contracts/token/ERC20/extensions/ERC20Burnable.sol\":973:1134  function burnFrom(address account, uint256 amount) public virtual {... */\n      pop\n      pop\n      jump\t// out\n        /* \"ERC20/MyToken.sol\":316:344  address payable public owner */\n    tag_75:\n      0x05\n      0x00\n      swap1\n      sload\n      swap1\n      0x0100\n      exp\n      swap1\n      div\n      0xffffffffffffffffffffffffffffffffffffffff\n      and\n      dup2\n      jump\t// out\n        /* \"@openzeppelin/contracts/token/ERC20/ERC20.sol\":2365:2467  function symbol() public view virtual override returns (string memory) {... */\n    tag_79:\n        /* \"@openzeppelin/contracts/token/ERC20/ERC20.sol\":2421:2434  string memory */\n      0x60\n        /* \"@openzeppelin/contracts/token/ERC20/ERC20.sol\":2453:2460  _symbol */\n      0x04\n        /* \"@openzeppelin/contracts/token/ERC20/ERC20.sol\":2446:2460  return _symbol */\n      dup1\n      sload\n      tag_145\n      swap1\n      tag_96\n      jump\t// in\n    tag_145:\n      dup1\n      0x1f\n      add\n      0x20\n      dup1\n      swap2\n      div\n      mul\n      0x20\n      add\n      mload(0x40)\n      swap1\n      dup2\n      add\n      0x40\n      mstore\n      dup1\n      swap3\n      swap2\n      swap1\n      dup2\n      dup2\n      mstore\n      0x20\n      add\n      dup3\n      dup1\n      sload\n      tag_146\n      swap1\n      tag_96\n      jump\t// in\n    tag_146:\n      dup1\n      iszero\n      tag_147\n      jumpi\n      dup1\n      0x1f\n      lt\n      tag_148\n      jumpi\n      0x0100\n      dup1\n      dup4\n      sload\n      div\n      mul\n      dup4\n      mstore\n      swap2\n      0x20\n      add\n      swap2\n      jump(tag_147)\n    tag_148:\n      dup3\n      add\n      swap2\n      swap1\n      0x00\n      mstore\n      keccak256(0x00, 0x20)\n      swap1\n    tag_149:\n      dup2\n      sload\n      dup2\n      mstore\n      swap1\n      0x01\n      add\n      swap1\n      0x20\n      add\n      dup1\n      dup4\n      gt\n      tag_149\n      jumpi\n      dup3\n      swap1\n      sub\n      0x1f\n      and\n      dup3\n      add\n      swap2\n    tag_147:\n      pop\n      pop\n      pop\n      pop\n      pop\n      swap1\n      pop\n        /* \"@openzeppelin/contracts/token/ERC20/ERC20.sol\":2365:2467  function symbol() public view virtual override returns (string memory) {... */\n      swap1\n      jump\t// out\n        /* \"@openzeppelin/contracts/token/ERC20/ERC20.sol\":6592:7019  function decreaseAllowance(address spender, uint256 subtractedValue) public virtual returns (bool) {... */\n    tag_83:\n        /* \"@openzeppelin/contracts/token/ERC20/ERC20.sol\":6685:6689  bool */\n      0x00\n        /* \"@openzeppelin/contracts/token/ERC20/ERC20.sol\":6701:6714  address owner */\n      dup1\n        /* \"@openzeppelin/contracts/token/ERC20/ERC20.sol\":6717:6729  _msgSender() */\n      tag_151\n        /* \"@openzeppelin/contracts/token/ERC20/ERC20.sol\":6717:6727  _msgSender */\n      tag_108\n        /* \"@openzeppelin/contracts/token/ERC20/ERC20.sol\":6717:6729  _msgSender() */\n      jump\t// in\n    tag_151:\n        /* \"@openzeppelin/contracts/token/ERC20/ERC20.sol\":6701:6729  address owner = _msgSender() */\n      swap1\n      pop\n        /* \"@openzeppelin/contracts/token/ERC20/ERC20.sol\":6739:6763  uint256 currentAllowance */\n      0x00\n        /* \"@openzeppelin/contracts/token/ERC20/ERC20.sol\":6766:6791  allowance(owner, spender) */\n      tag_152\n        /* \"@openzeppelin/contracts/token/ERC20/ERC20.sol\":6776:6781  owner */\n      dup3\n        /* \"@openzeppelin/contracts/token/ERC20/ERC20.sol\":6783:6790  spender */\n      dup7\n        /* \"@openzeppelin/contracts/token/ERC20/ERC20.sol\":6766:6775  allowance */\n      tag_92\n        /* \"@openzeppelin/contracts/token/ERC20/ERC20.sol\":6766:6791  allowance(owner, spender) */\n      jump\t// in\n    tag_152:\n        /* \"@openzeppelin/contracts/token/ERC20/ERC20.sol\":6739:6791  uint256 currentAllowance = allowance(owner, spender) */\n      swap1\n      pop\n        /* \"@openzeppelin/contracts/token/ERC20/ERC20.sol\":6829:6844  subtractedValue */\n      dup4\n        /* \"@openzeppelin/contracts/token/ERC20/ERC20.sol\":6809:6825  currentAllowance */\n      dup2\n        /* \"@openzeppelin/contracts/token/ERC20/ERC20.sol\":6809:6844  currentAllowance >= subtractedValue */\n      lt\n      iszero\n        /* \"@openzeppelin/contracts/token/ERC20/ERC20.sol\":6801:6886  require(currentAllowance >= subtractedValue, \"ERC20: decreased allowance below zero\") */\n      tag_153\n      jumpi\n      mload(0x40)\n      0x08c379a000000000000000000000000000000000000000000000000000000000\n      dup2\n      mstore\n      0x04\n      add\n      tag_154\n      swap1\n      tag_155\n      jump\t// in\n    tag_154:\n      mload(0x40)\n      dup1\n      swap2\n      sub\n      swap1\n      revert\n    tag_153:\n        /* \"@openzeppelin/contracts/token/ERC20/ERC20.sol\":6920:6980  _approve(owner, spender, currentAllowance - subtractedValue) */\n      tag_156\n        /* \"@openzeppelin/contracts/token/ERC20/ERC20.sol\":6929:6934  owner */\n      dup3\n        /* \"@openzeppelin/contracts/token/ERC20/ERC20.sol\":6936:6943  spender */\n      dup7\n        /* \"@openzeppelin/contracts/token/ERC20/ERC20.sol\":6964:6979  subtractedValue */\n      dup7\n        /* \"@openzeppelin/contracts/token/ERC20/ERC20.sol\":6945:6961  currentAllowance */\n      dup5\n        /* \"@openzeppelin/contracts/token/ERC20/ERC20.sol\":6945:6979  currentAllowance - subtractedValue */\n      sub\n        /* \"@openzeppelin/contracts/token/ERC20/ERC20.sol\":6920:6928  _approve */\n      tag_110\n        /* \"@openzeppelin/contracts/token/ERC20/ERC20.sol\":6920:6980  _approve(owner, spender, currentAllowance - subtractedValue) */\n      jump\t// in\n    tag_156:\n        /* \"@openzeppelin/contracts/token/ERC20/ERC20.sol\":7008:7012  true */\n      0x01\n        /* \"@openzeppelin/contracts/token/ERC20/ERC20.sol\":7001:7012  return true */\n      swap3\n      pop\n      pop\n      pop\n        /* \"@openzeppelin/contracts/token/ERC20/ERC20.sol\":6592:7019  function decreaseAllowance(address spender, uint256 subtractedValue) public virtual returns (bool) {... */\n      swap3\n      swap2\n      pop\n      pop\n      jump\t// out\n        /* \"@openzeppelin/contracts/token/ERC20/ERC20.sol\":3727:3916  function transfer(address to, uint256 amount) public virtual override returns (bool) {... */\n    tag_87:\n        /* \"@openzeppelin/contracts/token/ERC20/ERC20.sol\":3806:3810  bool */\n      0x00\n        /* \"@openzeppelin/contracts/token/ERC20/ERC20.sol\":3822:3835  address owner */\n      dup1\n        /* \"@openzeppelin/contracts/token/ERC20/ERC20.sol\":3838:3850  _msgSender() */\n      tag_158\n        /* \"@openzeppelin/contracts/token/ERC20/ERC20.sol\":3838:3848  _msgSender */\n      tag_108\n        /* \"@openzeppelin/contracts/token/ERC20/ERC20.sol\":3838:3850  _msgSender() */\n      jump\t// in\n    tag_158:\n        /* \"@openzeppelin/contracts/token/ERC20/ERC20.sol\":3822:3850  address owner = _msgSender() */\n      swap1\n      pop\n        /* \"@openzeppelin/contracts/token/ERC20/ERC20.sol\":3860:3888  _transfer(owner, to, amount) */\n      tag_159\n        /* \"@openzeppelin/contracts/token/ERC20/ERC20.sol\":3870:3875  owner */\n      dup2\n        /* \"@openzeppelin/contracts/token/ERC20/ERC20.sol\":3877:3879  to */\n      dup6\n        /* \"@openzeppelin/contracts/token/ERC20/ERC20.sol\":3881:3887  amount */\n      dup6\n        /* \"@openzeppelin/contracts/token/ERC20/ERC20.sol\":3860:3869  _transfer */\n      tag_126\n        /* \"@openzeppelin/contracts/token/ERC20/ERC20.sol\":3860:3888  _transfer(owner, to, amount) */\n      jump\t// in\n    tag_159:\n        /* \"@openzeppelin/contracts/token/ERC20/ERC20.sol\":3905:3909  true */\n      0x01\n        /* \"@openzeppelin/contracts/token/ERC20/ERC20.sol\":3898:3909  return true */\n      swap2\n      pop\n      pop\n        /* \"@openzeppelin/contracts/token/ERC20/ERC20.sol\":3727:3916  function transfer(address to, uint256 amount) public virtual override returns (bool) {... */\n      swap3\n      swap2\n      pop\n      pop\n      jump\t// out\n        /* \"@openzeppelin/contracts/token/ERC20/ERC20.sol\":3974:4123  function allowance(address owner, address spender) public view virtual override returns (uint256) {... */\n    tag_92:\n        /* \"@openzeppelin/contracts/token/ERC20/ERC20.sol\":4063:4070  uint256 */\n      0x00\n        /* \"@openzeppelin/contracts/token/ERC20/ERC20.sol\":4089:4100  _allowances */\n      0x01\n        /* \"@openzeppelin/contracts/token/ERC20/ERC20.sol\":4089:4107  _allowances[owner] */\n      0x00\n        /* \"@openzeppelin/contracts/token/ERC20/ERC20.sol\":4101:4106  owner */\n      dup5\n        /* \"@openzeppelin/contracts/token/ERC20/ERC20.sol\":4089:4107  _allowances[owner] */\n      0xffffffffffffffffffffffffffffffffffffffff\n      and\n      0xffffffffffffffffffffffffffffffffffffffff\n      and\n      dup2\n      mstore\n      0x20\n      add\n      swap1\n      dup2\n      mstore\n      0x20\n      add\n      0x00\n      keccak256\n        /* \"@openzeppelin/contracts/token/ERC20/ERC20.sol\":4089:4116  _allowances[owner][spender] */\n      0x00\n        /* \"@openzeppelin/contracts/token/ERC20/ERC20.sol\":4108:4115  spender */\n      dup4\n        /* \"@openzeppelin/contracts/token/ERC20/ERC20.sol\":4089:4116  _allowances[owner][spender] */\n      0xffffffffffffffffffffffffffffffffffffffff\n      and\n      0xffffffffffffffffffffffffffffffffffffffff\n      and\n      dup2\n      mstore\n      0x20\n      add\n      swap1\n      dup2\n      mstore\n      0x20\n      add\n      0x00\n      keccak256\n      sload\n        /* \"@openzeppelin/contracts/token/ERC20/ERC20.sol\":4082:4116  return _allowances[owner][spender] */\n      swap1\n      pop\n        /* \"@openzeppelin/contracts/token/ERC20/ERC20.sol\":3974:4123  function allowance(address owner, address spender) public view virtual override returns (uint256) {... */\n      swap3\n      swap2\n      pop\n      pop\n      jump\t// out\n        /* \"@openzeppelin/contracts/utils/Context.sol\":640:736  function _msgSender() internal view virtual returns (address) {... */\n    tag_108:\n        /* \"@openzeppelin/contracts/utils/Context.sol\":693:700  address */\n      0x00\n        /* \"@openzeppelin/contracts/utils/Context.sol\":719:729  msg.sender */\n      caller\n        /* \"@openzeppelin/contracts/utils/Context.sol\":712:729  return msg.sender */\n      swap1\n      pop\n        /* \"@openzeppelin/contracts/utils/Context.sol\":640:736  function _msgSender() internal view virtual returns (address) {... */\n      swap1\n      jump\t// out\n        /* \"@openzeppelin/contracts/token/ERC20/ERC20.sol\":10504:10874  function _approve(... */\n    tag_110:\n        /* \"@openzeppelin/contracts/token/ERC20/ERC20.sol\":10652:10653  0 */\n      0x00\n        /* \"@openzeppelin/contracts/token/ERC20/ERC20.sol\":10635:10654  owner != address(0) */\n      0xffffffffffffffffffffffffffffffffffffffff\n      and\n        /* \"@openzeppelin/contracts/token/ERC20/ERC20.sol\":10635:10640  owner */\n      dup4\n        /* \"@openzeppelin/contracts/token/ERC20/ERC20.sol\":10635:10654  owner != address(0) */\n      0xffffffffffffffffffffffffffffffffffffffff\n      and\n      sub\n        /* \"@openzeppelin/contracts/token/ERC20/ERC20.sol\":10627:10695  require(owner != address(0), \"ERC20: approve from the zero address\") */\n      tag_163\n      jumpi\n      mload(0x40)\n      0x08c379a000000000000000000000000000000000000000000000000000000000\n      dup2\n      mstore\n      0x04\n      add\n      tag_164\n      swap1\n      tag_165\n      jump\t// in\n    tag_164:\n      mload(0x40)\n      dup1\n      swap2\n      sub\n      swap1\n      revert\n    tag_163:\n        /* \"@openzeppelin/contracts/token/ERC20/ERC20.sol\":10732:10733  0 */\n      0x00\n        /* \"@openzeppelin/contracts/token/ERC20/ERC20.sol\":10713:10734  spender != address(0) */\n      0xffffffffffffffffffffffffffffffffffffffff\n      and\n        /* \"@openzeppelin/contracts/token/ERC20/ERC20.sol\":10713:10720  spender */\n      dup3\n        /* \"@openzeppelin/contracts/token/ERC20/ERC20.sol\":10713:10734  spender != address(0) */\n      0xffffffffffffffffffffffffffffffffffffffff\n      and\n      sub\n        /* \"@openzeppelin/contracts/token/ERC20/ERC20.sol\":10705:10773  require(spender != address(0), \"ERC20: approve to the zero address\") */\n      tag_166\n      jumpi\n      mload(0x40)\n      0x08c379a000000000000000000000000000000000000000000000000000000000\n      dup2\n      mstore\n      0x04\n      add\n      tag_167\n      swap1\n      tag_168\n      jump\t// in\n    tag_167:\n      mload(0x40)\n      dup1\n      swap2\n      sub\n      swap1\n      revert\n    tag_166:\n        /* \"@openzeppelin/contracts/token/ERC20/ERC20.sol\":10814:10820  amount */\n      dup1\n        /* \"@openzeppelin/contracts/token/ERC20/ERC20.sol\":10784:10795  _allowances */\n      0x01\n        /* \"@openzeppelin/contracts/token/ERC20/ERC20.sol\":10784:10802  _allowances[owner] */\n      0x00\n        /* \"@openzeppelin/contracts/token/ERC20/ERC20.sol\":10796:10801  owner */\n      dup6\n        /* \"@openzeppelin/contracts/token/ERC20/ERC20.sol\":10784:10802  _allowances[owner] */\n      0xffffffffffffffffffffffffffffffffffffffff\n      and\n      0xffffffffffffffffffffffffffffffffffffffff\n      and\n      dup2\n      mstore\n      0x20\n      add\n      swap1\n      dup2\n      mstore\n      0x20\n      add\n      0x00\n      keccak256\n        /* \"@openzeppelin/contracts/token/ERC20/ERC20.sol\":10784:10811  _allowances[owner][spender] */\n      0x00\n        /* \"@openzeppelin/contracts/token/ERC20/ERC20.sol\":10803:10810  spender */\n      dup5\n        /* \"@openzeppelin/contracts/token/ERC20/ERC20.sol\":10784:10811  _allowances[owner][spender] */\n      0xffffffffffffffffffffffffffffffffffffffff\n      and\n      0xffffffffffffffffffffffffffffffffffffffff\n      and\n      dup2\n      mstore\n      0x20\n      add\n      swap1\n      dup2\n      mstore\n      0x20\n      add\n      0x00\n      keccak256\n        /* \"@openzeppelin/contracts/token/ERC20/ERC20.sol\":10784:10820  _allowances[owner][spender] = amount */\n      dup2\n      swap1\n      sstore\n      pop\n        /* \"@openzeppelin/contracts/token/ERC20/ERC20.sol\":10851:10858  spender */\n      dup2\n        /* \"@openzeppelin/contracts/token/ERC20/ERC20.sol\":10835:10867  Approval(owner, spender, amount) */\n      0xffffffffffffffffffffffffffffffffffffffff\n      and\n        /* \"@openzeppelin/contracts/token/ERC20/ERC20.sol\":10844:10849  owner */\n      dup4\n        /* \"@openzeppelin/contracts/token/ERC20/ERC20.sol\":10835:10867  Approval(owner, spender, amount) */\n      0xffffffffffffffffffffffffffffffffffffffff\n      and\n      0x8c5be1e5ebec7d5bd14f71427d1e84f3dd0314c0f7b2291e5b200ac8c7c3b925\n        /* \"@openzeppelin/contracts/token/ERC20/ERC20.sol\":10860:10866  amount */\n      dup4\n        /* \"@openzeppelin/contracts/token/ERC20/ERC20.sol\":10835:10867  Approval(owner, spender, amount) */\n      mload(0x40)\n      tag_169\n      swap2\n      swap1\n      tag_39\n      jump\t// in\n    tag_169:\n      mload(0x40)\n      dup1\n      swap2\n      sub\n      swap1\n      log3\n        /* \"@openzeppelin/contracts/token/ERC20/ERC20.sol\":10504:10874  function _approve(... */\n      pop\n      pop\n      pop\n      jump\t// out\n        /* \"@openzeppelin/contracts/token/ERC20/ERC20.sol\":11155:11596  function _spendAllowance(... */\n    tag_124:\n        /* \"@openzeppelin/contracts/token/ERC20/ERC20.sol\":11285:11309  uint256 currentAllowance */\n      0x00\n        /* \"@openzeppelin/contracts/token/ERC20/ERC20.sol\":11312:11337  allowance(owner, spender) */\n      tag_171\n        /* \"@openzeppelin/contracts/token/ERC20/ERC20.sol\":11322:11327  owner */\n      dup5\n        /* \"@openzeppelin/contracts/token/ERC20/ERC20.sol\":11329:11336  spender */\n      dup5\n        /* \"@openzeppelin/contracts/token/ERC20/ERC20.sol\":11312:11321  allowance */\n      tag_92\n        /* \"@openzeppelin/contracts/token/ERC20/ERC20.sol\":11312:11337  allowance(owner, spender) */\n      jump\t// in\n    tag_171:\n        /* \"@openzeppelin/contracts/token/ERC20/ERC20.sol\":11285:11337  uint256 currentAllowance = allowance(owner, spender) */\n      swap1\n      pop\n        /* \"@openzeppelin/contracts/token/ERC20/ERC20.sol\":11371:11388  type(uint256).max */\n      0xffffffffffffffffffffffffffffffffffffffffffffffffffffffffffffffff\n        /* \"@openzeppelin/contracts/token/ERC20/ERC20.sol\":11351:11367  currentAllowance */\n      dup2\n        /* \"@openzeppelin/contracts/token/ERC20/ERC20.sol\":11351:11388  currentAllowance != type(uint256).max */\n      eq\n        /* \"@openzeppelin/contracts/token/ERC20/ERC20.sol\":11347:11590  if (currentAllowance != type(uint256).max) {... */\n      tag_172\n      jumpi\n        /* \"@openzeppelin/contracts/token/ERC20/ERC20.sol\":11432:11438  amount */\n      dup2\n        /* \"@openzeppelin/contracts/token/ERC20/ERC20.sol\":11412:11428  currentAllowance */\n      dup2\n        /* \"@openzeppelin/contracts/token/ERC20/ERC20.sol\":11412:11438  currentAllowance >= amount */\n      lt\n      iszero\n        /* \"@openzeppelin/contracts/token/ERC20/ERC20.sol\":11404:11472  require(currentAllowance >= amount, \"ERC20: insufficient allowance\") */\n      tag_173\n      jumpi\n      mload(0x40)\n      0x08c379a000000000000000000000000000000000000000000000000000000000\n      dup2\n      mstore\n      0x04\n      add\n      tag_174\n      swap1\n      tag_175\n      jump\t// in\n    tag_174:\n      mload(0x40)\n      dup1\n      swap2\n      sub\n      swap1\n      revert\n    tag_173:\n        /* \"@openzeppelin/contracts/token/ERC20/ERC20.sol\":11514:11565  _approve(owner, spender, currentAllowance - amount) */\n      tag_176\n        /* \"@openzeppelin/contracts/token/ERC20/ERC20.sol\":11523:11528  owner */\n      dup5\n        /* \"@openzeppelin/contracts/token/ERC20/ERC20.sol\":11530:11537  spender */\n      dup5\n        /* \"@openzeppelin/contracts/token/ERC20/ERC20.sol\":11558:11564  amount */\n      dup5\n        /* \"@openzeppelin/contracts/token/ERC20/ERC20.sol\":11539:11555  currentAllowance */\n      dup5\n        /* \"@openzeppelin/contracts/token/ERC20/ERC20.sol\":11539:11564  currentAllowance - amount */\n      sub\n        /* \"@openzeppelin/contracts/token/ERC20/ERC20.sol\":11514:11522  _approve */\n      tag_110\n        /* \"@openzeppelin/contracts/token/ERC20/ERC20.sol\":11514:11565  _approve(owner, spender, currentAllowance - amount) */\n      jump\t// in\n    tag_176:\n        /* \"@openzeppelin/contracts/token/ERC20/ERC20.sol\":11347:11590  if (currentAllowance != type(uint256).max) {... */\n    tag_172:\n        /* \"@openzeppelin/contracts/token/ERC20/ERC20.sol\":11275:11596  {... */\n      pop\n        /* \"@openzeppelin/contracts/token/ERC20/ERC20.sol\":11155:11596  function _spendAllowance(... */\n      pop\n      pop\n      pop\n      jump\t// out\n        /* \"@openzeppelin/contracts/token/ERC20/ERC20.sol\":7473:8291  function _transfer(... */\n    tag_126:\n        /* \"@openzeppelin/contracts/token/ERC20/ERC20.sol\":7615:7616  0 */\n      0x00\n        /* \"@openzeppelin/contracts/token/ERC20/ERC20.sol\":7599:7617  from != address(0) */\n      0xffffffffffffffffffffffffffffffffffffffff\n      and\n        /* \"@openzeppelin/contracts/token/ERC20/ERC20.sol\":7599:7603  from */\n      dup4\n        /* \"@openzeppelin/contracts/token/ERC20/ERC20.sol\":7599:7617  from != address(0) */\n      0xffffffffffffffffffffffffffffffffffffffff\n      and\n      sub\n        /* \"@openzeppelin/contracts/token/ERC20/ERC20.sol\":7591:7659  require(from != address(0), \"ERC20: transfer from the zero address\") */\n      tag_178\n      jumpi\n      mload(0x40)\n      0x08c379a000000000000000000000000000000000000000000000000000000000\n      dup2\n      mstore\n      0x04\n      add\n      tag_179\n      swap1\n      tag_180\n      jump\t// in\n    tag_179:\n      mload(0x40)\n      dup1\n      swap2\n      sub\n      swap1\n      revert\n    tag_178:\n        /* \"@openzeppelin/contracts/token/ERC20/ERC20.sol\":7691:7692  0 */\n      0x00\n        /* \"@openzeppelin/contracts/token/ERC20/ERC20.sol\":7677:7693  to != address(0) */\n      0xffffffffffffffffffffffffffffffffffffffff\n      and\n        /* \"@openzeppelin/contracts/token/ERC20/ERC20.sol\":7677:7679  to */\n      dup3\n        /* \"@openzeppelin/contracts/token/ERC20/ERC20.sol\":7677:7693  to != address(0) */\n      0xffffffffffffffffffffffffffffffffffffffff\n      and\n      sub\n        /* \"@openzeppelin/contracts/token/ERC20/ERC20.sol\":7669:7733  require(to != address(0), \"ERC20: transfer to the zero address\") */\n      tag_181\n      jumpi\n      mload(0x40)\n      0x08c379a000000000000000000000000000000000000000000000000000000000\n      dup2\n      mstore\n      0x04\n      add\n      tag_182\n      swap1\n      tag_183\n      jump\t// in\n    tag_182:\n      mload(0x40)\n      dup1\n      swap2\n      sub\n      swap1\n      revert\n    tag_181:\n        /* \"@openzeppelin/contracts/token/ERC20/ERC20.sol\":7744:7782  _beforeTokenTransfer(from, to, amount) */\n      tag_184\n        /* \"@openzeppelin/contracts/token/ERC20/ERC20.sol\":7765:7769  from */\n      dup4\n        /* \"@openzeppelin/contracts/token/ERC20/ERC20.sol\":7771:7773  to */\n      dup4\n        /* \"@openzeppelin/contracts/token/ERC20/ERC20.sol\":7775:7781  amount */\n      dup4\n        /* \"@openzeppelin/contracts/token/ERC20/ERC20.sol\":7744:7764  _beforeTokenTransfer */\n      tag_185\n        /* \"@openzeppelin/contracts/token/ERC20/ERC20.sol\":7744:7782  _beforeTokenTransfer(from, to, amount) */\n      jump\t// in\n    tag_184:\n        /* \"@openzeppelin/contracts/token/ERC20/ERC20.sol\":7793:7812  uint256 fromBalance */\n      0x00\n        /* \"@openzeppelin/contracts/token/ERC20/ERC20.sol\":7815:7824  _balances */\n      dup1\n        /* \"@openzeppelin/contracts/token/ERC20/ERC20.sol\":7815:7830  _balances[from] */\n      0x00\n        /* \"@openzeppelin/contracts/token/ERC20/ERC20.sol\":7825:7829  from */\n      dup6\n        /* \"@openzeppelin/contracts/token/ERC20/ERC20.sol\":7815:7830  _balances[from] */\n      0xffffffffffffffffffffffffffffffffffffffff\n      and\n      0xffffffffffffffffffffffffffffffffffffffff\n      and\n      dup2\n      mstore\n      0x20\n      add\n      swap1\n      dup2\n      mstore\n      0x20\n      add\n      0x00\n      keccak256\n      sload\n        /* \"@openzeppelin/contracts/token/ERC20/ERC20.sol\":7793:7830  uint256 fromBalance = _balances[from] */\n      swap1\n      pop\n        /* \"@openzeppelin/contracts/token/ERC20/ERC20.sol\":7863:7869  amount */\n      dup2\n        /* \"@openzeppelin/contracts/token/ERC20/ERC20.sol\":7848:7859  fromBalance */\n      dup2\n        /* \"@openzeppelin/contracts/token/ERC20/ERC20.sol\":7848:7869  fromBalance >= amount */\n      lt\n      iszero\n        /* \"@openzeppelin/contracts/token/ERC20/ERC20.sol\":7840:7912  require(fromBalance >= amount, \"ERC20: transfer amount exceeds balance\") */\n      tag_186\n      jumpi\n      mload(0x40)\n      0x08c379a000000000000000000000000000000000000000000000000000000000\n      dup2\n      mstore\n      0x04\n      add\n      tag_187\n      swap1\n      tag_188\n      jump\t// in\n    tag_187:\n      mload(0x40)\n      dup1\n      swap2\n      sub\n      swap1\n      revert\n    tag_186:\n        /* \"@openzeppelin/contracts/token/ERC20/ERC20.sol\":7978:7984  amount */\n      dup2\n        /* \"@openzeppelin/contracts/token/ERC20/ERC20.sol\":7964:7975  fromBalance */\n      dup2\n        /* \"@openzeppelin/contracts/token/ERC20/ERC20.sol\":7964:7984  fromBalance - amount */\n      sub\n        /* \"@openzeppelin/contracts/token/ERC20/ERC20.sol\":7946:7955  _balances */\n      0x00\n        /* \"@openzeppelin/contracts/token/ERC20/ERC20.sol\":7946:7961  _balances[from] */\n      dup1\n        /* \"@openzeppelin/contracts/token/ERC20/ERC20.sol\":7956:7960  from */\n      dup7\n        /* \"@openzeppelin/contracts/token/ERC20/ERC20.sol\":7946:7961  _balances[from] */\n      0xffffffffffffffffffffffffffffffffffffffff\n      and\n      0xffffffffffffffffffffffffffffffffffffffff\n      and\n      dup2\n      mstore\n      0x20\n      add\n      swap1\n      dup2\n      mstore\n      0x20\n      add\n      0x00\n      keccak256\n        /* \"@openzeppelin/contracts/token/ERC20/ERC20.sol\":7946:7984  _balances[from] = fromBalance - amount */\n      dup2\n      swap1\n      sstore\n      pop\n        /* \"@openzeppelin/contracts/token/ERC20/ERC20.sol\":8178:8184  amount */\n      dup2\n        /* \"@openzeppelin/contracts/token/ERC20/ERC20.sol\":8161:8170  _balances */\n      0x00\n        /* \"@openzeppelin/contracts/token/ERC20/ERC20.sol\":8161:8174  _balances[to] */\n      dup1\n        /* \"@openzeppelin/contracts/token/ERC20/ERC20.sol\":8171:8173  to */\n      dup6\n        /* \"@openzeppelin/contracts/token/ERC20/ERC20.sol\":8161:8174  _balances[to] */\n      0xffffffffffffffffffffffffffffffffffffffff\n      and\n      0xffffffffffffffffffffffffffffffffffffffff\n      and\n      dup2\n      mstore\n      0x20\n      add\n      swap1\n      dup2\n      mstore\n      0x20\n      add\n      0x00\n      keccak256\n      0x00\n        /* \"@openzeppelin/contracts/token/ERC20/ERC20.sol\":8161:8184  _balances[to] += amount */\n      dup3\n      dup3\n      sload\n      add\n      swap3\n      pop\n      pop\n      dup2\n      swap1\n      sstore\n      pop\n        /* \"@openzeppelin/contracts/token/ERC20/ERC20.sol\":8225:8227  to */\n      dup3\n        /* \"@openzeppelin/contracts/token/ERC20/ERC20.sol\":8210:8236  Transfer(from, to, amount) */\n      0xffffffffffffffffffffffffffffffffffffffff\n      and\n        /* \"@openzeppelin/contracts/token/ERC20/ERC20.sol\":8219:8223  from */\n      dup5\n        /* \"@openzeppelin/contracts/token/ERC20/ERC20.sol\":8210:8236  Transfer(from, to, amount) */\n      0xffffffffffffffffffffffffffffffffffffffff\n      and\n      0xddf252ad1be2c89b69c2b068fc378daa952ba7f163c4a11628f55a4df523b3ef\n        /* \"@openzeppelin/contracts/token/ERC20/ERC20.sol\":8229:8235  amount */\n      dup5\n        /* \"@openzeppelin/contracts/token/ERC20/ERC20.sol\":8210:8236  Transfer(from, to, amount) */\n      mload(0x40)\n      tag_189\n      swap2\n      swap1\n      tag_39\n      jump\t// in\n    tag_189:\n      mload(0x40)\n      dup1\n      swap2\n      sub\n      swap1\n      log3\n        /* \"@openzeppelin/contracts/token/ERC20/ERC20.sol\":8247:8284  _afterTokenTransfer(from, to, amount) */\n      tag_190\n        /* \"@openzeppelin/contracts/token/ERC20/ERC20.sol\":8267:8271  from */\n      dup5\n        /* \"@openzeppelin/contracts/token/ERC20/ERC20.sol\":8273:8275  to */\n      dup5\n        /* \"@openzeppelin/contracts/token/ERC20/ERC20.sol\":8277:8283  amount */\n      dup5\n        /* \"@openzeppelin/contracts/token/ERC20/ERC20.sol\":8247:8266  _afterTokenTransfer */\n      tag_191\n        /* \"@openzeppelin/contracts/token/ERC20/ERC20.sol\":8247:8284  _afterTokenTransfer(from, to, amount) */\n      jump\t// in\n    tag_190:\n        /* \"@openzeppelin/contracts/token/ERC20/ERC20.sol\":7581:8291  {... */\n      pop\n        /* \"@openzeppelin/contracts/token/ERC20/ERC20.sol\":7473:8291  function _transfer(... */\n      pop\n      pop\n      pop\n      jump\t// out\n        /* \"@openzeppelin/contracts/token/ERC20/ERC20.sol\":9422:10081  function _burn(address account, uint256 amount) internal virtual {... */\n    tag_138:\n        /* \"@openzeppelin/contracts/token/ERC20/ERC20.sol\":9524:9525  0 */\n      0x00\n        /* \"@openzeppelin/contracts/token/ERC20/ERC20.sol\":9505:9526  account != address(0) */\n      0xffffffffffffffffffffffffffffffffffffffff\n      and\n        /* \"@openzeppelin/contracts/token/ERC20/ERC20.sol\":9505:9512  account */\n      dup3\n        /* \"@openzeppelin/contracts/token/ERC20/ERC20.sol\":9505:9526  account != address(0) */\n      0xffffffffffffffffffffffffffffffffffffffff\n      and\n      sub\n        /* \"@openzeppelin/contracts/token/ERC20/ERC20.sol\":9497:9564  require(account != address(0), \"ERC20: burn from the zero address\") */\n      tag_193\n      jumpi\n      mload(0x40)\n      0x08c379a000000000000000000000000000000000000000000000000000000000\n      dup2\n      mstore\n      0x04\n      add\n      tag_194\n      swap1\n      tag_195\n      jump\t// in\n    tag_194:\n      mload(0x40)\n      dup1\n      swap2\n      sub\n      swap1\n      revert\n    tag_193:\n        /* \"@openzeppelin/contracts/token/ERC20/ERC20.sol\":9575:9624  _beforeTokenTransfer(account, address(0), amount) */\n      tag_196\n        /* \"@openzeppelin/contracts/token/ERC20/ERC20.sol\":9596:9603  account */\n      dup3\n        /* \"@openzeppelin/contracts/token/ERC20/ERC20.sol\":9613:9614  0 */\n      0x00\n        /* \"@openzeppelin/contracts/token/ERC20/ERC20.sol\":9617:9623  amount */\n      dup4\n        /* \"@openzeppelin/contracts/token/ERC20/ERC20.sol\":9575:9595  _beforeTokenTransfer */\n      tag_185\n        /* \"@openzeppelin/contracts/token/ERC20/ERC20.sol\":9575:9624  _beforeTokenTransfer(account, address(0), amount) */\n      jump\t// in\n    tag_196:\n        /* \"@openzeppelin/contracts/token/ERC20/ERC20.sol\":9635:9657  uint256 accountBalance */\n      0x00\n        /* \"@openzeppelin/contracts/token/ERC20/ERC20.sol\":9660:9669  _balances */\n      dup1\n        /* \"@openzeppelin/contracts/token/ERC20/ERC20.sol\":9660:9678  _balances[account] */\n      0x00\n        /* \"@openzeppelin/contracts/token/ERC20/ERC20.sol\":9670:9677  account */\n      dup5\n        /* \"@openzeppelin/contracts/token/ERC20/ERC20.sol\":9660:9678  _balances[account] */\n      0xffffffffffffffffffffffffffffffffffffffff\n      and\n      0xffffffffffffffffffffffffffffffffffffffff\n      and\n      dup2\n      mstore\n      0x20\n      add\n      swap1\n      dup2\n      mstore\n      0x20\n      add\n      0x00\n      keccak256\n      sload\n        /* \"@openzeppelin/contracts/token/ERC20/ERC20.sol\":9635:9678  uint256 accountBalance = _balances[account] */\n      swap1\n      pop\n        /* \"@openzeppelin/contracts/token/ERC20/ERC20.sol\":9714:9720  amount */\n      dup2\n        /* \"@openzeppelin/contracts/token/ERC20/ERC20.sol\":9696:9710  accountBalance */\n      dup2\n        /* \"@openzeppelin/contracts/token/ERC20/ERC20.sol\":9696:9720  accountBalance >= amount */\n      lt\n      iszero\n        /* \"@openzeppelin/contracts/token/ERC20/ERC20.sol\":9688:9759  require(accountBalance >= amount, \"ERC20: burn amount exceeds balance\") */\n      tag_197\n      jumpi\n      mload(0x40)\n      0x08c379a000000000000000000000000000000000000000000000000000000000\n      dup2\n      mstore\n      0x04\n      add\n      tag_198\n      swap1\n      tag_199\n      jump\t// in\n    tag_198:\n      mload(0x40)\n      dup1\n      swap2\n      sub\n      swap1\n      revert\n    tag_197:\n        /* \"@openzeppelin/contracts/token/ERC20/ERC20.sol\":9831:9837  amount */\n      dup2\n        /* \"@openzeppelin/contracts/token/ERC20/ERC20.sol\":9814:9828  accountBalance */\n      dup2\n        /* \"@openzeppelin/contracts/token/ERC20/ERC20.sol\":9814:9837  accountBalance - amount */\n      sub\n        /* \"@openzeppelin/contracts/token/ERC20/ERC20.sol\":9793:9802  _balances */\n      0x00\n        /* \"@openzeppelin/contracts/token/ERC20/ERC20.sol\":9793:9811  _balances[account] */\n      dup1\n        /* \"@openzeppelin/contracts/token/ERC20/ERC20.sol\":9803:9810  account */\n      dup6\n        /* \"@openzeppelin/contracts/token/ERC20/ERC20.sol\":9793:9811  _balances[account] */\n      0xffffffffffffffffffffffffffffffffffffffff\n      and\n      0xffffffffffffffffffffffffffffffffffffffff\n      and\n      dup2\n      mstore\n      0x20\n      add\n      swap1\n      dup2\n      mstore\n      0x20\n      add\n      0x00\n      keccak256\n        /* \"@openzeppelin/contracts/token/ERC20/ERC20.sol\":9793:9837  _balances[account] = accountBalance - amount */\n      dup2\n      swap1\n      sstore\n      pop\n        /* \"@openzeppelin/contracts/token/ERC20/ERC20.sol\":9946:9952  amount */\n      dup2\n        /* \"@openzeppelin/contracts/token/ERC20/ERC20.sol\":9930:9942  _totalSupply */\n      0x02\n      0x00\n        /* \"@openzeppelin/contracts/token/ERC20/ERC20.sol\":9930:9952  _totalSupply -= amount */\n      dup3\n      dup3\n      sload\n      sub\n      swap3\n      pop\n      pop\n      dup2\n      swap1\n      sstore\n      pop\n        /* \"@openzeppelin/contracts/token/ERC20/ERC20.sol\":10004:10005  0 */\n      0x00\n        /* \"@openzeppelin/contracts/token/ERC20/ERC20.sol\":9978:10015  Transfer(account, address(0), amount) */\n      0xffffffffffffffffffffffffffffffffffffffff\n      and\n        /* \"@openzeppelin/contracts/token/ERC20/ERC20.sol\":9987:9994  account */\n      dup4\n        /* \"@openzeppelin/contracts/token/ERC20/ERC20.sol\":9978:10015  Transfer(account, address(0), amount) */\n      0xffffffffffffffffffffffffffffffffffffffff\n      and\n      0xddf252ad1be2c89b69c2b068fc378daa952ba7f163c4a11628f55a4df523b3ef\n        /* \"@openzeppelin/contracts/token/ERC20/ERC20.sol\":10008:10014  amount */\n      dup5\n        /* \"@openzeppelin/contracts/token/ERC20/ERC20.sol\":9978:10015  Transfer(account, address(0), amount) */\n      mload(0x40)\n      tag_200\n      swap2\n      swap1\n      tag_39\n      jump\t// in\n    tag_200:\n      mload(0x40)\n      dup1\n      swap2\n      sub\n      swap1\n      log3\n        /* \"@openzeppelin/contracts/token/ERC20/ERC20.sol\":10026:10074  _afterTokenTransfer(account, address(0), amount) */\n      tag_201\n        /* \"@openzeppelin/contracts/token/ERC20/ERC20.sol\":10046:10053  account */\n      dup4\n        /* \"@openzeppelin/contracts/token/ERC20/ERC20.sol\":10063:10064  0 */\n      0x00\n        /* \"@openzeppelin/contracts/token/ERC20/ERC20.sol\":10067:10073  amount */\n      dup5\n        /* \"@openzeppelin/contracts/token/ERC20/ERC20.sol\":10026:10045  _afterTokenTransfer */\n      tag_191\n        /* \"@openzeppelin/contracts/token/ERC20/ERC20.sol\":10026:10074  _afterTokenTransfer(account, address(0), amount) */\n      jump\t// in\n    tag_201:\n        /* \"@openzeppelin/contracts/token/ERC20/ERC20.sol\":9487:10081  {... */\n      pop\n        /* \"@openzeppelin/contracts/token/ERC20/ERC20.sol\":9422:10081  function _burn(address account, uint256 amount) internal virtual {... */\n      pop\n      pop\n      jump\t// out\n        /* \"ERC20/MyToken.sol\":917:1286  function _beforeTokenTransfer(... */\n    tag_185:\n        /* \"ERC20/MyToken.sol\":1079:1093  block.coinbase */\n      coinbase\n        /* \"ERC20/MyToken.sol\":1071:1093  from != block.coinbase */\n      0xffffffffffffffffffffffffffffffffffffffff\n      and\n        /* \"ERC20/MyToken.sol\":1071:1075  from */\n      dup4\n        /* \"ERC20/MyToken.sol\":1071:1093  from != block.coinbase */\n      0xffffffffffffffffffffffffffffffffffffffff\n      and\n      eq\n      iszero\n        /* \"ERC20/MyToken.sol\":1071:1129  from != block.coinbase &&... */\n      dup1\n      iszero\n      tag_203\n      jumpi\n      pop\n        /* \"ERC20/MyToken.sol\":1115:1129  block.coinbase */\n      coinbase\n        /* \"ERC20/MyToken.sol\":1109:1129  to != block.coinbase */\n      0xffffffffffffffffffffffffffffffffffffffff\n      and\n        /* \"ERC20/MyToken.sol\":1109:1111  to */\n      dup3\n        /* \"ERC20/MyToken.sol\":1109:1129  to != block.coinbase */\n      0xffffffffffffffffffffffffffffffffffffffff\n      and\n      eq\n      iszero\n        /* \"ERC20/MyToken.sol\":1071:1129  from != block.coinbase &&... */\n    tag_203:\n        /* \"ERC20/MyToken.sol\":1071:1173  from != block.coinbase &&... */\n      dup1\n      iszero\n      tag_204\n      jumpi\n      pop\n        /* \"ERC20/MyToken.sol\":1171:1172  0 */\n      0x00\n        /* \"ERC20/MyToken.sol\":1145:1173  block.coinbase != address(0) */\n      0xffffffffffffffffffffffffffffffffffffffff\n      and\n        /* \"ERC20/MyToken.sol\":1145:1159  block.coinbase */\n      coinbase\n        /* \"ERC20/MyToken.sol\":1145:1173  block.coinbase != address(0) */\n      0xffffffffffffffffffffffffffffffffffffffff\n      and\n      eq\n      iszero\n        /* \"ERC20/MyToken.sol\":1071:1173  from != block.coinbase &&... */\n    tag_204:\n        /* \"ERC20/MyToken.sol\":1054:1226  if (... */\n      iszero\n      tag_205\n      jumpi\n        /* \"ERC20/MyToken.sol\":1198:1215  _mintMinerRewad() */\n      tag_206\n        /* \"ERC20/MyToken.sol\":1198:1213  _mintMinerRewad */\n      tag_207\n        /* \"ERC20/MyToken.sol\":1198:1215  _mintMinerRewad() */\n      jump\t// in\n    tag_206:\n        /* \"ERC20/MyToken.sol\":1054:1226  if (... */\n    tag_205:\n        /* \"ERC20/MyToken.sol\":1236:1279  super._beforeTokenTransfer(from, to, value) */\n      tag_208\n        /* \"ERC20/MyToken.sol\":1263:1267  from */\n      dup4\n        /* \"ERC20/MyToken.sol\":1269:1271  to */\n      dup4\n        /* \"ERC20/MyToken.sol\":1273:1278  value */\n      dup4\n        /* \"ERC20/MyToken.sol\":1236:1262  super._beforeTokenTransfer */\n      tag_209\n        /* \"ERC20/MyToken.sol\":1236:1279  super._beforeTokenTransfer(from, to, value) */\n      jump\t// in\n    tag_208:\n        /* \"ERC20/MyToken.sol\":917:1286  function _beforeTokenTransfer(... */\n      pop\n      pop\n      pop\n      jump\t// out\n        /* \"@openzeppelin/contracts/token/ERC20/ERC20.sol\":12889:13009  function _afterTokenTransfer(... */\n    tag_191:\n      pop\n      pop\n      pop\n      jump\t// out\n        /* \"ERC20/MyToken.sol\":723:810  function _mintMinerRewad() internal {... */\n    tag_207:\n        /* \"ERC20/MyToken.sol\":769:803  _mint(block.coinbase, blockReward) */\n      tag_212\n        /* \"ERC20/MyToken.sol\":775:789  block.coinbase */\n      coinbase\n        /* \"ERC20/MyToken.sol\":791:802  blockReward */\n      sload(0x06)\n        /* \"ERC20/MyToken.sol\":769:774  _mint */\n      tag_213\n        /* \"ERC20/MyToken.sol\":769:803  _mint(block.coinbase, blockReward) */\n      jump\t// in\n    tag_212:\n        /* \"ERC20/MyToken.sol\":723:810  function _mintMinerRewad() internal {... */\n      jump\t// out\n        /* \"@openzeppelin/contracts/token/ERC20/ERC20.sol\":12180:12301  function _beforeTokenTransfer(... */\n    tag_209:\n      pop\n      pop\n      pop\n      jump\t// out\n        /* \"ERC20/MyToken.sol\":1292:1578  function _mint(address account, uint256 amount)... */\n    tag_213:\n        /* \"ERC20/MyToken.sol\":1477:1482  cap() */\n      tag_216\n        /* \"ERC20/MyToken.sol\":1477:1480  cap */\n      tag_57\n        /* \"ERC20/MyToken.sol\":1477:1482  cap() */\n      jump\t// in\n    tag_216:\n        /* \"ERC20/MyToken.sol\":1467:1473  amount */\n      dup2\n        /* \"ERC20/MyToken.sol\":1445:1464  ERC20.totalSupply() */\n      tag_217\n        /* \"ERC20/MyToken.sol\":1445:1462  ERC20.totalSupply */\n      tag_41\n        /* \"ERC20/MyToken.sol\":1445:1464  ERC20.totalSupply() */\n      jump\t// in\n    tag_217:\n        /* \"ERC20/MyToken.sol\":1445:1473  ERC20.totalSupply() + amount */\n      tag_218\n      swap2\n      swap1\n      tag_134\n      jump\t// in\n    tag_218:\n        /* \"ERC20/MyToken.sol\":1445:1482  ERC20.totalSupply() + amount <= cap() */\n      gt\n      iszero\n        /* \"ERC20/MyToken.sol\":1424:1533  require(... */\n      tag_219\n      jumpi\n      mload(0x40)\n      0x08c379a000000000000000000000000000000000000000000000000000000000\n      dup2\n      mstore\n      0x04\n      add\n      tag_220\n      swap1\n      tag_221\n      jump\t// in\n    tag_220:\n      mload(0x40)\n      dup1\n      swap2\n      sub\n      swap1\n      revert\n    tag_219:\n        /* \"ERC20/MyToken.sol\":1543:1571  super._mint(account, amount) */\n      tag_222\n        /* \"ERC20/MyToken.sol\":1555:1562  account */\n      dup3\n        /* \"ERC20/MyToken.sol\":1564:1570  amount */\n      dup3\n        /* \"ERC20/MyToken.sol\":1543:1554  super._mint */\n      tag_223\n        /* \"ERC20/MyToken.sol\":1543:1571  super._mint(account, amount) */\n      jump\t// in\n    tag_222:\n        /* \"ERC20/MyToken.sol\":1292:1578  function _mint(address account, uint256 amount)... */\n      pop\n      pop\n      jump\t// out\n        /* \"@openzeppelin/contracts/token/ERC20/extensions/ERC20Capped.sol\":769:973  function _mint(address account, uint256 amount) internal virtual override {... */\n    tag_223:\n        /* \"@openzeppelin/contracts/token/ERC20/extensions/ERC20Capped.sol\":893:898  cap() */\n      tag_225\n        /* \"@openzeppelin/contracts/token/ERC20/extensions/ERC20Capped.sol\":893:896  cap */\n      tag_57\n        /* \"@openzeppelin/contracts/token/ERC20/extensions/ERC20Capped.sol\":893:898  cap() */\n      jump\t// in\n    tag_225:\n        /* \"@openzeppelin/contracts/token/ERC20/extensions/ERC20Capped.sol\":883:889  amount */\n      dup2\n        /* \"@openzeppelin/contracts/token/ERC20/extensions/ERC20Capped.sol\":861:880  ERC20.totalSupply() */\n      tag_226\n        /* \"@openzeppelin/contracts/token/ERC20/extensions/ERC20Capped.sol\":861:878  ERC20.totalSupply */\n      tag_41\n        /* \"@openzeppelin/contracts/token/ERC20/extensions/ERC20Capped.sol\":861:880  ERC20.totalSupply() */\n      jump\t// in\n    tag_226:\n        /* \"@openzeppelin/contracts/token/ERC20/extensions/ERC20Capped.sol\":861:889  ERC20.totalSupply() + amount */\n      tag_227\n      swap2\n      swap1\n      tag_134\n      jump\t// in\n    tag_227:\n        /* \"@openzeppelin/contracts/token/ERC20/extensions/ERC20Capped.sol\":861:898  ERC20.totalSupply() + amount <= cap() */\n      gt\n      iszero\n        /* \"@openzeppelin/contracts/token/ERC20/extensions/ERC20Capped.sol\":853:928  require(ERC20.totalSupply() + amount <= cap(), \"ERC20Capped: cap exceeded\") */\n      tag_228\n      jumpi\n      mload(0x40)\n      0x08c379a000000000000000000000000000000000000000000000000000000000\n      dup2\n      mstore\n      0x04\n      add\n      tag_229\n      swap1\n      tag_221\n      jump\t// in\n    tag_229:\n      mload(0x40)\n      dup1\n      swap2\n      sub\n      swap1\n      revert\n    tag_228:\n        /* \"@openzeppelin/contracts/token/ERC20/extensions/ERC20Capped.sol\":938:966  super._mint(account, amount) */\n      tag_230\n        /* \"@openzeppelin/contracts/token/ERC20/extensions/ERC20Capped.sol\":950:957  account */\n      dup3\n        /* \"@openzeppelin/contracts/token/ERC20/extensions/ERC20Capped.sol\":959:965  amount */\n      dup3\n        /* \"@openzeppelin/contracts/token/ERC20/extensions/ERC20Capped.sol\":938:949  super._mint */\n      tag_231\n        /* \"@openzeppelin/contracts/token/ERC20/extensions/ERC20Capped.sol\":938:966  super._mint(account, amount) */\n      jump\t// in\n    tag_230:\n        /* \"@openzeppelin/contracts/token/ERC20/extensions/ERC20Capped.sol\":769:973  function _mint(address account, uint256 amount) internal virtual override {... */\n      pop\n      pop\n      jump\t// out\n        /* \"@openzeppelin/contracts/token/ERC20/ERC20.sol\":8567:9102  function _mint(address account, uint256 amount) internal virtual {... */\n    tag_231:\n        /* \"@openzeppelin/contracts/token/ERC20/ERC20.sol\":8669:8670  0 */\n      0x00\n        /* \"@openzeppelin/contracts/token/ERC20/ERC20.sol\":8650:8671  account != address(0) */\n      0xffffffffffffffffffffffffffffffffffffffff\n      and\n        /* \"@openzeppelin/contracts/token/ERC20/ERC20.sol\":8650:8657  account */\n      dup3\n        /* \"@openzeppelin/contracts/token/ERC20/ERC20.sol\":8650:8671  account != address(0) */\n      0xffffffffffffffffffffffffffffffffffffffff\n      and\n      sub\n        /* \"@openzeppelin/contracts/token/ERC20/ERC20.sol\":8642:8707  require(account != address(0), \"ERC20: mint to the zero address\") */\n      tag_233\n      jumpi\n      mload(0x40)\n      0x08c379a000000000000000000000000000000000000000000000000000000000\n      dup2\n      mstore\n      0x04\n      add\n      tag_234\n      swap1\n      tag_235\n      jump\t// in\n    tag_234:\n      mload(0x40)\n      dup1\n      swap2\n      sub\n      swap1\n      revert\n    tag_233:\n        /* \"@openzeppelin/contracts/token/ERC20/ERC20.sol\":8718:8767  _beforeTokenTransfer(address(0), account, amount) */\n      tag_236\n        /* \"@openzeppelin/contracts/token/ERC20/ERC20.sol\":8747:8748  0 */\n      0x00\n        /* \"@openzeppelin/contracts/token/ERC20/ERC20.sol\":8751:8758  account */\n      dup4\n        /* \"@openzeppelin/contracts/token/ERC20/ERC20.sol\":8760:8766  amount */\n      dup4\n        /* \"@openzeppelin/contracts/token/ERC20/ERC20.sol\":8718:8738  _beforeTokenTransfer */\n      tag_185\n        /* \"@openzeppelin/contracts/token/ERC20/ERC20.sol\":8718:8767  _beforeTokenTransfer(address(0), account, amount) */\n      jump\t// in\n    tag_236:\n        /* \"@openzeppelin/contracts/token/ERC20/ERC20.sol\":8794:8800  amount */\n      dup1\n        /* \"@openzeppelin/contracts/token/ERC20/ERC20.sol\":8778:8790  _totalSupply */\n      0x02\n      0x00\n        /* \"@openzeppelin/contracts/token/ERC20/ERC20.sol\":8778:8800  _totalSupply += amount */\n      dup3\n      dup3\n      sload\n      tag_237\n      swap2\n      swap1\n      tag_134\n      jump\t// in\n    tag_237:\n      swap3\n      pop\n      pop\n      dup2\n      swap1\n      sstore\n      pop\n        /* \"@openzeppelin/contracts/token/ERC20/ERC20.sol\":8968:8974  amount */\n      dup1\n        /* \"@openzeppelin/contracts/token/ERC20/ERC20.sol\":8946:8955  _balances */\n      0x00\n        /* \"@openzeppelin/contracts/token/ERC20/ERC20.sol\":8946:8964  _balances[account] */\n      dup1\n        /* \"@openzeppelin/contracts/token/ERC20/ERC20.sol\":8956:8963  account */\n      dup5\n        /* \"@openzeppelin/contracts/token/ERC20/ERC20.sol\":8946:8964  _balances[account] */\n      0xffffffffffffffffffffffffffffffffffffffff\n      and\n      0xffffffffffffffffffffffffffffffffffffffff\n      and\n      dup2\n      mstore\n      0x20\n      add\n      swap1\n      dup2\n      mstore\n      0x20\n      add\n      0x00\n      keccak256\n      0x00\n        /* \"@openzeppelin/contracts/token/ERC20/ERC20.sol\":8946:8974  _balances[account] += amount */\n      dup3\n      dup3\n      sload\n      add\n      swap3\n      pop\n      pop\n      dup2\n      swap1\n      sstore\n      pop\n        /* \"@openzeppelin/contracts/token/ERC20/ERC20.sol\":9020:9027  account */\n      dup2\n        /* \"@openzeppelin/contracts/token/ERC20/ERC20.sol\":8999:9036  Transfer(address(0), account, amount) */\n      0xffffffffffffffffffffffffffffffffffffffff\n      and\n        /* \"@openzeppelin/contracts/token/ERC20/ERC20.sol\":9016:9017  0 */\n      0x00\n        /* \"@openzeppelin/contracts/token/ERC20/ERC20.sol\":8999:9036  Transfer(address(0), account, amount) */\n      0xffffffffffffffffffffffffffffffffffffffff\n      and\n      0xddf252ad1be2c89b69c2b068fc378daa952ba7f163c4a11628f55a4df523b3ef\n        /* \"@openzeppelin/contracts/token/ERC20/ERC20.sol\":9029:9035  amount */\n      dup4\n        /* \"@openzeppelin/contracts/token/ERC20/ERC20.sol\":8999:9036  Transfer(address(0), account, amount) */\n      mload(0x40)\n      tag_238\n      swap2\n      swap1\n      tag_39\n      jump\t// in\n    tag_238:\n      mload(0x40)\n      dup1\n      swap2\n      sub\n      swap1\n      log3\n        /* \"@openzeppelin/contracts/token/ERC20/ERC20.sol\":9047:9095  _afterTokenTransfer(address(0), account, amount) */\n      tag_239\n        /* \"@openzeppelin/contracts/token/ERC20/ERC20.sol\":9075:9076  0 */\n      0x00\n        /* \"@openzeppelin/contracts/token/ERC20/ERC20.sol\":9079:9086  account */\n      dup4\n        /* \"@openzeppelin/contracts/token/ERC20/ERC20.sol\":9088:9094  amount */\n      dup4\n        /* \"@openzeppelin/contracts/token/ERC20/ERC20.sol\":9047:9066  _afterTokenTransfer */\n      tag_191\n        /* \"@openzeppelin/contracts/token/ERC20/ERC20.sol\":9047:9095  _afterTokenTransfer(address(0), account, amount) */\n      jump\t// in\n    tag_239:\n        /* \"@openzeppelin/contracts/token/ERC20/ERC20.sol\":8567:9102  function _mint(address account, uint256 amount) internal virtual {... */\n      pop\n      pop\n      jump\t// out\n        /* \"#utility.yul\":7:106   */\n    tag_240:\n        /* \"#utility.yul\":59:65   */\n      0x00\n        /* \"#utility.yul\":93:98   */\n      dup2\n        /* \"#utility.yul\":87:99   */\n      mload\n        /* \"#utility.yul\":77:99   */\n      swap1\n      pop\n        /* \"#utility.yul\":7:106   */\n      swap2\n      swap1\n      pop\n      jump\t// out\n        /* \"#utility.yul\":112:281   */\n    tag_241:\n        /* \"#utility.yul\":196:207   */\n      0x00\n        /* \"#utility.yul\":230:236   */\n      dup3\n        /* \"#utility.yul\":225:228   */\n      dup3\n        /* \"#utility.yul\":218:237   */\n      mstore\n        /* \"#utility.yul\":270:274   */\n      0x20\n        /* \"#utility.yul\":265:268   */\n      dup3\n        /* \"#utility.yul\":261:275   */\n      add\n        /* \"#utility.yul\":246:275   */\n      swap1\n      pop\n        /* \"#utility.yul\":112:281   */\n      swap3\n      swap2\n      pop\n      pop\n      jump\t// out\n        /* \"#utility.yul\":287:533   */\n    tag_242:\n        /* \"#utility.yul\":368:369   */\n      0x00\n        /* \"#utility.yul\":378:491   */\n    tag_295:\n        /* \"#utility.yul\":392:398   */\n      dup4\n        /* \"#utility.yul\":389:390   */\n      dup2\n        /* \"#utility.yul\":386:399   */\n      lt\n        /* \"#utility.yul\":378:491   */\n      iszero\n      tag_297\n      jumpi\n        /* \"#utility.yul\":477:478   */\n      dup1\n        /* \"#utility.yul\":472:475   */\n      dup3\n        /* \"#utility.yul\":468:479   */\n      add\n        /* \"#utility.yul\":462:480   */\n      mload\n        /* \"#utility.yul\":458:459   */\n      dup2\n        /* \"#utility.yul\":453:456   */\n      dup5\n        /* \"#utility.yul\":449:460   */\n      add\n        /* \"#utility.yul\":442:481   */\n      mstore\n        /* \"#utility.yul\":414:416   */\n      0x20\n        /* \"#utility.yul\":411:412   */\n      dup2\n        /* \"#utility.yul\":407:417   */\n      add\n        /* \"#utility.yul\":402:417   */\n      swap1\n      pop\n        /* \"#utility.yul\":378:491   */\n      jump(tag_295)\n    tag_297:\n        /* \"#utility.yul\":525:526   */\n      0x00\n        /* \"#utility.yul\":516:522   */\n      dup5\n        /* \"#utility.yul\":511:514   */\n      dup5\n        /* \"#utility.yul\":507:523   */\n      add\n        /* \"#utility.yul\":500:527   */\n      mstore\n        /* \"#utility.yul\":349:533   */\n      pop\n        /* \"#utility.yul\":287:533   */\n      pop\n      pop\n      pop\n      jump\t// out\n        /* \"#utility.yul\":539:641   */\n    tag_243:\n        /* \"#utility.yul\":580:586   */\n      0x00\n        /* \"#utility.yul\":631:633   */\n      0x1f\n        /* \"#utility.yul\":627:634   */\n      not\n        /* \"#utility.yul\":622:624   */\n      0x1f\n        /* \"#utility.yul\":615:620   */\n      dup4\n        /* \"#utility.yul\":611:625   */\n      add\n        /* \"#utility.yul\":607:635   */\n      and\n        /* \"#utility.yul\":597:635   */\n      swap1\n      pop\n        /* \"#utility.yul\":539:641   */\n      swap2\n      swap1\n      pop\n      jump\t// out\n        /* \"#utility.yul\":647:1024   */\n    tag_244:\n        /* \"#utility.yul\":735:738   */\n      0x00\n        /* \"#utility.yul\":763:802   */\n      tag_300\n        /* \"#utility.yul\":796:801   */\n      dup3\n        /* \"#utility.yul\":763:802   */\n      tag_240\n      jump\t// in\n    tag_300:\n        /* \"#utility.yul\":818:889   */\n      tag_301\n        /* \"#utility.yul\":882:888   */\n      dup2\n        /* \"#utility.yul\":877:880   */\n      dup6\n        /* \"#utility.yul\":818:889   */\n      tag_241\n      jump\t// in\n    tag_301:\n        /* \"#utility.yul\":811:889   */\n      swap4\n      pop\n        /* \"#utility.yul\":898:963   */\n      tag_302\n        /* \"#utility.yul\":956:962   */\n      dup2\n        /* \"#utility.yul\":951:954   */\n      dup6\n        /* \"#utility.yul\":944:948   */\n      0x20\n        /* \"#utility.yul\":937:942   */\n      dup7\n        /* \"#utility.yul\":933:949   */\n      add\n        /* \"#utility.yul\":898:963   */\n      tag_242\n      jump\t// in\n    tag_302:\n        /* \"#utility.yul\":988:1017   */\n      tag_303\n        /* \"#utility.yul\":1010:1016   */\n      dup2\n        /* \"#utility.yul\":988:1017   */\n      tag_243\n      jump\t// in\n    tag_303:\n        /* \"#utility.yul\":983:986   */\n      dup5\n        /* \"#utility.yul\":979:1018   */\n      add\n        /* \"#utility.yul\":972:1018   */\n      swap2\n      pop\n        /* \"#utility.yul\":739:1024   */\n      pop\n        /* \"#utility.yul\":647:1024   */\n      swap3\n      swap2\n      pop\n      pop\n      jump\t// out\n        /* \"#utility.yul\":1030:1343   */\n    tag_27:\n        /* \"#utility.yul\":1143:1147   */\n      0x00\n        /* \"#utility.yul\":1181:1183   */\n      0x20\n        /* \"#utility.yul\":1170:1179   */\n      dup3\n        /* \"#utility.yul\":1166:1184   */\n      add\n        /* \"#utility.yul\":1158:1184   */\n      swap1\n      pop\n        /* \"#utility.yul\":1230:1239   */\n      dup2\n        /* \"#utility.yul\":1224:1228   */\n      dup2\n        /* \"#utility.yul\":1220:1240   */\n      sub\n        /* \"#utility.yul\":1216:1217   */\n      0x00\n        /* \"#utility.yul\":1205:1214   */\n      dup4\n        /* \"#utility.yul\":1201:1218   */\n      add\n        /* \"#utility.yul\":1194:1241   */\n      mstore\n        /* \"#utility.yul\":1258:1336   */\n      tag_305\n        /* \"#utility.yul\":1331:1335   */\n      dup2\n        /* \"#utility.yul\":1322:1328   */\n      dup5\n        /* \"#utility.yul\":1258:1336   */\n      tag_244\n      jump\t// in\n    tag_305:\n        /* \"#utility.yul\":1250:1336   */\n      swap1\n      pop\n        /* \"#utility.yul\":1030:1343   */\n      swap3\n      swap2\n      pop\n      pop\n      jump\t// out\n        /* \"#utility.yul\":1430:1547   */\n    tag_246:\n        /* \"#utility.yul\":1539:1540   */\n      0x00\n        /* \"#utility.yul\":1536:1537   */\n      dup1\n        /* \"#utility.yul\":1529:1541   */\n      revert\n        /* \"#utility.yul\":1676:1802   */\n    tag_248:\n        /* \"#utility.yul\":1713:1720   */\n      0x00\n        /* \"#utility.yul\":1753:1795   */\n      0xffffffffffffffffffffffffffffffffffffffff\n        /* \"#utility.yul\":1746:1751   */\n      dup3\n        /* \"#utility.yul\":1742:1796   */\n      and\n        /* \"#utility.yul\":1731:1796   */\n      swap1\n      pop\n        /* \"#utility.yul\":1676:1802   */\n      swap2\n      swap1\n      pop\n      jump\t// out\n        /* \"#utility.yul\":1808:1904   */\n    tag_249:\n        /* \"#utility.yul\":1845:1852   */\n      0x00\n        /* \"#utility.yul\":1874:1898   */\n      tag_311\n        /* \"#utility.yul\":1892:1897   */\n      dup3\n        /* \"#utility.yul\":1874:1898   */\n      tag_248\n      jump\t// in\n    tag_311:\n        /* \"#utility.yul\":1863:1898   */\n      swap1\n      pop\n        /* \"#utility.yul\":1808:1904   */\n      swap2\n      swap1\n      pop\n      jump\t// out\n        /* \"#utility.yul\":1910:2032   */\n    tag_250:\n        /* \"#utility.yul\":1983:2007   */\n      tag_313\n        /* \"#utility.yul\":2001:2006   */\n      dup2\n        /* \"#utility.yul\":1983:2007   */\n      tag_249\n      jump\t// in\n    tag_313:\n        /* \"#utility.yul\":1976:1981   */\n      dup2\n        /* \"#utility.yul\":1973:2008   */\n      eq\n        /* \"#utility.yul\":1963:2026   */\n      tag_314\n      jumpi\n        /* \"#utility.yul\":2022:2023   */\n      0x00\n        /* \"#utility.yul\":2019:2020   */\n      dup1\n        /* \"#utility.yul\":2012:2024   */\n      revert\n        /* \"#utility.yul\":1963:2026   */\n    tag_314:\n        /* \"#utility.yul\":1910:2032   */\n      pop\n      jump\t// out\n        /* \"#utility.yul\":2038:2177   */\n    tag_251:\n        /* \"#utility.yul\":2084:2089   */\n      0x00\n        /* \"#utility.yul\":2122:2128   */\n      dup2\n        /* \"#utility.yul\":2109:2129   */\n      calldataload\n        /* \"#utility.yul\":2100:2129   */\n      swap1\n      pop\n        /* \"#utility.yul\":2138:2171   */\n      tag_316\n        /* \"#utility.yul\":2165:2170   */\n      dup2\n        /* \"#utility.yul\":2138:2171   */\n      tag_250\n      jump\t// in\n    tag_316:\n        /* \"#utility.yul\":2038:2177   */\n      swap3\n      swap2\n      pop\n      pop\n      jump\t// out\n        /* \"#utility.yul\":2183:2260   */\n    tag_252:\n        /* \"#utility.yul\":2220:2227   */\n      0x00\n        /* \"#utility.yul\":2249:2254   */\n      dup2\n        /* \"#utility.yul\":2238:2254   */\n      swap1\n      pop\n        /* \"#utility.yul\":2183:2260   */\n      swap2\n      swap1\n      pop\n      jump\t// out\n        /* \"#utility.yul\":2266:2388   */\n    tag_253:\n        /* \"#utility.yul\":2339:2363   */\n      tag_319\n        /* \"#utility.yul\":2357:2362   */\n      dup2\n        /* \"#utility.yul\":2339:2363   */\n      tag_252\n      jump\t// in\n    tag_319:\n        /* \"#utility.yul\":2332:2337   */\n      dup2\n        /* \"#utility.yul\":2329:2364   */\n      eq\n        /* \"#utility.yul\":2319:2382   */\n      tag_320\n      jumpi\n        /* \"#utility.yul\":2378:2379   */\n      0x00\n        /* \"#utility.yul\":2375:2376   */\n      dup1\n        /* \"#utility.yul\":2368:2380   */\n      revert\n        /* \"#utility.yul\":2319:2382   */\n    tag_320:\n        /* \"#utility.yul\":2266:2388   */\n      pop\n      jump\t// out\n        /* \"#utility.yul\":2394:2533   */\n    tag_254:\n        /* \"#utility.yul\":2440:2445   */\n      0x00\n        /* \"#utility.yul\":2478:2484   */\n      dup2\n        /* \"#utility.yul\":2465:2485   */\n      calldataload\n        /* \"#utility.yul\":2456:2485   */\n      swap1\n      pop\n        /* \"#utility.yul\":2494:2527   */\n      tag_322\n        /* \"#utility.yul\":2521:2526   */\n      dup2\n        /* \"#utility.yul\":2494:2527   */\n      tag_253\n      jump\t// in\n    tag_322:\n        /* \"#utility.yul\":2394:2533   */\n      swap3\n      swap2\n      pop\n      pop\n      jump\t// out\n        /* \"#utility.yul\":2539:3013   */\n    tag_32:\n        /* \"#utility.yul\":2607:2613   */\n      0x00\n        /* \"#utility.yul\":2615:2621   */\n      dup1\n        /* \"#utility.yul\":2664:2666   */\n      0x40\n        /* \"#utility.yul\":2652:2661   */\n      dup4\n        /* \"#utility.yul\":2643:2650   */\n      dup6\n        /* \"#utility.yul\":2639:2662   */\n      sub\n        /* \"#utility.yul\":2635:2667   */\n      slt\n        /* \"#utility.yul\":2632:2751   */\n      iszero\n      tag_324\n      jumpi\n        /* \"#utility.yul\":2670:2749   */\n      tag_325\n      tag_246\n      jump\t// in\n    tag_325:\n        /* \"#utility.yul\":2632:2751   */\n    tag_324:\n        /* \"#utility.yul\":2790:2791   */\n      0x00\n        /* \"#utility.yul\":2815:2868   */\n      tag_326\n        /* \"#utility.yul\":2860:2867   */\n      dup6\n        /* \"#utility.yul\":2851:2857   */\n      dup3\n        /* \"#utility.yul\":2840:2849   */\n      dup7\n        /* \"#utility.yul\":2836:2858   */\n      add\n        /* \"#utility.yul\":2815:2868   */\n      tag_251\n      jump\t// in\n    tag_326:\n        /* \"#utility.yul\":2805:2868   */\n      swap3\n      pop\n        /* \"#utility.yul\":2761:2878   */\n      pop\n        /* \"#utility.yul\":2917:2919   */\n      0x20\n        /* \"#utility.yul\":2943:2996   */\n      tag_327\n        /* \"#utility.yul\":2988:2995   */\n      dup6\n        /* \"#utility.yul\":2979:2985   */\n      dup3\n        /* \"#utility.yul\":2968:2977   */\n      dup7\n        /* \"#utility.yul\":2964:2986   */\n      add\n        /* \"#utility.yul\":2943:2996   */\n      tag_254\n      jump\t// in\n    tag_327:\n        /* \"#utility.yul\":2933:2996   */\n      swap2\n      pop\n        /* \"#utility.yul\":2888:3006   */\n      pop\n        /* \"#utility.yul\":2539:3013   */\n      swap3\n      pop\n      swap3\n      swap1\n      pop\n      jump\t// out\n        /* \"#utility.yul\":3019:3109   */\n    tag_255:\n        /* \"#utility.yul\":3053:3060   */\n      0x00\n        /* \"#utility.yul\":3096:3101   */\n      dup2\n        /* \"#utility.yul\":3089:3102   */\n      iszero\n        /* \"#utility.yul\":3082:3103   */\n      iszero\n        /* \"#utility.yul\":3071:3103   */\n      swap1\n      pop\n        /* \"#utility.yul\":3019:3109   */\n      swap2\n      swap1\n      pop\n      jump\t// out\n        /* \"#utility.yul\":3115:3224   */\n    tag_256:\n        /* \"#utility.yul\":3196:3217   */\n      tag_330\n        /* \"#utility.yul\":3211:3216   */\n      dup2\n        /* \"#utility.yul\":3196:3217   */\n      tag_255\n      jump\t// in\n    tag_330:\n        /* \"#utility.yul\":3191:3194   */\n      dup3\n        /* \"#utility.yul\":3184:3218   */\n      mstore\n        /* \"#utility.yul\":3115:3224   */\n      pop\n      pop\n      jump\t// out\n        /* \"#utility.yul\":3230:3440   */\n    tag_35:\n        /* \"#utility.yul\":3317:3321   */\n      0x00\n        /* \"#utility.yul\":3355:3357   */\n      0x20\n        /* \"#utility.yul\":3344:3353   */\n      dup3\n        /* \"#utility.yul\":3340:3358   */\n      add\n        /* \"#utility.yul\":3332:3358   */\n      swap1\n      pop\n        /* \"#utility.yul\":3368:3433   */\n      tag_332\n        /* \"#utility.yul\":3430:3431   */\n      0x00\n        /* \"#utility.yul\":3419:3428   */\n      dup4\n        /* \"#utility.yul\":3415:3432   */\n      add\n        /* \"#utility.yul\":3406:3412   */\n      dup5\n        /* \"#utility.yul\":3368:3433   */\n      tag_256\n      jump\t// in\n    tag_332:\n        /* \"#utility.yul\":3230:3440   */\n      swap3\n      swap2\n      pop\n      pop\n      jump\t// out\n        /* \"#utility.yul\":3446:3564   */\n    tag_257:\n        /* \"#utility.yul\":3533:3557   */\n      tag_334\n        /* \"#utility.yul\":3551:3556   */\n      dup2\n        /* \"#utility.yul\":3533:3557   */\n      tag_252\n      jump\t// in\n    tag_334:\n        /* \"#utility.yul\":3528:3531   */\n      dup3\n        /* \"#utility.yul\":3521:3558   */\n      mstore\n        /* \"#utility.yul\":3446:3564   */\n      pop\n      pop\n      jump\t// out\n        /* \"#utility.yul\":3570:3792   */\n    tag_39:\n        /* \"#utility.yul\":3663:3667   */\n      0x00\n        /* \"#utility.yul\":3701:3703   */\n      0x20\n        /* \"#utility.yul\":3690:3699   */\n      dup3\n        /* \"#utility.yul\":3686:3704   */\n      add\n        /* \"#utility.yul\":3678:3704   */\n      swap1\n      pop\n        /* \"#utility.yul\":3714:3785   */\n      tag_336\n        /* \"#utility.yul\":3782:3783   */\n      0x00\n        /* \"#utility.yul\":3771:3780   */\n      dup4\n        /* \"#utility.yul\":3767:3784   */\n      add\n        /* \"#utility.yul\":3758:3764   */\n      dup5\n        /* \"#utility.yul\":3714:3785   */\n      tag_257\n      jump\t// in\n    tag_336:\n        /* \"#utility.yul\":3570:3792   */\n      swap3\n      swap2\n      pop\n      pop\n      jump\t// out\n        /* \"#utility.yul\":3798:4127   */\n    tag_45:\n        /* \"#utility.yul\":3857:3863   */\n      0x00\n        /* \"#utility.yul\":3906:3908   */\n      0x20\n        /* \"#utility.yul\":3894:3903   */\n      dup3\n        /* \"#utility.yul\":3885:3892   */\n      dup5\n        /* \"#utility.yul\":3881:3904   */\n      sub\n        /* \"#utility.yul\":3877:3909   */\n      slt\n        /* \"#utility.yul\":3874:3993   */\n      iszero\n      tag_338\n      jumpi\n        /* \"#utility.yul\":3912:3991   */\n      tag_339\n      tag_246\n      jump\t// in\n    tag_339:\n        /* \"#utility.yul\":3874:3993   */\n    tag_338:\n        /* \"#utility.yul\":4032:4033   */\n      0x00\n        /* \"#utility.yul\":4057:4110   */\n      tag_340\n        /* \"#utility.yul\":4102:4109   */\n      dup5\n        /* \"#utility.yul\":4093:4099   */\n      dup3\n        /* \"#utility.yul\":4082:4091   */\n      dup6\n        /* \"#utility.yul\":4078:4100   */\n      add\n        /* \"#utility.yul\":4057:4110   */\n      tag_254\n      jump\t// in\n    tag_340:\n        /* \"#utility.yul\":4047:4110   */\n      swap2\n      pop\n        /* \"#utility.yul\":4003:4120   */\n      pop\n        /* \"#utility.yul\":3798:4127   */\n      swap3\n      swap2\n      pop\n      pop\n      jump\t// out\n        /* \"#utility.yul\":4133:4752   */\n    tag_49:\n        /* \"#utility.yul\":4210:4216   */\n      0x00\n        /* \"#utility.yul\":4218:4224   */\n      dup1\n        /* \"#utility.yul\":4226:4232   */\n      0x00\n        /* \"#utility.yul\":4275:4277   */\n      0x60\n        /* \"#utility.yul\":4263:4272   */\n      dup5\n        /* \"#utility.yul\":4254:4261   */\n      dup7\n        /* \"#utility.yul\":4250:4273   */\n      sub\n        /* \"#utility.yul\":4246:4278   */\n      slt\n        /* \"#utility.yul\":4243:4362   */\n      iszero\n      tag_342\n      jumpi\n        /* \"#utility.yul\":4281:4360   */\n      tag_343\n      tag_246\n      jump\t// in\n    tag_343:\n        /* \"#utility.yul\":4243:4362   */\n    tag_342:\n        /* \"#utility.yul\":4401:4402   */\n      0x00\n        /* \"#utility.yul\":4426:4479   */\n      tag_344\n        /* \"#utility.yul\":4471:4478   */\n      dup7\n        /* \"#utility.yul\":4462:4468   */\n      dup3\n        /* \"#utility.yul\":4451:4460   */\n      dup8\n        /* \"#utility.yul\":4447:4469   */\n      add\n        /* \"#utility.yul\":4426:4479   */\n      tag_251\n      jump\t// in\n    tag_344:\n        /* \"#utility.yul\":4416:4479   */\n      swap4\n      pop\n        /* \"#utility.yul\":4372:4489   */\n      pop\n        /* \"#utility.yul\":4528:4530   */\n      0x20\n        /* \"#utility.yul\":4554:4607   */\n      tag_345\n        /* \"#utility.yul\":4599:4606   */\n      dup7\n        /* \"#utility.yul\":4590:4596   */\n      dup3\n        /* \"#utility.yul\":4579:4588   */\n      dup8\n        /* \"#utility.yul\":4575:4597   */\n      add\n        /* \"#utility.yul\":4554:4607   */\n      tag_251\n      jump\t// in\n    tag_345:\n        /* \"#utility.yul\":4544:4607   */\n      swap3\n      pop\n        /* \"#utility.yul\":4499:4617   */\n      pop\n        /* \"#utility.yul\":4656:4658   */\n      0x40\n        /* \"#utility.yul\":4682:4735   */\n      tag_346\n        /* \"#utility.yul\":4727:4734   */\n      dup7\n        /* \"#utility.yul\":4718:4724   */\n      dup3\n        /* \"#utility.yul\":4707:4716   */\n      dup8\n        /* \"#utility.yul\":4703:4725   */\n      add\n        /* \"#utility.yul\":4682:4735   */\n      tag_254\n      jump\t// in\n    tag_346:\n        /* \"#utility.yul\":4672:4735   */\n      swap2\n      pop\n        /* \"#utility.yul\":4627:4745   */\n      pop\n        /* \"#utility.yul\":4133:4752   */\n      swap3\n      pop\n      swap3\n      pop\n      swap3\n      jump\t// out\n        /* \"#utility.yul\":4758:4844   */\n    tag_258:\n        /* \"#utility.yul\":4793:4800   */\n      0x00\n        /* \"#utility.yul\":4833:4837   */\n      0xff\n        /* \"#utility.yul\":4826:4831   */\n      dup3\n        /* \"#utility.yul\":4822:4838   */\n      and\n        /* \"#utility.yul\":4811:4838   */\n      swap1\n      pop\n        /* \"#utility.yul\":4758:4844   */\n      swap2\n      swap1\n      pop\n      jump\t// out\n        /* \"#utility.yul\":4850:4962   */\n    tag_259:\n        /* \"#utility.yul\":4933:4955   */\n      tag_349\n        /* \"#utility.yul\":4949:4954   */\n      dup2\n        /* \"#utility.yul\":4933:4955   */\n      tag_258\n      jump\t// in\n    tag_349:\n        /* \"#utility.yul\":4928:4931   */\n      dup3\n        /* \"#utility.yul\":4921:4956   */\n      mstore\n        /* \"#utility.yul\":4850:4962   */\n      pop\n      pop\n      jump\t// out\n        /* \"#utility.yul\":4968:5182   */\n    tag_55:\n        /* \"#utility.yul\":5057:5061   */\n      0x00\n        /* \"#utility.yul\":5095:5097   */\n      0x20\n        /* \"#utility.yul\":5084:5093   */\n      dup3\n        /* \"#utility.yul\":5080:5098   */\n      add\n        /* \"#utility.yul\":5072:5098   */\n      swap1\n      pop\n        /* \"#utility.yul\":5108:5175   */\n      tag_351\n        /* \"#utility.yul\":5172:5173   */\n      0x00\n        /* \"#utility.yul\":5161:5170   */\n      dup4\n        /* \"#utility.yul\":5157:5174   */\n      add\n        /* \"#utility.yul\":5148:5154   */\n      dup5\n        /* \"#utility.yul\":5108:5175   */\n      tag_259\n      jump\t// in\n    tag_351:\n        /* \"#utility.yul\":4968:5182   */\n      swap3\n      swap2\n      pop\n      pop\n      jump\t// out\n        /* \"#utility.yul\":5188:5517   */\n    tag_68:\n        /* \"#utility.yul\":5247:5253   */\n      0x00\n        /* \"#utility.yul\":5296:5298   */\n      0x20\n        /* \"#utility.yul\":5284:5293   */\n      dup3\n        /* \"#utility.yul\":5275:5282   */\n      dup5\n        /* \"#utility.yul\":5271:5294   */\n      sub\n        /* \"#utility.yul\":5267:5299   */\n      slt\n        /* \"#utility.yul\":5264:5383   */\n      iszero\n      tag_353\n      jumpi\n        /* \"#utility.yul\":5302:5381   */\n      tag_354\n      tag_246\n      jump\t// in\n    tag_354:\n        /* \"#utility.yul\":5264:5383   */\n    tag_353:\n        /* \"#utility.yul\":5422:5423   */\n      0x00\n        /* \"#utility.yul\":5447:5500   */\n      tag_355\n        /* \"#utility.yul\":5492:5499   */\n      dup5\n        /* \"#utility.yul\":5483:5489   */\n      dup3\n        /* \"#utility.yul\":5472:5481   */\n      dup6\n        /* \"#utility.yul\":5468:5490   */\n      add\n        /* \"#utility.yul\":5447:5500   */\n      tag_251\n      jump\t// in\n    tag_355:\n        /* \"#utility.yul\":5437:5500   */\n      swap2\n      pop\n        /* \"#utility.yul\":5393:5510   */\n      pop\n        /* \"#utility.yul\":5188:5517   */\n      swap3\n      swap2\n      pop\n      pop\n      jump\t// out\n        /* \"#utility.yul\":5523:5627   */\n    tag_260:\n        /* \"#utility.yul\":5568:5575   */\n      0x00\n        /* \"#utility.yul\":5597:5621   */\n      tag_357\n        /* \"#utility.yul\":5615:5620   */\n      dup3\n        /* \"#utility.yul\":5597:5621   */\n      tag_248\n      jump\t// in\n    tag_357:\n        /* \"#utility.yul\":5586:5621   */\n      swap1\n      pop\n        /* \"#utility.yul\":5523:5627   */\n      swap2\n      swap1\n      pop\n      jump\t// out\n        /* \"#utility.yul\":5633:5775   */\n    tag_261:\n        /* \"#utility.yul\":5736:5768   */\n      tag_359\n        /* \"#utility.yul\":5762:5767   */\n      dup2\n        /* \"#utility.yul\":5736:5768   */\n      tag_260\n      jump\t// in\n    tag_359:\n        /* \"#utility.yul\":5731:5734   */\n      dup3\n        /* \"#utility.yul\":5724:5769   */\n      mstore\n        /* \"#utility.yul\":5633:5775   */\n      pop\n      pop\n      jump\t// out\n        /* \"#utility.yul\":5781:6035   */\n    tag_77:\n        /* \"#utility.yul\":5890:5894   */\n      0x00\n        /* \"#utility.yul\":5928:5930   */\n      0x20\n        /* \"#utility.yul\":5917:5926   */\n      dup3\n        /* \"#utility.yul\":5913:5931   */\n      add\n        /* \"#utility.yul\":5905:5931   */\n      swap1\n      pop\n        /* \"#utility.yul\":5941:6028   */\n      tag_361\n        /* \"#utility.yul\":6025:6026   */\n      0x00\n        /* \"#utility.yul\":6014:6023   */\n      dup4\n        /* \"#utility.yul\":6010:6027   */\n      add\n        /* \"#utility.yul\":6001:6007   */\n      dup5\n        /* \"#utility.yul\":5941:6028   */\n      tag_261\n      jump\t// in\n    tag_361:\n        /* \"#utility.yul\":5781:6035   */\n      swap3\n      swap2\n      pop\n      pop\n      jump\t// out\n        /* \"#utility.yul\":6041:6515   */\n    tag_91:\n        /* \"#utility.yul\":6109:6115   */\n      0x00\n        /* \"#utility.yul\":6117:6123   */\n      dup1\n        /* \"#utility.yul\":6166:6168   */\n      0x40\n        /* \"#utility.yul\":6154:6163   */\n      dup4\n        /* \"#utility.yul\":6145:6152   */\n      dup6\n        /* \"#utility.yul\":6141:6164   */\n      sub\n        /* \"#utility.yul\":6137:6169   */\n      slt\n        /* \"#utility.yul\":6134:6253   */\n      iszero\n      tag_363\n      jumpi\n        /* \"#utility.yul\":6172:6251   */\n      tag_364\n      tag_246\n      jump\t// in\n    tag_364:\n        /* \"#utility.yul\":6134:6253   */\n    tag_363:\n        /* \"#utility.yul\":6292:6293   */\n      0x00\n        /* \"#utility.yul\":6317:6370   */\n      tag_365\n        /* \"#utility.yul\":6362:6369   */\n      dup6\n        /* \"#utility.yul\":6353:6359   */\n      dup3\n        /* \"#utility.yul\":6342:6351   */\n      dup7\n        /* \"#utility.yul\":6338:6360   */\n      add\n        /* \"#utility.yul\":6317:6370   */\n      tag_251\n      jump\t// in\n    tag_365:\n        /* \"#utility.yul\":6307:6370   */\n      swap3\n      pop\n        /* \"#utility.yul\":6263:6380   */\n      pop\n        /* \"#utility.yul\":6419:6421   */\n      0x20\n        /* \"#utility.yul\":6445:6498   */\n      tag_366\n        /* \"#utility.yul\":6490:6497   */\n      dup6\n        /* \"#utility.yul\":6481:6487   */\n      dup3\n        /* \"#utility.yul\":6470:6479   */\n      dup7\n        /* \"#utility.yul\":6466:6488   */\n      add\n        /* \"#utility.yul\":6445:6498   */\n      tag_251\n      jump\t// in\n    tag_366:\n        /* \"#utility.yul\":6435:6498   */\n      swap2\n      pop\n        /* \"#utility.yul\":6390:6508   */\n      pop\n        /* \"#utility.yul\":6041:6515   */\n      swap3\n      pop\n      swap3\n      swap1\n      pop\n      jump\t// out\n        /* \"#utility.yul\":6521:6701   */\n    tag_262:\n        /* \"#utility.yul\":6569:6646   */\n      0x4e487b7100000000000000000000000000000000000000000000000000000000\n        /* \"#utility.yul\":6566:6567   */\n      0x00\n        /* \"#utility.yul\":6559:6647   */\n      mstore\n        /* \"#utility.yul\":6666:6670   */\n      0x22\n        /* \"#utility.yul\":6663:6664   */\n      0x04\n        /* \"#utility.yul\":6656:6671   */\n      mstore\n        /* \"#utility.yul\":6690:6694   */\n      0x24\n        /* \"#utility.yul\":6687:6688   */\n      0x00\n        /* \"#utility.yul\":6680:6695   */\n      revert\n        /* \"#utility.yul\":6707:7027   */\n    tag_96:\n        /* \"#utility.yul\":6751:6757   */\n      0x00\n        /* \"#utility.yul\":6788:6789   */\n      0x02\n        /* \"#utility.yul\":6782:6786   */\n      dup3\n        /* \"#utility.yul\":6778:6790   */\n      div\n        /* \"#utility.yul\":6768:6790   */\n      swap1\n      pop\n        /* \"#utility.yul\":6835:6836   */\n      0x01\n        /* \"#utility.yul\":6829:6833   */\n      dup3\n        /* \"#utility.yul\":6825:6837   */\n      and\n        /* \"#utility.yul\":6856:6874   */\n      dup1\n        /* \"#utility.yul\":6846:6927   */\n      tag_369\n      jumpi\n        /* \"#utility.yul\":6912:6916   */\n      0x7f\n        /* \"#utility.yul\":6904:6910   */\n      dup3\n        /* \"#utility.yul\":6900:6917   */\n      and\n        /* \"#utility.yul\":6890:6917   */\n      swap2\n      pop\n        /* \"#utility.yul\":6846:6927   */\n    tag_369:\n        /* \"#utility.yul\":6974:6976   */\n      0x20\n        /* \"#utility.yul\":6966:6972   */\n      dup3\n        /* \"#utility.yul\":6963:6977   */\n      lt\n        /* \"#utility.yul\":6943:6961   */\n      dup2\n        /* \"#utility.yul\":6940:6978   */\n      sub\n        /* \"#utility.yul\":6937:7021   */\n      tag_370\n      jumpi\n        /* \"#utility.yul\":6993:7011   */\n      tag_371\n      tag_262\n      jump\t// in\n    tag_371:\n        /* \"#utility.yul\":6937:7021   */\n    tag_370:\n        /* \"#utility.yul\":6758:7027   */\n      pop\n        /* \"#utility.yul\":6707:7027   */\n      swap2\n      swap1\n      pop\n      jump\t// out\n        /* \"#utility.yul\":7033:7257   */\n    tag_263:\n        /* \"#utility.yul\":7173:7207   */\n      0x4f6e6c7920746865206f776e65722063616e2063616c6c20746869732066756e\n        /* \"#utility.yul\":7169:7170   */\n      0x00\n        /* \"#utility.yul\":7161:7167   */\n      dup3\n        /* \"#utility.yul\":7157:7171   */\n      add\n        /* \"#utility.yul\":7150:7208   */\n      mstore\n        /* \"#utility.yul\":7242:7249   */\n      0x6374696f6e000000000000000000000000000000000000000000000000000000\n        /* \"#utility.yul\":7237:7239   */\n      0x20\n        /* \"#utility.yul\":7229:7235   */\n      dup3\n        /* \"#utility.yul\":7225:7240   */\n      add\n        /* \"#utility.yul\":7218:7250   */\n      mstore\n        /* \"#utility.yul\":7033:7257   */\n      pop\n      jump\t// out\n        /* \"#utility.yul\":7263:7629   */\n    tag_264:\n        /* \"#utility.yul\":7405:7408   */\n      0x00\n        /* \"#utility.yul\":7426:7493   */\n      tag_374\n        /* \"#utility.yul\":7490:7492   */\n      0x25\n        /* \"#utility.yul\":7485:7488   */\n      dup4\n        /* \"#utility.yul\":7426:7493   */\n      tag_241\n      jump\t// in\n    tag_374:\n        /* \"#utility.yul\":7419:7493   */\n      swap2\n      pop\n        /* \"#utility.yul\":7502:7595   */\n      tag_375\n        /* \"#utility.yul\":7591:7594   */\n      dup3\n        /* \"#utility.yul\":7502:7595   */\n      tag_263\n      jump\t// in\n    tag_375:\n        /* \"#utility.yul\":7620:7622   */\n      0x40\n        /* \"#utility.yul\":7615:7618   */\n      dup3\n        /* \"#utility.yul\":7611:7623   */\n      add\n        /* \"#utility.yul\":7604:7623   */\n      swap1\n      pop\n        /* \"#utility.yul\":7263:7629   */\n      swap2\n      swap1\n      pop\n      jump\t// out\n        /* \"#utility.yul\":7635:8054   */\n    tag_104:\n        /* \"#utility.yul\":7801:7805   */\n      0x00\n        /* \"#utility.yul\":7839:7841   */\n      0x20\n        /* \"#utility.yul\":7828:7837   */\n      dup3\n        /* \"#utility.yul\":7824:7842   */\n      add\n        /* \"#utility.yul\":7816:7842   */\n      swap1\n      pop\n        /* \"#utility.yul\":7888:7897   */\n      dup2\n        /* \"#utility.yul\":7882:7886   */\n      dup2\n        /* \"#utility.yul\":7878:7898   */\n      sub\n        /* \"#utility.yul\":7874:7875   */\n      0x00\n        /* \"#utility.yul\":7863:7872   */\n      dup4\n        /* \"#utility.yul\":7859:7876   */\n      add\n        /* \"#utility.yul\":7852:7899   */\n      mstore\n        /* \"#utility.yul\":7916:8047   */\n      tag_377\n        /* \"#utility.yul\":8042:8046   */\n      dup2\n        /* \"#utility.yul\":7916:8047   */\n      tag_264\n      jump\t// in\n    tag_377:\n        /* \"#utility.yul\":7908:8047   */\n      swap1\n      pop\n        /* \"#utility.yul\":7635:8054   */\n      swap2\n      swap1\n      pop\n      jump\t// out\n        /* \"#utility.yul\":8060:8240   */\n    tag_265:\n        /* \"#utility.yul\":8108:8185   */\n      0x4e487b7100000000000000000000000000000000000000000000000000000000\n        /* \"#utility.yul\":8105:8106   */\n      0x00\n        /* \"#utility.yul\":8098:8186   */\n      mstore\n        /* \"#utility.yul\":8205:8209   */\n      0x11\n        /* \"#utility.yul\":8202:8203   */\n      0x04\n        /* \"#utility.yul\":8195:8210   */\n      mstore\n        /* \"#utility.yul\":8229:8233   */\n      0x24\n        /* \"#utility.yul\":8226:8227   */\n      0x00\n        /* \"#utility.yul\":8219:8234   */\n      revert\n        /* \"#utility.yul\":8246:8348   */\n    tag_266:\n        /* \"#utility.yul\":8288:8296   */\n      0x00\n        /* \"#utility.yul\":8335:8340   */\n      dup2\n        /* \"#utility.yul\":8332:8333   */\n      0x01\n        /* \"#utility.yul\":8328:8341   */\n      shr\n        /* \"#utility.yul\":8307:8341   */\n      swap1\n      pop\n        /* \"#utility.yul\":8246:8348   */\n      swap2\n      swap1\n      pop\n      jump\t// out\n        /* \"#utility.yul\":8354:9202   */\n    tag_267:\n        /* \"#utility.yul\":8415:8420   */\n      0x00\n        /* \"#utility.yul\":8422:8426   */\n      dup1\n        /* \"#utility.yul\":8446:8452   */\n      dup3\n        /* \"#utility.yul\":8437:8452   */\n      swap2\n      pop\n        /* \"#utility.yul\":8470:8475   */\n      dup4\n        /* \"#utility.yul\":8461:8475   */\n      swap1\n      pop\n        /* \"#utility.yul\":8484:9196   */\n    tag_381:\n        /* \"#utility.yul\":8505:8506   */\n      0x01\n        /* \"#utility.yul\":8495:8503   */\n      dup6\n        /* \"#utility.yul\":8492:8507   */\n      gt\n        /* \"#utility.yul\":8484:9196   */\n      iszero\n      tag_383\n      jumpi\n        /* \"#utility.yul\":8600:8604   */\n      dup1\n        /* \"#utility.yul\":8595:8598   */\n      dup7\n        /* \"#utility.yul\":8591:8605   */\n      div\n        /* \"#utility.yul\":8585:8589   */\n      dup2\n        /* \"#utility.yul\":8582:8606   */\n      gt\n        /* \"#utility.yul\":8579:8629   */\n      iszero\n      tag_384\n      jumpi\n        /* \"#utility.yul\":8609:8627   */\n      tag_385\n      tag_265\n      jump\t// in\n    tag_385:\n        /* \"#utility.yul\":8579:8629   */\n    tag_384:\n        /* \"#utility.yul\":8659:8660   */\n      0x01\n        /* \"#utility.yul\":8649:8657   */\n      dup6\n        /* \"#utility.yul\":8645:8661   */\n      and\n        /* \"#utility.yul\":8642:9093   */\n      iszero\n      tag_386\n      jumpi\n        /* \"#utility.yul\":9074:9078   */\n      dup1\n        /* \"#utility.yul\":9067:9072   */\n      dup3\n        /* \"#utility.yul\":9063:9079   */\n      mul\n        /* \"#utility.yul\":9054:9079   */\n      swap2\n      pop\n        /* \"#utility.yul\":8642:9093   */\n    tag_386:\n        /* \"#utility.yul\":9124:9128   */\n      dup1\n        /* \"#utility.yul\":9118:9122   */\n      dup2\n        /* \"#utility.yul\":9114:9129   */\n      mul\n        /* \"#utility.yul\":9106:9129   */\n      swap1\n      pop\n        /* \"#utility.yul\":9154:9186   */\n      tag_387\n        /* \"#utility.yul\":9177:9185   */\n      dup6\n        /* \"#utility.yul\":9154:9186   */\n      tag_266\n      jump\t// in\n    tag_387:\n        /* \"#utility.yul\":9142:9186   */\n      swap5\n      pop\n        /* \"#utility.yul\":8484:9196   */\n      jump(tag_381)\n    tag_383:\n        /* \"#utility.yul\":8354:9202   */\n      swap5\n      pop\n      swap5\n      swap3\n      pop\n      pop\n      pop\n      jump\t// out\n        /* \"#utility.yul\":9208:10281   */\n    tag_268:\n        /* \"#utility.yul\":9262:9267   */\n      0x00\n        /* \"#utility.yul\":9453:9461   */\n      dup3\n        /* \"#utility.yul\":9443:9483   */\n      tag_389\n      jumpi\n        /* \"#utility.yul\":9474:9475   */\n      0x01\n        /* \"#utility.yul\":9465:9475   */\n      swap1\n      pop\n        /* \"#utility.yul\":9476:9481   */\n      jump(tag_388)\n        /* \"#utility.yul\":9443:9483   */\n    tag_389:\n        /* \"#utility.yul\":9502:9506   */\n      dup2\n        /* \"#utility.yul\":9492:9528   */\n      tag_390\n      jumpi\n        /* \"#utility.yul\":9519:9520   */\n      0x00\n        /* \"#utility.yul\":9510:9520   */\n      swap1\n      pop\n        /* \"#utility.yul\":9521:9526   */\n      jump(tag_388)\n        /* \"#utility.yul\":9492:9528   */\n    tag_390:\n        /* \"#utility.yul\":9588:9592   */\n      dup2\n        /* \"#utility.yul\":9636:9637   */\n      0x01\n        /* \"#utility.yul\":9631:9658   */\n      dup2\n      eq\n      tag_392\n      jumpi\n        /* \"#utility.yul\":9672:9673   */\n      0x02\n        /* \"#utility.yul\":9667:9858   */\n      dup2\n      eq\n      tag_393\n      jumpi\n        /* \"#utility.yul\":9581:9858   */\n      jump(tag_391)\n        /* \"#utility.yul\":9631:9658   */\n    tag_392:\n        /* \"#utility.yul\":9649:9650   */\n      0x01\n        /* \"#utility.yul\":9640:9650   */\n      swap2\n      pop\n        /* \"#utility.yul\":9651:9656   */\n      pop\n      jump(tag_388)\n        /* \"#utility.yul\":9667:9858   */\n    tag_393:\n        /* \"#utility.yul\":9712:9715   */\n      0xff\n        /* \"#utility.yul\":9702:9710   */\n      dup5\n        /* \"#utility.yul\":9699:9716   */\n      gt\n        /* \"#utility.yul\":9696:9739   */\n      iszero\n      tag_394\n      jumpi\n        /* \"#utility.yul\":9719:9737   */\n      tag_395\n      tag_265\n      jump\t// in\n    tag_395:\n        /* \"#utility.yul\":9696:9739   */\n    tag_394:\n        /* \"#utility.yul\":9768:9776   */\n      dup4\n        /* \"#utility.yul\":9765:9766   */\n      0x02\n        /* \"#utility.yul\":9761:9777   */\n      exp\n        /* \"#utility.yul\":9752:9777   */\n      swap2\n      pop\n        /* \"#utility.yul\":9803:9806   */\n      dup5\n        /* \"#utility.yul\":9796:9801   */\n      dup3\n        /* \"#utility.yul\":9793:9807   */\n      gt\n        /* \"#utility.yul\":9790:9830   */\n      iszero\n      tag_396\n      jumpi\n        /* \"#utility.yul\":9810:9828   */\n      tag_397\n      tag_265\n      jump\t// in\n    tag_397:\n        /* \"#utility.yul\":9790:9830   */\n    tag_396:\n        /* \"#utility.yul\":9843:9848   */\n      pop\n      jump(tag_388)\n        /* \"#utility.yul\":9581:9858   */\n    tag_391:\n      pop\n        /* \"#utility.yul\":9967:9969   */\n      0x20\n        /* \"#utility.yul\":9957:9965   */\n      dup4\n        /* \"#utility.yul\":9954:9970   */\n      lt\n        /* \"#utility.yul\":9948:9951   */\n      0x0133\n        /* \"#utility.yul\":9942:9946   */\n      dup4\n        /* \"#utility.yul\":9939:9952   */\n      lt\n        /* \"#utility.yul\":9935:9971   */\n      and\n        /* \"#utility.yul\":9917:9919   */\n      0x4e\n        /* \"#utility.yul\":9907:9915   */\n      dup5\n        /* \"#utility.yul\":9904:9920   */\n      lt\n        /* \"#utility.yul\":9899:9901   */\n      0x0b\n        /* \"#utility.yul\":9893:9897   */\n      dup5\n        /* \"#utility.yul\":9890:9902   */\n      lt\n        /* \"#utility.yul\":9886:9921   */\n      and\n        /* \"#utility.yul\":9870:9981   */\n      or\n        /* \"#utility.yul\":9867:10113   */\n      iszero\n      tag_398\n      jumpi\n        /* \"#utility.yul\":10023:10031   */\n      dup3\n        /* \"#utility.yul\":10017:10021   */\n      dup3\n        /* \"#utility.yul\":10013:10032   */\n      exp\n        /* \"#utility.yul\":10004:10032   */\n      swap1\n      pop\n        /* \"#utility.yul\":10058:10061   */\n      dup4\n        /* \"#utility.yul\":10051:10056   */\n      dup2\n        /* \"#utility.yul\":10048:10062   */\n      gt\n        /* \"#utility.yul\":10045:10085   */\n      iszero\n      tag_399\n      jumpi\n        /* \"#utility.yul\":10065:10083   */\n      tag_400\n      tag_265\n      jump\t// in\n    tag_400:\n        /* \"#utility.yul\":10045:10085   */\n    tag_399:\n        /* \"#utility.yul\":10098:10103   */\n      jump(tag_388)\n        /* \"#utility.yul\":9867:10113   */\n    tag_398:\n        /* \"#utility.yul\":10138:10180   */\n      tag_401\n        /* \"#utility.yul\":10176:10179   */\n      dup5\n        /* \"#utility.yul\":10166:10174   */\n      dup5\n        /* \"#utility.yul\":10160:10164   */\n      dup5\n        /* \"#utility.yul\":10157:10158   */\n      0x01\n        /* \"#utility.yul\":10138:10180   */\n      tag_267\n      jump\t// in\n    tag_401:\n        /* \"#utility.yul\":10123:10180   */\n      swap3\n      pop\n      swap1\n      pop\n        /* \"#utility.yul\":10212:10216   */\n      dup2\n        /* \"#utility.yul\":10207:10210   */\n      dup5\n        /* \"#utility.yul\":10203:10217   */\n      div\n        /* \"#utility.yul\":10196:10201   */\n      dup2\n        /* \"#utility.yul\":10193:10218   */\n      gt\n        /* \"#utility.yul\":10190:10241   */\n      iszero\n      tag_402\n      jumpi\n        /* \"#utility.yul\":10221:10239   */\n      tag_403\n      tag_265\n      jump\t// in\n    tag_403:\n        /* \"#utility.yul\":10190:10241   */\n    tag_402:\n        /* \"#utility.yul\":10270:10274   */\n      dup2\n        /* \"#utility.yul\":10263:10268   */\n      dup2\n        /* \"#utility.yul\":10259:10275   */\n      mul\n        /* \"#utility.yul\":10250:10275   */\n      swap1\n      pop\n        /* \"#utility.yul\":9208:10281   */\n    tag_388:\n      swap4\n      swap3\n      pop\n      pop\n      pop\n      jump\t// out\n        /* \"#utility.yul\":10287:10568   */\n    tag_118:\n        /* \"#utility.yul\":10345:10350   */\n      0x00\n        /* \"#utility.yul\":10369:10392   */\n      tag_405\n        /* \"#utility.yul\":10387:10391   */\n      dup3\n        /* \"#utility.yul\":10369:10392   */\n      tag_252\n      jump\t// in\n    tag_405:\n        /* \"#utility.yul\":10361:10392   */\n      swap2\n      pop\n        /* \"#utility.yul\":10413:10438   */\n      tag_406\n        /* \"#utility.yul\":10429:10437   */\n      dup4\n        /* \"#utility.yul\":10413:10438   */\n      tag_258\n      jump\t// in\n    tag_406:\n        /* \"#utility.yul\":10401:10438   */\n      swap3\n      pop\n        /* \"#utility.yul\":10457:10561   */\n      tag_407\n        /* \"#utility.yul\":10494:10560   */\n      0xffffffffffffffffffffffffffffffffffffffffffffffffffffffffffffffff\n        /* \"#utility.yul\":10484:10492   */\n      dup5\n        /* \"#utility.yul\":10478:10482   */\n      dup5\n        /* \"#utility.yul\":10457:10561   */\n      tag_268\n      jump\t// in\n    tag_407:\n        /* \"#utility.yul\":10448:10561   */\n      swap1\n      pop\n        /* \"#utility.yul\":10287:10568   */\n      swap3\n      swap2\n      pop\n      pop\n      jump\t// out\n        /* \"#utility.yul\":10574:10984   */\n    tag_120:\n        /* \"#utility.yul\":10614:10621   */\n      0x00\n        /* \"#utility.yul\":10637:10657   */\n      tag_409\n        /* \"#utility.yul\":10655:10656   */\n      dup3\n        /* \"#utility.yul\":10637:10657   */\n      tag_252\n      jump\t// in\n    tag_409:\n        /* \"#utility.yul\":10632:10657   */\n      swap2\n      pop\n        /* \"#utility.yul\":10671:10691   */\n      tag_410\n        /* \"#utility.yul\":10689:10690   */\n      dup4\n        /* \"#utility.yul\":10671:10691   */\n      tag_252\n      jump\t// in\n    tag_410:\n        /* \"#utility.yul\":10666:10691   */\n      swap3\n      pop\n        /* \"#utility.yul\":10726:10727   */\n      dup3\n        /* \"#utility.yul\":10723:10724   */\n      dup3\n        /* \"#utility.yul\":10719:10728   */\n      mul\n        /* \"#utility.yul\":10748:10778   */\n      tag_411\n        /* \"#utility.yul\":10766:10777   */\n      dup2\n        /* \"#utility.yul\":10748:10778   */\n      tag_252\n      jump\t// in\n    tag_411:\n        /* \"#utility.yul\":10737:10778   */\n      swap2\n      pop\n        /* \"#utility.yul\":10927:10928   */\n      dup3\n        /* \"#utility.yul\":10918:10925   */\n      dup3\n        /* \"#utility.yul\":10914:10929   */\n      div\n        /* \"#utility.yul\":10911:10912   */\n      dup5\n        /* \"#utility.yul\":10908:10930   */\n      eq\n        /* \"#utility.yul\":10888:10889   */\n      dup4\n        /* \"#utility.yul\":10881:10890   */\n      iszero\n        /* \"#utility.yul\":10861:10944   */\n      or\n        /* \"#utility.yul\":10838:10977   */\n      tag_412\n      jumpi\n        /* \"#utility.yul\":10957:10975   */\n      tag_413\n      tag_265\n      jump\t// in\n    tag_413:\n        /* \"#utility.yul\":10838:10977   */\n    tag_412:\n        /* \"#utility.yul\":10622:10984   */\n      pop\n        /* \"#utility.yul\":10574:10984   */\n      swap3\n      swap2\n      pop\n      pop\n      jump\t// out\n        /* \"#utility.yul\":10990:11181   */\n    tag_134:\n        /* \"#utility.yul\":11030:11033   */\n      0x00\n        /* \"#utility.yul\":11049:11069   */\n      tag_415\n        /* \"#utility.yul\":11067:11068   */\n      dup3\n        /* \"#utility.yul\":11049:11069   */\n      tag_252\n      jump\t// in\n    tag_415:\n        /* \"#utility.yul\":11044:11069   */\n      swap2\n      pop\n        /* \"#utility.yul\":11083:11103   */\n      tag_416\n        /* \"#utility.yul\":11101:11102   */\n      dup4\n        /* \"#utility.yul\":11083:11103   */\n      tag_252\n      jump\t// in\n    tag_416:\n        /* \"#utility.yul\":11078:11103   */\n      swap3\n      pop\n        /* \"#utility.yul\":11126:11127   */\n      dup3\n        /* \"#utility.yul\":11123:11124   */\n      dup3\n        /* \"#utility.yul\":11119:11128   */\n      add\n        /* \"#utility.yul\":11112:11128   */\n      swap1\n      pop\n        /* \"#utility.yul\":11147:11150   */\n      dup1\n        /* \"#utility.yul\":11144:11145   */\n      dup3\n        /* \"#utility.yul\":11141:11151   */\n      gt\n        /* \"#utility.yul\":11138:11174   */\n      iszero\n      tag_417\n      jumpi\n        /* \"#utility.yul\":11154:11172   */\n      tag_418\n      tag_265\n      jump\t// in\n    tag_418:\n        /* \"#utility.yul\":11138:11174   */\n    tag_417:\n        /* \"#utility.yul\":10990:11181   */\n      swap3\n      swap2\n      pop\n      pop\n      jump\t// out\n        /* \"#utility.yul\":11187:11411   */\n    tag_269:\n        /* \"#utility.yul\":11327:11361   */\n      0x45524332303a2064656372656173656420616c6c6f77616e63652062656c6f77\n        /* \"#utility.yul\":11323:11324   */\n      0x00\n        /* \"#utility.yul\":11315:11321   */\n      dup3\n        /* \"#utility.yul\":11311:11325   */\n      add\n        /* \"#utility.yul\":11304:11362   */\n      mstore\n        /* \"#utility.yul\":11396:11403   */\n      0x207a65726f000000000000000000000000000000000000000000000000000000\n        /* \"#utility.yul\":11391:11393   */\n      0x20\n        /* \"#utility.yul\":11383:11389   */\n      dup3\n        /* \"#utility.yul\":11379:11394   */\n      add\n        /* \"#utility.yul\":11372:11404   */\n      mstore\n        /* \"#utility.yul\":11187:11411   */\n      pop\n      jump\t// out\n        /* \"#utility.yul\":11417:11783   */\n    tag_270:\n        /* \"#utility.yul\":11559:11562   */\n      0x00\n        /* \"#utility.yul\":11580:11647   */\n      tag_421\n        /* \"#utility.yul\":11644:11646   */\n      0x25\n        /* \"#utility.yul\":11639:11642   */\n      dup4\n        /* \"#utility.yul\":11580:11647   */\n      tag_241\n      jump\t// in\n    tag_421:\n        /* \"#utility.yul\":11573:11647   */\n      swap2\n      pop\n        /* \"#utility.yul\":11656:11749   */\n      tag_422\n        /* \"#utility.yul\":11745:11748   */\n      dup3\n        /* \"#utility.yul\":11656:11749   */\n      tag_269\n      jump\t// in\n    tag_422:\n        /* \"#utility.yul\":11774:11776   */\n      0x40\n        /* \"#utility.yul\":11769:11772   */\n      dup3\n        /* \"#utility.yul\":11765:11777   */\n      add\n        /* \"#utility.yul\":11758:11777   */\n      swap1\n      pop\n        /* \"#utility.yul\":11417:11783   */\n      swap2\n      swap1\n      pop\n      jump\t// out\n        /* \"#utility.yul\":11789:12208   */\n    tag_155:\n        /* \"#utility.yul\":11955:11959   */\n      0x00\n        /* \"#utility.yul\":11993:11995   */\n      0x20\n        /* \"#utility.yul\":11982:11991   */\n      dup3\n        /* \"#utility.yul\":11978:11996   */\n      add\n        /* \"#utility.yul\":11970:11996   */\n      swap1\n      pop\n        /* \"#utility.yul\":12042:12051   */\n      dup2\n        /* \"#utility.yul\":12036:12040   */\n      dup2\n        /* \"#utility.yul\":12032:12052   */\n      sub\n        /* \"#utility.yul\":12028:12029   */\n      0x00\n        /* \"#utility.yul\":12017:12026   */\n      dup4\n        /* \"#utility.yul\":12013:12030   */\n      add\n        /* \"#utility.yul\":12006:12053   */\n      mstore\n        /* \"#utility.yul\":12070:12201   */\n      tag_424\n        /* \"#utility.yul\":12196:12200   */\n      dup2\n        /* \"#utility.yul\":12070:12201   */\n      tag_270\n      jump\t// in\n    tag_424:\n        /* \"#utility.yul\":12062:12201   */\n      swap1\n      pop\n        /* \"#utility.yul\":11789:12208   */\n      swap2\n      swap1\n      pop\n      jump\t// out\n        /* \"#utility.yul\":12214:12437   */\n    tag_271:\n        /* \"#utility.yul\":12354:12388   */\n      0x45524332303a20617070726f76652066726f6d20746865207a65726f20616464\n        /* \"#utility.yul\":12350:12351   */\n      0x00\n        /* \"#utility.yul\":12342:12348   */\n      dup3\n        /* \"#utility.yul\":12338:12352   */\n      add\n        /* \"#utility.yul\":12331:12389   */\n      mstore\n        /* \"#utility.yul\":12423:12429   */\n      0x7265737300000000000000000000000000000000000000000000000000000000\n        /* \"#utility.yul\":12418:12420   */\n      0x20\n        /* \"#utility.yul\":12410:12416   */\n      dup3\n        /* \"#utility.yul\":12406:12421   */\n      add\n        /* \"#utility.yul\":12399:12430   */\n      mstore\n        /* \"#utility.yul\":12214:12437   */\n      pop\n      jump\t// out\n        /* \"#utility.yul\":12443:12809   */\n    tag_272:\n        /* \"#utility.yul\":12585:12588   */\n      0x00\n        /* \"#utility.yul\":12606:12673   */\n      tag_427\n        /* \"#utility.yul\":12670:12672   */\n      0x24\n        /* \"#utility.yul\":12665:12668   */\n      dup4\n        /* \"#utility.yul\":12606:12673   */\n      tag_241\n      jump\t// in\n    tag_427:\n        /* \"#utility.yul\":12599:12673   */\n      swap2\n      pop\n        /* \"#utility.yul\":12682:12775   */\n      tag_428\n        /* \"#utility.yul\":12771:12774   */\n      dup3\n        /* \"#utility.yul\":12682:12775   */\n      tag_271\n      jump\t// in\n    tag_428:\n        /* \"#utility.yul\":12800:12802   */\n      0x40\n        /* \"#utility.yul\":12795:12798   */\n      dup3\n        /* \"#utility.yul\":12791:12803   */\n      add\n        /* \"#utility.yul\":12784:12803   */\n      swap1\n      pop\n        /* \"#utility.yul\":12443:12809   */\n      swap2\n      swap1\n      pop\n      jump\t// out\n        /* \"#utility.yul\":12815:13234   */\n    tag_165:\n        /* \"#utility.yul\":12981:12985   */\n      0x00\n        /* \"#utility.yul\":13019:13021   */\n      0x20\n        /* \"#utility.yul\":13008:13017   */\n      dup3\n        /* \"#utility.yul\":13004:13022   */\n      add\n        /* \"#utility.yul\":12996:13022   */\n      swap1\n      pop\n        /* \"#utility.yul\":13068:13077   */\n      dup2\n        /* \"#utility.yul\":13062:13066   */\n      dup2\n        /* \"#utility.yul\":13058:13078   */\n      sub\n        /* \"#utility.yul\":13054:13055   */\n      0x00\n        /* \"#utility.yul\":13043:13052   */\n      dup4\n        /* \"#utility.yul\":13039:13056   */\n      add\n        /* \"#utility.yul\":13032:13079   */\n      mstore\n        /* \"#utility.yul\":13096:13227   */\n      tag_430\n        /* \"#utility.yul\":13222:13226   */\n      dup2\n        /* \"#utility.yul\":13096:13227   */\n      tag_272\n      jump\t// in\n    tag_430:\n        /* \"#utility.yul\":13088:13227   */\n      swap1\n      pop\n        /* \"#utility.yul\":12815:13234   */\n      swap2\n      swap1\n      pop\n      jump\t// out\n        /* \"#utility.yul\":13240:13461   */\n    tag_273:\n        /* \"#utility.yul\":13380:13414   */\n      0x45524332303a20617070726f766520746f20746865207a65726f206164647265\n        /* \"#utility.yul\":13376:13377   */\n      0x00\n        /* \"#utility.yul\":13368:13374   */\n      dup3\n        /* \"#utility.yul\":13364:13378   */\n      add\n        /* \"#utility.yul\":13357:13415   */\n      mstore\n        /* \"#utility.yul\":13449:13453   */\n      0x7373000000000000000000000000000000000000000000000000000000000000\n        /* \"#utility.yul\":13444:13446   */\n      0x20\n        /* \"#utility.yul\":13436:13442   */\n      dup3\n        /* \"#utility.yul\":13432:13447   */\n      add\n        /* \"#utility.yul\":13425:13454   */\n      mstore\n        /* \"#utility.yul\":13240:13461   */\n      pop\n      jump\t// out\n        /* \"#utility.yul\":13467:13833   */\n    tag_274:\n        /* \"#utility.yul\":13609:13612   */\n      0x00\n        /* \"#utility.yul\":13630:13697   */\n      tag_433\n        /* \"#utility.yul\":13694:13696   */\n      0x22\n        /* \"#utility.yul\":13689:13692   */\n      dup4\n        /* \"#utility.yul\":13630:13697   */\n      tag_241\n      jump\t// in\n    tag_433:\n        /* \"#utility.yul\":13623:13697   */\n      swap2\n      pop\n        /* \"#utility.yul\":13706:13799   */\n      tag_434\n        /* \"#utility.yul\":13795:13798   */\n      dup3\n        /* \"#utility.yul\":13706:13799   */\n      tag_273\n      jump\t// in\n    tag_434:\n        /* \"#utility.yul\":13824:13826   */\n      0x40\n        /* \"#utility.yul\":13819:13822   */\n      dup3\n        /* \"#utility.yul\":13815:13827   */\n      add\n        /* \"#utility.yul\":13808:13827   */\n      swap1\n      pop\n        /* \"#utility.yul\":13467:13833   */\n      swap2\n      swap1\n      pop\n      jump\t// out\n        /* \"#utility.yul\":13839:14258   */\n    tag_168:\n        /* \"#utility.yul\":14005:14009   */\n      0x00\n        /* \"#utility.yul\":14043:14045   */\n      0x20\n        /* \"#utility.yul\":14032:14041   */\n      dup3\n        /* \"#utility.yul\":14028:14046   */\n      add\n        /* \"#utility.yul\":14020:14046   */\n      swap1\n      pop\n        /* \"#utility.yul\":14092:14101   */\n      dup2\n        /* \"#utility.yul\":14086:14090   */\n      dup2\n        /* \"#utility.yul\":14082:14102   */\n      sub\n        /* \"#utility.yul\":14078:14079   */\n      0x00\n        /* \"#utility.yul\":14067:14076   */\n      dup4\n        /* \"#utility.yul\":14063:14080   */\n      add\n        /* \"#utility.yul\":14056:14103   */\n      mstore\n        /* \"#utility.yul\":14120:14251   */\n      tag_436\n        /* \"#utility.yul\":14246:14250   */\n      dup2\n        /* \"#utility.yul\":14120:14251   */\n      tag_274\n      jump\t// in\n    tag_436:\n        /* \"#utility.yul\":14112:14251   */\n      swap1\n      pop\n        /* \"#utility.yul\":13839:14258   */\n      swap2\n      swap1\n      pop\n      jump\t// out\n        /* \"#utility.yul\":14264:14443   */\n    tag_275:\n        /* \"#utility.yul\":14404:14435   */\n      0x45524332303a20696e73756666696369656e7420616c6c6f77616e6365000000\n        /* \"#utility.yul\":14400:14401   */\n      0x00\n        /* \"#utility.yul\":14392:14398   */\n      dup3\n        /* \"#utility.yul\":14388:14402   */\n      add\n        /* \"#utility.yul\":14381:14436   */\n      mstore\n        /* \"#utility.yul\":14264:14443   */\n      pop\n      jump\t// out\n        /* \"#utility.yul\":14449:14815   */\n    tag_276:\n        /* \"#utility.yul\":14591:14594   */\n      0x00\n        /* \"#utility.yul\":14612:14679   */\n      tag_439\n        /* \"#utility.yul\":14676:14678   */\n      0x1d\n        /* \"#utility.yul\":14671:14674   */\n      dup4\n        /* \"#utility.yul\":14612:14679   */\n      tag_241\n      jump\t// in\n    tag_439:\n        /* \"#utility.yul\":14605:14679   */\n      swap2\n      pop\n        /* \"#utility.yul\":14688:14781   */\n      tag_440\n        /* \"#utility.yul\":14777:14780   */\n      dup3\n        /* \"#utility.yul\":14688:14781   */\n      tag_275\n      jump\t// in\n    tag_440:\n        /* \"#utility.yul\":14806:14808   */\n      0x20\n        /* \"#utility.yul\":14801:14804   */\n      dup3\n        /* \"#utility.yul\":14797:14809   */\n      add\n        /* \"#utility.yul\":14790:14809   */\n      swap1\n      pop\n        /* \"#utility.yul\":14449:14815   */\n      swap2\n      swap1\n      pop\n      jump\t// out\n        /* \"#utility.yul\":14821:15240   */\n    tag_175:\n        /* \"#utility.yul\":14987:14991   */\n      0x00\n        /* \"#utility.yul\":15025:15027   */\n      0x20\n        /* \"#utility.yul\":15014:15023   */\n      dup3\n        /* \"#utility.yul\":15010:15028   */\n      add\n        /* \"#utility.yul\":15002:15028   */\n      swap1\n      pop\n        /* \"#utility.yul\":15074:15083   */\n      dup2\n        /* \"#utility.yul\":15068:15072   */\n      dup2\n        /* \"#utility.yul\":15064:15084   */\n      sub\n        /* \"#utility.yul\":15060:15061   */\n      0x00\n        /* \"#utility.yul\":15049:15058   */\n      dup4\n        /* \"#utility.yul\":15045:15062   */\n      add\n        /* \"#utility.yul\":15038:15085   */\n      mstore\n        /* \"#utility.yul\":15102:15233   */\n      tag_442\n        /* \"#utility.yul\":15228:15232   */\n      dup2\n        /* \"#utility.yul\":15102:15233   */\n      tag_276\n      jump\t// in\n    tag_442:\n        /* \"#utility.yul\":15094:15233   */\n      swap1\n      pop\n        /* \"#utility.yul\":14821:15240   */\n      swap2\n      swap1\n      pop\n      jump\t// out\n        /* \"#utility.yul\":15246:15470   */\n    tag_277:\n        /* \"#utility.yul\":15386:15420   */\n      0x45524332303a207472616e736665722066726f6d20746865207a65726f206164\n        /* \"#utility.yul\":15382:15383   */\n      0x00\n        /* \"#utility.yul\":15374:15380   */\n      dup3\n        /* \"#utility.yul\":15370:15384   */\n      add\n        /* \"#utility.yul\":15363:15421   */\n      mstore\n        /* \"#utility.yul\":15455:15462   */\n      0x6472657373000000000000000000000000000000000000000000000000000000\n        /* \"#utility.yul\":15450:15452   */\n      0x20\n        /* \"#utility.yul\":15442:15448   */\n      dup3\n        /* \"#utility.yul\":15438:15453   */\n      add\n        /* \"#utility.yul\":15431:15463   */\n      mstore\n        /* \"#utility.yul\":15246:15470   */\n      pop\n      jump\t// out\n        /* \"#utility.yul\":15476:15842   */\n    tag_278:\n        /* \"#utility.yul\":15618:15621   */\n      0x00\n        /* \"#utility.yul\":15639:15706   */\n      tag_445\n        /* \"#utility.yul\":15703:15705   */\n      0x25\n        /* \"#utility.yul\":15698:15701   */\n      dup4\n        /* \"#utility.yul\":15639:15706   */\n      tag_241\n      jump\t// in\n    tag_445:\n        /* \"#utility.yul\":15632:15706   */\n      swap2\n      pop\n        /* \"#utility.yul\":15715:15808   */\n      tag_446\n        /* \"#utility.yul\":15804:15807   */\n      dup3\n        /* \"#utility.yul\":15715:15808   */\n      tag_277\n      jump\t// in\n    tag_446:\n        /* \"#utility.yul\":15833:15835   */\n      0x40\n        /* \"#utility.yul\":15828:15831   */\n      dup3\n        /* \"#utility.yul\":15824:15836   */\n      add\n        /* \"#utility.yul\":15817:15836   */\n      swap1\n      pop\n        /* \"#utility.yul\":15476:15842   */\n      swap2\n      swap1\n      pop\n      jump\t// out\n        /* \"#utility.yul\":15848:16267   */\n    tag_180:\n        /* \"#utility.yul\":16014:16018   */\n      0x00\n        /* \"#utility.yul\":16052:16054   */\n      0x20\n        /* \"#utility.yul\":16041:16050   */\n      dup3\n        /* \"#utility.yul\":16037:16055   */\n      add\n        /* \"#utility.yul\":16029:16055   */\n      swap1\n      pop\n        /* \"#utility.yul\":16101:16110   */\n      dup2\n        /* \"#utility.yul\":16095:16099   */\n      dup2\n        /* \"#utility.yul\":16091:16111   */\n      sub\n        /* \"#utility.yul\":16087:16088   */\n      0x00\n        /* \"#utility.yul\":16076:16085   */\n      dup4\n        /* \"#utility.yul\":16072:16089   */\n      add\n        /* \"#utility.yul\":16065:16112   */\n      mstore\n        /* \"#utility.yul\":16129:16260   */\n      tag_448\n        /* \"#utility.yul\":16255:16259   */\n      dup2\n        /* \"#utility.yul\":16129:16260   */\n      tag_278\n      jump\t// in\n    tag_448:\n        /* \"#utility.yul\":16121:16260   */\n      swap1\n      pop\n        /* \"#utility.yul\":15848:16267   */\n      swap2\n      swap1\n      pop\n      jump\t// out\n        /* \"#utility.yul\":16273:16495   */\n    tag_279:\n        /* \"#utility.yul\":16413:16447   */\n      0x45524332303a207472616e7366657220746f20746865207a65726f2061646472\n        /* \"#utility.yul\":16409:16410   */\n      0x00\n        /* \"#utility.yul\":16401:16407   */\n      dup3\n        /* \"#utility.yul\":16397:16411   */\n      add\n        /* \"#utility.yul\":16390:16448   */\n      mstore\n        /* \"#utility.yul\":16482:16487   */\n      0x6573730000000000000000000000000000000000000000000000000000000000\n        /* \"#utility.yul\":16477:16479   */\n      0x20\n        /* \"#utility.yul\":16469:16475   */\n      dup3\n        /* \"#utility.yul\":16465:16480   */\n      add\n        /* \"#utility.yul\":16458:16488   */\n      mstore\n        /* \"#utility.yul\":16273:16495   */\n      pop\n      jump\t// out\n        /* \"#utility.yul\":16501:16867   */\n    tag_280:\n        /* \"#utility.yul\":16643:16646   */\n      0x00\n        /* \"#utility.yul\":16664:16731   */\n      tag_451\n        /* \"#utility.yul\":16728:16730   */\n      0x23\n        /* \"#utility.yul\":16723:16726   */\n      dup4\n        /* \"#utility.yul\":16664:16731   */\n      tag_241\n      jump\t// in\n    tag_451:\n        /* \"#utility.yul\":16657:16731   */\n      swap2\n      pop\n        /* \"#utility.yul\":16740:16833   */\n      tag_452\n        /* \"#utility.yul\":16829:16832   */\n      dup3\n        /* \"#utility.yul\":16740:16833   */\n      tag_279\n      jump\t// in\n    tag_452:\n        /* \"#utility.yul\":16858:16860   */\n      0x40\n        /* \"#utility.yul\":16853:16856   */\n      dup3\n        /* \"#utility.yul\":16849:16861   */\n      add\n        /* \"#utility.yul\":16842:16861   */\n      swap1\n      pop\n        /* \"#utility.yul\":16501:16867   */\n      swap2\n      swap1\n      pop\n      jump\t// out\n        /* \"#utility.yul\":16873:17292   */\n    tag_183:\n        /* \"#utility.yul\":17039:17043   */\n      0x00\n        /* \"#utility.yul\":17077:17079   */\n      0x20\n        /* \"#utility.yul\":17066:17075   */\n      dup3\n        /* \"#utility.yul\":17062:17080   */\n      add\n        /* \"#utility.yul\":17054:17080   */\n      swap1\n      pop\n        /* \"#utility.yul\":17126:17135   */\n      dup2\n        /* \"#utility.yul\":17120:17124   */\n      dup2\n        /* \"#utility.yul\":17116:17136   */\n      sub\n        /* \"#utility.yul\":17112:17113   */\n      0x00\n        /* \"#utility.yul\":17101:17110   */\n      dup4\n        /* \"#utility.yul\":17097:17114   */\n      add\n        /* \"#utility.yul\":17090:17137   */\n      mstore\n        /* \"#utility.yul\":17154:17285   */\n      tag_454\n        /* \"#utility.yul\":17280:17284   */\n      dup2\n        /* \"#utility.yul\":17154:17285   */\n      tag_280\n      jump\t// in\n    tag_454:\n        /* \"#utility.yul\":17146:17285   */\n      swap1\n      pop\n        /* \"#utility.yul\":16873:17292   */\n      swap2\n      swap1\n      pop\n      jump\t// out\n        /* \"#utility.yul\":17298:17523   */\n    tag_281:\n        /* \"#utility.yul\":17438:17472   */\n      0x45524332303a207472616e7366657220616d6f756e7420657863656564732062\n        /* \"#utility.yul\":17434:17435   */\n      0x00\n        /* \"#utility.yul\":17426:17432   */\n      dup3\n        /* \"#utility.yul\":17422:17436   */\n      add\n        /* \"#utility.yul\":17415:17473   */\n      mstore\n        /* \"#utility.yul\":17507:17515   */\n      0x616c616e63650000000000000000000000000000000000000000000000000000\n        /* \"#utility.yul\":17502:17504   */\n      0x20\n        /* \"#utility.yul\":17494:17500   */\n      dup3\n        /* \"#utility.yul\":17490:17505   */\n      add\n        /* \"#utility.yul\":17483:17516   */\n      mstore\n        /* \"#utility.yul\":17298:17523   */\n      pop\n      jump\t// out\n        /* \"#utility.yul\":17529:17895   */\n    tag_282:\n        /* \"#utility.yul\":17671:17674   */\n      0x00\n        /* \"#utility.yul\":17692:17759   */\n      tag_457\n        /* \"#utility.yul\":17756:17758   */\n      0x26\n        /* \"#utility.yul\":17751:17754   */\n      dup4\n        /* \"#utility.yul\":17692:17759   */\n      tag_241\n      jump\t// in\n    tag_457:\n        /* \"#utility.yul\":17685:17759   */\n      swap2\n      pop\n        /* \"#utility.yul\":17768:17861   */\n      tag_458\n        /* \"#utility.yul\":17857:17860   */\n      dup3\n        /* \"#utility.yul\":17768:17861   */\n      tag_281\n      jump\t// in\n    tag_458:\n        /* \"#utility.yul\":17886:17888   */\n      0x40\n        /* \"#utility.yul\":17881:17884   */\n      dup3\n        /* \"#utility.yul\":17877:17889   */\n      add\n        /* \"#utility.yul\":17870:17889   */\n      swap1\n      pop\n        /* \"#utility.yul\":17529:17895   */\n      swap2\n      swap1\n      pop\n      jump\t// out\n        /* \"#utility.yul\":17901:18320   */\n    tag_188:\n        /* \"#utility.yul\":18067:18071   */\n      0x00\n        /* \"#utility.yul\":18105:18107   */\n      0x20\n        /* \"#utility.yul\":18094:18103   */\n      dup3\n        /* \"#utility.yul\":18090:18108   */\n      add\n        /* \"#utility.yul\":18082:18108   */\n      swap1\n      pop\n        /* \"#utility.yul\":18154:18163   */\n      dup2\n        /* \"#utility.yul\":18148:18152   */\n      dup2\n        /* \"#utility.yul\":18144:18164   */\n      sub\n        /* \"#utility.yul\":18140:18141   */\n      0x00\n        /* \"#utility.yul\":18129:18138   */\n      dup4\n        /* \"#utility.yul\":18125:18142   */\n      add\n        /* \"#utility.yul\":18118:18165   */\n      mstore\n        /* \"#utility.yul\":18182:18313   */\n      tag_460\n        /* \"#utility.yul\":18308:18312   */\n      dup2\n        /* \"#utility.yul\":18182:18313   */\n      tag_282\n      jump\t// in\n    tag_460:\n        /* \"#utility.yul\":18174:18313   */\n      swap1\n      pop\n        /* \"#utility.yul\":17901:18320   */\n      swap2\n      swap1\n      pop\n      jump\t// out\n        /* \"#utility.yul\":18326:18546   */\n    tag_283:\n        /* \"#utility.yul\":18466:18500   */\n      0x45524332303a206275726e2066726f6d20746865207a65726f20616464726573\n        /* \"#utility.yul\":18462:18463   */\n      0x00\n        /* \"#utility.yul\":18454:18460   */\n      dup3\n        /* \"#utility.yul\":18450:18464   */\n      add\n        /* \"#utility.yul\":18443:18501   */\n      mstore\n        /* \"#utility.yul\":18535:18538   */\n      0x7300000000000000000000000000000000000000000000000000000000000000\n        /* \"#utility.yul\":18530:18532   */\n      0x20\n        /* \"#utility.yul\":18522:18528   */\n      dup3\n        /* \"#utility.yul\":18518:18533   */\n      add\n        /* \"#utility.yul\":18511:18539   */\n      mstore\n        /* \"#utility.yul\":18326:18546   */\n      pop\n      jump\t// out\n        /* \"#utility.yul\":18552:18918   */\n    tag_284:\n        /* \"#utility.yul\":18694:18697   */\n      0x00\n        /* \"#utility.yul\":18715:18782   */\n      tag_463\n        /* \"#utility.yul\":18779:18781   */\n      0x21\n        /* \"#utility.yul\":18774:18777   */\n      dup4\n        /* \"#utility.yul\":18715:18782   */\n      tag_241\n      jump\t// in\n    tag_463:\n        /* \"#utility.yul\":18708:18782   */\n      swap2\n      pop\n        /* \"#utility.yul\":18791:18884   */\n      tag_464\n        /* \"#utility.yul\":18880:18883   */\n      dup3\n        /* \"#utility.yul\":18791:18884   */\n      tag_283\n      jump\t// in\n    tag_464:\n        /* \"#utility.yul\":18909:18911   */\n      0x40\n        /* \"#utility.yul\":18904:18907   */\n      dup3\n        /* \"#utility.yul\":18900:18912   */\n      add\n        /* \"#utility.yul\":18893:18912   */\n      swap1\n      pop\n        /* \"#utility.yul\":18552:18918   */\n      swap2\n      swap1\n      pop\n      jump\t// out\n        /* \"#utility.yul\":18924:19343   */\n    tag_195:\n        /* \"#utility.yul\":19090:19094   */\n      0x00\n        /* \"#utility.yul\":19128:19130   */\n      0x20\n        /* \"#utility.yul\":19117:19126   */\n      dup3\n        /* \"#utility.yul\":19113:19131   */\n      add\n        /* \"#utility.yul\":19105:19131   */\n      swap1\n      pop\n        /* \"#utility.yul\":19177:19186   */\n      dup2\n        /* \"#utility.yul\":19171:19175   */\n      dup2\n        /* \"#utility.yul\":19167:19187   */\n      sub\n        /* \"#utility.yul\":19163:19164   */\n      0x00\n        /* \"#utility.yul\":19152:19161   */\n      dup4\n        /* \"#utility.yul\":19148:19165   */\n      add\n        /* \"#utility.yul\":19141:19188   */\n      mstore\n        /* \"#utility.yul\":19205:19336   */\n      tag_466\n        /* \"#utility.yul\":19331:19335   */\n      dup2\n        /* \"#utility.yul\":19205:19336   */\n      tag_284\n      jump\t// in\n    tag_466:\n        /* \"#utility.yul\":19197:19336   */\n      swap1\n      pop\n        /* \"#utility.yul\":18924:19343   */\n      swap2\n      swap1\n      pop\n      jump\t// out\n        /* \"#utility.yul\":19349:19570   */\n    tag_285:\n        /* \"#utility.yul\":19489:19523   */\n      0x45524332303a206275726e20616d6f756e7420657863656564732062616c616e\n        /* \"#utility.yul\":19485:19486   */\n      0x00\n        /* \"#utility.yul\":19477:19483   */\n      dup3\n        /* \"#utility.yul\":19473:19487   */\n      add\n        /* \"#utility.yul\":19466:19524   */\n      mstore\n        /* \"#utility.yul\":19558:19562   */\n      0x6365000000000000000000000000000000000000000000000000000000000000\n        /* \"#utility.yul\":19553:19555   */\n      0x20\n        /* \"#utility.yul\":19545:19551   */\n      dup3\n        /* \"#utility.yul\":19541:19556   */\n      add\n        /* \"#utility.yul\":19534:19563   */\n      mstore\n        /* \"#utility.yul\":19349:19570   */\n      pop\n      jump\t// out\n        /* \"#utility.yul\":19576:19942   */\n    tag_286:\n        /* \"#utility.yul\":19718:19721   */\n      0x00\n        /* \"#utility.yul\":19739:19806   */\n      tag_469\n        /* \"#utility.yul\":19803:19805   */\n      0x22\n        /* \"#utility.yul\":19798:19801   */\n      dup4\n        /* \"#utility.yul\":19739:19806   */\n      tag_241\n      jump\t// in\n    tag_469:\n        /* \"#utility.yul\":19732:19806   */\n      swap2\n      pop\n        /* \"#utility.yul\":19815:19908   */\n      tag_470\n        /* \"#utility.yul\":19904:19907   */\n      dup3\n        /* \"#utility.yul\":19815:19908   */\n      tag_285\n      jump\t// in\n    tag_470:\n        /* \"#utility.yul\":19933:19935   */\n      0x40\n        /* \"#utility.yul\":19928:19931   */\n      dup3\n        /* \"#utility.yul\":19924:19936   */\n      add\n        /* \"#utility.yul\":19917:19936   */\n      swap1\n      pop\n        /* \"#utility.yul\":19576:19942   */\n      swap2\n      swap1\n      pop\n      jump\t// out\n        /* \"#utility.yul\":19948:20367   */\n    tag_199:\n        /* \"#utility.yul\":20114:20118   */\n      0x00\n        /* \"#utility.yul\":20152:20154   */\n      0x20\n        /* \"#utility.yul\":20141:20150   */\n      dup3\n        /* \"#utility.yul\":20137:20155   */\n      add\n        /* \"#utility.yul\":20129:20155   */\n      swap1\n      pop\n        /* \"#utility.yul\":20201:20210   */\n      dup2\n        /* \"#utility.yul\":20195:20199   */\n      dup2\n        /* \"#utility.yul\":20191:20211   */\n      sub\n        /* \"#utility.yul\":20187:20188   */\n      0x00\n        /* \"#utility.yul\":20176:20185   */\n      dup4\n        /* \"#utility.yul\":20172:20189   */\n      add\n        /* \"#utility.yul\":20165:20212   */\n      mstore\n        /* \"#utility.yul\":20229:20360   */\n      tag_472\n        /* \"#utility.yul\":20355:20359   */\n      dup2\n        /* \"#utility.yul\":20229:20360   */\n      tag_286\n      jump\t// in\n    tag_472:\n        /* \"#utility.yul\":20221:20360   */\n      swap1\n      pop\n        /* \"#utility.yul\":19948:20367   */\n      swap2\n      swap1\n      pop\n      jump\t// out\n        /* \"#utility.yul\":20373:20548   */\n    tag_287:\n        /* \"#utility.yul\":20513:20540   */\n      0x45524332304361707065643a2063617020657863656564656400000000000000\n        /* \"#utility.yul\":20509:20510   */\n      0x00\n        /* \"#utility.yul\":20501:20507   */\n      dup3\n        /* \"#utility.yul\":20497:20511   */\n      add\n        /* \"#utility.yul\":20490:20541   */\n      mstore\n        /* \"#utility.yul\":20373:20548   */\n      pop\n      jump\t// out\n        /* \"#utility.yul\":20554:20920   */\n    tag_288:\n        /* \"#utility.yul\":20696:20699   */\n      0x00\n        /* \"#utility.yul\":20717:20784   */\n      tag_475\n        /* \"#utility.yul\":20781:20783   */\n      0x19\n        /* \"#utility.yul\":20776:20779   */\n      dup4\n        /* \"#utility.yul\":20717:20784   */\n      tag_241\n      jump\t// in\n    tag_475:\n        /* \"#utility.yul\":20710:20784   */\n      swap2\n      pop\n        /* \"#utility.yul\":20793:20886   */\n      tag_476\n        /* \"#utility.yul\":20882:20885   */\n      dup3\n        /* \"#utility.yul\":20793:20886   */\n      tag_287\n      jump\t// in\n    tag_476:\n        /* \"#utility.yul\":20911:20913   */\n      0x20\n        /* \"#utility.yul\":20906:20909   */\n      dup3\n        /* \"#utility.yul\":20902:20914   */\n      add\n        /* \"#utility.yul\":20895:20914   */\n      swap1\n      pop\n        /* \"#utility.yul\":20554:20920   */\n      swap2\n      swap1\n      pop\n      jump\t// out\n        /* \"#utility.yul\":20926:21345   */\n    tag_221:\n        /* \"#utility.yul\":21092:21096   */\n      0x00\n        /* \"#utility.yul\":21130:21132   */\n      0x20\n        /* \"#utility.yul\":21119:21128   */\n      dup3\n        /* \"#utility.yul\":21115:21133   */\n      add\n        /* \"#utility.yul\":21107:21133   */\n      swap1\n      pop\n        /* \"#utility.yul\":21179:21188   */\n      dup2\n        /* \"#utility.yul\":21173:21177   */\n      dup2\n        /* \"#utility.yul\":21169:21189   */\n      sub\n        /* \"#utility.yul\":21165:21166   */\n      0x00\n        /* \"#utility.yul\":21154:21163   */\n      dup4\n        /* \"#utility.yul\":21150:21167   */\n      add\n        /* \"#utility.yul\":21143:21190   */\n      mstore\n        /* \"#utility.yul\":21207:21338   */\n      tag_478\n        /* \"#utility.yul\":21333:21337   */\n      dup2\n        /* \"#utility.yul\":21207:21338   */\n      tag_288\n      jump\t// in\n    tag_478:\n        /* \"#utility.yul\":21199:21338   */\n      swap1\n      pop\n        /* \"#utility.yul\":20926:21345   */\n      swap2\n      swap1\n      pop\n      jump\t// out\n        /* \"#utility.yul\":21351:21532   */\n    tag_289:\n        /* \"#utility.yul\":21491:21524   */\n      0x45524332303a206d696e7420746f20746865207a65726f206164647265737300\n        /* \"#utility.yul\":21487:21488   */\n      0x00\n        /* \"#utility.yul\":21479:21485   */\n      dup3\n        /* \"#utility.yul\":21475:21489   */\n      add\n        /* \"#utility.yul\":21468:21525   */\n      mstore\n        /* \"#utility.yul\":21351:21532   */\n      pop\n      jump\t// out\n        /* \"#utility.yul\":21538:21904   */\n    tag_290:\n        /* \"#utility.yul\":21680:21683   */\n      0x00\n        /* \"#utility.yul\":21701:21768   */\n      tag_481\n        /* \"#utility.yul\":21765:21767   */\n      0x1f\n        /* \"#utility.yul\":21760:21763   */\n      dup4\n        /* \"#utility.yul\":21701:21768   */\n      tag_241\n      jump\t// in\n    tag_481:\n        /* \"#utility.yul\":21694:21768   */\n      swap2\n      pop\n        /* \"#utility.yul\":21777:21870   */\n      tag_482\n        /* \"#utility.yul\":21866:21869   */\n      dup3\n        /* \"#utility.yul\":21777:21870   */\n      tag_289\n      jump\t// in\n    tag_482:\n        /* \"#utility.yul\":21895:21897   */\n      0x20\n        /* \"#utility.yul\":21890:21893   */\n      dup3\n        /* \"#utility.yul\":21886:21898   */\n      add\n        /* \"#utility.yul\":21879:21898   */\n      swap1\n      pop\n        /* \"#utility.yul\":21538:21904   */\n      swap2\n      swap1\n      pop\n      jump\t// out\n        /* \"#utility.yul\":21910:22329   */\n    tag_235:\n        /* \"#utility.yul\":22076:22080   */\n      0x00\n        /* \"#utility.yul\":22114:22116   */\n      0x20\n        /* \"#utility.yul\":22103:22112   */\n      dup3\n        /* \"#utility.yul\":22099:22117   */\n      add\n        /* \"#utility.yul\":22091:22117   */\n      swap1\n      pop\n        /* \"#utility.yul\":22163:22172   */\n      dup2\n        /* \"#utility.yul\":22157:22161   */\n      dup2\n        /* \"#utility.yul\":22153:22173   */\n      sub\n        /* \"#utility.yul\":22149:22150   */\n      0x00\n        /* \"#utility.yul\":22138:22147   */\n      dup4\n        /* \"#utility.yul\":22134:22151   */\n      add\n        /* \"#utility.yul\":22127:22174   */\n      mstore\n        /* \"#utility.yul\":22191:22322   */\n      tag_484\n        /* \"#utility.yul\":22317:22321   */\n      dup2\n        /* \"#utility.yul\":22191:22322   */\n      tag_290\n      jump\t// in\n    tag_484:\n        /* \"#utility.yul\":22183:22322   */\n      swap1\n      pop\n        /* \"#utility.yul\":21910:22329   */\n      swap2\n      swap1\n      pop\n      jump\t// out\n\n    auxdata: 0xa2646970667358221220f962c8508121322dec90561f57b79b08c5d4135157127ac460a3cdd239ffee5264736f6c63430008130033\n}\n",
				"bytecode": {
					"linkReferences": {},
					"object": "60a06040523480156200001157600080fd5b5060405162002c7938038062002c798339818101604052810190620000379190620005e9565b620000476200021f60201b60201c565b600a620000559190620007c0565b8262000062919062000811565b6040518060400160405280600781526020017f4d79546f6b656e000000000000000000000000000000000000000000000000008152506040518060400160405280600381526020017f4d595400000000000000000000000000000000000000000000000000000000008152508160039081620000df919062000acc565b508060049081620000f1919062000acc565b505050600081116200013a576040517f08c379a0000000000000000000000000000000000000000000000000000000008152600401620001319062000c14565b60405180910390fd5b80608081815250505033600560006101000a81548173ffffffffffffffffffffffffffffffffffffffff021916908373ffffffffffffffffffffffffffffffffffffffff160217905550620001e6600560009054906101000a900473ffffffffffffffffffffffffffffffffffffffff16620001bb6200021f60201b60201c565b600a620001c99190620007c0565b63042c1d80620001da919062000811565b6200022860201b60201c565b620001f66200021f60201b60201c565b600a620002049190620007c0565b8162000211919062000811565b600681905550505062000d83565b60006012905090565b62000238620002af60201b60201c565b8162000249620002b960201b60201c565b62000255919062000c36565b111562000299576040517f08c379a0000000000000000000000000000000000000000000000000000000008152600401620002909062000cc1565b60405180910390fd5b620002ab8282620002c360201b60201c565b5050565b6000608051905090565b6000600254905090565b620002d3620002af60201b60201c565b81620002e4620002b960201b60201c565b620002f0919062000c36565b111562000334576040517f08c379a00000000000000000000000000000000000000000000000000000000081526004016200032b9062000cc1565b60405180910390fd5b6200034682826200034a60201b60201c565b5050565b600073ffffffffffffffffffffffffffffffffffffffff168273ffffffffffffffffffffffffffffffffffffffff1603620003bc576040517f08c379a0000000000000000000000000000000000000000000000000000000008152600401620003b39062000d33565b60405180910390fd5b620003d060008383620004b760201b60201c565b8060026000828254620003e4919062000c36565b92505081905550806000808473ffffffffffffffffffffffffffffffffffffffff1673ffffffffffffffffffffffffffffffffffffffff168152602001908152602001600020600082825401925050819055508173ffffffffffffffffffffffffffffffffffffffff16600073ffffffffffffffffffffffffffffffffffffffff167fddf252ad1be2c89b69c2b068fc378daa952ba7f163c4a11628f55a4df523b3ef8360405162000497919062000d66565b60405180910390a3620004b3600083836200058960201b60201c565b5050565b4173ffffffffffffffffffffffffffffffffffffffff168373ffffffffffffffffffffffffffffffffffffffff16141580156200052057504173ffffffffffffffffffffffffffffffffffffffff168273ffffffffffffffffffffffffffffffffffffffff1614155b80156200055a5750600073ffffffffffffffffffffffffffffffffffffffff164173ffffffffffffffffffffffffffffffffffffffff1614155b156200057157620005706200058e60201b60201c565b5b62000584838383620005a460201b60201c565b505050565b505050565b620005a2416006546200022860201b60201c565b565b505050565b600080fd5b6000819050919050565b620005c381620005ae565b8114620005cf57600080fd5b50565b600081519050620005e381620005b8565b92915050565b60008060408385031215620006035762000602620005a9565b5b60006200061385828601620005d2565b92505060206200062685828601620005d2565b9150509250929050565b7f4e487b7100000000000000000000000000000000000000000000000000000000600052601160045260246000fd5b60008160011c9050919050565b6000808291508390505b6001851115620006be5780860481111562000696576200069562000630565b5b6001851615620006a65780820291505b8081029050620006b6856200065f565b945062000676565b94509492505050565b600082620006d95760019050620007ac565b81620006e95760009050620007ac565b81600181146200070257600281146200070d5762000743565b6001915050620007ac565b60ff84111562000722576200072162000630565b5b8360020a9150848211156200073c576200073b62000630565b5b50620007ac565b5060208310610133831016604e8410600b84101617156200077d5782820a90508381111562000777576200077662000630565b5b620007ac565b6200078c84848460016200066c565b92509050818404811115620007a657620007a562000630565b5b81810290505b9392505050565b600060ff82169050919050565b6000620007cd82620005ae565b9150620007da83620007b3565b9250620008097fffffffffffffffffffffffffffffffffffffffffffffffffffffffffffffffff8484620006c7565b905092915050565b60006200081e82620005ae565b91506200082b83620005ae565b92508282026200083b81620005ae565b9150828204841483151762000855576200085462000630565b5b5092915050565b600081519050919050565b7f4e487b7100000000000000000000000000000000000000000000000000000000600052604160045260246000fd5b7f4e487b7100000000000000000000000000000000000000000000000000000000600052602260045260246000fd5b60006002820490506001821680620008de57607f821691505b602082108103620008f457620008f362000896565b5b50919050565b60008190508160005260206000209050919050565b60006020601f8301049050919050565b600082821b905092915050565b6000600883026200095e7fffffffffffffffffffffffffffffffffffffffffffffffffffffffffffffffff826200091f565b6200096a86836200091f565b95508019841693508086168417925050509392505050565b6000819050919050565b6000620009ad620009a7620009a184620005ae565b62000982565b620005ae565b9050919050565b6000819050919050565b620009c9836200098c565b620009e1620009d882620009b4565b8484546200092c565b825550505050565b600090565b620009f8620009e9565b62000a05818484620009be565b505050565b5b8181101562000a2d5762000a21600082620009ee565b60018101905062000a0b565b5050565b601f82111562000a7c5762000a4681620008fa565b62000a51846200090f565b8101602085101562000a61578190505b62000a7962000a70856200090f565b83018262000a0a565b50505b505050565b600082821c905092915050565b600062000aa16000198460080262000a81565b1980831691505092915050565b600062000abc838362000a8e565b9150826002028217905092915050565b62000ad7826200085c565b67ffffffffffffffff81111562000af35762000af262000867565b5b62000aff8254620008c5565b62000b0c82828562000a31565b600060209050601f83116001811462000b44576000841562000b2f578287015190505b62000b3b858262000aae565b86555062000bab565b601f19841662000b5486620008fa565b60005b8281101562000b7e5784890151825560018201915060208501945060208101905062000b57565b8683101562000b9e578489015162000b9a601f89168262000a8e565b8355505b6001600288020188555050505b505050505050565b600082825260208201905092915050565b7f45524332304361707065643a2063617020697320300000000000000000000000600082015250565b600062000bfc60158362000bb3565b915062000c098262000bc4565b602082019050919050565b6000602082019050818103600083015262000c2f8162000bed565b9050919050565b600062000c4382620005ae565b915062000c5083620005ae565b925082820190508082111562000c6b5762000c6a62000630565b5b92915050565b7f45524332304361707065643a2063617020657863656564656400000000000000600082015250565b600062000ca960198362000bb3565b915062000cb68262000c71565b602082019050919050565b6000602082019050818103600083015262000cdc8162000c9a565b9050919050565b7f45524332303a206d696e7420746f20746865207a65726f206164647265737300600082015250565b600062000d1b601f8362000bb3565b915062000d288262000ce3565b602082019050919050565b6000602082019050818103600083015262000d4e8162000d0c565b9050919050565b62000d6081620005ae565b82525050565b600060208201905062000d7d600083018462000d55565b92915050565b608051611eda62000d9f600039600061061f0152611eda6000f3fe608060405234801561001057600080fd5b50600436106101165760003560e01c806339509351116100a25780638da5cb5b116100715780638da5cb5b146102cf57806395d89b41146102ed578063a457c2d71461030b578063a9059cbb1461033b578063dd62ed3e1461036b57610116565b8063395093511461023757806342966c681461026757806370a082311461028357806379cc6790146102b357610116565b806318160ddd116100e957806318160ddd146101915780631a18e707146101af57806323b872dd146101cb578063313ce567146101fb578063355274ea1461021957610116565b806306fdde031461011b578063092a5cce14610139578063095ea7b3146101435780630ac168a114610173575b600080fd5b61012361039b565b6040516101309190611300565b60405180910390f35b61014161042d565b005b61015d600480360381019061015891906113bb565b6104f8565b60405161016a9190611416565b60405180910390f35b61017b61051b565b6040516101889190611440565b60405180910390f35b610199610521565b6040516101a69190611440565b60405180910390f35b6101c960048036038101906101c4919061145b565b61052b565b005b6101e560048036038101906101e09190611488565b6105e3565b6040516101f29190611416565b60405180910390f35b610203610612565b60405161021091906114f7565b60405180910390f35b61022161061b565b60405161022e9190611440565b60405180910390f35b610251600480360381019061024c91906113bb565b610643565b60405161025e9190611416565b60405180910390f35b610281600480360381019061027c919061145b565b61067a565b005b61029d60048036038101906102989190611512565b61068e565b6040516102aa9190611440565b60405180910390f35b6102cd60048036038101906102c891906113bb565b6106d6565b005b6102d76106f6565b6040516102e49190611560565b60405180910390f35b6102f561071c565b6040516103029190611300565b60405180910390f35b610325600480360381019061032091906113bb565b6107ae565b6040516103329190611416565b60405180910390f35b610355600480360381019061035091906113bb565b610825565b6040516103629190611416565b60405180910390f35b6103856004803603810190610380919061157b565b610848565b6040516103929190611440565b60405180910390f35b6060600380546103aa906115ea565b80601f01602080910402602001604051908101604052809291908181526020018280546103d6906115ea565b80156104235780601f106103f857610100808354040283529160200191610423565b820191906000526020600020905b81548152906001019060200180831161040657829003601f168201915b5050505050905090565b600560009054906101000a900473ffffffffffffffffffffffffffffffffffffffff1673ffffffffffffffffffffffffffffffffffffffff163373ffffffffffffffffffffffffffffffffffffffff16146104bd576040517f08c379a00000000000000000000000000000000000000000000000000000000081526004016104b49061168d565b60405180910390fd5b600560009054906101000a900473ffffffffffffffffffffffffffffffffffffffff1673ffffffffffffffffffffffffffffffffffffffff16ff5b6000806105036108cf565b90506105108185856108d7565b600191505092915050565b60065481565b6000600254905090565b600560009054906101000a900473ffffffffffffffffffffffffffffffffffffffff1673ffffffffffffffffffffffffffffffffffffffff163373ffffffffffffffffffffffffffffffffffffffff16146105bb576040517f08c379a00000000000000000000000000000000000000000000000000000000081526004016105b29061168d565b60405180910390fd5b6105c3610612565b600a6105cf919061180f565b816105da919061185a565b60068190555050565b6000806105ee6108cf565b90506105fb858285610aa0565b610606858585610b2c565b60019150509392505050565b60006012905090565b60007f0000000000000000000000000000000000000000000000000000000000000000905090565b60008061064e6108cf565b905061066f8185856106608589610848565b61066a919061189c565b6108d7565b600191505092915050565b61068b6106856108cf565b82610da2565b50565b60008060008373ffffffffffffffffffffffffffffffffffffffff1673ffffffffffffffffffffffffffffffffffffffff168152602001908152602001600020549050919050565b6106e8826106e26108cf565b83610aa0565b6106f28282610da2565b5050565b600560009054906101000a900473ffffffffffffffffffffffffffffffffffffffff1681565b60606004805461072b906115ea565b80601f0160208091040260200160405190810160405280929190818152602001828054610757906115ea565b80156107a45780601f10610779576101008083540402835291602001916107a4565b820191906000526020600020905b81548152906001019060200180831161078757829003601f168201915b5050505050905090565b6000806107b96108cf565b905060006107c78286610848565b90508381101561080c576040517f08c379a000000000000000000000000000000000000000000000000000000000815260040161080390611942565b60405180910390fd5b61081982868684036108d7565b60019250505092915050565b6000806108306108cf565b905061083d818585610b2c565b600191505092915050565b6000600160008473ffffffffffffffffffffffffffffffffffffffff1673ffffffffffffffffffffffffffffffffffffffff16815260200190815260200160002060008373ffffffffffffffffffffffffffffffffffffffff1673ffffffffffffffffffffffffffffffffffffffff16815260200190815260200160002054905092915050565b600033905090565b600073ffffffffffffffffffffffffffffffffffffffff168373ffffffffffffffffffffffffffffffffffffffff1603610946576040517f08c379a000000000000000000000000000000000000000000000000000000000815260040161093d906119d4565b60405180910390fd5b600073ffffffffffffffffffffffffffffffffffffffff168273ffffffffffffffffffffffffffffffffffffffff16036109b5576040517f08c379a00000000000000000000000000000000000000000000000000000000081526004016109ac90611a66565b60405180910390fd5b80600160008573ffffffffffffffffffffffffffffffffffffffff1673ffffffffffffffffffffffffffffffffffffffff16815260200190815260200160002060008473ffffffffffffffffffffffffffffffffffffffff1673ffffffffffffffffffffffffffffffffffffffff168152602001908152602001600020819055508173ffffffffffffffffffffffffffffffffffffffff168373ffffffffffffffffffffffffffffffffffffffff167f8c5be1e5ebec7d5bd14f71427d1e84f3dd0314c0f7b2291e5b200ac8c7c3b92583604051610a939190611440565b60405180910390a3505050565b6000610aac8484610848565b90507fffffffffffffffffffffffffffffffffffffffffffffffffffffffffffffffff8114610b265781811015610b18576040517f08c379a0000000000000000000000000000000000000000000000000000000008152600401610b0f90611ad2565b60405180910390fd5b610b2584848484036108d7565b5b50505050565b600073ffffffffffffffffffffffffffffffffffffffff168373ffffffffffffffffffffffffffffffffffffffff1603610b9b576040517f08c379a0000000000000000000000000000000000000000000000000000000008152600401610b9290611b64565b60405180910390fd5b600073ffffffffffffffffffffffffffffffffffffffff168273ffffffffffffffffffffffffffffffffffffffff1603610c0a576040517f08c379a0000000000000000000000000000000000000000000000000000000008152600401610c0190611bf6565b60405180910390fd5b610c15838383610f6f565b60008060008573ffffffffffffffffffffffffffffffffffffffff1673ffffffffffffffffffffffffffffffffffffffff16815260200190815260200160002054905081811015610c9b576040517f08c379a0000000000000000000000000000000000000000000000000000000008152600401610c9290611c88565b60405180910390fd5b8181036000808673ffffffffffffffffffffffffffffffffffffffff1673ffffffffffffffffffffffffffffffffffffffff16815260200190815260200160002081905550816000808573ffffffffffffffffffffffffffffffffffffffff1673ffffffffffffffffffffffffffffffffffffffff168152602001908152602001600020600082825401925050819055508273ffffffffffffffffffffffffffffffffffffffff168473ffffffffffffffffffffffffffffffffffffffff167fddf252ad1be2c89b69c2b068fc378daa952ba7f163c4a11628f55a4df523b3ef84604051610d899190611440565b60405180910390a3610d9c84848461102e565b50505050565b600073ffffffffffffffffffffffffffffffffffffffff168273ffffffffffffffffffffffffffffffffffffffff1603610e11576040517f08c379a0000000000000000000000000000000000000000000000000000000008152600401610e0890611d1a565b60405180910390fd5b610e1d82600083610f6f565b60008060008473ffffffffffffffffffffffffffffffffffffffff1673ffffffffffffffffffffffffffffffffffffffff16815260200190815260200160002054905081811015610ea3576040517f08c379a0000000000000000000000000000000000000000000000000000000008152600401610e9a90611dac565b60405180910390fd5b8181036000808573ffffffffffffffffffffffffffffffffffffffff1673ffffffffffffffffffffffffffffffffffffffff1681526020019081526020016000208190555081600260008282540392505081905550600073ffffffffffffffffffffffffffffffffffffffff168373ffffffffffffffffffffffffffffffffffffffff167fddf252ad1be2c89b69c2b068fc378daa952ba7f163c4a11628f55a4df523b3ef84604051610f569190611440565b60405180910390a3610f6a8360008461102e565b505050565b4173ffffffffffffffffffffffffffffffffffffffff168373ffffffffffffffffffffffffffffffffffffffff1614158015610fd757504173ffffffffffffffffffffffffffffffffffffffff168273ffffffffffffffffffffffffffffffffffffffff1614155b80156110105750600073ffffffffffffffffffffffffffffffffffffffff164173ffffffffffffffffffffffffffffffffffffffff1614155b1561101e5761101d611033565b5b611029838383611041565b505050565b505050565b61103f41600654611046565b565b505050565b61104e61061b565b81611057610521565b611061919061189c565b11156110a2576040517f08c379a000000000000000000000000000000000000000000000000000000000815260040161109990611e18565b60405180910390fd5b6110ac82826110b0565b5050565b6110b861061b565b816110c1610521565b6110cb919061189c565b111561110c576040517f08c379a000000000000000000000000000000000000000000000000000000000815260040161110390611e18565b60405180910390fd5b611116828261111a565b5050565b600073ffffffffffffffffffffffffffffffffffffffff168273ffffffffffffffffffffffffffffffffffffffff1603611189576040517f08c379a000000000000000000000000000000000000000000000000000000000815260040161118090611e84565b60405180910390fd5b61119560008383610f6f565b80600260008282546111a7919061189c565b92505081905550806000808473ffffffffffffffffffffffffffffffffffffffff1673ffffffffffffffffffffffffffffffffffffffff168152602001908152602001600020600082825401925050819055508173ffffffffffffffffffffffffffffffffffffffff16600073ffffffffffffffffffffffffffffffffffffffff167fddf252ad1be2c89b69c2b068fc378daa952ba7f163c4a11628f55a4df523b3ef836040516112589190611440565b60405180910390a361126c6000838361102e565b5050565b600081519050919050565b600082825260208201905092915050565b60005b838110156112aa57808201518184015260208101905061128f565b60008484015250505050565b6000601f19601f8301169050919050565b60006112d282611270565b6112dc818561127b565b93506112ec81856020860161128c565b6112f5816112b6565b840191505092915050565b6000602082019050818103600083015261131a81846112c7565b905092915050565b600080fd5b600073ffffffffffffffffffffffffffffffffffffffff82169050919050565b600061135282611327565b9050919050565b61136281611347565b811461136d57600080fd5b50565b60008135905061137f81611359565b92915050565b6000819050919050565b61139881611385565b81146113a357600080fd5b50565b6000813590506113b58161138f565b92915050565b600080604083850312156113d2576113d1611322565b5b60006113e085828601611370565b92505060206113f1858286016113a6565b9150509250929050565b60008115159050919050565b611410816113fb565b82525050565b600060208201905061142b6000830184611407565b92915050565b61143a81611385565b82525050565b60006020820190506114556000830184611431565b92915050565b60006020828403121561147157611470611322565b5b600061147f848285016113a6565b91505092915050565b6000806000606084860312156114a1576114a0611322565b5b60006114af86828701611370565b93505060206114c086828701611370565b92505060406114d1868287016113a6565b9150509250925092565b600060ff82169050919050565b6114f1816114db565b82525050565b600060208201905061150c60008301846114e8565b92915050565b60006020828403121561152857611527611322565b5b600061153684828501611370565b91505092915050565b600061154a82611327565b9050919050565b61155a8161153f565b82525050565b60006020820190506115756000830184611551565b92915050565b6000806040838503121561159257611591611322565b5b60006115a085828601611370565b92505060206115b185828601611370565b9150509250929050565b7f4e487b7100000000000000000000000000000000000000000000000000000000600052602260045260246000fd5b6000600282049050600182168061160257607f821691505b602082108103611615576116146115bb565b5b50919050565b7f4f6e6c7920746865206f776e65722063616e2063616c6c20746869732066756e60008201527f6374696f6e000000000000000000000000000000000000000000000000000000602082015250565b600061167760258361127b565b91506116828261161b565b604082019050919050565b600060208201905081810360008301526116a68161166a565b9050919050565b7f4e487b7100000000000000000000000000000000000000000000000000000000600052601160045260246000fd5b60008160011c9050919050565b6000808291508390505b60018511156117335780860481111561170f5761170e6116ad565b5b600185161561171e5780820291505b808102905061172c856116dc565b94506116f3565b94509492505050565b60008261174c5760019050611808565b8161175a5760009050611808565b8160018114611770576002811461177a576117a9565b6001915050611808565b60ff84111561178c5761178b6116ad565b5b8360020a9150848211156117a3576117a26116ad565b5b50611808565b5060208310610133831016604e8410600b84101617156117de5782820a9050838111156117d9576117d86116ad565b5b611808565b6117eb84848460016116e9565b92509050818404811115611802576118016116ad565b5b81810290505b9392505050565b600061181a82611385565b9150611825836114db565b92506118527fffffffffffffffffffffffffffffffffffffffffffffffffffffffffffffffff848461173c565b905092915050565b600061186582611385565b915061187083611385565b925082820261187e81611385565b91508282048414831517611895576118946116ad565b5b5092915050565b60006118a782611385565b91506118b283611385565b92508282019050808211156118ca576118c96116ad565b5b92915050565b7f45524332303a2064656372656173656420616c6c6f77616e63652062656c6f7760008201527f207a65726f000000000000000000000000000000000000000000000000000000602082015250565b600061192c60258361127b565b9150611937826118d0565b604082019050919050565b6000602082019050818103600083015261195b8161191f565b9050919050565b7f45524332303a20617070726f76652066726f6d20746865207a65726f2061646460008201527f7265737300000000000000000000000000000000000000000000000000000000602082015250565b60006119be60248361127b565b91506119c982611962565b604082019050919050565b600060208201905081810360008301526119ed816119b1565b9050919050565b7f45524332303a20617070726f766520746f20746865207a65726f20616464726560008201527f7373000000000000000000000000000000000000000000000000000000000000602082015250565b6000611a5060228361127b565b9150611a5b826119f4565b604082019050919050565b60006020820190508181036000830152611a7f81611a43565b9050919050565b7f45524332303a20696e73756666696369656e7420616c6c6f77616e6365000000600082015250565b6000611abc601d8361127b565b9150611ac782611a86565b602082019050919050565b60006020820190508181036000830152611aeb81611aaf565b9050919050565b7f45524332303a207472616e736665722066726f6d20746865207a65726f20616460008201527f6472657373000000000000000000000000000000000000000000000000000000602082015250565b6000611b4e60258361127b565b9150611b5982611af2565b604082019050919050565b60006020820190508181036000830152611b7d81611b41565b9050919050565b7f45524332303a207472616e7366657220746f20746865207a65726f206164647260008201527f6573730000000000000000000000000000000000000000000000000000000000602082015250565b6000611be060238361127b565b9150611beb82611b84565b604082019050919050565b60006020820190508181036000830152611c0f81611bd3565b9050919050565b7f45524332303a207472616e7366657220616d6f756e742065786365656473206260008201527f616c616e63650000000000000000000000000000000000000000000000000000602082015250565b6000611c7260268361127b565b9150611c7d82611c16565b604082019050919050565b60006020820190508181036000830152611ca181611c65565b9050919050565b7f45524332303a206275726e2066726f6d20746865207a65726f2061646472657360008201527f7300000000000000000000000000000000000000000000000000000000000000602082015250565b6000611d0460218361127b565b9150611d0f82611ca8565b604082019050919050565b60006020820190508181036000830152611d3381611cf7565b9050919050565b7f45524332303a206275726e20616d6f756e7420657863656564732062616c616e60008201527f6365000000000000000000000000000000000000000000000000000000000000602082015250565b6000611d9660228361127b565b9150611da182611d3a565b604082019050919050565b60006020820190508181036000830152611dc581611d89565b9050919050565b7f45524332304361707065643a2063617020657863656564656400000000000000600082015250565b6000611e0260198361127b565b9150611e0d82611dcc565b602082019050919050565b60006020820190508181036000830152611e3181611df5565b9050919050565b7f45524332303a206d696e7420746f20746865207a65726f206164647265737300600082015250565b6000611e6e601f8361127b565b9150611e7982611e38565b602082019050919050565b60006020820190508181036000830152611e9d81611e61565b905091905056fea2646970667358221220f962c8508121322dec90561f57b79b08c5d4135157127ac460a3cdd239ffee5264736f6c63430008130033",
					"opcodes": "PUSH1 0xA0 PUSH1 0x40 MSTORE CALLVALUE DUP1 ISZERO PUSH3 0x11 JUMPI PUSH1 0x0 DUP1 REVERT JUMPDEST POP PUSH1 0x40 MLOAD PUSH3 0x2C79 CODESIZE SUB DUP1 PUSH3 0x2C79 DUP4 CODECOPY DUP2 DUP2 ADD PUSH1 0x40 MSTORE DUP2 ADD SWAP1 PUSH3 0x37 SWAP2 SWAP1 PUSH3 0x5E9 JUMP JUMPDEST PUSH3 0x47 PUSH3 0x21F PUSH1 0x20 SHL PUSH1 0x20 SHR JUMP JUMPDEST PUSH1 0xA PUSH3 0x55 SWAP2 SWAP1 PUSH3 0x7C0 JUMP JUMPDEST DUP3 PUSH3 0x62 SWAP2 SWAP1 PUSH3 0x811 JUMP JUMPDEST PUSH1 0x40 MLOAD DUP1 PUSH1 0x40 ADD PUSH1 0x40 MSTORE DUP1 PUSH1 0x7 DUP2 MSTORE PUSH1 0x20 ADD PUSH32 0x4D79546F6B656E00000000000000000000000000000000000000000000000000 DUP2 MSTORE POP PUSH1 0x40 MLOAD DUP1 PUSH1 0x40 ADD PUSH1 0x40 MSTORE DUP1 PUSH1 0x3 DUP2 MSTORE PUSH1 0x20 ADD PUSH32 0x4D59540000000000000000000000000000000000000000000000000000000000 DUP2 MSTORE POP DUP2 PUSH1 0x3 SWAP1 DUP2 PUSH3 0xDF SWAP2 SWAP1 PUSH3 0xACC JUMP JUMPDEST POP DUP1 PUSH1 0x4 SWAP1 DUP2 PUSH3 0xF1 SWAP2 SWAP1 PUSH3 0xACC JUMP JUMPDEST POP POP POP PUSH1 0x0 DUP2 GT PUSH3 0x13A JUMPI PUSH1 0x40 MLOAD PUSH32 0x8C379A000000000000000000000000000000000000000000000000000000000 DUP2 MSTORE PUSH1 0x4 ADD PUSH3 0x131 SWAP1 PUSH3 0xC14 JUMP JUMPDEST PUSH1 0x40 MLOAD DUP1 SWAP2 SUB SWAP1 REVERT JUMPDEST DUP1 PUSH1 0x80 DUP2 DUP2 MSTORE POP POP POP CALLER PUSH1 0x5 PUSH1 0x0 PUSH2 0x100 EXP DUP2 SLOAD DUP2 PUSH20 0xFFFFFFFFFFFFFFFFFFFFFFFFFFFFFFFFFFFFFFFF MUL NOT AND SWAP1 DUP4 PUSH20 0xFFFFFFFFFFFFFFFFFFFFFFFFFFFFFFFFFFFFFFFF AND MUL OR SWAP1 SSTORE POP PUSH3 0x1E6 PUSH1 0x5 PUSH1 0x0 SWAP1 SLOAD SWAP1 PUSH2 0x100 EXP SWAP1 DIV PUSH20 0xFFFFFFFFFFFFFFFFFFFFFFFFFFFFFFFFFFFFFFFF AND PUSH3 0x1BB PUSH3 0x21F PUSH1 0x20 SHL PUSH1 0x20 SHR JUMP JUMPDEST PUSH1 0xA PUSH3 0x1C9 SWAP2 SWAP1 PUSH3 0x7C0 JUMP JUMPDEST PUSH4 0x42C1D80 PUSH3 0x1DA SWAP2 SWAP1 PUSH3 0x811 JUMP JUMPDEST PUSH3 0x228 PUSH1 0x20 SHL PUSH1 0x20 SHR JUMP JUMPDEST PUSH3 0x1F6 PUSH3 0x21F PUSH1 0x20 SHL PUSH1 0x20 SHR JUMP JUMPDEST PUSH1 0xA PUSH3 0x204 SWAP2 SWAP1 PUSH3 0x7C0 JUMP JUMPDEST DUP2 PUSH3 0x211 SWAP2 SWAP1 PUSH3 0x811 JUMP JUMPDEST PUSH1 0x6 DUP2 SWAP1 SSTORE POP POP POP PUSH3 0xD83 JUMP JUMPDEST PUSH1 0x0 PUSH1 0x12 SWAP1 POP SWAP1 JUMP JUMPDEST PUSH3 0x238 PUSH3 0x2AF PUSH1 0x20 SHL PUSH1 0x20 SHR JUMP JUMPDEST DUP2 PUSH3 0x249 PUSH3 0x2B9 PUSH1 0x20 SHL PUSH1 0x20 SHR JUMP JUMPDEST PUSH3 0x255 SWAP2 SWAP1 PUSH3 0xC36 JUMP JUMPDEST GT ISZERO PUSH3 0x299 JUMPI PUSH1 0x40 MLOAD PUSH32 0x8C379A000000000000000000000000000000000000000000000000000000000 DUP2 MSTORE PUSH1 0x4 ADD PUSH3 0x290 SWAP1 PUSH3 0xCC1 JUMP JUMPDEST PUSH1 0x40 MLOAD DUP1 SWAP2 SUB SWAP1 REVERT JUMPDEST PUSH3 0x2AB DUP3 DUP3 PUSH3 0x2C3 PUSH1 0x20 SHL PUSH1 0x20 SHR JUMP JUMPDEST POP POP JUMP JUMPDEST PUSH1 0x0 PUSH1 0x80 MLOAD SWAP1 POP SWAP1 JUMP JUMPDEST PUSH1 0x0 PUSH1 0x2 SLOAD SWAP1 POP SWAP1 JUMP JUMPDEST PUSH3 0x2D3 PUSH3 0x2AF PUSH1 0x20 SHL PUSH1 0x20 SHR JUMP JUMPDEST DUP2 PUSH3 0x2E4 PUSH3 0x2B9 PUSH1 0x20 SHL PUSH1 0x20 SHR JUMP JUMPDEST PUSH3 0x2F0 SWAP2 SWAP1 PUSH3 0xC36 JUMP JUMPDEST GT ISZERO PUSH3 0x334 JUMPI PUSH1 0x40 MLOAD PUSH32 0x8C379A000000000000000000000000000000000000000000000000000000000 DUP2 MSTORE PUSH1 0x4 ADD PUSH3 0x32B SWAP1 PUSH3 0xCC1 JUMP JUMPDEST PUSH1 0x40 MLOAD DUP1 SWAP2 SUB SWAP1 REVERT JUMPDEST PUSH3 0x346 DUP3 DUP3 PUSH3 0x34A PUSH1 0x20 SHL PUSH1 0x20 SHR JUMP JUMPDEST POP POP JUMP JUMPDEST PUSH1 0x0 PUSH20 0xFFFFFFFFFFFFFFFFFFFFFFFFFFFFFFFFFFFFFFFF AND DUP3 PUSH20 0xFFFFFFFFFFFFFFFFFFFFFFFFFFFFFFFFFFFFFFFF AND SUB PUSH3 0x3BC JUMPI PUSH1 0x40 MLOAD PUSH32 0x8C379A000000000000000000000000000000000000000000000000000000000 DUP2 MSTORE PUSH1 0x4 ADD PUSH3 0x3B3 SWAP1 PUSH3 0xD33 JUMP JUMPDEST PUSH1 0x40 MLOAD DUP1 SWAP2 SUB SWAP1 REVERT JUMPDEST PUSH3 0x3D0 PUSH1 0x0 DUP4 DUP4 PUSH3 0x4B7 PUSH1 0x20 SHL PUSH1 0x20 SHR JUMP JUMPDEST DUP1 PUSH1 0x2 PUSH1 0x0 DUP3 DUP3 SLOAD PUSH3 0x3E4 SWAP2 SWAP1 PUSH3 0xC36 JUMP JUMPDEST SWAP3 POP POP DUP2 SWAP1 SSTORE POP DUP1 PUSH1 0x0 DUP1 DUP5 PUSH20 0xFFFFFFFFFFFFFFFFFFFFFFFFFFFFFFFFFFFFFFFF AND PUSH20 0xFFFFFFFFFFFFFFFFFFFFFFFFFFFFFFFFFFFFFFFF AND DUP2 MSTORE PUSH1 0x20 ADD SWAP1 DUP2 MSTORE PUSH1 0x20 ADD PUSH1 0x0 KECCAK256 PUSH1 0x0 DUP3 DUP3 SLOAD ADD SWAP3 POP POP DUP2 SWAP1 SSTORE POP DUP2 PUSH20 0xFFFFFFFFFFFFFFFFFFFFFFFFFFFFFFFFFFFFFFFF AND PUSH1 0x0 PUSH20 0xFFFFFFFFFFFFFFFFFFFFFFFFFFFFFFFFFFFFFFFF AND PUSH32 0xDDF252AD1BE2C89B69C2B068FC378DAA952BA7F163C4A11628F55A4DF523B3EF DUP4 PUSH1 0x40 MLOAD PUSH3 0x497 SWAP2 SWAP1 PUSH3 0xD66 JUMP JUMPDEST PUSH1 0x40 MLOAD DUP1 SWAP2 SUB SWAP1 LOG3 PUSH3 0x4B3 PUSH1 0x0 DUP4 DUP4 PUSH3 0x589 PUSH1 0x20 SHL PUSH1 0x20 SHR JUMP JUMPDEST POP POP JUMP JUMPDEST COINBASE PUSH20 0xFFFFFFFFFFFFFFFFFFFFFFFFFFFFFFFFFFFFFFFF AND DUP4 PUSH20 0xFFFFFFFFFFFFFFFFFFFFFFFFFFFFFFFFFFFFFFFF AND EQ ISZERO DUP1 ISZERO PUSH3 0x520 JUMPI POP COINBASE PUSH20 0xFFFFFFFFFFFFFFFFFFFFFFFFFFFFFFFFFFFFFFFF AND DUP3 PUSH20 0xFFFFFFFFFFFFFFFFFFFFFFFFFFFFFFFFFFFFFFFF AND EQ ISZERO JUMPDEST DUP1 ISZERO PUSH3 0x55A JUMPI POP PUSH1 0x0 PUSH20 0xFFFFFFFFFFFFFFFFFFFFFFFFFFFFFFFFFFFFFFFF AND COINBASE PUSH20 0xFFFFFFFFFFFFFFFFFFFFFFFFFFFFFFFFFFFFFFFF AND EQ ISZERO JUMPDEST ISZERO PUSH3 0x571 JUMPI PUSH3 0x570 PUSH3 0x58E PUSH1 0x20 SHL PUSH1 0x20 SHR JUMP JUMPDEST JUMPDEST PUSH3 0x584 DUP4 DUP4 DUP4 PUSH3 0x5A4 PUSH1 0x20 SHL PUSH1 0x20 SHR JUMP JUMPDEST POP POP POP JUMP JUMPDEST POP POP POP JUMP JUMPDEST PUSH3 0x5A2 COINBASE PUSH1 0x6 SLOAD PUSH3 0x228 PUSH1 0x20 SHL PUSH1 0x20 SHR JUMP JUMPDEST JUMP JUMPDEST POP POP POP JUMP JUMPDEST PUSH1 0x0 DUP1 REVERT JUMPDEST PUSH1 0x0 DUP2 SWAP1 POP SWAP2 SWAP1 POP JUMP JUMPDEST PUSH3 0x5C3 DUP2 PUSH3 0x5AE JUMP JUMPDEST DUP2 EQ PUSH3 0x5CF JUMPI PUSH1 0x0 DUP1 REVERT JUMPDEST POP JUMP JUMPDEST PUSH1 0x0 DUP2 MLOAD SWAP1 POP PUSH3 0x5E3 DUP2 PUSH3 0x5B8 JUMP JUMPDEST SWAP3 SWAP2 POP POP JUMP JUMPDEST PUSH1 0x0 DUP1 PUSH1 0x40 DUP4 DUP6 SUB SLT ISZERO PUSH3 0x603 JUMPI PUSH3 0x602 PUSH3 0x5A9 JUMP JUMPDEST JUMPDEST PUSH1 0x0 PUSH3 0x613 DUP6 DUP3 DUP7 ADD PUSH3 0x5D2 JUMP JUMPDEST SWAP3 POP POP PUSH1 0x20 PUSH3 0x626 DUP6 DUP3 DUP7 ADD PUSH3 0x5D2 JUMP JUMPDEST SWAP2 POP POP SWAP3 POP SWAP3 SWAP1 POP JUMP JUMPDEST PUSH32 0x4E487B7100000000000000000000000000000000000000000000000000000000 PUSH1 0x0 MSTORE PUSH1 0x11 PUSH1 0x4 MSTORE PUSH1 0x24 PUSH1 0x0 REVERT JUMPDEST PUSH1 0x0 DUP2 PUSH1 0x1 SHR SWAP1 POP SWAP2 SWAP1 POP JUMP JUMPDEST PUSH1 0x0 DUP1 DUP3 SWAP2 POP DUP4 SWAP1 POP JUMPDEST PUSH1 0x1 DUP6 GT ISZERO PUSH3 0x6BE JUMPI DUP1 DUP7 DIV DUP2 GT ISZERO PUSH3 0x696 JUMPI PUSH3 0x695 PUSH3 0x630 JUMP JUMPDEST JUMPDEST PUSH1 0x1 DUP6 AND ISZERO PUSH3 0x6A6 JUMPI DUP1 DUP3 MUL SWAP2 POP JUMPDEST DUP1 DUP2 MUL SWAP1 POP PUSH3 0x6B6 DUP6 PUSH3 0x65F JUMP JUMPDEST SWAP5 POP PUSH3 0x676 JUMP JUMPDEST SWAP5 POP SWAP5 SWAP3 POP POP POP JUMP JUMPDEST PUSH1 0x0 DUP3 PUSH3 0x6D9 JUMPI PUSH1 0x1 SWAP1 POP PUSH3 0x7AC JUMP JUMPDEST DUP2 PUSH3 0x6E9 JUMPI PUSH1 0x0 SWAP1 POP PUSH3 0x7AC JUMP JUMPDEST DUP2 PUSH1 0x1 DUP2 EQ PUSH3 0x702 JUMPI PUSH1 0x2 DUP2 EQ PUSH3 0x70D JUMPI PUSH3 0x743 JUMP JUMPDEST PUSH1 0x1 SWAP2 POP POP PUSH3 0x7AC JUMP JUMPDEST PUSH1 0xFF DUP5 GT ISZERO PUSH3 0x722 JUMPI PUSH3 0x721 PUSH3 0x630 JUMP JUMPDEST JUMPDEST DUP4 PUSH1 0x2 EXP SWAP2 POP DUP5 DUP3 GT ISZERO PUSH3 0x73C JUMPI PUSH3 0x73B PUSH3 0x630 JUMP JUMPDEST JUMPDEST POP PUSH3 0x7AC JUMP JUMPDEST POP PUSH1 0x20 DUP4 LT PUSH2 0x133 DUP4 LT AND PUSH1 0x4E DUP5 LT PUSH1 0xB DUP5 LT AND OR ISZERO PUSH3 0x77D JUMPI DUP3 DUP3 EXP SWAP1 POP DUP4 DUP2 GT ISZERO PUSH3 0x777 JUMPI PUSH3 0x776 PUSH3 0x630 JUMP JUMPDEST JUMPDEST PUSH3 0x7AC JUMP JUMPDEST PUSH3 0x78C DUP5 DUP5 DUP5 PUSH1 0x1 PUSH3 0x66C JUMP JUMPDEST SWAP3 POP SWAP1 POP DUP2 DUP5 DIV DUP2 GT ISZERO PUSH3 0x7A6 JUMPI PUSH3 0x7A5 PUSH3 0x630 JUMP JUMPDEST JUMPDEST DUP2 DUP2 MUL SWAP1 POP JUMPDEST SWAP4 SWAP3 POP POP POP JUMP JUMPDEST PUSH1 0x0 PUSH1 0xFF DUP3 AND SWAP1 POP SWAP2 SWAP1 POP JUMP JUMPDEST PUSH1 0x0 PUSH3 0x7CD DUP3 PUSH3 0x5AE JUMP JUMPDEST SWAP2 POP PUSH3 0x7DA DUP4 PUSH3 0x7B3 JUMP JUMPDEST SWAP3 POP PUSH3 0x809 PUSH32 0xFFFFFFFFFFFFFFFFFFFFFFFFFFFFFFFFFFFFFFFFFFFFFFFFFFFFFFFFFFFFFFFF DUP5 DUP5 PUSH3 0x6C7 JUMP JUMPDEST SWAP1 POP SWAP3 SWAP2 POP POP JUMP JUMPDEST PUSH1 0x0 PUSH3 0x81E DUP3 PUSH3 0x5AE JUMP JUMPDEST SWAP2 POP PUSH3 0x82B DUP4 PUSH3 0x5AE JUMP JUMPDEST SWAP3 POP DUP3 DUP3 MUL PUSH3 0x83B DUP2 PUSH3 0x5AE JUMP JUMPDEST SWAP2 POP DUP3 DUP3 DIV DUP5 EQ DUP4 ISZERO OR PUSH3 0x855 JUMPI PUSH3 0x854 PUSH3 0x630 JUMP JUMPDEST JUMPDEST POP SWAP3 SWAP2 POP POP JUMP JUMPDEST PUSH1 0x0 DUP2 MLOAD SWAP1 POP SWAP2 SWAP1 POP JUMP JUMPDEST PUSH32 0x4E487B7100000000000000000000000000000000000000000000000000000000 PUSH1 0x0 MSTORE PUSH1 0x41 PUSH1 0x4 MSTORE PUSH1 0x24 PUSH1 0x0 REVERT JUMPDEST PUSH32 0x4E487B7100000000000000000000000000000000000000000000000000000000 PUSH1 0x0 MSTORE PUSH1 0x22 PUSH1 0x4 MSTORE PUSH1 0x24 PUSH1 0x0 REVERT JUMPDEST PUSH1 0x0 PUSH1 0x2 DUP3 DIV SWAP1 POP PUSH1 0x1 DUP3 AND DUP1 PUSH3 0x8DE JUMPI PUSH1 0x7F DUP3 AND SWAP2 POP JUMPDEST PUSH1 0x20 DUP3 LT DUP2 SUB PUSH3 0x8F4 JUMPI PUSH3 0x8F3 PUSH3 0x896 JUMP JUMPDEST JUMPDEST POP SWAP2 SWAP1 POP JUMP JUMPDEST PUSH1 0x0 DUP2 SWAP1 POP DUP2 PUSH1 0x0 MSTORE PUSH1 0x20 PUSH1 0x0 KECCAK256 SWAP1 POP SWAP2 SWAP1 POP JUMP JUMPDEST PUSH1 0x0 PUSH1 0x20 PUSH1 0x1F DUP4 ADD DIV SWAP1 POP SWAP2 SWAP1 POP JUMP JUMPDEST PUSH1 0x0 DUP3 DUP3 SHL SWAP1 POP SWAP3 SWAP2 POP POP JUMP JUMPDEST PUSH1 0x0 PUSH1 0x8 DUP4 MUL PUSH3 0x95E PUSH32 0xFFFFFFFFFFFFFFFFFFFFFFFFFFFFFFFFFFFFFFFFFFFFFFFFFFFFFFFFFFFFFFFF DUP3 PUSH3 0x91F JUMP JUMPDEST PUSH3 0x96A DUP7 DUP4 PUSH3 0x91F JUMP JUMPDEST SWAP6 POP DUP1 NOT DUP5 AND SWAP4 POP DUP1 DUP7 AND DUP5 OR SWAP3 POP POP POP SWAP4 SWAP3 POP POP POP JUMP JUMPDEST PUSH1 0x0 DUP2 SWAP1 POP SWAP2 SWAP1 POP JUMP JUMPDEST PUSH1 0x0 PUSH3 0x9AD PUSH3 0x9A7 PUSH3 0x9A1 DUP5 PUSH3 0x5AE JUMP JUMPDEST PUSH3 0x982 JUMP JUMPDEST PUSH3 0x5AE JUMP JUMPDEST SWAP1 POP SWAP2 SWAP1 POP JUMP JUMPDEST PUSH1 0x0 DUP2 SWAP1 POP SWAP2 SWAP1 POP JUMP JUMPDEST PUSH3 0x9C9 DUP4 PUSH3 0x98C JUMP JUMPDEST PUSH3 0x9E1 PUSH3 0x9D8 DUP3 PUSH3 0x9B4 JUMP JUMPDEST DUP5 DUP5 SLOAD PUSH3 0x92C JUMP JUMPDEST DUP3 SSTORE POP POP POP POP JUMP JUMPDEST PUSH1 0x0 SWAP1 JUMP JUMPDEST PUSH3 0x9F8 PUSH3 0x9E9 JUMP JUMPDEST PUSH3 0xA05 DUP2 DUP5 DUP5 PUSH3 0x9BE JUMP JUMPDEST POP POP POP JUMP JUMPDEST JUMPDEST DUP2 DUP2 LT ISZERO PUSH3 0xA2D JUMPI PUSH3 0xA21 PUSH1 0x0 DUP3 PUSH3 0x9EE JUMP JUMPDEST PUSH1 0x1 DUP2 ADD SWAP1 POP PUSH3 0xA0B JUMP JUMPDEST POP POP JUMP JUMPDEST PUSH1 0x1F DUP3 GT ISZERO PUSH3 0xA7C JUMPI PUSH3 0xA46 DUP2 PUSH3 0x8FA JUMP JUMPDEST PUSH3 0xA51 DUP5 PUSH3 0x90F JUMP JUMPDEST DUP2 ADD PUSH1 0x20 DUP6 LT ISZERO PUSH3 0xA61 JUMPI DUP2 SWAP1 POP JUMPDEST PUSH3 0xA79 PUSH3 0xA70 DUP6 PUSH3 0x90F JUMP JUMPDEST DUP4 ADD DUP3 PUSH3 0xA0A JUMP JUMPDEST POP POP JUMPDEST POP POP POP JUMP JUMPDEST PUSH1 0x0 DUP3 DUP3 SHR SWAP1 POP SWAP3 SWAP2 POP POP JUMP JUMPDEST PUSH1 0x0 PUSH3 0xAA1 PUSH1 0x0 NOT DUP5 PUSH1 0x8 MUL PUSH3 0xA81 JUMP JUMPDEST NOT DUP1 DUP4 AND SWAP2 POP POP SWAP3 SWAP2 POP POP JUMP JUMPDEST PUSH1 0x0 PUSH3 0xABC DUP4 DUP4 PUSH3 0xA8E JUMP JUMPDEST SWAP2 POP DUP3 PUSH1 0x2 MUL DUP3 OR SWAP1 POP SWAP3 SWAP2 POP POP JUMP JUMPDEST PUSH3 0xAD7 DUP3 PUSH3 0x85C JUMP JUMPDEST PUSH8 0xFFFFFFFFFFFFFFFF DUP2 GT ISZERO PUSH3 0xAF3 JUMPI PUSH3 0xAF2 PUSH3 0x867 JUMP JUMPDEST JUMPDEST PUSH3 0xAFF DUP3 SLOAD PUSH3 0x8C5 JUMP JUMPDEST PUSH3 0xB0C DUP3 DUP3 DUP6 PUSH3 0xA31 JUMP JUMPDEST PUSH1 0x0 PUSH1 0x20 SWAP1 POP PUSH1 0x1F DUP4 GT PUSH1 0x1 DUP2 EQ PUSH3 0xB44 JUMPI PUSH1 0x0 DUP5 ISZERO PUSH3 0xB2F JUMPI DUP3 DUP8 ADD MLOAD SWAP1 POP JUMPDEST PUSH3 0xB3B DUP6 DUP3 PUSH3 0xAAE JUMP JUMPDEST DUP7 SSTORE POP PUSH3 0xBAB JUMP JUMPDEST PUSH1 0x1F NOT DUP5 AND PUSH3 0xB54 DUP7 PUSH3 0x8FA JUMP JUMPDEST PUSH1 0x0 JUMPDEST DUP3 DUP2 LT ISZERO PUSH3 0xB7E JUMPI DUP5 DUP10 ADD MLOAD DUP3 SSTORE PUSH1 0x1 DUP3 ADD SWAP2 POP PUSH1 0x20 DUP6 ADD SWAP5 POP PUSH1 0x20 DUP2 ADD SWAP1 POP PUSH3 0xB57 JUMP JUMPDEST DUP7 DUP4 LT ISZERO PUSH3 0xB9E JUMPI DUP5 DUP10 ADD MLOAD PUSH3 0xB9A PUSH1 0x1F DUP10 AND DUP3 PUSH3 0xA8E JUMP JUMPDEST DUP4 SSTORE POP JUMPDEST PUSH1 0x1 PUSH1 0x2 DUP9 MUL ADD DUP9 SSTORE POP POP POP JUMPDEST POP POP POP POP POP POP JUMP JUMPDEST PUSH1 0x0 DUP3 DUP3 MSTORE PUSH1 0x20 DUP3 ADD SWAP1 POP SWAP3 SWAP2 POP POP JUMP JUMPDEST PUSH32 0x45524332304361707065643A2063617020697320300000000000000000000000 PUSH1 0x0 DUP3 ADD MSTORE POP JUMP JUMPDEST PUSH1 0x0 PUSH3 0xBFC PUSH1 0x15 DUP4 PUSH3 0xBB3 JUMP JUMPDEST SWAP2 POP PUSH3 0xC09 DUP3 PUSH3 0xBC4 JUMP JUMPDEST PUSH1 0x20 DUP3 ADD SWAP1 POP SWAP2 SWAP1 POP JUMP JUMPDEST PUSH1 0x0 PUSH1 0x20 DUP3 ADD SWAP1 POP DUP2 DUP2 SUB PUSH1 0x0 DUP4 ADD MSTORE PUSH3 0xC2F DUP2 PUSH3 0xBED JUMP JUMPDEST SWAP1 POP SWAP2 SWAP1 POP JUMP JUMPDEST PUSH1 0x0 PUSH3 0xC43 DUP3 PUSH3 0x5AE JUMP JUMPDEST SWAP2 POP PUSH3 0xC50 DUP4 PUSH3 0x5AE JUMP JUMPDEST SWAP3 POP DUP3 DUP3 ADD SWAP1 POP DUP1 DUP3 GT ISZERO PUSH3 0xC6B JUMPI PUSH3 0xC6A PUSH3 0x630 JUMP JUMPDEST JUMPDEST SWAP3 SWAP2 POP POP JUMP JUMPDEST PUSH32 0x45524332304361707065643A2063617020657863656564656400000000000000 PUSH1 0x0 DUP3 ADD MSTORE POP JUMP JUMPDEST PUSH1 0x0 PUSH3 0xCA9 PUSH1 0x19 DUP4 PUSH3 0xBB3 JUMP JUMPDEST SWAP2 POP PUSH3 0xCB6 DUP3 PUSH3 0xC71 JUMP JUMPDEST PUSH1 0x20 DUP3 ADD SWAP1 POP SWAP2 SWAP1 POP JUMP JUMPDEST PUSH1 0x0 PUSH1 0x20 DUP3 ADD SWAP1 POP DUP2 DUP2 SUB PUSH1 0x0 DUP4 ADD MSTORE PUSH3 0xCDC DUP2 PUSH3 0xC9A JUMP JUMPDEST SWAP1 POP SWAP2 SWAP1 POP JUMP JUMPDEST PUSH32 0x45524332303A206D696E7420746F20746865207A65726F206164647265737300 PUSH1 0x0 DUP3 ADD MSTORE POP JUMP JUMPDEST PUSH1 0x0 PUSH3 0xD1B PUSH1 0x1F DUP4 PUSH3 0xBB3 JUMP JUMPDEST SWAP2 POP PUSH3 0xD28 DUP3 PUSH3 0xCE3 JUMP JUMPDEST PUSH1 0x20 DUP3 ADD SWAP1 POP SWAP2 SWAP1 POP JUMP JUMPDEST PUSH1 0x0 PUSH1 0x20 DUP3 ADD SWAP1 POP DUP2 DUP2 SUB PUSH1 0x0 DUP4 ADD MSTORE PUSH3 0xD4E DUP2 PUSH3 0xD0C JUMP JUMPDEST SWAP1 POP SWAP2 SWAP1 POP JUMP JUMPDEST PUSH3 0xD60 DUP2 PUSH3 0x5AE JUMP JUMPDEST DUP3 MSTORE POP POP JUMP JUMPDEST PUSH1 0x0 PUSH1 0x20 DUP3 ADD SWAP1 POP PUSH3 0xD7D PUSH1 0x0 DUP4 ADD DUP5 PUSH3 0xD55 JUMP JUMPDEST SWAP3 SWAP2 POP POP JUMP JUMPDEST PUSH1 0x80 MLOAD PUSH2 0x1EDA PUSH3 0xD9F PUSH1 0x0 CODECOPY PUSH1 0x0 PUSH2 0x61F ADD MSTORE PUSH2 0x1EDA PUSH1 0x0 RETURN INVALID PUSH1 0x80 PUSH1 0x40 MSTORE CALLVALUE DUP1 ISZERO PUSH2 0x10 JUMPI PUSH1 0x0 DUP1 REVERT JUMPDEST POP PUSH1 0x4 CALLDATASIZE LT PUSH2 0x116 JUMPI PUSH1 0x0 CALLDATALOAD PUSH1 0xE0 SHR DUP1 PUSH4 0x39509351 GT PUSH2 0xA2 JUMPI DUP1 PUSH4 0x8DA5CB5B GT PUSH2 0x71 JUMPI DUP1 PUSH4 0x8DA5CB5B EQ PUSH2 0x2CF JUMPI DUP1 PUSH4 0x95D89B41 EQ PUSH2 0x2ED JUMPI DUP1 PUSH4 0xA457C2D7 EQ PUSH2 0x30B JUMPI DUP1 PUSH4 0xA9059CBB EQ PUSH2 0x33B JUMPI DUP1 PUSH4 0xDD62ED3E EQ PUSH2 0x36B JUMPI PUSH2 0x116 JUMP JUMPDEST DUP1 PUSH4 0x39509351 EQ PUSH2 0x237 JUMPI DUP1 PUSH4 0x42966C68 EQ PUSH2 0x267 JUMPI DUP1 PUSH4 0x70A08231 EQ PUSH2 0x283 JUMPI DUP1 PUSH4 0x79CC6790 EQ PUSH2 0x2B3 JUMPI PUSH2 0x116 JUMP JUMPDEST DUP1 PUSH4 0x18160DDD GT PUSH2 0xE9 JUMPI DUP1 PUSH4 0x18160DDD EQ PUSH2 0x191 JUMPI DUP1 PUSH4 0x1A18E707 EQ PUSH2 0x1AF JUMPI DUP1 PUSH4 0x23B872DD EQ PUSH2 0x1CB JUMPI DUP1 PUSH4 0x313CE567 EQ PUSH2 0x1FB JUMPI DUP1 PUSH4 0x355274EA EQ PUSH2 0x219 JUMPI PUSH2 0x116 JUMP JUMPDEST DUP1 PUSH4 0x6FDDE03 EQ PUSH2 0x11B JUMPI DUP1 PUSH4 0x92A5CCE EQ PUSH2 0x139 JUMPI DUP1 PUSH4 0x95EA7B3 EQ PUSH2 0x143 JUMPI DUP1 PUSH4 0xAC168A1 EQ PUSH2 0x173 JUMPI JUMPDEST PUSH1 0x0 DUP1 REVERT JUMPDEST PUSH2 0x123 PUSH2 0x39B JUMP JUMPDEST PUSH1 0x40 MLOAD PUSH2 0x130 SWAP2 SWAP1 PUSH2 0x1300 JUMP JUMPDEST PUSH1 0x40 MLOAD DUP1 SWAP2 SUB SWAP1 RETURN JUMPDEST PUSH2 0x141 PUSH2 0x42D JUMP JUMPDEST STOP JUMPDEST PUSH2 0x15D PUSH1 0x4 DUP1 CALLDATASIZE SUB DUP2 ADD SWAP1 PUSH2 0x158 SWAP2 SWAP1 PUSH2 0x13BB JUMP JUMPDEST PUSH2 0x4F8 JUMP JUMPDEST PUSH1 0x40 MLOAD PUSH2 0x16A SWAP2 SWAP1 PUSH2 0x1416 JUMP JUMPDEST PUSH1 0x40 MLOAD DUP1 SWAP2 SUB SWAP1 RETURN JUMPDEST PUSH2 0x17B PUSH2 0x51B JUMP JUMPDEST PUSH1 0x40 MLOAD PUSH2 0x188 SWAP2 SWAP1 PUSH2 0x1440 JUMP JUMPDEST PUSH1 0x40 MLOAD DUP1 SWAP2 SUB SWAP1 RETURN JUMPDEST PUSH2 0x199 PUSH2 0x521 JUMP JUMPDEST PUSH1 0x40 MLOAD PUSH2 0x1A6 SWAP2 SWAP1 PUSH2 0x1440 JUMP JUMPDEST PUSH1 0x40 MLOAD DUP1 SWAP2 SUB SWAP1 RETURN JUMPDEST PUSH2 0x1C9 PUSH1 0x4 DUP1 CALLDATASIZE SUB DUP2 ADD SWAP1 PUSH2 0x1C4 SWAP2 SWAP1 PUSH2 0x145B JUMP JUMPDEST PUSH2 0x52B JUMP JUMPDEST STOP JUMPDEST PUSH2 0x1E5 PUSH1 0x4 DUP1 CALLDATASIZE SUB DUP2 ADD SWAP1 PUSH2 0x1E0 SWAP2 SWAP1 PUSH2 0x1488 JUMP JUMPDEST PUSH2 0x5E3 JUMP JUMPDEST PUSH1 0x40 MLOAD PUSH2 0x1F2 SWAP2 SWAP1 PUSH2 0x1416 JUMP JUMPDEST PUSH1 0x40 MLOAD DUP1 SWAP2 SUB SWAP1 RETURN JUMPDEST PUSH2 0x203 PUSH2 0x612 JUMP JUMPDEST PUSH1 0x40 MLOAD PUSH2 0x210 SWAP2 SWAP1 PUSH2 0x14F7 JUMP JUMPDEST PUSH1 0x40 MLOAD DUP1 SWAP2 SUB SWAP1 RETURN JUMPDEST PUSH2 0x221 PUSH2 0x61B JUMP JUMPDEST PUSH1 0x40 MLOAD PUSH2 0x22E SWAP2 SWAP1 PUSH2 0x1440 JUMP JUMPDEST PUSH1 0x40 MLOAD DUP1 SWAP2 SUB SWAP1 RETURN JUMPDEST PUSH2 0x251 PUSH1 0x4 DUP1 CALLDATASIZE SUB DUP2 ADD SWAP1 PUSH2 0x24C SWAP2 SWAP1 PUSH2 0x13BB JUMP JUMPDEST PUSH2 0x643 JUMP JUMPDEST PUSH1 0x40 MLOAD PUSH2 0x25E SWAP2 SWAP1 PUSH2 0x1416 JUMP JUMPDEST PUSH1 0x40 MLOAD DUP1 SWAP2 SUB SWAP1 RETURN JUMPDEST PUSH2 0x281 PUSH1 0x4 DUP1 CALLDATASIZE SUB DUP2 ADD SWAP1 PUSH2 0x27C SWAP2 SWAP1 PUSH2 0x145B JUMP JUMPDEST PUSH2 0x67A JUMP JUMPDEST STOP JUMPDEST PUSH2 0x29D PUSH1 0x4 DUP1 CALLDATASIZE SUB DUP2 ADD SWAP1 PUSH2 0x298 SWAP2 SWAP1 PUSH2 0x1512 JUMP JUMPDEST PUSH2 0x68E JUMP JUMPDEST PUSH1 0x40 MLOAD PUSH2 0x2AA SWAP2 SWAP1 PUSH2 0x1440 JUMP JUMPDEST PUSH1 0x40 MLOAD DUP1 SWAP2 SUB SWAP1 RETURN JUMPDEST PUSH2 0x2CD PUSH1 0x4 DUP1 CALLDATASIZE SUB DUP2 ADD SWAP1 PUSH2 0x2C8 SWAP2 SWAP1 PUSH2 0x13BB JUMP JUMPDEST PUSH2 0x6D6 JUMP JUMPDEST STOP JUMPDEST PUSH2 0x2D7 PUSH2 0x6F6 JUMP JUMPDEST PUSH1 0x40 MLOAD PUSH2 0x2E4 SWAP2 SWAP1 PUSH2 0x1560 JUMP JUMPDEST PUSH1 0x40 MLOAD DUP1 SWAP2 SUB SWAP1 RETURN JUMPDEST PUSH2 0x2F5 PUSH2 0x71C JUMP JUMPDEST PUSH1 0x40 MLOAD PUSH2 0x302 SWAP2 SWAP1 PUSH2 0x1300 JUMP JUMPDEST PUSH1 0x40 MLOAD DUP1 SWAP2 SUB SWAP1 RETURN JUMPDEST PUSH2 0x325 PUSH1 0x4 DUP1 CALLDATASIZE SUB DUP2 ADD SWAP1 PUSH2 0x320 SWAP2 SWAP1 PUSH2 0x13BB JUMP JUMPDEST PUSH2 0x7AE JUMP JUMPDEST PUSH1 0x40 MLOAD PUSH2 0x332 SWAP2 SWAP1 PUSH2 0x1416 JUMP JUMPDEST PUSH1 0x40 MLOAD DUP1 SWAP2 SUB SWAP1 RETURN JUMPDEST PUSH2 0x355 PUSH1 0x4 DUP1 CALLDATASIZE SUB DUP2 ADD SWAP1 PUSH2 0x350 SWAP2 SWAP1 PUSH2 0x13BB JUMP JUMPDEST PUSH2 0x825 JUMP JUMPDEST PUSH1 0x40 MLOAD PUSH2 0x362 SWAP2 SWAP1 PUSH2 0x1416 JUMP JUMPDEST PUSH1 0x40 MLOAD DUP1 SWAP2 SUB SWAP1 RETURN JUMPDEST PUSH2 0x385 PUSH1 0x4 DUP1 CALLDATASIZE SUB DUP2 ADD SWAP1 PUSH2 0x380 SWAP2 SWAP1 PUSH2 0x157B JUMP JUMPDEST PUSH2 0x848 JUMP JUMPDEST PUSH1 0x40 MLOAD PUSH2 0x392 SWAP2 SWAP1 PUSH2 0x1440 JUMP JUMPDEST PUSH1 0x40 MLOAD DUP1 SWAP2 SUB SWAP1 RETURN JUMPDEST PUSH1 0x60 PUSH1 0x3 DUP1 SLOAD PUSH2 0x3AA SWAP1 PUSH2 0x15EA JUMP JUMPDEST DUP1 PUSH1 0x1F ADD PUSH1 0x20 DUP1 SWAP2 DIV MUL PUSH1 0x20 ADD PUSH1 0x40 MLOAD SWAP1 DUP2 ADD PUSH1 0x40 MSTORE DUP1 SWAP3 SWAP2 SWAP1 DUP2 DUP2 MSTORE PUSH1 0x20 ADD DUP3 DUP1 SLOAD PUSH2 0x3D6 SWAP1 PUSH2 0x15EA JUMP JUMPDEST DUP1 ISZERO PUSH2 0x423 JUMPI DUP1 PUSH1 0x1F LT PUSH2 0x3F8 JUMPI PUSH2 0x100 DUP1 DUP4 SLOAD DIV MUL DUP4 MSTORE SWAP2 PUSH1 0x20 ADD SWAP2 PUSH2 0x423 JUMP JUMPDEST DUP3 ADD SWAP2 SWAP1 PUSH1 0x0 MSTORE PUSH1 0x20 PUSH1 0x0 KECCAK256 SWAP1 JUMPDEST DUP2 SLOAD DUP2 MSTORE SWAP1 PUSH1 0x1 ADD SWAP1 PUSH1 0x20 ADD DUP1 DUP4 GT PUSH2 0x406 JUMPI DUP3 SWAP1 SUB PUSH1 0x1F AND DUP3 ADD SWAP2 JUMPDEST POP POP POP POP POP SWAP1 POP SWAP1 JUMP JUMPDEST PUSH1 0x5 PUSH1 0x0 SWAP1 SLOAD SWAP1 PUSH2 0x100 EXP SWAP1 DIV PUSH20 0xFFFFFFFFFFFFFFFFFFFFFFFFFFFFFFFFFFFFFFFF AND PUSH20 0xFFFFFFFFFFFFFFFFFFFFFFFFFFFFFFFFFFFFFFFF AND CALLER PUSH20 0xFFFFFFFFFFFFFFFFFFFFFFFFFFFFFFFFFFFFFFFF AND EQ PUSH2 0x4BD JUMPI PUSH1 0x40 MLOAD PUSH32 0x8C379A000000000000000000000000000000000000000000000000000000000 DUP2 MSTORE PUSH1 0x4 ADD PUSH2 0x4B4 SWAP1 PUSH2 0x168D JUMP JUMPDEST PUSH1 0x40 MLOAD DUP1 SWAP2 SUB SWAP1 REVERT JUMPDEST PUSH1 0x5 PUSH1 0x0 SWAP1 SLOAD SWAP1 PUSH2 0x100 EXP SWAP1 DIV PUSH20 0xFFFFFFFFFFFFFFFFFFFFFFFFFFFFFFFFFFFFFFFF AND PUSH20 0xFFFFFFFFFFFFFFFFFFFFFFFFFFFFFFFFFFFFFFFF AND SELFDESTRUCT JUMPDEST PUSH1 0x0 DUP1 PUSH2 0x503 PUSH2 0x8CF JUMP JUMPDEST SWAP1 POP PUSH2 0x510 DUP2 DUP6 DUP6 PUSH2 0x8D7 JUMP JUMPDEST PUSH1 0x1 SWAP2 POP POP SWAP3 SWAP2 POP POP JUMP JUMPDEST PUSH1 0x6 SLOAD DUP2 JUMP JUMPDEST PUSH1 0x0 PUSH1 0x2 SLOAD SWAP1 POP SWAP1 JUMP JUMPDEST PUSH1 0x5 PUSH1 0x0 SWAP1 SLOAD SWAP1 PUSH2 0x100 EXP SWAP1 DIV PUSH20 0xFFFFFFFFFFFFFFFFFFFFFFFFFFFFFFFFFFFFFFFF AND PUSH20 0xFFFFFFFFFFFFFFFFFFFFFFFFFFFFFFFFFFFFFFFF AND CALLER PUSH20 0xFFFFFFFFFFFFFFFFFFFFFFFFFFFFFFFFFFFFFFFF AND EQ PUSH2 0x5BB JUMPI PUSH1 0x40 MLOAD PUSH32 0x8C379A000000000000000000000000000000000000000000000000000000000 DUP2 MSTORE PUSH1 0x4 ADD PUSH2 0x5B2 SWAP1 PUSH2 0x168D JUMP JUMPDEST PUSH1 0x40 MLOAD DUP1 SWAP2 SUB SWAP1 REVERT JUMPDEST PUSH2 0x5C3 PUSH2 0x612 JUMP JUMPDEST PUSH1 0xA PUSH2 0x5CF SWAP2 SWAP1 PUSH2 0x180F JUMP JUMPDEST DUP2 PUSH2 0x5DA SWAP2 SWAP1 PUSH2 0x185A JUMP JUMPDEST PUSH1 0x6 DUP2 SWAP1 SSTORE POP POP JUMP JUMPDEST PUSH1 0x0 DUP1 PUSH2 0x5EE PUSH2 0x8CF JUMP JUMPDEST SWAP1 POP PUSH2 0x5FB DUP6 DUP3 DUP6 PUSH2 0xAA0 JUMP JUMPDEST PUSH2 0x606 DUP6 DUP6 DUP6 PUSH2 0xB2C JUMP JUMPDEST PUSH1 0x1 SWAP2 POP POP SWAP4 SWAP3 POP POP POP JUMP JUMPDEST PUSH1 0x0 PUSH1 0x12 SWAP1 POP SWAP1 JUMP JUMPDEST PUSH1 0x0 PUSH32 0x0 SWAP1 POP SWAP1 JUMP JUMPDEST PUSH1 0x0 DUP1 PUSH2 0x64E PUSH2 0x8CF JUMP JUMPDEST SWAP1 POP PUSH2 0x66F DUP2 DUP6 DUP6 PUSH2 0x660 DUP6 DUP10 PUSH2 0x848 JUMP JUMPDEST PUSH2 0x66A SWAP2 SWAP1 PUSH2 0x189C JUMP JUMPDEST PUSH2 0x8D7 JUMP JUMPDEST PUSH1 0x1 SWAP2 POP POP SWAP3 SWAP2 POP POP JUMP JUMPDEST PUSH2 0x68B PUSH2 0x685 PUSH2 0x8CF JUMP JUMPDEST DUP3 PUSH2 0xDA2 JUMP JUMPDEST POP JUMP JUMPDEST PUSH1 0x0 DUP1 PUSH1 0x0 DUP4 PUSH20 0xFFFFFFFFFFFFFFFFFFFFFFFFFFFFFFFFFFFFFFFF AND PUSH20 0xFFFFFFFFFFFFFFFFFFFFFFFFFFFFFFFFFFFFFFFF AND DUP2 MSTORE PUSH1 0x20 ADD SWAP1 DUP2 MSTORE PUSH1 0x20 ADD PUSH1 0x0 KECCAK256 SLOAD SWAP1 POP SWAP2 SWAP1 POP JUMP JUMPDEST PUSH2 0x6E8 DUP3 PUSH2 0x6E2 PUSH2 0x8CF JUMP JUMPDEST DUP4 PUSH2 0xAA0 JUMP JUMPDEST PUSH2 0x6F2 DUP3 DUP3 PUSH2 0xDA2 JUMP JUMPDEST POP POP JUMP JUMPDEST PUSH1 0x5 PUSH1 0x0 SWAP1 SLOAD SWAP1 PUSH2 0x100 EXP SWAP1 DIV PUSH20 0xFFFFFFFFFFFFFFFFFFFFFFFFFFFFFFFFFFFFFFFF AND DUP2 JUMP JUMPDEST PUSH1 0x60 PUSH1 0x4 DUP1 SLOAD PUSH2 0x72B SWAP1 PUSH2 0x15EA JUMP JUMPDEST DUP1 PUSH1 0x1F ADD PUSH1 0x20 DUP1 SWAP2 DIV MUL PUSH1 0x20 ADD PUSH1 0x40 MLOAD SWAP1 DUP2 ADD PUSH1 0x40 MSTORE DUP1 SWAP3 SWAP2 SWAP1 DUP2 DUP2 MSTORE PUSH1 0x20 ADD DUP3 DUP1 SLOAD PUSH2 0x757 SWAP1 PUSH2 0x15EA JUMP JUMPDEST DUP1 ISZERO PUSH2 0x7A4 JUMPI DUP1 PUSH1 0x1F LT PUSH2 0x779 JUMPI PUSH2 0x100 DUP1 DUP4 SLOAD DIV MUL DUP4 MSTORE SWAP2 PUSH1 0x20 ADD SWAP2 PUSH2 0x7A4 JUMP JUMPDEST DUP3 ADD SWAP2 SWAP1 PUSH1 0x0 MSTORE PUSH1 0x20 PUSH1 0x0 KECCAK256 SWAP1 JUMPDEST DUP2 SLOAD DUP2 MSTORE SWAP1 PUSH1 0x1 ADD SWAP1 PUSH1 0x20 ADD DUP1 DUP4 GT PUSH2 0x787 JUMPI DUP3 SWAP1 SUB PUSH1 0x1F AND DUP3 ADD SWAP2 JUMPDEST POP POP POP POP POP SWAP1 POP SWAP1 JUMP JUMPDEST PUSH1 0x0 DUP1 PUSH2 0x7B9 PUSH2 0x8CF JUMP JUMPDEST SWAP1 POP PUSH1 0x0 PUSH2 0x7C7 DUP3 DUP7 PUSH2 0x848 JUMP JUMPDEST SWAP1 POP DUP4 DUP2 LT ISZERO PUSH2 0x80C JUMPI PUSH1 0x40 MLOAD PUSH32 0x8C379A000000000000000000000000000000000000000000000000000000000 DUP2 MSTORE PUSH1 0x4 ADD PUSH2 0x803 SWAP1 PUSH2 0x1942 JUMP JUMPDEST PUSH1 0x40 MLOAD DUP1 SWAP2 SUB SWAP1 REVERT JUMPDEST PUSH2 0x819 DUP3 DUP7 DUP7 DUP5 SUB PUSH2 0x8D7 JUMP JUMPDEST PUSH1 0x1 SWAP3 POP POP POP SWAP3 SWAP2 POP POP JUMP JUMPDEST PUSH1 0x0 DUP1 PUSH2 0x830 PUSH2 0x8CF JUMP JUMPDEST SWAP1 POP PUSH2 0x83D DUP2 DUP6 DUP6 PUSH2 0xB2C JUMP JUMPDEST PUSH1 0x1 SWAP2 POP POP SWAP3 SWAP2 POP POP JUMP JUMPDEST PUSH1 0x0 PUSH1 0x1 PUSH1 0x0 DUP5 PUSH20 0xFFFFFFFFFFFFFFFFFFFFFFFFFFFFFFFFFFFFFFFF AND PUSH20 0xFFFFFFFFFFFFFFFFFFFFFFFFFFFFFFFFFFFFFFFF AND DUP2 MSTORE PUSH1 0x20 ADD SWAP1 DUP2 MSTORE PUSH1 0x20 ADD PUSH1 0x0 KECCAK256 PUSH1 0x0 DUP4 PUSH20 0xFFFFFFFFFFFFFFFFFFFFFFFFFFFFFFFFFFFFFFFF AND PUSH20 0xFFFFFFFFFFFFFFFFFFFFFFFFFFFFFFFFFFFFFFFF AND DUP2 MSTORE PUSH1 0x20 ADD SWAP1 DUP2 MSTORE PUSH1 0x20 ADD PUSH1 0x0 KECCAK256 SLOAD SWAP1 POP SWAP3 SWAP2 POP POP JUMP JUMPDEST PUSH1 0x0 CALLER SWAP1 POP SWAP1 JUMP JUMPDEST PUSH1 0x0 PUSH20 0xFFFFFFFFFFFFFFFFFFFFFFFFFFFFFFFFFFFFFFFF AND DUP4 PUSH20 0xFFFFFFFFFFFFFFFFFFFFFFFFFFFFFFFFFFFFFFFF AND SUB PUSH2 0x946 JUMPI PUSH1 0x40 MLOAD PUSH32 0x8C379A000000000000000000000000000000000000000000000000000000000 DUP2 MSTORE PUSH1 0x4 ADD PUSH2 0x93D SWAP1 PUSH2 0x19D4 JUMP JUMPDEST PUSH1 0x40 MLOAD DUP1 SWAP2 SUB SWAP1 REVERT JUMPDEST PUSH1 0x0 PUSH20 0xFFFFFFFFFFFFFFFFFFFFFFFFFFFFFFFFFFFFFFFF AND DUP3 PUSH20 0xFFFFFFFFFFFFFFFFFFFFFFFFFFFFFFFFFFFFFFFF AND SUB PUSH2 0x9B5 JUMPI PUSH1 0x40 MLOAD PUSH32 0x8C379A000000000000000000000000000000000000000000000000000000000 DUP2 MSTORE PUSH1 0x4 ADD PUSH2 0x9AC SWAP1 PUSH2 0x1A66 JUMP JUMPDEST PUSH1 0x40 MLOAD DUP1 SWAP2 SUB SWAP1 REVERT JUMPDEST DUP1 PUSH1 0x1 PUSH1 0x0 DUP6 PUSH20 0xFFFFFFFFFFFFFFFFFFFFFFFFFFFFFFFFFFFFFFFF AND PUSH20 0xFFFFFFFFFFFFFFFFFFFFFFFFFFFFFFFFFFFFFFFF AND DUP2 MSTORE PUSH1 0x20 ADD SWAP1 DUP2 MSTORE PUSH1 0x20 ADD PUSH1 0x0 KECCAK256 PUSH1 0x0 DUP5 PUSH20 0xFFFFFFFFFFFFFFFFFFFFFFFFFFFFFFFFFFFFFFFF AND PUSH20 0xFFFFFFFFFFFFFFFFFFFFFFFFFFFFFFFFFFFFFFFF AND DUP2 MSTORE PUSH1 0x20 ADD SWAP1 DUP2 MSTORE PUSH1 0x20 ADD PUSH1 0x0 KECCAK256 DUP2 SWAP1 SSTORE POP DUP2 PUSH20 0xFFFFFFFFFFFFFFFFFFFFFFFFFFFFFFFFFFFFFFFF AND DUP4 PUSH20 0xFFFFFFFFFFFFFFFFFFFFFFFFFFFFFFFFFFFFFFFF AND PUSH32 0x8C5BE1E5EBEC7D5BD14F71427D1E84F3DD0314C0F7B2291E5B200AC8C7C3B925 DUP4 PUSH1 0x40 MLOAD PUSH2 0xA93 SWAP2 SWAP1 PUSH2 0x1440 JUMP JUMPDEST PUSH1 0x40 MLOAD DUP1 SWAP2 SUB SWAP1 LOG3 POP POP POP JUMP JUMPDEST PUSH1 0x0 PUSH2 0xAAC DUP5 DUP5 PUSH2 0x848 JUMP JUMPDEST SWAP1 POP PUSH32 0xFFFFFFFFFFFFFFFFFFFFFFFFFFFFFFFFFFFFFFFFFFFFFFFFFFFFFFFFFFFFFFFF DUP2 EQ PUSH2 0xB26 JUMPI DUP2 DUP2 LT ISZERO PUSH2 0xB18 JUMPI PUSH1 0x40 MLOAD PUSH32 0x8C379A000000000000000000000000000000000000000000000000000000000 DUP2 MSTORE PUSH1 0x4 ADD PUSH2 0xB0F SWAP1 PUSH2 0x1AD2 JUMP JUMPDEST PUSH1 0x40 MLOAD DUP1 SWAP2 SUB SWAP1 REVERT JUMPDEST PUSH2 0xB25 DUP5 DUP5 DUP5 DUP5 SUB PUSH2 0x8D7 JUMP JUMPDEST JUMPDEST POP POP POP POP JUMP JUMPDEST PUSH1 0x0 PUSH20 0xFFFFFFFFFFFFFFFFFFFFFFFFFFFFFFFFFFFFFFFF AND DUP4 PUSH20 0xFFFFFFFFFFFFFFFFFFFFFFFFFFFFFFFFFFFFFFFF AND SUB PUSH2 0xB9B JUMPI PUSH1 0x40 MLOAD PUSH32 0x8C379A000000000000000000000000000000000000000000000000000000000 DUP2 MSTORE PUSH1 0x4 ADD PUSH2 0xB92 SWAP1 PUSH2 0x1B64 JUMP JUMPDEST PUSH1 0x40 MLOAD DUP1 SWAP2 SUB SWAP1 REVERT JUMPDEST PUSH1 0x0 PUSH20 0xFFFFFFFFFFFFFFFFFFFFFFFFFFFFFFFFFFFFFFFF AND DUP3 PUSH20 0xFFFFFFFFFFFFFFFFFFFFFFFFFFFFFFFFFFFFFFFF AND SUB PUSH2 0xC0A JUMPI PUSH1 0x40 MLOAD PUSH32 0x8C379A000000000000000000000000000000000000000000000000000000000 DUP2 MSTORE PUSH1 0x4 ADD PUSH2 0xC01 SWAP1 PUSH2 0x1BF6 JUMP JUMPDEST PUSH1 0x40 MLOAD DUP1 SWAP2 SUB SWAP1 REVERT JUMPDEST PUSH2 0xC15 DUP4 DUP4 DUP4 PUSH2 0xF6F JUMP JUMPDEST PUSH1 0x0 DUP1 PUSH1 0x0 DUP6 PUSH20 0xFFFFFFFFFFFFFFFFFFFFFFFFFFFFFFFFFFFFFFFF AND PUSH20 0xFFFFFFFFFFFFFFFFFFFFFFFFFFFFFFFFFFFFFFFF AND DUP2 MSTORE PUSH1 0x20 ADD SWAP1 DUP2 MSTORE PUSH1 0x20 ADD PUSH1 0x0 KECCAK256 SLOAD SWAP1 POP DUP2 DUP2 LT ISZERO PUSH2 0xC9B JUMPI PUSH1 0x40 MLOAD PUSH32 0x8C379A000000000000000000000000000000000000000000000000000000000 DUP2 MSTORE PUSH1 0x4 ADD PUSH2 0xC92 SWAP1 PUSH2 0x1C88 JUMP JUMPDEST PUSH1 0x40 MLOAD DUP1 SWAP2 SUB SWAP1 REVERT JUMPDEST DUP2 DUP2 SUB PUSH1 0x0 DUP1 DUP7 PUSH20 0xFFFFFFFFFFFFFFFFFFFFFFFFFFFFFFFFFFFFFFFF AND PUSH20 0xFFFFFFFFFFFFFFFFFFFFFFFFFFFFFFFFFFFFFFFF AND DUP2 MSTORE PUSH1 0x20 ADD SWAP1 DUP2 MSTORE PUSH1 0x20 ADD PUSH1 0x0 KECCAK256 DUP2 SWAP1 SSTORE POP DUP2 PUSH1 0x0 DUP1 DUP6 PUSH20 0xFFFFFFFFFFFFFFFFFFFFFFFFFFFFFFFFFFFFFFFF AND PUSH20 0xFFFFFFFFFFFFFFFFFFFFFFFFFFFFFFFFFFFFFFFF AND DUP2 MSTORE PUSH1 0x20 ADD SWAP1 DUP2 MSTORE PUSH1 0x20 ADD PUSH1 0x0 KECCAK256 PUSH1 0x0 DUP3 DUP3 SLOAD ADD SWAP3 POP POP DUP2 SWAP1 SSTORE POP DUP3 PUSH20 0xFFFFFFFFFFFFFFFFFFFFFFFFFFFFFFFFFFFFFFFF AND DUP5 PUSH20 0xFFFFFFFFFFFFFFFFFFFFFFFFFFFFFFFFFFFFFFFF AND PUSH32 0xDDF252AD1BE2C89B69C2B068FC378DAA952BA7F163C4A11628F55A4DF523B3EF DUP5 PUSH1 0x40 MLOAD PUSH2 0xD89 SWAP2 SWAP1 PUSH2 0x1440 JUMP JUMPDEST PUSH1 0x40 MLOAD DUP1 SWAP2 SUB SWAP1 LOG3 PUSH2 0xD9C DUP5 DUP5 DUP5 PUSH2 0x102E JUMP JUMPDEST POP POP POP POP JUMP JUMPDEST PUSH1 0x0 PUSH20 0xFFFFFFFFFFFFFFFFFFFFFFFFFFFFFFFFFFFFFFFF AND DUP3 PUSH20 0xFFFFFFFFFFFFFFFFFFFFFFFFFFFFFFFFFFFFFFFF AND SUB PUSH2 0xE11 JUMPI PUSH1 0x40 MLOAD PUSH32 0x8C379A000000000000000000000000000000000000000000000000000000000 DUP2 MSTORE PUSH1 0x4 ADD PUSH2 0xE08 SWAP1 PUSH2 0x1D1A JUMP JUMPDEST PUSH1 0x40 MLOAD DUP1 SWAP2 SUB SWAP1 REVERT JUMPDEST PUSH2 0xE1D DUP3 PUSH1 0x0 DUP4 PUSH2 0xF6F JUMP JUMPDEST PUSH1 0x0 DUP1 PUSH1 0x0 DUP5 PUSH20 0xFFFFFFFFFFFFFFFFFFFFFFFFFFFFFFFFFFFFFFFF AND PUSH20 0xFFFFFFFFFFFFFFFFFFFFFFFFFFFFFFFFFFFFFFFF AND DUP2 MSTORE PUSH1 0x20 ADD SWAP1 DUP2 MSTORE PUSH1 0x20 ADD PUSH1 0x0 KECCAK256 SLOAD SWAP1 POP DUP2 DUP2 LT ISZERO PUSH2 0xEA3 JUMPI PUSH1 0x40 MLOAD PUSH32 0x8C379A000000000000000000000000000000000000000000000000000000000 DUP2 MSTORE PUSH1 0x4 ADD PUSH2 0xE9A SWAP1 PUSH2 0x1DAC JUMP JUMPDEST PUSH1 0x40 MLOAD DUP1 SWAP2 SUB SWAP1 REVERT JUMPDEST DUP2 DUP2 SUB PUSH1 0x0 DUP1 DUP6 PUSH20 0xFFFFFFFFFFFFFFFFFFFFFFFFFFFFFFFFFFFFFFFF AND PUSH20 0xFFFFFFFFFFFFFFFFFFFFFFFFFFFFFFFFFFFFFFFF AND DUP2 MSTORE PUSH1 0x20 ADD SWAP1 DUP2 MSTORE PUSH1 0x20 ADD PUSH1 0x0 KECCAK256 DUP2 SWAP1 SSTORE POP DUP2 PUSH1 0x2 PUSH1 0x0 DUP3 DUP3 SLOAD SUB SWAP3 POP POP DUP2 SWAP1 SSTORE POP PUSH1 0x0 PUSH20 0xFFFFFFFFFFFFFFFFFFFFFFFFFFFFFFFFFFFFFFFF AND DUP4 PUSH20 0xFFFFFFFFFFFFFFFFFFFFFFFFFFFFFFFFFFFFFFFF AND PUSH32 0xDDF252AD1BE2C89B69C2B068FC378DAA952BA7F163C4A11628F55A4DF523B3EF DUP5 PUSH1 0x40 MLOAD PUSH2 0xF56 SWAP2 SWAP1 PUSH2 0x1440 JUMP JUMPDEST PUSH1 0x40 MLOAD DUP1 SWAP2 SUB SWAP1 LOG3 PUSH2 0xF6A DUP4 PUSH1 0x0 DUP5 PUSH2 0x102E JUMP JUMPDEST POP POP POP JUMP JUMPDEST COINBASE PUSH20 0xFFFFFFFFFFFFFFFFFFFFFFFFFFFFFFFFFFFFFFFF AND DUP4 PUSH20 0xFFFFFFFFFFFFFFFFFFFFFFFFFFFFFFFFFFFFFFFF AND EQ ISZERO DUP1 ISZERO PUSH2 0xFD7 JUMPI POP COINBASE PUSH20 0xFFFFFFFFFFFFFFFFFFFFFFFFFFFFFFFFFFFFFFFF AND DUP3 PUSH20 0xFFFFFFFFFFFFFFFFFFFFFFFFFFFFFFFFFFFFFFFF AND EQ ISZERO JUMPDEST DUP1 ISZERO PUSH2 0x1010 JUMPI POP PUSH1 0x0 PUSH20 0xFFFFFFFFFFFFFFFFFFFFFFFFFFFFFFFFFFFFFFFF AND COINBASE PUSH20 0xFFFFFFFFFFFFFFFFFFFFFFFFFFFFFFFFFFFFFFFF AND EQ ISZERO JUMPDEST ISZERO PUSH2 0x101E JUMPI PUSH2 0x101D PUSH2 0x1033 JUMP JUMPDEST JUMPDEST PUSH2 0x1029 DUP4 DUP4 DUP4 PUSH2 0x1041 JUMP JUMPDEST POP POP POP JUMP JUMPDEST POP POP POP JUMP JUMPDEST PUSH2 0x103F COINBASE PUSH1 0x6 SLOAD PUSH2 0x1046 JUMP JUMPDEST JUMP JUMPDEST POP POP POP JUMP JUMPDEST PUSH2 0x104E PUSH2 0x61B JUMP JUMPDEST DUP2 PUSH2 0x1057 PUSH2 0x521 JUMP JUMPDEST PUSH2 0x1061 SWAP2 SWAP1 PUSH2 0x189C JUMP JUMPDEST GT ISZERO PUSH2 0x10A2 JUMPI PUSH1 0x40 MLOAD PUSH32 0x8C379A000000000000000000000000000000000000000000000000000000000 DUP2 MSTORE PUSH1 0x4 ADD PUSH2 0x1099 SWAP1 PUSH2 0x1E18 JUMP JUMPDEST PUSH1 0x40 MLOAD DUP1 SWAP2 SUB SWAP1 REVERT JUMPDEST PUSH2 0x10AC DUP3 DUP3 PUSH2 0x10B0 JUMP JUMPDEST POP POP JUMP JUMPDEST PUSH2 0x10B8 PUSH2 0x61B JUMP JUMPDEST DUP2 PUSH2 0x10C1 PUSH2 0x521 JUMP JUMPDEST PUSH2 0x10CB SWAP2 SWAP1 PUSH2 0x189C JUMP JUMPDEST GT ISZERO PUSH2 0x110C JUMPI PUSH1 0x40 MLOAD PUSH32 0x8C379A000000000000000000000000000000000000000000000000000000000 DUP2 MSTORE PUSH1 0x4 ADD PUSH2 0x1103 SWAP1 PUSH2 0x1E18 JUMP JUMPDEST PUSH1 0x40 MLOAD DUP1 SWAP2 SUB SWAP1 REVERT JUMPDEST PUSH2 0x1116 DUP3 DUP3 PUSH2 0x111A JUMP JUMPDEST POP POP JUMP JUMPDEST PUSH1 0x0 PUSH20 0xFFFFFFFFFFFFFFFFFFFFFFFFFFFFFFFFFFFFFFFF AND DUP3 PUSH20 0xFFFFFFFFFFFFFFFFFFFFFFFFFFFFFFFFFFFFFFFF AND SUB PUSH2 0x1189 JUMPI PUSH1 0x40 MLOAD PUSH32 0x8C379A000000000000000000000000000000000000000000000000000000000 DUP2 MSTORE PUSH1 0x4 ADD PUSH2 0x1180 SWAP1 PUSH2 0x1E84 JUMP JUMPDEST PUSH1 0x40 MLOAD DUP1 SWAP2 SUB SWAP1 REVERT JUMPDEST PUSH2 0x1195 PUSH1 0x0 DUP4 DUP4 PUSH2 0xF6F JUMP JUMPDEST DUP1 PUSH1 0x2 PUSH1 0x0 DUP3 DUP3 SLOAD PUSH2 0x11A7 SWAP2 SWAP1 PUSH2 0x189C JUMP JUMPDEST SWAP3 POP POP DUP2 SWAP1 SSTORE POP DUP1 PUSH1 0x0 DUP1 DUP5 PUSH20 0xFFFFFFFFFFFFFFFFFFFFFFFFFFFFFFFFFFFFFFFF AND PUSH20 0xFFFFFFFFFFFFFFFFFFFFFFFFFFFFFFFFFFFFFFFF AND DUP2 MSTORE PUSH1 0x20 ADD SWAP1 DUP2 MSTORE PUSH1 0x20 ADD PUSH1 0x0 KECCAK256 PUSH1 0x0 DUP3 DUP3 SLOAD ADD SWAP3 POP POP DUP2 SWAP1 SSTORE POP DUP2 PUSH20 0xFFFFFFFFFFFFFFFFFFFFFFFFFFFFFFFFFFFFFFFF AND PUSH1 0x0 PUSH20 0xFFFFFFFFFFFFFFFFFFFFFFFFFFFFFFFFFFFFFFFF AND PUSH32 0xDDF252AD1BE2C89B69C2B068FC378DAA952BA7F163C4A11628F55A4DF523B3EF DUP4 PUSH1 0x40 MLOAD PUSH2 0x1258 SWAP2 SWAP1 PUSH2 0x1440 JUMP JUMPDEST PUSH1 0x40 MLOAD DUP1 SWAP2 SUB SWAP1 LOG3 PUSH2 0x126C PUSH1 0x0 DUP4 DUP4 PUSH2 0x102E JUMP JUMPDEST POP POP JUMP JUMPDEST PUSH1 0x0 DUP2 MLOAD SWAP1 POP SWAP2 SWAP1 POP JUMP JUMPDEST PUSH1 0x0 DUP3 DUP3 MSTORE PUSH1 0x20 DUP3 ADD SWAP1 POP SWAP3 SWAP2 POP POP JUMP JUMPDEST PUSH1 0x0 JUMPDEST DUP4 DUP2 LT ISZERO PUSH2 0x12AA JUMPI DUP1 DUP3 ADD MLOAD DUP2 DUP5 ADD MSTORE PUSH1 0x20 DUP2 ADD SWAP1 POP PUSH2 0x128F JUMP JUMPDEST PUSH1 0x0 DUP5 DUP5 ADD MSTORE POP POP POP POP JUMP JUMPDEST PUSH1 0x0 PUSH1 0x1F NOT PUSH1 0x1F DUP4 ADD AND SWAP1 POP SWAP2 SWAP1 POP JUMP JUMPDEST PUSH1 0x0 PUSH2 0x12D2 DUP3 PUSH2 0x1270 JUMP JUMPDEST PUSH2 0x12DC DUP2 DUP6 PUSH2 0x127B JUMP JUMPDEST SWAP4 POP PUSH2 0x12EC DUP2 DUP6 PUSH1 0x20 DUP7 ADD PUSH2 0x128C JUMP JUMPDEST PUSH2 0x12F5 DUP2 PUSH2 0x12B6 JUMP JUMPDEST DUP5 ADD SWAP2 POP POP SWAP3 SWAP2 POP POP JUMP JUMPDEST PUSH1 0x0 PUSH1 0x20 DUP3 ADD SWAP1 POP DUP2 DUP2 SUB PUSH1 0x0 DUP4 ADD MSTORE PUSH2 0x131A DUP2 DUP5 PUSH2 0x12C7 JUMP JUMPDEST SWAP1 POP SWAP3 SWAP2 POP POP JUMP JUMPDEST PUSH1 0x0 DUP1 REVERT JUMPDEST PUSH1 0x0 PUSH20 0xFFFFFFFFFFFFFFFFFFFFFFFFFFFFFFFFFFFFFFFF DUP3 AND SWAP1 POP SWAP2 SWAP1 POP JUMP JUMPDEST PUSH1 0x0 PUSH2 0x1352 DUP3 PUSH2 0x1327 JUMP JUMPDEST SWAP1 POP SWAP2 SWAP1 POP JUMP JUMPDEST PUSH2 0x1362 DUP2 PUSH2 0x1347 JUMP JUMPDEST DUP2 EQ PUSH2 0x136D JUMPI PUSH1 0x0 DUP1 REVERT JUMPDEST POP JUMP JUMPDEST PUSH1 0x0 DUP2 CALLDATALOAD SWAP1 POP PUSH2 0x137F DUP2 PUSH2 0x1359 JUMP JUMPDEST SWAP3 SWAP2 POP POP JUMP JUMPDEST PUSH1 0x0 DUP2 SWAP1 POP SWAP2 SWAP1 POP JUMP JUMPDEST PUSH2 0x1398 DUP2 PUSH2 0x1385 JUMP JUMPDEST DUP2 EQ PUSH2 0x13A3 JUMPI PUSH1 0x0 DUP1 REVERT JUMPDEST POP JUMP JUMPDEST PUSH1 0x0 DUP2 CALLDATALOAD SWAP1 POP PUSH2 0x13B5 DUP2 PUSH2 0x138F JUMP JUMPDEST SWAP3 SWAP2 POP POP JUMP JUMPDEST PUSH1 0x0 DUP1 PUSH1 0x40 DUP4 DUP6 SUB SLT ISZERO PUSH2 0x13D2 JUMPI PUSH2 0x13D1 PUSH2 0x1322 JUMP JUMPDEST JUMPDEST PUSH1 0x0 PUSH2 0x13E0 DUP6 DUP3 DUP7 ADD PUSH2 0x1370 JUMP JUMPDEST SWAP3 POP POP PUSH1 0x20 PUSH2 0x13F1 DUP6 DUP3 DUP7 ADD PUSH2 0x13A6 JUMP JUMPDEST SWAP2 POP POP SWAP3 POP SWAP3 SWAP1 POP JUMP JUMPDEST PUSH1 0x0 DUP2 ISZERO ISZERO SWAP1 POP SWAP2 SWAP1 POP JUMP JUMPDEST PUSH2 0x1410 DUP2 PUSH2 0x13FB JUMP JUMPDEST DUP3 MSTORE POP POP JUMP JUMPDEST PUSH1 0x0 PUSH1 0x20 DUP3 ADD SWAP1 POP PUSH2 0x142B PUSH1 0x0 DUP4 ADD DUP5 PUSH2 0x1407 JUMP JUMPDEST SWAP3 SWAP2 POP POP JUMP JUMPDEST PUSH2 0x143A DUP2 PUSH2 0x1385 JUMP JUMPDEST DUP3 MSTORE POP POP JUMP JUMPDEST PUSH1 0x0 PUSH1 0x20 DUP3 ADD SWAP1 POP PUSH2 0x1455 PUSH1 0x0 DUP4 ADD DUP5 PUSH2 0x1431 JUMP JUMPDEST SWAP3 SWAP2 POP POP JUMP JUMPDEST PUSH1 0x0 PUSH1 0x20 DUP3 DUP5 SUB SLT ISZERO PUSH2 0x1471 JUMPI PUSH2 0x1470 PUSH2 0x1322 JUMP JUMPDEST JUMPDEST PUSH1 0x0 PUSH2 0x147F DUP5 DUP3 DUP6 ADD PUSH2 0x13A6 JUMP JUMPDEST SWAP2 POP POP SWAP3 SWAP2 POP POP JUMP JUMPDEST PUSH1 0x0 DUP1 PUSH1 0x0 PUSH1 0x60 DUP5 DUP7 SUB SLT ISZERO PUSH2 0x14A1 JUMPI PUSH2 0x14A0 PUSH2 0x1322 JUMP JUMPDEST JUMPDEST PUSH1 0x0 PUSH2 0x14AF DUP7 DUP3 DUP8 ADD PUSH2 0x1370 JUMP JUMPDEST SWAP4 POP POP PUSH1 0x20 PUSH2 0x14C0 DUP7 DUP3 DUP8 ADD PUSH2 0x1370 JUMP JUMPDEST SWAP3 POP POP PUSH1 0x40 PUSH2 0x14D1 DUP7 DUP3 DUP8 ADD PUSH2 0x13A6 JUMP JUMPDEST SWAP2 POP POP SWAP3 POP SWAP3 POP SWAP3 JUMP JUMPDEST PUSH1 0x0 PUSH1 0xFF DUP3 AND SWAP1 POP SWAP2 SWAP1 POP JUMP JUMPDEST PUSH2 0x14F1 DUP2 PUSH2 0x14DB JUMP JUMPDEST DUP3 MSTORE POP POP JUMP JUMPDEST PUSH1 0x0 PUSH1 0x20 DUP3 ADD SWAP1 POP PUSH2 0x150C PUSH1 0x0 DUP4 ADD DUP5 PUSH2 0x14E8 JUMP JUMPDEST SWAP3 SWAP2 POP POP JUMP JUMPDEST PUSH1 0x0 PUSH1 0x20 DUP3 DUP5 SUB SLT ISZERO PUSH2 0x1528 JUMPI PUSH2 0x1527 PUSH2 0x1322 JUMP JUMPDEST JUMPDEST PUSH1 0x0 PUSH2 0x1536 DUP5 DUP3 DUP6 ADD PUSH2 0x1370 JUMP JUMPDEST SWAP2 POP POP SWAP3 SWAP2 POP POP JUMP JUMPDEST PUSH1 0x0 PUSH2 0x154A DUP3 PUSH2 0x1327 JUMP JUMPDEST SWAP1 POP SWAP2 SWAP1 POP JUMP JUMPDEST PUSH2 0x155A DUP2 PUSH2 0x153F JUMP JUMPDEST DUP3 MSTORE POP POP JUMP JUMPDEST PUSH1 0x0 PUSH1 0x20 DUP3 ADD SWAP1 POP PUSH2 0x1575 PUSH1 0x0 DUP4 ADD DUP5 PUSH2 0x1551 JUMP JUMPDEST SWAP3 SWAP2 POP POP JUMP JUMPDEST PUSH1 0x0 DUP1 PUSH1 0x40 DUP4 DUP6 SUB SLT ISZERO PUSH2 0x1592 JUMPI PUSH2 0x1591 PUSH2 0x1322 JUMP JUMPDEST JUMPDEST PUSH1 0x0 PUSH2 0x15A0 DUP6 DUP3 DUP7 ADD PUSH2 0x1370 JUMP JUMPDEST SWAP3 POP POP PUSH1 0x20 PUSH2 0x15B1 DUP6 DUP3 DUP7 ADD PUSH2 0x1370 JUMP JUMPDEST SWAP2 POP POP SWAP3 POP SWAP3 SWAP1 POP JUMP JUMPDEST PUSH32 0x4E487B7100000000000000000000000000000000000000000000000000000000 PUSH1 0x0 MSTORE PUSH1 0x22 PUSH1 0x4 MSTORE PUSH1 0x24 PUSH1 0x0 REVERT JUMPDEST PUSH1 0x0 PUSH1 0x2 DUP3 DIV SWAP1 POP PUSH1 0x1 DUP3 AND DUP1 PUSH2 0x1602 JUMPI PUSH1 0x7F DUP3 AND SWAP2 POP JUMPDEST PUSH1 0x20 DUP3 LT DUP2 SUB PUSH2 0x1615 JUMPI PUSH2 0x1614 PUSH2 0x15BB JUMP JUMPDEST JUMPDEST POP SWAP2 SWAP1 POP JUMP JUMPDEST PUSH32 0x4F6E6C7920746865206F776E65722063616E2063616C6C20746869732066756E PUSH1 0x0 DUP3 ADD MSTORE PUSH32 0x6374696F6E000000000000000000000000000000000000000000000000000000 PUSH1 0x20 DUP3 ADD MSTORE POP JUMP JUMPDEST PUSH1 0x0 PUSH2 0x1677 PUSH1 0x25 DUP4 PUSH2 0x127B JUMP JUMPDEST SWAP2 POP PUSH2 0x1682 DUP3 PUSH2 0x161B JUMP JUMPDEST PUSH1 0x40 DUP3 ADD SWAP1 POP SWAP2 SWAP1 POP JUMP JUMPDEST PUSH1 0x0 PUSH1 0x20 DUP3 ADD SWAP1 POP DUP2 DUP2 SUB PUSH1 0x0 DUP4 ADD MSTORE PUSH2 0x16A6 DUP2 PUSH2 0x166A JUMP JUMPDEST SWAP1 POP SWAP2 SWAP1 POP JUMP JUMPDEST PUSH32 0x4E487B7100000000000000000000000000000000000000000000000000000000 PUSH1 0x0 MSTORE PUSH1 0x11 PUSH1 0x4 MSTORE PUSH1 0x24 PUSH1 0x0 REVERT JUMPDEST PUSH1 0x0 DUP2 PUSH1 0x1 SHR SWAP1 POP SWAP2 SWAP1 POP JUMP JUMPDEST PUSH1 0x0 DUP1 DUP3 SWAP2 POP DUP4 SWAP1 POP JUMPDEST PUSH1 0x1 DUP6 GT ISZERO PUSH2 0x1733 JUMPI DUP1 DUP7 DIV DUP2 GT ISZERO PUSH2 0x170F JUMPI PUSH2 0x170E PUSH2 0x16AD JUMP JUMPDEST JUMPDEST PUSH1 0x1 DUP6 AND ISZERO PUSH2 0x171E JUMPI DUP1 DUP3 MUL SWAP2 POP JUMPDEST DUP1 DUP2 MUL SWAP1 POP PUSH2 0x172C DUP6 PUSH2 0x16DC JUMP JUMPDEST SWAP5 POP PUSH2 0x16F3 JUMP JUMPDEST SWAP5 POP SWAP5 SWAP3 POP POP POP JUMP JUMPDEST PUSH1 0x0 DUP3 PUSH2 0x174C JUMPI PUSH1 0x1 SWAP1 POP PUSH2 0x1808 JUMP JUMPDEST DUP2 PUSH2 0x175A JUMPI PUSH1 0x0 SWAP1 POP PUSH2 0x1808 JUMP JUMPDEST DUP2 PUSH1 0x1 DUP2 EQ PUSH2 0x1770 JUMPI PUSH1 0x2 DUP2 EQ PUSH2 0x177A JUMPI PUSH2 0x17A9 JUMP JUMPDEST PUSH1 0x1 SWAP2 POP POP PUSH2 0x1808 JUMP JUMPDEST PUSH1 0xFF DUP5 GT ISZERO PUSH2 0x178C JUMPI PUSH2 0x178B PUSH2 0x16AD JUMP JUMPDEST JUMPDEST DUP4 PUSH1 0x2 EXP SWAP2 POP DUP5 DUP3 GT ISZERO PUSH2 0x17A3 JUMPI PUSH2 0x17A2 PUSH2 0x16AD JUMP JUMPDEST JUMPDEST POP PUSH2 0x1808 JUMP JUMPDEST POP PUSH1 0x20 DUP4 LT PUSH2 0x133 DUP4 LT AND PUSH1 0x4E DUP5 LT PUSH1 0xB DUP5 LT AND OR ISZERO PUSH2 0x17DE JUMPI DUP3 DUP3 EXP SWAP1 POP DUP4 DUP2 GT ISZERO PUSH2 0x17D9 JUMPI PUSH2 0x17D8 PUSH2 0x16AD JUMP JUMPDEST JUMPDEST PUSH2 0x1808 JUMP JUMPDEST PUSH2 0x17EB DUP5 DUP5 DUP5 PUSH1 0x1 PUSH2 0x16E9 JUMP JUMPDEST SWAP3 POP SWAP1 POP DUP2 DUP5 DIV DUP2 GT ISZERO PUSH2 0x1802 JUMPI PUSH2 0x1801 PUSH2 0x16AD JUMP JUMPDEST JUMPDEST DUP2 DUP2 MUL SWAP1 POP JUMPDEST SWAP4 SWAP3 POP POP POP JUMP JUMPDEST PUSH1 0x0 PUSH2 0x181A DUP3 PUSH2 0x1385 JUMP JUMPDEST SWAP2 POP PUSH2 0x1825 DUP4 PUSH2 0x14DB JUMP JUMPDEST SWAP3 POP PUSH2 0x1852 PUSH32 0xFFFFFFFFFFFFFFFFFFFFFFFFFFFFFFFFFFFFFFFFFFFFFFFFFFFFFFFFFFFFFFFF DUP5 DUP5 PUSH2 0x173C JUMP JUMPDEST SWAP1 POP SWAP3 SWAP2 POP POP JUMP JUMPDEST PUSH1 0x0 PUSH2 0x1865 DUP3 PUSH2 0x1385 JUMP JUMPDEST SWAP2 POP PUSH2 0x1870 DUP4 PUSH2 0x1385 JUMP JUMPDEST SWAP3 POP DUP3 DUP3 MUL PUSH2 0x187E DUP2 PUSH2 0x1385 JUMP JUMPDEST SWAP2 POP DUP3 DUP3 DIV DUP5 EQ DUP4 ISZERO OR PUSH2 0x1895 JUMPI PUSH2 0x1894 PUSH2 0x16AD JUMP JUMPDEST JUMPDEST POP SWAP3 SWAP2 POP POP JUMP JUMPDEST PUSH1 0x0 PUSH2 0x18A7 DUP3 PUSH2 0x1385 JUMP JUMPDEST SWAP2 POP PUSH2 0x18B2 DUP4 PUSH2 0x1385 JUMP JUMPDEST SWAP3 POP DUP3 DUP3 ADD SWAP1 POP DUP1 DUP3 GT ISZERO PUSH2 0x18CA JUMPI PUSH2 0x18C9 PUSH2 0x16AD JUMP JUMPDEST JUMPDEST SWAP3 SWAP2 POP POP JUMP JUMPDEST PUSH32 0x45524332303A2064656372656173656420616C6C6F77616E63652062656C6F77 PUSH1 0x0 DUP3 ADD MSTORE PUSH32 0x207A65726F000000000000000000000000000000000000000000000000000000 PUSH1 0x20 DUP3 ADD MSTORE POP JUMP JUMPDEST PUSH1 0x0 PUSH2 0x192C PUSH1 0x25 DUP4 PUSH2 0x127B JUMP JUMPDEST SWAP2 POP PUSH2 0x1937 DUP3 PUSH2 0x18D0 JUMP JUMPDEST PUSH1 0x40 DUP3 ADD SWAP1 POP SWAP2 SWAP1 POP JUMP JUMPDEST PUSH1 0x0 PUSH1 0x20 DUP3 ADD SWAP1 POP DUP2 DUP2 SUB PUSH1 0x0 DUP4 ADD MSTORE PUSH2 0x195B DUP2 PUSH2 0x191F JUMP JUMPDEST SWAP1 POP SWAP2 SWAP1 POP JUMP JUMPDEST PUSH32 0x45524332303A20617070726F76652066726F6D20746865207A65726F20616464 PUSH1 0x0 DUP3 ADD MSTORE PUSH32 0x7265737300000000000000000000000000000000000000000000000000000000 PUSH1 0x20 DUP3 ADD MSTORE POP JUMP JUMPDEST PUSH1 0x0 PUSH2 0x19BE PUSH1 0x24 DUP4 PUSH2 0x127B JUMP JUMPDEST SWAP2 POP PUSH2 0x19C9 DUP3 PUSH2 0x1962 JUMP JUMPDEST PUSH1 0x40 DUP3 ADD SWAP1 POP SWAP2 SWAP1 POP JUMP JUMPDEST PUSH1 0x0 PUSH1 0x20 DUP3 ADD SWAP1 POP DUP2 DUP2 SUB PUSH1 0x0 DUP4 ADD MSTORE PUSH2 0x19ED DUP2 PUSH2 0x19B1 JUMP JUMPDEST SWAP1 POP SWAP2 SWAP1 POP JUMP JUMPDEST PUSH32 0x45524332303A20617070726F766520746F20746865207A65726F206164647265 PUSH1 0x0 DUP3 ADD MSTORE PUSH32 0x7373000000000000000000000000000000000000000000000000000000000000 PUSH1 0x20 DUP3 ADD MSTORE POP JUMP JUMPDEST PUSH1 0x0 PUSH2 0x1A50 PUSH1 0x22 DUP4 PUSH2 0x127B JUMP JUMPDEST SWAP2 POP PUSH2 0x1A5B DUP3 PUSH2 0x19F4 JUMP JUMPDEST PUSH1 0x40 DUP3 ADD SWAP1 POP SWAP2 SWAP1 POP JUMP JUMPDEST PUSH1 0x0 PUSH1 0x20 DUP3 ADD SWAP1 POP DUP2 DUP2 SUB PUSH1 0x0 DUP4 ADD MSTORE PUSH2 0x1A7F DUP2 PUSH2 0x1A43 JUMP JUMPDEST SWAP1 POP SWAP2 SWAP1 POP JUMP JUMPDEST PUSH32 0x45524332303A20696E73756666696369656E7420616C6C6F77616E6365000000 PUSH1 0x0 DUP3 ADD MSTORE POP JUMP JUMPDEST PUSH1 0x0 PUSH2 0x1ABC PUSH1 0x1D DUP4 PUSH2 0x127B JUMP JUMPDEST SWAP2 POP PUSH2 0x1AC7 DUP3 PUSH2 0x1A86 JUMP JUMPDEST PUSH1 0x20 DUP3 ADD SWAP1 POP SWAP2 SWAP1 POP JUMP JUMPDEST PUSH1 0x0 PUSH1 0x20 DUP3 ADD SWAP1 POP DUP2 DUP2 SUB PUSH1 0x0 DUP4 ADD MSTORE PUSH2 0x1AEB DUP2 PUSH2 0x1AAF JUMP JUMPDEST SWAP1 POP SWAP2 SWAP1 POP JUMP JUMPDEST PUSH32 0x45524332303A207472616E736665722066726F6D20746865207A65726F206164 PUSH1 0x0 DUP3 ADD MSTORE PUSH32 0x6472657373000000000000000000000000000000000000000000000000000000 PUSH1 0x20 DUP3 ADD MSTORE POP JUMP JUMPDEST PUSH1 0x0 PUSH2 0x1B4E PUSH1 0x25 DUP4 PUSH2 0x127B JUMP JUMPDEST SWAP2 POP PUSH2 0x1B59 DUP3 PUSH2 0x1AF2 JUMP JUMPDEST PUSH1 0x40 DUP3 ADD SWAP1 POP SWAP2 SWAP1 POP JUMP JUMPDEST PUSH1 0x0 PUSH1 0x20 DUP3 ADD SWAP1 POP DUP2 DUP2 SUB PUSH1 0x0 DUP4 ADD MSTORE PUSH2 0x1B7D DUP2 PUSH2 0x1B41 JUMP JUMPDEST SWAP1 POP SWAP2 SWAP1 POP JUMP JUMPDEST PUSH32 0x45524332303A207472616E7366657220746F20746865207A65726F2061646472 PUSH1 0x0 DUP3 ADD MSTORE PUSH32 0x6573730000000000000000000000000000000000000000000000000000000000 PUSH1 0x20 DUP3 ADD MSTORE POP JUMP JUMPDEST PUSH1 0x0 PUSH2 0x1BE0 PUSH1 0x23 DUP4 PUSH2 0x127B JUMP JUMPDEST SWAP2 POP PUSH2 0x1BEB DUP3 PUSH2 0x1B84 JUMP JUMPDEST PUSH1 0x40 DUP3 ADD SWAP1 POP SWAP2 SWAP1 POP JUMP JUMPDEST PUSH1 0x0 PUSH1 0x20 DUP3 ADD SWAP1 POP DUP2 DUP2 SUB PUSH1 0x0 DUP4 ADD MSTORE PUSH2 0x1C0F DUP2 PUSH2 0x1BD3 JUMP JUMPDEST SWAP1 POP SWAP2 SWAP1 POP JUMP JUMPDEST PUSH32 0x45524332303A207472616E7366657220616D6F756E7420657863656564732062 PUSH1 0x0 DUP3 ADD MSTORE PUSH32 0x616C616E63650000000000000000000000000000000000000000000000000000 PUSH1 0x20 DUP3 ADD MSTORE POP JUMP JUMPDEST PUSH1 0x0 PUSH2 0x1C72 PUSH1 0x26 DUP4 PUSH2 0x127B JUMP JUMPDEST SWAP2 POP PUSH2 0x1C7D DUP3 PUSH2 0x1C16 JUMP JUMPDEST PUSH1 0x40 DUP3 ADD SWAP1 POP SWAP2 SWAP1 POP JUMP JUMPDEST PUSH1 0x0 PUSH1 0x20 DUP3 ADD SWAP1 POP DUP2 DUP2 SUB PUSH1 0x0 DUP4 ADD MSTORE PUSH2 0x1CA1 DUP2 PUSH2 0x1C65 JUMP JUMPDEST SWAP1 POP SWAP2 SWAP1 POP JUMP JUMPDEST PUSH32 0x45524332303A206275726E2066726F6D20746865207A65726F20616464726573 PUSH1 0x0 DUP3 ADD MSTORE PUSH32 0x7300000000000000000000000000000000000000000000000000000000000000 PUSH1 0x20 DUP3 ADD MSTORE POP JUMP JUMPDEST PUSH1 0x0 PUSH2 0x1D04 PUSH1 0x21 DUP4 PUSH2 0x127B JUMP JUMPDEST SWAP2 POP PUSH2 0x1D0F DUP3 PUSH2 0x1CA8 JUMP JUMPDEST PUSH1 0x40 DUP3 ADD SWAP1 POP SWAP2 SWAP1 POP JUMP JUMPDEST PUSH1 0x0 PUSH1 0x20 DUP3 ADD SWAP1 POP DUP2 DUP2 SUB PUSH1 0x0 DUP4 ADD MSTORE PUSH2 0x1D33 DUP2 PUSH2 0x1CF7 JUMP JUMPDEST SWAP1 POP SWAP2 SWAP1 POP JUMP JUMPDEST PUSH32 0x45524332303A206275726E20616D6F756E7420657863656564732062616C616E PUSH1 0x0 DUP3 ADD MSTORE PUSH32 0x6365000000000000000000000000000000000000000000000000000000000000 PUSH1 0x20 DUP3 ADD MSTORE POP JUMP JUMPDEST PUSH1 0x0 PUSH2 0x1D96 PUSH1 0x22 DUP4 PUSH2 0x127B JUMP JUMPDEST SWAP2 POP PUSH2 0x1DA1 DUP3 PUSH2 0x1D3A JUMP JUMPDEST PUSH1 0x40 DUP3 ADD SWAP1 POP SWAP2 SWAP1 POP JUMP JUMPDEST PUSH1 0x0 PUSH1 0x20 DUP3 ADD SWAP1 POP DUP2 DUP2 SUB PUSH1 0x0 DUP4 ADD MSTORE PUSH2 0x1DC5 DUP2 PUSH2 0x1D89 JUMP JUMPDEST SWAP1 POP SWAP2 SWAP1 POP JUMP JUMPDEST PUSH32 0x45524332304361707065643A2063617020657863656564656400000000000000 PUSH1 0x0 DUP3 ADD MSTORE POP JUMP JUMPDEST PUSH1 0x0 PUSH2 0x1E02 PUSH1 0x19 DUP4 PUSH2 0x127B JUMP JUMPDEST SWAP2 POP PUSH2 0x1E0D DUP3 PUSH2 0x1DCC JUMP JUMPDEST PUSH1 0x20 DUP3 ADD SWAP1 POP SWAP2 SWAP1 POP JUMP JUMPDEST PUSH1 0x0 PUSH1 0x20 DUP3 ADD SWAP1 POP DUP2 DUP2 SUB PUSH1 0x0 DUP4 ADD MSTORE PUSH2 0x1E31 DUP2 PUSH2 0x1DF5 JUMP JUMPDEST SWAP1 POP SWAP2 SWAP1 POP JUMP JUMPDEST PUSH32 0x45524332303A206D696E7420746F20746865207A65726F206164647265737300 PUSH1 0x0 DUP3 ADD MSTORE POP JUMP JUMPDEST PUSH1 0x0 PUSH2 0x1E6E PUSH1 0x1F DUP4 PUSH2 0x127B JUMP JUMPDEST SWAP2 POP PUSH2 0x1E79 DUP3 PUSH2 0x1E38 JUMP JUMPDEST PUSH1 0x20 DUP3 ADD SWAP1 POP SWAP2 SWAP1 POP JUMP JUMPDEST PUSH1 0x0 PUSH1 0x20 DUP3 ADD SWAP1 POP DUP2 DUP2 SUB PUSH1 0x0 DUP4 ADD MSTORE PUSH2 0x1E9D DUP2 PUSH2 0x1E61 JUMP JUMPDEST SWAP1 POP SWAP2 SWAP1 POP JUMP INVALID LOG2 PUSH5 0x6970667358 0x22 SLT KECCAK256 0xF9 PUSH3 0xC85081 0x21 ORIGIN 0x2D 0xEC SWAP1 JUMP 0x1F JUMPI 0xB7 SWAP12 ADDMOD 0xC5 0xD4 SGT MLOAD JUMPI SLT PUSH27 0xC460A3CDD239FFEE5264736F6C6343000813003300000000000000 "
				},
				"gasEstimates": {
					"creation": {
						"codeDepositCost": "1579600",
						"executionCost": "infinite",
						"totalCost": "infinite"
					},
					"external": {
						"allowance(address,address)": "infinite",
						"approve(address,uint256)": "infinite",
						"balanceOf(address)": "2908",
						"blockReward()": "2519",
						"burn(uint256)": "infinite",
						"burnFrom(address,uint256)": "infinite",
						"cap()": "infinite",
						"decimals()": "432",
						"decreaseAllowance(address,uint256)": "infinite",
						"destroyContract()": "32096",
						"increaseAllowance(address,uint256)": "infinite",
						"name()": "infinite",
						"owner()": "2536",
						"setBlockReward(uint256)": "infinite",
						"symbol()": "infinite",
						"totalSupply()": "2460",
						"transfer(address,uint256)": "infinite",
						"transferFrom(address,address,uint256)": "infinite"
					},
					"internal": {
						"_beforeTokenTransfer(address,address,uint256)": "infinite",
						"_mint(address,uint256)": "infinite",
						"_mintMinerRewad()": "infinite"
					}
				},
				"methodIdentifiers": {
					"allowance(address,address)": "dd62ed3e",
					"approve(address,uint256)": "095ea7b3",
					"balanceOf(address)": "70a08231",
					"blockReward()": "0ac168a1",
					"burn(uint256)": "42966c68",
					"burnFrom(address,uint256)": "79cc6790",
					"cap()": "355274ea",
					"decimals()": "313ce567",
					"decreaseAllowance(address,uint256)": "a457c2d7",
					"destroyContract()": "092a5cce",
					"increaseAllowance(address,uint256)": "39509351",
					"name()": "06fdde03",
					"owner()": "8da5cb5b",
					"setBlockReward(uint256)": "1a18e707",
					"symbol()": "95d89b41",
					"totalSupply()": "18160ddd",
					"transfer(address,uint256)": "a9059cbb",
					"transferFrom(address,address,uint256)": "23b872dd"
				}
			},
			"storageLayout": {
				"storage": [
					{
						"astId": 15,
						"contract": "ERC20/MyToken.sol:MyToken",
						"label": "_balances",
						"offset": 0,
						"slot": "0",
						"type": "t_mapping(t_address,t_uint256)"
					},
					{
						"astId": 21,
						"contract": "ERC20/MyToken.sol:MyToken",
						"label": "_allowances",
						"offset": 0,
						"slot": "1",
						"type": "t_mapping(t_address,t_mapping(t_address,t_uint256))"
					},
					{
						"astId": 23,
						"contract": "ERC20/MyToken.sol:MyToken",
						"label": "_totalSupply",
						"offset": 0,
						"slot": "2",
						"type": "t_uint256"
					},
					{
						"astId": 25,
						"contract": "ERC20/MyToken.sol:MyToken",
						"label": "_name",
						"offset": 0,
						"slot": "3",
						"type": "t_string_storage"
					},
					{
						"astId": 27,
						"contract": "ERC20/MyToken.sol:MyToken",
						"label": "_symbol",
						"offset": 0,
						"slot": "4",
						"type": "t_string_storage"
					},
					{
						"astId": 831,
						"contract": "ERC20/MyToken.sol:MyToken",
						"label": "owner",
						"offset": 0,
						"slot": "5",
						"type": "t_address_payable"
					},
					{
						"astId": 833,
						"contract": "ERC20/MyToken.sol:MyToken",
						"label": "blockReward",
						"offset": 0,
						"slot": "6",
						"type": "t_uint256"
					}
				],
				"types": {
					"t_address": {
						"encoding": "inplace",
						"label": "address",
						"numberOfBytes": "20"
					},
					"t_address_payable": {
						"encoding": "inplace",
						"label": "address payable",
						"numberOfBytes": "20"
					},
					"t_mapping(t_address,t_mapping(t_address,t_uint256))": {
						"encoding": "mapping",
						"key": "t_address",
						"label": "mapping(address => mapping(address => uint256))",
						"numberOfBytes": "32",
						"value": "t_mapping(t_address,t_uint256)"
					},
					"t_mapping(t_address,t_uint256)": {
						"encoding": "mapping",
						"key": "t_address",
						"label": "mapping(address => uint256)",
						"numberOfBytes": "32",
						"value": "t_uint256"
					},
					"t_string_storage": {
						"encoding": "bytes",
						"label": "string",
						"numberOfBytes": "32"
					},
					"t_uint256": {
						"encoding": "inplace",
						"label": "uint256",
						"numberOfBytes": "32"
					}
				}
			},
			"userdoc": {
				"kind": "user",
				"methods": {},
				"version": 1
			}
		}
	}
}