{
	"data": {
		"bytecode": {
			"linkReferences": {},
			"object": "608060405234801561001057600080fd5b50610dbd806100206000396000f3fe608060405234801561001057600080fd5b50600436106100885760003560e01c80635f4f35d51161005b5780635f4f35d5146101155780637a8e832f14610131578063ce55d6591461014f578063e5e4122d1461016d57610088565b806326b85ee11461008d578063286e3785146100ab5780633c842670146100c757806350347ba2146100e5575b600080fd5b610095610189565b6040516100a2919061040c565b60405180910390f35b6100c560048036038101906100c09190610467565b6101ad565b005b6100cf6101f0565b6040516100dc9190610524565b60405180910390f35b6100ff60048036038101906100fa919061067b565b61027e565b60405161010c91906106df565b60405180910390f35b61012f600480360381019061012a919061067b565b6102d7565b005b6101396102ea565b6040516101469190610713565b60405180910390f35b61015761032a565b6040516101649190610783565b60405180910390f35b61018760048036038101906101829190610846565b6103b8565b005b60008054906101000a900473ffffffffffffffffffffffffffffffffffffffff1681565b806000806101000a81548173ffffffffffffffffffffffffffffffffffffffff021916908373ffffffffffffffffffffffffffffffffffffffff16021790555050565b600280546101fd906108be565b80601f0160208091040260200160405190810160405280929190818152602001828054610229906108be565b80156102765780601f1061024b57610100808354040283529160200191610276565b820191906000526020600020905b81548152906001019060200180831161025957829003601f168201915b505050505081565b600081604051602001610291919061092b565b6040516020818303038152906040528051906020012060026040516020016102b991906109da565b60405160208183030381529060405280519060200120149050919050565b80600290816102e69190610b88565b5050565b60008060009054906101000a900473ffffffffffffffffffffffffffffffffffffffff1673ffffffffffffffffffffffffffffffffffffffff1631905090565b60018054610337906108be565b80601f0160208091040260200160405190810160405280929190818152602001828054610363906108be565b80156103b05780601f10610385576101008083540402835291602001916103b0565b820191906000526020600020905b81548152906001019060200180831161039357829003601f168201915b505050505081565b80600190816103c79190610cb5565b5050565b600073ffffffffffffffffffffffffffffffffffffffff82169050919050565b60006103f6826103cb565b9050919050565b610406816103eb565b82525050565b600060208201905061042160008301846103fd565b92915050565b6000604051905090565b600080fd5b600080fd5b610444816103eb565b811461044f57600080fd5b50565b6000813590506104618161043b565b92915050565b60006020828403121561047d5761047c610431565b5b600061048b84828501610452565b91505092915050565b600081519050919050565b600082825260208201905092915050565b60005b838110156104ce5780820151818401526020810190506104b3565b60008484015250505050565b6000601f19601f8301169050919050565b60006104f682610494565b610500818561049f565b93506105108185602086016104b0565b610519816104da565b840191505092915050565b6000602082019050818103600083015261053e81846104eb565b905092915050565b600080fd5b600080fd5b7f4e487b7100000000000000000000000000000000000000000000000000000000600052604160045260246000fd5b610588826104da565b810181811067ffffffffffffffff821117156105a7576105a6610550565b5b80604052505050565b60006105ba610427565b90506105c6828261057f565b919050565b600067ffffffffffffffff8211156105e6576105e5610550565b5b6105ef826104da565b9050602081019050919050565b82818337600083830152505050565b600061061e610619846105cb565b6105b0565b90508281526020810184848401111561063a5761063961054b565b5b6106458482856105fc565b509392505050565b600082601f83011261066257610661610546565b5b813561067284826020860161060b565b91505092915050565b60006020828403121561069157610690610431565b5b600082013567ffffffffffffffff8111156106af576106ae610436565b5b6106bb8482850161064d565b91505092915050565b60008115159050919050565b6106d9816106c4565b82525050565b60006020820190506106f460008301846106d0565b92915050565b6000819050919050565b61070d816106fa565b82525050565b60006020820190506107286000830184610704565b92915050565b600081519050919050565b600082825260208201905092915050565b60006107558261072e565b61075f8185610739565b935061076f8185602086016104b0565b610778816104da565b840191505092915050565b6000602082019050818103600083015261079d818461074a565b905092915050565b600067ffffffffffffffff8211156107c0576107bf610550565b5b6107c9826104da565b9050602081019050919050565b60006107e96107e4846107a5565b6105b0565b9050828152602081018484840111156108055761080461054b565b5b6108108482856105fc565b509392505050565b600082601f83011261082d5761082c610546565b5b813561083d8482602086016107d6565b91505092915050565b60006020828403121561085c5761085b610431565b5b600082013567ffffffffffffffff81111561087a57610879610436565b5b61088684828501610818565b91505092915050565b7f4e487b7100000000000000000000000000000000000000000000000000000000600052602260045260246000fd5b600060028204905060018216806108d657607f821691505b6020821081036108e9576108e861088f565b5b50919050565b600081905092915050565b600061090582610494565b61090f81856108ef565b935061091f8185602086016104b0565b80840191505092915050565b600061093782846108fa565b915081905092915050565b60008190508160005260206000209050919050565b60008154610964816108be565b61096e81866108ef565b94506001821660008114610989576001811461099e576109d1565b60ff19831686528115158202860193506109d1565b6109a785610942565b60005b838110156109c9578154818901526001820191506020810190506109aa565b838801955050505b50505092915050565b60006109e68284610957565b915081905092915050565b60006020601f8301049050919050565b600082821b905092915050565b600060088302610a3e7fffffffffffffffffffffffffffffffffffffffffffffffffffffffffffffffff82610a01565b610a488683610a01565b95508019841693508086168417925050509392505050565b6000819050919050565b6000610a85610a80610a7b846106fa565b610a60565b6106fa565b9050919050565b6000819050919050565b610a9f83610a6a565b610ab3610aab82610a8c565b848454610a0e565b825550505050565b600090565b610ac8610abb565b610ad3818484610a96565b505050565b5b81811015610af757610aec600082610ac0565b600181019050610ad9565b5050565b601f821115610b3c57610b0d81610942565b610b16846109f1565b81016020851015610b25578190505b610b39610b31856109f1565b830182610ad8565b50505b505050565b600082821c905092915050565b6000610b5f60001984600802610b41565b1980831691505092915050565b6000610b788383610b4e565b9150826002028217905092915050565b610b9182610494565b67ffffffffffffffff811115610baa57610ba9610550565b5b610bb482546108be565b610bbf828285610afb565b600060209050601f831160018114610bf25760008415610be0578287015190505b610bea8582610b6c565b865550610c52565b601f198416610c0086610942565b60005b82811015610c2857848901518255600182019150602085019450602081019050610c03565b86831015610c455784890151610c41601f891682610b4e565b8355505b6001600288020188555050505b505050505050565b60008190508160005260206000209050919050565b601f821115610cb057610c8181610c5a565b610c8a846109f1565b81016020851015610c99578190505b610cad610ca5856109f1565b830182610ad8565b50505b505050565b610cbe8261072e565b67ffffffffffffffff811115610cd757610cd6610550565b5b610ce182546108be565b610cec828285610c6f565b600060209050601f831160018114610d1f5760008415610d0d578287015190505b610d178582610b6c565b865550610d7f565b601f198416610d2d86610c5a565b60005b82811015610d5557848901518255600182019150602085019450602081019050610d30565b86831015610d725784890151610d6e601f891682610b4e565b8355505b6001600288020188555050505b50505050505056fea2646970667358221220d88de9ae23d7e28b9dca7751333c3ce1616472ae7f80bbe0fa1c12cd5a83cbf564736f6c63430008100033",
			"opcodes": "PUSH1 0x80 PUSH1 0x40 MSTORE CALLVALUE DUP1 ISZERO PUSH2 0x10 JUMPI PUSH1 0x0 DUP1 REVERT JUMPDEST POP PUSH2 0xDBD DUP1 PUSH2 0x20 PUSH1 0x0 CODECOPY PUSH1 0x0 RETURN INVALID PUSH1 0x80 PUSH1 0x40 MSTORE CALLVALUE DUP1 ISZERO PUSH2 0x10 JUMPI PUSH1 0x0 DUP1 REVERT JUMPDEST POP PUSH1 0x4 CALLDATASIZE LT PUSH2 0x88 JUMPI PUSH1 0x0 CALLDATALOAD PUSH1 0xE0 SHR DUP1 PUSH4 0x5F4F35D5 GT PUSH2 0x5B JUMPI DUP1 PUSH4 0x5F4F35D5 EQ PUSH2 0x115 JUMPI DUP1 PUSH4 0x7A8E832F EQ PUSH2 0x131 JUMPI DUP1 PUSH4 0xCE55D659 EQ PUSH2 0x14F JUMPI DUP1 PUSH4 0xE5E4122D EQ PUSH2 0x16D JUMPI PUSH2 0x88 JUMP JUMPDEST DUP1 PUSH4 0x26B85EE1 EQ PUSH2 0x8D JUMPI DUP1 PUSH4 0x286E3785 EQ PUSH2 0xAB JUMPI DUP1 PUSH4 0x3C842670 EQ PUSH2 0xC7 JUMPI DUP1 PUSH4 0x50347BA2 EQ PUSH2 0xE5 JUMPI JUMPDEST PUSH1 0x0 DUP1 REVERT JUMPDEST PUSH2 0x95 PUSH2 0x189 JUMP JUMPDEST PUSH1 0x40 MLOAD PUSH2 0xA2 SWAP2 SWAP1 PUSH2 0x40C JUMP JUMPDEST PUSH1 0x40 MLOAD DUP1 SWAP2 SUB SWAP1 RETURN JUMPDEST PUSH2 0xC5 PUSH1 0x4 DUP1 CALLDATASIZE SUB DUP2 ADD SWAP1 PUSH2 0xC0 SWAP2 SWAP1 PUSH2 0x467 JUMP JUMPDEST PUSH2 0x1AD JUMP JUMPDEST STOP JUMPDEST PUSH2 0xCF PUSH2 0x1F0 JUMP JUMPDEST PUSH1 0x40 MLOAD PUSH2 0xDC SWAP2 SWAP1 PUSH2 0x524 JUMP JUMPDEST PUSH1 0x40 MLOAD DUP1 SWAP2 SUB SWAP1 RETURN JUMPDEST PUSH2 0xFF PUSH1 0x4 DUP1 CALLDATASIZE SUB DUP2 ADD SWAP1 PUSH2 0xFA SWAP2 SWAP1 PUSH2 0x67B JUMP JUMPDEST PUSH2 0x27E JUMP JUMPDEST PUSH1 0x40 MLOAD PUSH2 0x10C SWAP2 SWAP1 PUSH2 0x6DF JUMP JUMPDEST PUSH1 0x40 MLOAD DUP1 SWAP2 SUB SWAP1 RETURN JUMPDEST PUSH2 0x12F PUSH1 0x4 DUP1 CALLDATASIZE SUB DUP2 ADD SWAP1 PUSH2 0x12A SWAP2 SWAP1 PUSH2 0x67B JUMP JUMPDEST PUSH2 0x2D7 JUMP JUMPDEST STOP JUMPDEST PUSH2 0x139 PUSH2 0x2EA JUMP JUMPDEST PUSH1 0x40 MLOAD PUSH2 0x146 SWAP2 SWAP1 PUSH2 0x713 JUMP JUMPDEST PUSH1 0x40 MLOAD DUP1 SWAP2 SUB SWAP1 RETURN JUMPDEST PUSH2 0x157 PUSH2 0x32A JUMP JUMPDEST PUSH1 0x40 MLOAD PUSH2 0x164 SWAP2 SWAP1 PUSH2 0x783 JUMP JUMPDEST PUSH1 0x40 MLOAD DUP1 SWAP2 SUB SWAP1 RETURN JUMPDEST PUSH2 0x187 PUSH1 0x4 DUP1 CALLDATASIZE SUB DUP2 ADD SWAP1 PUSH2 0x182 SWAP2 SWAP1 PUSH2 0x846 JUMP JUMPDEST PUSH2 0x3B8 JUMP JUMPDEST STOP JUMPDEST PUSH1 0x0 DUP1 SLOAD SWAP1 PUSH2 0x100 EXP SWAP1 DIV PUSH20 0xFFFFFFFFFFFFFFFFFFFFFFFFFFFFFFFFFFFFFFFF AND DUP2 JUMP JUMPDEST DUP1 PUSH1 0x0 DUP1 PUSH2 0x100 EXP DUP2 SLOAD DUP2 PUSH20 0xFFFFFFFFFFFFFFFFFFFFFFFFFFFFFFFFFFFFFFFF MUL NOT AND SWAP1 DUP4 PUSH20 0xFFFFFFFFFFFFFFFFFFFFFFFFFFFFFFFFFFFFFFFF AND MUL OR SWAP1 SSTORE POP POP JUMP JUMPDEST PUSH1 0x2 DUP1 SLOAD PUSH2 0x1FD SWAP1 PUSH2 0x8BE JUMP JUMPDEST DUP1 PUSH1 0x1F ADD PUSH1 0x20 DUP1 SWAP2 DIV MUL PUSH1 0x20 ADD PUSH1 0x40 MLOAD SWAP1 DUP2 ADD PUSH1 0x40 MSTORE DUP1 SWAP3 SWAP2 SWAP1 DUP2 DUP2 MSTORE PUSH1 0x20 ADD DUP3 DUP1 SLOAD PUSH2 0x229 SWAP1 PUSH2 0x8BE JUMP JUMPDEST DUP1 ISZERO PUSH2 0x276 JUMPI DUP1 PUSH1 0x1F LT PUSH2 0x24B JUMPI PUSH2 0x100 DUP1 DUP4 SLOAD DIV MUL DUP4 MSTORE SWAP2 PUSH1 0x20 ADD SWAP2 PUSH2 0x276 JUMP JUMPDEST DUP3 ADD SWAP2 SWAP1 PUSH1 0x0 MSTORE PUSH1 0x20 PUSH1 0x0 KECCAK256 SWAP1 JUMPDEST DUP2 SLOAD DUP2 MSTORE SWAP1 PUSH1 0x1 ADD SWAP1 PUSH1 0x20 ADD DUP1 DUP4 GT PUSH2 0x259 JUMPI DUP3 SWAP1 SUB PUSH1 0x1F AND DUP3 ADD SWAP2 JUMPDEST POP POP POP POP POP DUP2 JUMP JUMPDEST PUSH1 0x0 DUP2 PUSH1 0x40 MLOAD PUSH1 0x20 ADD PUSH2 0x291 SWAP2 SWAP1 PUSH2 0x92B JUMP JUMPDEST PUSH1 0x40 MLOAD PUSH1 0x20 DUP2 DUP4 SUB SUB DUP2 MSTORE SWAP1 PUSH1 0x40 MSTORE DUP1 MLOAD SWAP1 PUSH1 0x20 ADD KECCAK256 PUSH1 0x2 PUSH1 0x40 MLOAD PUSH1 0x20 ADD PUSH2 0x2B9 SWAP2 SWAP1 PUSH2 0x9DA JUMP JUMPDEST PUSH1 0x40 MLOAD PUSH1 0x20 DUP2 DUP4 SUB SUB DUP2 MSTORE SWAP1 PUSH1 0x40 MSTORE DUP1 MLOAD SWAP1 PUSH1 0x20 ADD KECCAK256 EQ SWAP1 POP SWAP2 SWAP1 POP JUMP JUMPDEST DUP1 PUSH1 0x2 SWAP1 DUP2 PUSH2 0x2E6 SWAP2 SWAP1 PUSH2 0xB88 JUMP JUMPDEST POP POP JUMP JUMPDEST PUSH1 0x0 DUP1 PUSH1 0x0 SWAP1 SLOAD SWAP1 PUSH2 0x100 EXP SWAP1 DIV PUSH20 0xFFFFFFFFFFFFFFFFFFFFFFFFFFFFFFFFFFFFFFFF AND PUSH20 0xFFFFFFFFFFFFFFFFFFFFFFFFFFFFFFFFFFFFFFFF AND BALANCE SWAP1 POP SWAP1 JUMP JUMPDEST PUSH1 0x1 DUP1 SLOAD PUSH2 0x337 SWAP1 PUSH2 0x8BE JUMP JUMPDEST DUP1 PUSH1 0x1F ADD PUSH1 0x20 DUP1 SWAP2 DIV MUL PUSH1 0x20 ADD PUSH1 0x40 MLOAD SWAP1 DUP2 ADD PUSH1 0x40 MSTORE DUP1 SWAP3 SWAP2 SWAP1 DUP2 DUP2 MSTORE PUSH1 0x20 ADD DUP3 DUP1 SLOAD PUSH2 0x363 SWAP1 PUSH2 0x8BE JUMP JUMPDEST DUP1 ISZERO PUSH2 0x3B0 JUMPI DUP1 PUSH1 0x1F LT PUSH2 0x385 JUMPI PUSH2 0x100 DUP1 DUP4 SLOAD DIV MUL DUP4 MSTORE SWAP2 PUSH1 0x20 ADD SWAP2 PUSH2 0x3B0 JUMP JUMPDEST DUP3 ADD SWAP2 SWAP1 PUSH1 0x0 MSTORE PUSH1 0x20 PUSH1 0x0 KECCAK256 SWAP1 JUMPDEST DUP2 SLOAD DUP2 MSTORE SWAP1 PUSH1 0x1 ADD SWAP1 PUSH1 0x20 ADD DUP1 DUP4 GT PUSH2 0x393 JUMPI DUP3 SWAP1 SUB PUSH1 0x1F AND DUP3 ADD SWAP2 JUMPDEST POP POP POP POP POP DUP2 JUMP JUMPDEST DUP1 PUSH1 0x1 SWAP1 DUP2 PUSH2 0x3C7 SWAP2 SWAP1 PUSH2 0xCB5 JUMP JUMPDEST POP POP JUMP JUMPDEST PUSH1 0x0 PUSH20 0xFFFFFFFFFFFFFFFFFFFFFFFFFFFFFFFFFFFFFFFF DUP3 AND SWAP1 POP SWAP2 SWAP1 POP JUMP JUMPDEST PUSH1 0x0 PUSH2 0x3F6 DUP3 PUSH2 0x3CB JUMP JUMPDEST SWAP1 POP SWAP2 SWAP1 POP JUMP JUMPDEST PUSH2 0x406 DUP2 PUSH2 0x3EB JUMP JUMPDEST DUP3 MSTORE POP POP JUMP JUMPDEST PUSH1 0x0 PUSH1 0x20 DUP3 ADD SWAP1 POP PUSH2 0x421 PUSH1 0x0 DUP4 ADD DUP5 PUSH2 0x3FD JUMP JUMPDEST SWAP3 SWAP2 POP POP JUMP JUMPDEST PUSH1 0x0 PUSH1 0x40 MLOAD SWAP1 POP SWAP1 JUMP JUMPDEST PUSH1 0x0 DUP1 REVERT JUMPDEST PUSH1 0x0 DUP1 REVERT JUMPDEST PUSH2 0x444 DUP2 PUSH2 0x3EB JUMP JUMPDEST DUP2 EQ PUSH2 0x44F JUMPI PUSH1 0x0 DUP1 REVERT JUMPDEST POP JUMP JUMPDEST PUSH1 0x0 DUP2 CALLDATALOAD SWAP1 POP PUSH2 0x461 DUP2 PUSH2 0x43B JUMP JUMPDEST SWAP3 SWAP2 POP POP JUMP JUMPDEST PUSH1 0x0 PUSH1 0x20 DUP3 DUP5 SUB SLT ISZERO PUSH2 0x47D JUMPI PUSH2 0x47C PUSH2 0x431 JUMP JUMPDEST JUMPDEST PUSH1 0x0 PUSH2 0x48B DUP5 DUP3 DUP6 ADD PUSH2 0x452 JUMP JUMPDEST SWAP2 POP POP SWAP3 SWAP2 POP POP JUMP JUMPDEST PUSH1 0x0 DUP2 MLOAD SWAP1 POP SWAP2 SWAP1 POP JUMP JUMPDEST PUSH1 0x0 DUP3 DUP3 MSTORE PUSH1 0x20 DUP3 ADD SWAP1 POP SWAP3 SWAP2 POP POP JUMP JUMPDEST PUSH1 0x0 JUMPDEST DUP4 DUP2 LT ISZERO PUSH2 0x4CE JUMPI DUP1 DUP3 ADD MLOAD DUP2 DUP5 ADD MSTORE PUSH1 0x20 DUP2 ADD SWAP1 POP PUSH2 0x4B3 JUMP JUMPDEST PUSH1 0x0 DUP5 DUP5 ADD MSTORE POP POP POP POP JUMP JUMPDEST PUSH1 0x0 PUSH1 0x1F NOT PUSH1 0x1F DUP4 ADD AND SWAP1 POP SWAP2 SWAP1 POP JUMP JUMPDEST PUSH1 0x0 PUSH2 0x4F6 DUP3 PUSH2 0x494 JUMP JUMPDEST PUSH2 0x500 DUP2 DUP6 PUSH2 0x49F JUMP JUMPDEST SWAP4 POP PUSH2 0x510 DUP2 DUP6 PUSH1 0x20 DUP7 ADD PUSH2 0x4B0 JUMP JUMPDEST PUSH2 0x519 DUP2 PUSH2 0x4DA JUMP JUMPDEST DUP5 ADD SWAP2 POP POP SWAP3 SWAP2 POP POP JUMP JUMPDEST PUSH1 0x0 PUSH1 0x20 DUP3 ADD SWAP1 POP DUP2 DUP2 SUB PUSH1 0x0 DUP4 ADD MSTORE PUSH2 0x53E DUP2 DUP5 PUSH2 0x4EB JUMP JUMPDEST SWAP1 POP SWAP3 SWAP2 POP POP JUMP JUMPDEST PUSH1 0x0 DUP1 REVERT JUMPDEST PUSH1 0x0 DUP1 REVERT JUMPDEST PUSH32 0x4E487B7100000000000000000000000000000000000000000000000000000000 PUSH1 0x0 MSTORE PUSH1 0x41 PUSH1 0x4 MSTORE PUSH1 0x24 PUSH1 0x0 REVERT JUMPDEST PUSH2 0x588 DUP3 PUSH2 0x4DA JUMP JUMPDEST DUP2 ADD DUP2 DUP2 LT PUSH8 0xFFFFFFFFFFFFFFFF DUP3 GT OR ISZERO PUSH2 0x5A7 JUMPI PUSH2 0x5A6 PUSH2 0x550 JUMP JUMPDEST JUMPDEST DUP1 PUSH1 0x40 MSTORE POP POP POP JUMP JUMPDEST PUSH1 0x0 PUSH2 0x5BA PUSH2 0x427 JUMP JUMPDEST SWAP1 POP PUSH2 0x5C6 DUP3 DUP3 PUSH2 0x57F JUMP JUMPDEST SWAP2 SWAP1 POP JUMP JUMPDEST PUSH1 0x0 PUSH8 0xFFFFFFFFFFFFFFFF DUP3 GT ISZERO PUSH2 0x5E6 JUMPI PUSH2 0x5E5 PUSH2 0x550 JUMP JUMPDEST JUMPDEST PUSH2 0x5EF DUP3 PUSH2 0x4DA JUMP JUMPDEST SWAP1 POP PUSH1 0x20 DUP2 ADD SWAP1 POP SWAP2 SWAP1 POP JUMP JUMPDEST DUP3 DUP2 DUP4 CALLDATACOPY PUSH1 0x0 DUP4 DUP4 ADD MSTORE POP POP POP JUMP JUMPDEST PUSH1 0x0 PUSH2 0x61E PUSH2 0x619 DUP5 PUSH2 0x5CB JUMP JUMPDEST PUSH2 0x5B0 JUMP JUMPDEST SWAP1 POP DUP3 DUP2 MSTORE PUSH1 0x20 DUP2 ADD DUP5 DUP5 DUP5 ADD GT ISZERO PUSH2 0x63A JUMPI PUSH2 0x639 PUSH2 0x54B JUMP JUMPDEST JUMPDEST PUSH2 0x645 DUP5 DUP3 DUP6 PUSH2 0x5FC JUMP JUMPDEST POP SWAP4 SWAP3 POP POP POP JUMP JUMPDEST PUSH1 0x0 DUP3 PUSH1 0x1F DUP4 ADD SLT PUSH2 0x662 JUMPI PUSH2 0x661 PUSH2 0x546 JUMP JUMPDEST JUMPDEST DUP2 CALLDATALOAD PUSH2 0x672 DUP5 DUP3 PUSH1 0x20 DUP7 ADD PUSH2 0x60B JUMP JUMPDEST SWAP2 POP POP SWAP3 SWAP2 POP POP JUMP JUMPDEST PUSH1 0x0 PUSH1 0x20 DUP3 DUP5 SUB SLT ISZERO PUSH2 0x691 JUMPI PUSH2 0x690 PUSH2 0x431 JUMP JUMPDEST JUMPDEST PUSH1 0x0 DUP3 ADD CALLDATALOAD PUSH8 0xFFFFFFFFFFFFFFFF DUP2 GT ISZERO PUSH2 0x6AF JUMPI PUSH2 0x6AE PUSH2 0x436 JUMP JUMPDEST JUMPDEST PUSH2 0x6BB DUP5 DUP3 DUP6 ADD PUSH2 0x64D JUMP JUMPDEST SWAP2 POP POP SWAP3 SWAP2 POP POP JUMP JUMPDEST PUSH1 0x0 DUP2 ISZERO ISZERO SWAP1 POP SWAP2 SWAP1 POP JUMP JUMPDEST PUSH2 0x6D9 DUP2 PUSH2 0x6C4 JUMP JUMPDEST DUP3 MSTORE POP POP JUMP JUMPDEST PUSH1 0x0 PUSH1 0x20 DUP3 ADD SWAP1 POP PUSH2 0x6F4 PUSH1 0x0 DUP4 ADD DUP5 PUSH2 0x6D0 JUMP JUMPDEST SWAP3 SWAP2 POP POP JUMP JUMPDEST PUSH1 0x0 DUP2 SWAP1 POP SWAP2 SWAP1 POP JUMP JUMPDEST PUSH2 0x70D DUP2 PUSH2 0x6FA JUMP JUMPDEST DUP3 MSTORE POP POP JUMP JUMPDEST PUSH1 0x0 PUSH1 0x20 DUP3 ADD SWAP1 POP PUSH2 0x728 PUSH1 0x0 DUP4 ADD DUP5 PUSH2 0x704 JUMP JUMPDEST SWAP3 SWAP2 POP POP JUMP JUMPDEST PUSH1 0x0 DUP2 MLOAD SWAP1 POP SWAP2 SWAP1 POP JUMP JUMPDEST PUSH1 0x0 DUP3 DUP3 MSTORE PUSH1 0x20 DUP3 ADD SWAP1 POP SWAP3 SWAP2 POP POP JUMP JUMPDEST PUSH1 0x0 PUSH2 0x755 DUP3 PUSH2 0x72E JUMP JUMPDEST PUSH2 0x75F DUP2 DUP6 PUSH2 0x739 JUMP JUMPDEST SWAP4 POP PUSH2 0x76F DUP2 DUP6 PUSH1 0x20 DUP7 ADD PUSH2 0x4B0 JUMP JUMPDEST PUSH2 0x778 DUP2 PUSH2 0x4DA JUMP JUMPDEST DUP5 ADD SWAP2 POP POP SWAP3 SWAP2 POP POP JUMP JUMPDEST PUSH1 0x0 PUSH1 0x20 DUP3 ADD SWAP1 POP DUP2 DUP2 SUB PUSH1 0x0 DUP4 ADD MSTORE PUSH2 0x79D DUP2 DUP5 PUSH2 0x74A JUMP JUMPDEST SWAP1 POP SWAP3 SWAP2 POP POP JUMP JUMPDEST PUSH1 0x0 PUSH8 0xFFFFFFFFFFFFFFFF DUP3 GT ISZERO PUSH2 0x7C0 JUMPI PUSH2 0x7BF PUSH2 0x550 JUMP JUMPDEST JUMPDEST PUSH2 0x7C9 DUP3 PUSH2 0x4DA JUMP JUMPDEST SWAP1 POP PUSH1 0x20 DUP2 ADD SWAP1 POP SWAP2 SWAP1 POP JUMP JUMPDEST PUSH1 0x0 PUSH2 0x7E9 PUSH2 0x7E4 DUP5 PUSH2 0x7A5 JUMP JUMPDEST PUSH2 0x5B0 JUMP JUMPDEST SWAP1 POP DUP3 DUP2 MSTORE PUSH1 0x20 DUP2 ADD DUP5 DUP5 DUP5 ADD GT ISZERO PUSH2 0x805 JUMPI PUSH2 0x804 PUSH2 0x54B JUMP JUMPDEST JUMPDEST PUSH2 0x810 DUP5 DUP3 DUP6 PUSH2 0x5FC JUMP JUMPDEST POP SWAP4 SWAP3 POP POP POP JUMP JUMPDEST PUSH1 0x0 DUP3 PUSH1 0x1F DUP4 ADD SLT PUSH2 0x82D JUMPI PUSH2 0x82C PUSH2 0x546 JUMP JUMPDEST JUMPDEST DUP2 CALLDATALOAD PUSH2 0x83D DUP5 DUP3 PUSH1 0x20 DUP7 ADD PUSH2 0x7D6 JUMP JUMPDEST SWAP2 POP POP SWAP3 SWAP2 POP POP JUMP JUMPDEST PUSH1 0x0 PUSH1 0x20 DUP3 DUP5 SUB SLT ISZERO PUSH2 0x85C JUMPI PUSH2 0x85B PUSH2 0x431 JUMP JUMPDEST JUMPDEST PUSH1 0x0 DUP3 ADD CALLDATALOAD PUSH8 0xFFFFFFFFFFFFFFFF DUP2 GT ISZERO PUSH2 0x87A JUMPI PUSH2 0x879 PUSH2 0x436 JUMP JUMPDEST JUMPDEST PUSH2 0x886 DUP5 DUP3 DUP6 ADD PUSH2 0x818 JUMP JUMPDEST SWAP2 POP POP SWAP3 SWAP2 POP POP JUMP JUMPDEST PUSH32 0x4E487B7100000000000000000000000000000000000000000000000000000000 PUSH1 0x0 MSTORE PUSH1 0x22 PUSH1 0x4 MSTORE PUSH1 0x24 PUSH1 0x0 REVERT JUMPDEST PUSH1 0x0 PUSH1 0x2 DUP3 DIV SWAP1 POP PUSH1 0x1 DUP3 AND DUP1 PUSH2 0x8D6 JUMPI PUSH1 0x7F DUP3 AND SWAP2 POP JUMPDEST PUSH1 0x20 DUP3 LT DUP2 SUB PUSH2 0x8E9 JUMPI PUSH2 0x8E8 PUSH2 0x88F JUMP JUMPDEST JUMPDEST POP SWAP2 SWAP1 POP JUMP JUMPDEST PUSH1 0x0 DUP2 SWAP1 POP SWAP3 SWAP2 POP POP JUMP JUMPDEST PUSH1 0x0 PUSH2 0x905 DUP3 PUSH2 0x494 JUMP JUMPDEST PUSH2 0x90F DUP2 DUP6 PUSH2 0x8EF JUMP JUMPDEST SWAP4 POP PUSH2 0x91F DUP2 DUP6 PUSH1 0x20 DUP7 ADD PUSH2 0x4B0 JUMP JUMPDEST DUP1 DUP5 ADD SWAP2 POP POP SWAP3 SWAP2 POP POP JUMP JUMPDEST PUSH1 0x0 PUSH2 0x937 DUP3 DUP5 PUSH2 0x8FA JUMP JUMPDEST SWAP2 POP DUP2 SWAP1 POP SWAP3 SWAP2 POP POP JUMP JUMPDEST PUSH1 0x0 DUP2 SWAP1 POP DUP2 PUSH1 0x0 MSTORE PUSH1 0x20 PUSH1 0x0 KECCAK256 SWAP1 POP SWAP2 SWAP1 POP JUMP JUMPDEST PUSH1 0x0 DUP2 SLOAD PUSH2 0x964 DUP2 PUSH2 0x8BE JUMP JUMPDEST PUSH2 0x96E DUP2 DUP7 PUSH2 0x8EF JUMP JUMPDEST SWAP5 POP PUSH1 0x1 DUP3 AND PUSH1 0x0 DUP2 EQ PUSH2 0x989 JUMPI PUSH1 0x1 DUP2 EQ PUSH2 0x99E JUMPI PUSH2 0x9D1 JUMP JUMPDEST PUSH1 0xFF NOT DUP4 AND DUP7 MSTORE DUP2 ISZERO ISZERO DUP3 MUL DUP7 ADD SWAP4 POP PUSH2 0x9D1 JUMP JUMPDEST PUSH2 0x9A7 DUP6 PUSH2 0x942 JUMP JUMPDEST PUSH1 0x0 JUMPDEST DUP4 DUP2 LT ISZERO PUSH2 0x9C9 JUMPI DUP2 SLOAD DUP2 DUP10 ADD MSTORE PUSH1 0x1 DUP3 ADD SWAP2 POP PUSH1 0x20 DUP2 ADD SWAP1 POP PUSH2 0x9AA JUMP JUMPDEST DUP4 DUP9 ADD SWAP6 POP POP POP JUMPDEST POP POP POP SWAP3 SWAP2 POP POP JUMP JUMPDEST PUSH1 0x0 PUSH2 0x9E6 DUP3 DUP5 PUSH2 0x957 JUMP JUMPDEST SWAP2 POP DUP2 SWAP1 POP SWAP3 SWAP2 POP POP JUMP JUMPDEST PUSH1 0x0 PUSH1 0x20 PUSH1 0x1F DUP4 ADD DIV SWAP1 POP SWAP2 SWAP1 POP JUMP JUMPDEST PUSH1 0x0 DUP3 DUP3 SHL SWAP1 POP SWAP3 SWAP2 POP POP JUMP JUMPDEST PUSH1 0x0 PUSH1 0x8 DUP4 MUL PUSH2 0xA3E PUSH32 0xFFFFFFFFFFFFFFFFFFFFFFFFFFFFFFFFFFFFFFFFFFFFFFFFFFFFFFFFFFFFFFFF DUP3 PUSH2 0xA01 JUMP JUMPDEST PUSH2 0xA48 DUP7 DUP4 PUSH2 0xA01 JUMP JUMPDEST SWAP6 POP DUP1 NOT DUP5 AND SWAP4 POP DUP1 DUP7 AND DUP5 OR SWAP3 POP POP POP SWAP4 SWAP3 POP POP POP JUMP JUMPDEST PUSH1 0x0 DUP2 SWAP1 POP SWAP2 SWAP1 POP JUMP JUMPDEST PUSH1 0x0 PUSH2 0xA85 PUSH2 0xA80 PUSH2 0xA7B DUP5 PUSH2 0x6FA JUMP JUMPDEST PUSH2 0xA60 JUMP JUMPDEST PUSH2 0x6FA JUMP JUMPDEST SWAP1 POP SWAP2 SWAP1 POP JUMP JUMPDEST PUSH1 0x0 DUP2 SWAP1 POP SWAP2 SWAP1 POP JUMP JUMPDEST PUSH2 0xA9F DUP4 PUSH2 0xA6A JUMP JUMPDEST PUSH2 0xAB3 PUSH2 0xAAB DUP3 PUSH2 0xA8C JUMP JUMPDEST DUP5 DUP5 SLOAD PUSH2 0xA0E JUMP JUMPDEST DUP3 SSTORE POP POP POP POP JUMP JUMPDEST PUSH1 0x0 SWAP1 JUMP JUMPDEST PUSH2 0xAC8 PUSH2 0xABB JUMP JUMPDEST PUSH2 0xAD3 DUP2 DUP5 DUP5 PUSH2 0xA96 JUMP JUMPDEST POP POP POP JUMP JUMPDEST JUMPDEST DUP2 DUP2 LT ISZERO PUSH2 0xAF7 JUMPI PUSH2 0xAEC PUSH1 0x0 DUP3 PUSH2 0xAC0 JUMP JUMPDEST PUSH1 0x1 DUP2 ADD SWAP1 POP PUSH2 0xAD9 JUMP JUMPDEST POP POP JUMP JUMPDEST PUSH1 0x1F DUP3 GT ISZERO PUSH2 0xB3C JUMPI PUSH2 0xB0D DUP2 PUSH2 0x942 JUMP JUMPDEST PUSH2 0xB16 DUP5 PUSH2 0x9F1 JUMP JUMPDEST DUP2 ADD PUSH1 0x20 DUP6 LT ISZERO PUSH2 0xB25 JUMPI DUP2 SWAP1 POP JUMPDEST PUSH2 0xB39 PUSH2 0xB31 DUP6 PUSH2 0x9F1 JUMP JUMPDEST DUP4 ADD DUP3 PUSH2 0xAD8 JUMP JUMPDEST POP POP JUMPDEST POP POP POP JUMP JUMPDEST PUSH1 0x0 DUP3 DUP3 SHR SWAP1 POP SWAP3 SWAP2 POP POP JUMP JUMPDEST PUSH1 0x0 PUSH2 0xB5F PUSH1 0x0 NOT DUP5 PUSH1 0x8 MUL PUSH2 0xB41 JUMP JUMPDEST NOT DUP1 DUP4 AND SWAP2 POP POP SWAP3 SWAP2 POP POP JUMP JUMPDEST PUSH1 0x0 PUSH2 0xB78 DUP4 DUP4 PUSH2 0xB4E JUMP JUMPDEST SWAP2 POP DUP3 PUSH1 0x2 MUL DUP3 OR SWAP1 POP SWAP3 SWAP2 POP POP JUMP JUMPDEST PUSH2 0xB91 DUP3 PUSH2 0x494 JUMP JUMPDEST PUSH8 0xFFFFFFFFFFFFFFFF DUP2 GT ISZERO PUSH2 0xBAA JUMPI PUSH2 0xBA9 PUSH2 0x550 JUMP JUMPDEST JUMPDEST PUSH2 0xBB4 DUP3 SLOAD PUSH2 0x8BE JUMP JUMPDEST PUSH2 0xBBF DUP3 DUP3 DUP6 PUSH2 0xAFB JUMP JUMPDEST PUSH1 0x0 PUSH1 0x20 SWAP1 POP PUSH1 0x1F DUP4 GT PUSH1 0x1 DUP2 EQ PUSH2 0xBF2 JUMPI PUSH1 0x0 DUP5 ISZERO PUSH2 0xBE0 JUMPI DUP3 DUP8 ADD MLOAD SWAP1 POP JUMPDEST PUSH2 0xBEA DUP6 DUP3 PUSH2 0xB6C JUMP JUMPDEST DUP7 SSTORE POP PUSH2 0xC52 JUMP JUMPDEST PUSH1 0x1F NOT DUP5 AND PUSH2 0xC00 DUP7 PUSH2 0x942 JUMP JUMPDEST PUSH1 0x0 JUMPDEST DUP3 DUP2 LT ISZERO PUSH2 0xC28 JUMPI DUP5 DUP10 ADD MLOAD DUP3 SSTORE PUSH1 0x1 DUP3 ADD SWAP2 POP PUSH1 0x20 DUP6 ADD SWAP5 POP PUSH1 0x20 DUP2 ADD SWAP1 POP PUSH2 0xC03 JUMP JUMPDEST DUP7 DUP4 LT ISZERO PUSH2 0xC45 JUMPI DUP5 DUP10 ADD MLOAD PUSH2 0xC41 PUSH1 0x1F DUP10 AND DUP3 PUSH2 0xB4E JUMP JUMPDEST DUP4 SSTORE POP JUMPDEST PUSH1 0x1 PUSH1 0x2 DUP9 MUL ADD DUP9 SSTORE POP POP POP JUMPDEST POP POP POP POP POP POP JUMP JUMPDEST PUSH1 0x0 DUP2 SWAP1 POP DUP2 PUSH1 0x0 MSTORE PUSH1 0x20 PUSH1 0x0 KECCAK256 SWAP1 POP SWAP2 SWAP1 POP JUMP JUMPDEST PUSH1 0x1F DUP3 GT ISZERO PUSH2 0xCB0 JUMPI PUSH2 0xC81 DUP2 PUSH2 0xC5A JUMP JUMPDEST PUSH2 0xC8A DUP5 PUSH2 0x9F1 JUMP JUMPDEST DUP2 ADD PUSH1 0x20 DUP6 LT ISZERO PUSH2 0xC99 JUMPI DUP2 SWAP1 POP JUMPDEST PUSH2 0xCAD PUSH2 0xCA5 DUP6 PUSH2 0x9F1 JUMP JUMPDEST DUP4 ADD DUP3 PUSH2 0xAD8 JUMP JUMPDEST POP POP JUMPDEST POP POP POP JUMP JUMPDEST PUSH2 0xCBE DUP3 PUSH2 0x72E JUMP JUMPDEST PUSH8 0xFFFFFFFFFFFFFFFF DUP2 GT ISZERO PUSH2 0xCD7 JUMPI PUSH2 0xCD6 PUSH2 0x550 JUMP JUMPDEST JUMPDEST PUSH2 0xCE1 DUP3 SLOAD PUSH2 0x8BE JUMP JUMPDEST PUSH2 0xCEC DUP3 DUP3 DUP6 PUSH2 0xC6F JUMP JUMPDEST PUSH1 0x0 PUSH1 0x20 SWAP1 POP PUSH1 0x1F DUP4 GT PUSH1 0x1 DUP2 EQ PUSH2 0xD1F JUMPI PUSH1 0x0 DUP5 ISZERO PUSH2 0xD0D JUMPI DUP3 DUP8 ADD MLOAD SWAP1 POP JUMPDEST PUSH2 0xD17 DUP6 DUP3 PUSH2 0xB6C JUMP JUMPDEST DUP7 SSTORE POP PUSH2 0xD7F JUMP JUMPDEST PUSH1 0x1F NOT DUP5 AND PUSH2 0xD2D DUP7 PUSH2 0xC5A JUMP JUMPDEST PUSH1 0x0 JUMPDEST DUP3 DUP2 LT ISZERO PUSH2 0xD55 JUMPI DUP5 DUP10 ADD MLOAD DUP3 SSTORE PUSH1 0x1 DUP3 ADD SWAP2 POP PUSH1 0x20 DUP6 ADD SWAP5 POP PUSH1 0x20 DUP2 ADD SWAP1 POP PUSH2 0xD30 JUMP JUMPDEST DUP7 DUP4 LT ISZERO PUSH2 0xD72 JUMPI DUP5 DUP10 ADD MLOAD PUSH2 0xD6E PUSH1 0x1F DUP10 AND DUP3 PUSH2 0xB4E JUMP JUMPDEST DUP4 SSTORE POP JUMPDEST PUSH1 0x1 PUSH1 0x2 DUP9 MUL ADD DUP9 SSTORE POP POP POP JUMPDEST POP POP POP POP POP POP JUMP INVALID LOG2 PUSH5 0x6970667358 0x22 SLT KECCAK256 0xD8 DUP14 0xE9 0xAE 0x23 0xD7 0xE2 DUP12 SWAP14 0xCA PUSH24 0x51333C3CE1616472AE7F80BBE0FA1C12CD5A83CBF564736F PUSH13 0x63430008100033000000000000 "
		},
		"gasEstimates": {
			"creation": {
				"codeDepositCost": "703400",
				"executionCost": "734",
				"totalCost": "704134"
			},
			"external": {
				"MyBalance()": "5101",
				"compareFullName(string)": "infinite",
				"myAddress()": "2512",
				"myFullName()": "infinite",
				"setFullName(string)": "infinite",
				"someStrings()": "infinite",
				"updateBytesString(bytes)": "infinite",
				"updateMyAddress(address)": "24745"
			}
		},
		"methodIdentifiers": {
			"MyBalance()": "7a8e832f",
			"compareFullName(string)": "50347ba2",
			"myAddress()": "26b85ee1",
			"myFullName()": "3c842670",
			"setFullName(string)": "5f4f35d5",
			"someStrings()": "ce55d659",
			"updateBytesString(bytes)": "e5e4122d",
			"updateMyAddress(address)": "286e3785"
		}
	},
	"abi": [
		{
			"inputs": [],
			"name": "MyBalance",
			"outputs": [
				{
					"internalType": "uint256",
					"name": "",
					"type": "uint256"
				}
			],
			"stateMutability": "view",
			"type": "function"
		},
		{
			"inputs": [
				{
					"internalType": "string",
					"name": "_myFullName",
					"type": "string"
				}
			],
			"name": "compareFullName",
			"outputs": [
				{
					"internalType": "bool",
					"name": "",
					"type": "bool"
				}
			],
			"stateMutability": "view",
			"type": "function"
		},
		{
			"inputs": [],
			"name": "myAddress",
			"outputs": [
				{
					"internalType": "address",
					"name": "",
					"type": "address"
				}
			],
			"stateMutability": "view",
			"type": "function"
		},
		{
			"inputs": [],
			"name": "myFullName",
			"outputs": [
				{
					"internalType": "string",
					"name": "",
					"type": "string"
				}
			],
			"stateMutability": "view",
			"type": "function"
		},
		{
			"inputs": [
				{
					"internalType": "string",
					"name": "_newFullName",
					"type": "string"
				}
			],
			"name": "setFullName",
			"outputs": [],
			"stateMutability": "nonpayable",
			"type": "function"
		},
		{
			"inputs": [],
			"name": "someStrings",
			"outputs": [
				{
					"internalType": "bytes",
					"name": "",
					"type": "bytes"
				}
			],
			"stateMutability": "view",
			"type": "function"
		},
		{
			"inputs": [
				{
					"internalType": "bytes",
					"name": "_newString",
					"type": "bytes"
				}
			],
			"name": "updateBytesString",
			"outputs": [],
			"stateMutability": "nonpayable",
			"type": "function"
		},
		{
			"inputs": [
				{
					"internalType": "address",
					"name": "_newAddress",
					"type": "address"
				}
			],
			"name": "updateMyAddress",
			"outputs": [],
			"stateMutability": "nonpayable",
			"type": "function"
		}
	]
}