{
	"data": {
		"bytecode": {
			"linkReferences": {},
			"object": "608060405234801561001057600080fd5b50610122806100206000396000f3fe6080604052348015600f57600080fd5b506004361060285760003560e01c80630771a38814602d575b600080fd5b60336035565b005b60006073576040517f08c379a0000000000000000000000000000000000000000000000000000000008152600401606a9060ce565b60405180910390fd5b565b600082825260208201905092915050565b7f4572726f206f6363757265640000000000000000000000000000000000000000600082015250565b600060ba600c836075565b915060c3826086565b602082019050919050565b6000602082019050818103600083015260e58160af565b905091905056fea26469706673582212200ee60b5494c6bd7bbc593ab7bb8e9f8c748b214d4f105f7776fcbaa74cb1792064736f6c634300080f0033",
			"opcodes": "PUSH1 0x80 PUSH1 0x40 MSTORE CALLVALUE DUP1 ISZERO PUSH2 0x10 JUMPI PUSH1 0x0 DUP1 REVERT JUMPDEST POP PUSH2 0x122 DUP1 PUSH2 0x20 PUSH1 0x0 CODECOPY PUSH1 0x0 RETURN INVALID PUSH1 0x80 PUSH1 0x40 MSTORE CALLVALUE DUP1 ISZERO PUSH1 0xF JUMPI PUSH1 0x0 DUP1 REVERT JUMPDEST POP PUSH1 0x4 CALLDATASIZE LT PUSH1 0x28 JUMPI PUSH1 0x0 CALLDATALOAD PUSH1 0xE0 SHR DUP1 PUSH4 0x771A388 EQ PUSH1 0x2D JUMPI JUMPDEST PUSH1 0x0 DUP1 REVERT JUMPDEST PUSH1 0x33 PUSH1 0x35 JUMP JUMPDEST STOP JUMPDEST PUSH1 0x0 PUSH1 0x73 JUMPI PUSH1 0x40 MLOAD PUSH32 0x8C379A000000000000000000000000000000000000000000000000000000000 DUP2 MSTORE PUSH1 0x4 ADD PUSH1 0x6A SWAP1 PUSH1 0xCE JUMP JUMPDEST PUSH1 0x40 MLOAD DUP1 SWAP2 SUB SWAP1 REVERT JUMPDEST JUMP JUMPDEST PUSH1 0x0 DUP3 DUP3 MSTORE PUSH1 0x20 DUP3 ADD SWAP1 POP SWAP3 SWAP2 POP POP JUMP JUMPDEST PUSH32 0x4572726F206F6363757265640000000000000000000000000000000000000000 PUSH1 0x0 DUP3 ADD MSTORE POP JUMP JUMPDEST PUSH1 0x0 PUSH1 0xBA PUSH1 0xC DUP4 PUSH1 0x75 JUMP JUMPDEST SWAP2 POP PUSH1 0xC3 DUP3 PUSH1 0x86 JUMP JUMPDEST PUSH1 0x20 DUP3 ADD SWAP1 POP SWAP2 SWAP1 POP JUMP JUMPDEST PUSH1 0x0 PUSH1 0x20 DUP3 ADD SWAP1 POP DUP2 DUP2 SUB PUSH1 0x0 DUP4 ADD MSTORE PUSH1 0xE5 DUP2 PUSH1 0xAF JUMP JUMPDEST SWAP1 POP SWAP2 SWAP1 POP JUMP INVALID LOG2 PUSH5 0x6970667358 0x22 SLT KECCAK256 0xE 0xE6 SIGNEXTEND SLOAD SWAP5 0xC6 0xBD PUSH28 0xBC593AB7BB8E9F8C748B214D4F105F7776FCBAA74CB1792064736F6C PUSH4 0x4300080F STOP CALLER "
		},
		"gasEstimates": {
			"creation": {
				"codeDepositCost": "58000",
				"executionCost": "111",
				"totalCost": "58111"
			},
			"external": {
				"_function()": "428"
			}
		},
		"methodIdentifiers": {
			"_function()": "0771a388"
		}
	},
	"abi": [
		{
			"inputs": [],
			"name": "_function",
			"outputs": [],
			"stateMutability": "pure",
			"type": "function"
		}
	]
}