{
	"data": {
		"bytecode": {
			"linkReferences": {},
			"object": "608060405260fa600160006101000a81548160ff021916908360ff16021790555034801561002c57600080fd5b506103068061003c6000396000f3fe608060405234801561001057600080fd5b50600436106100625760003560e01c806323fd0e40146100675780632b01f65c1461008557806384ea36061461008f578063c914955d14610099578063d1f44279146100b5578063e2a4b2af146100bf575b600080fd5b61006f6100dd565b60405161007c9190610180565b60405180910390f35b61008d6100e3565b005b6100976100f7565b005b6100b360048036038101906100ae91906101cc565b610131565b005b6100bd61013b565b005b6100c7610154565b6040516100d49190610215565b60405180910390f35b60005481565b600080815480929190600190039190505550565b6001600081819054906101000a900460ff16809291906101169061025f565b91906101000a81548160ff021916908360ff16021790555050565b8060008190555050565b60008081548092919061014d90610288565b9190505550565b600160009054906101000a900460ff1681565b6000819050919050565b61017a81610167565b82525050565b60006020820190506101956000830184610171565b92915050565b600080fd5b6101a981610167565b81146101b457600080fd5b50565b6000813590506101c6816101a0565b92915050565b6000602082840312156101e2576101e161019b565b5b60006101f0848285016101b7565b91505092915050565b600060ff82169050919050565b61020f816101f9565b82525050565b600060208201905061022a6000830184610206565b92915050565b7f4e487b7100000000000000000000000000000000000000000000000000000000600052601160045260246000fd5b600061026a826101f9565b915060ff820361027d5761027c610230565b5b600182019050919050565b600061029382610167565b91507fffffffffffffffffffffffffffffffffffffffffffffffffffffffffffffffff82036102c5576102c4610230565b5b60018201905091905056fea26469706673582212207cf8915551856e3a99e9298b99c44705aa2f05fcac11c53b6945bf4ab0a62a6e64736f6c634300080e0033",
			"opcodes": "PUSH1 0x80 PUSH1 0x40 MSTORE PUSH1 0xFA PUSH1 0x1 PUSH1 0x0 PUSH2 0x100 EXP DUP2 SLOAD DUP2 PUSH1 0xFF MUL NOT AND SWAP1 DUP4 PUSH1 0xFF AND MUL OR SWAP1 SSTORE POP CALLVALUE DUP1 ISZERO PUSH2 0x2C JUMPI PUSH1 0x0 DUP1 REVERT JUMPDEST POP PUSH2 0x306 DUP1 PUSH2 0x3C PUSH1 0x0 CODECOPY PUSH1 0x0 RETURN INVALID PUSH1 0x80 PUSH1 0x40 MSTORE CALLVALUE DUP1 ISZERO PUSH2 0x10 JUMPI PUSH1 0x0 DUP1 REVERT JUMPDEST POP PUSH1 0x4 CALLDATASIZE LT PUSH2 0x62 JUMPI PUSH1 0x0 CALLDATALOAD PUSH1 0xE0 SHR DUP1 PUSH4 0x23FD0E40 EQ PUSH2 0x67 JUMPI DUP1 PUSH4 0x2B01F65C EQ PUSH2 0x85 JUMPI DUP1 PUSH4 0x84EA3606 EQ PUSH2 0x8F JUMPI DUP1 PUSH4 0xC914955D EQ PUSH2 0x99 JUMPI DUP1 PUSH4 0xD1F44279 EQ PUSH2 0xB5 JUMPI DUP1 PUSH4 0xE2A4B2AF EQ PUSH2 0xBF JUMPI JUMPDEST PUSH1 0x0 DUP1 REVERT JUMPDEST PUSH2 0x6F PUSH2 0xDD JUMP JUMPDEST PUSH1 0x40 MLOAD PUSH2 0x7C SWAP2 SWAP1 PUSH2 0x180 JUMP JUMPDEST PUSH1 0x40 MLOAD DUP1 SWAP2 SUB SWAP1 RETURN JUMPDEST PUSH2 0x8D PUSH2 0xE3 JUMP JUMPDEST STOP JUMPDEST PUSH2 0x97 PUSH2 0xF7 JUMP JUMPDEST STOP JUMPDEST PUSH2 0xB3 PUSH1 0x4 DUP1 CALLDATASIZE SUB DUP2 ADD SWAP1 PUSH2 0xAE SWAP2 SWAP1 PUSH2 0x1CC JUMP JUMPDEST PUSH2 0x131 JUMP JUMPDEST STOP JUMPDEST PUSH2 0xBD PUSH2 0x13B JUMP JUMPDEST STOP JUMPDEST PUSH2 0xC7 PUSH2 0x154 JUMP JUMPDEST PUSH1 0x40 MLOAD PUSH2 0xD4 SWAP2 SWAP1 PUSH2 0x215 JUMP JUMPDEST PUSH1 0x40 MLOAD DUP1 SWAP2 SUB SWAP1 RETURN JUMPDEST PUSH1 0x0 SLOAD DUP2 JUMP JUMPDEST PUSH1 0x0 DUP1 DUP2 SLOAD DUP1 SWAP3 SWAP2 SWAP1 PUSH1 0x1 SWAP1 SUB SWAP2 SWAP1 POP SSTORE POP JUMP JUMPDEST PUSH1 0x1 PUSH1 0x0 DUP2 DUP2 SWAP1 SLOAD SWAP1 PUSH2 0x100 EXP SWAP1 DIV PUSH1 0xFF AND DUP1 SWAP3 SWAP2 SWAP1 PUSH2 0x116 SWAP1 PUSH2 0x25F JUMP JUMPDEST SWAP2 SWAP1 PUSH2 0x100 EXP DUP2 SLOAD DUP2 PUSH1 0xFF MUL NOT AND SWAP1 DUP4 PUSH1 0xFF AND MUL OR SWAP1 SSTORE POP POP JUMP JUMPDEST DUP1 PUSH1 0x0 DUP2 SWAP1 SSTORE POP POP JUMP JUMPDEST PUSH1 0x0 DUP1 DUP2 SLOAD DUP1 SWAP3 SWAP2 SWAP1 PUSH2 0x14D SWAP1 PUSH2 0x288 JUMP JUMPDEST SWAP2 SWAP1 POP SSTORE POP JUMP JUMPDEST PUSH1 0x1 PUSH1 0x0 SWAP1 SLOAD SWAP1 PUSH2 0x100 EXP SWAP1 DIV PUSH1 0xFF AND DUP2 JUMP JUMPDEST PUSH1 0x0 DUP2 SWAP1 POP SWAP2 SWAP1 POP JUMP JUMPDEST PUSH2 0x17A DUP2 PUSH2 0x167 JUMP JUMPDEST DUP3 MSTORE POP POP JUMP JUMPDEST PUSH1 0x0 PUSH1 0x20 DUP3 ADD SWAP1 POP PUSH2 0x195 PUSH1 0x0 DUP4 ADD DUP5 PUSH2 0x171 JUMP JUMPDEST SWAP3 SWAP2 POP POP JUMP JUMPDEST PUSH1 0x0 DUP1 REVERT JUMPDEST PUSH2 0x1A9 DUP2 PUSH2 0x167 JUMP JUMPDEST DUP2 EQ PUSH2 0x1B4 JUMPI PUSH1 0x0 DUP1 REVERT JUMPDEST POP JUMP JUMPDEST PUSH1 0x0 DUP2 CALLDATALOAD SWAP1 POP PUSH2 0x1C6 DUP2 PUSH2 0x1A0 JUMP JUMPDEST SWAP3 SWAP2 POP POP JUMP JUMPDEST PUSH1 0x0 PUSH1 0x20 DUP3 DUP5 SUB SLT ISZERO PUSH2 0x1E2 JUMPI PUSH2 0x1E1 PUSH2 0x19B JUMP JUMPDEST JUMPDEST PUSH1 0x0 PUSH2 0x1F0 DUP5 DUP3 DUP6 ADD PUSH2 0x1B7 JUMP JUMPDEST SWAP2 POP POP SWAP3 SWAP2 POP POP JUMP JUMPDEST PUSH1 0x0 PUSH1 0xFF DUP3 AND SWAP1 POP SWAP2 SWAP1 POP JUMP JUMPDEST PUSH2 0x20F DUP2 PUSH2 0x1F9 JUMP JUMPDEST DUP3 MSTORE POP POP JUMP JUMPDEST PUSH1 0x0 PUSH1 0x20 DUP3 ADD SWAP1 POP PUSH2 0x22A PUSH1 0x0 DUP4 ADD DUP5 PUSH2 0x206 JUMP JUMPDEST SWAP3 SWAP2 POP POP JUMP JUMPDEST PUSH32 0x4E487B7100000000000000000000000000000000000000000000000000000000 PUSH1 0x0 MSTORE PUSH1 0x11 PUSH1 0x4 MSTORE PUSH1 0x24 PUSH1 0x0 REVERT JUMPDEST PUSH1 0x0 PUSH2 0x26A DUP3 PUSH2 0x1F9 JUMP JUMPDEST SWAP2 POP PUSH1 0xFF DUP3 SUB PUSH2 0x27D JUMPI PUSH2 0x27C PUSH2 0x230 JUMP JUMPDEST JUMPDEST PUSH1 0x1 DUP3 ADD SWAP1 POP SWAP2 SWAP1 POP JUMP JUMPDEST PUSH1 0x0 PUSH2 0x293 DUP3 PUSH2 0x167 JUMP JUMPDEST SWAP2 POP PUSH32 0xFFFFFFFFFFFFFFFFFFFFFFFFFFFFFFFFFFFFFFFFFFFFFFFFFFFFFFFFFFFFFFFF DUP3 SUB PUSH2 0x2C5 JUMPI PUSH2 0x2C4 PUSH2 0x230 JUMP JUMPDEST JUMPDEST PUSH1 0x1 DUP3 ADD SWAP1 POP SWAP2 SWAP1 POP JUMP INVALID LOG2 PUSH5 0x6970667358 0x22 SLT KECCAK256 PUSH29 0xF8915551856E3A99E9298B99C44705AA2F05FCAC11C53B6945BF4AB0A6 0x2A PUSH15 0x64736F6C634300080E003300000000 "
		},
		"gasEstimates": {
			"creation": {
				"codeDepositCost": "154800",
				"executionCost": "24469",
				"totalCost": "179269"
			},
			"external": {
				"decrementUint256()": "24384",
				"incrementUint256()": "24567",
				"incrementUint8()": "26721",
				"myNumber()": "2407",
				"myUint8()": "2559",
				"updateUint(uint256)": "22564"
			}
		},
		"methodIdentifiers": {
			"decrementUint256()": "2b01f65c",
			"incrementUint256()": "d1f44279",
			"incrementUint8()": "84ea3606",
			"myNumber()": "23fd0e40",
			"myUint8()": "e2a4b2af",
			"updateUint(uint256)": "c914955d"
		}
	},
	"abi": [
		{
			"inputs": [],
			"name": "decrementUint256",
			"outputs": [],
			"stateMutability": "nonpayable",
			"type": "function"
		},
		{
			"inputs": [],
			"name": "incrementUint256",
			"outputs": [],
			"stateMutability": "nonpayable",
			"type": "function"
		},
		{
			"inputs": [],
			"name": "incrementUint8",
			"outputs": [],
			"stateMutability": "nonpayable",
			"type": "function"
		},
		{
			"inputs": [],
			"name": "myNumber",
			"outputs": [
				{
					"internalType": "uint256",
					"name": "",
					"type": "uint256"
				}
			],
			"stateMutability": "view",
			"type": "function"
		},
		{
			"inputs": [],
			"name": "myUint8",
			"outputs": [
				{
					"internalType": "uint8",
					"name": "",
					"type": "uint8"
				}
			],
			"stateMutability": "view",
			"type": "function"
		},
		{
			"inputs": [
				{
					"internalType": "uint256",
					"name": "_newUint",
					"type": "uint256"
				}
			],
			"name": "updateUint",
			"outputs": [],
			"stateMutability": "nonpayable",
			"type": "function"
		}
	]
}