{
	"data": {
		"bytecode": {
			"linkReferences": {},
			"object": "608060405260fa60005560fa600160006101000a81548160ff021916908360ff1602179055507ffffffffffffffffffffffffffffffffffffffffffffffffffffffffffffffff660025534801561005557600080fd5b506104bf806100656000396000f3fe608060405234801561001057600080fd5b50600436106100935760003560e01c8063c914955d11610066578063c914955d146100e8578063d1f4427914610104578063d56c26d61461010e578063e2a4b2af14610118578063e76ed8361461013657610093565b806323fd0e40146100985780632cb777a6146100b657806384ea3606146100d45780638f340414146100de575b600080fd5b6100a0610140565b6040516100ad919061021b565b60405180910390f35b6100be610146565b6040516100cb919061024f565b60405180910390f35b6100dc61014c565b005b6100e6610186565b005b61010260048036038101906100fd919061029b565b6101a0565b005b61010c6101aa565b005b6101166101c3565b005b6101206101d5565b60405161012d91906102e4565b60405180910390f35b61013e6101e8565b005b60005481565b60025481565b6001600081819054906101000a900460ff168092919061016b9061032e565b91906101000a81548160ff021916908360ff16021790555050565b6002600081548092919061019990610357565b9190505550565b8060008190555050565b6000808154809291906101bc9061039f565b9190505550565b603c6000546101d291906103e7565b50565b600160009054906101000a900460ff1681565b600260008154809291906101fb90610441565b9190505550565b6000819050919050565b61021581610202565b82525050565b6000602082019050610230600083018461020c565b92915050565b6000819050919050565b61024981610236565b82525050565b60006020820190506102646000830184610240565b92915050565b600080fd5b61027881610202565b811461028357600080fd5b50565b6000813590506102958161026f565b92915050565b6000602082840312156102b1576102b061026a565b5b60006102bf84828501610286565b91505092915050565b600060ff82169050919050565b6102de816102c8565b82525050565b60006020820190506102f960008301846102d5565b92915050565b7f4e487b7100000000000000000000000000000000000000000000000000000000600052601160045260246000fd5b6000610339826102c8565b915060ff820361034c5761034b6102ff565b5b600182019050919050565b600061036282610236565b91507f7fffffffffffffffffffffffffffffffffffffffffffffffffffffffffffffff8203610394576103936102ff565b5b600182019050919050565b60006103aa82610202565b91507fffffffffffffffffffffffffffffffffffffffffffffffffffffffffffffffff82036103dc576103db6102ff565b5b600182019050919050565b60006103f282610202565b91506103fd83610202565b9250817fffffffffffffffffffffffffffffffffffffffffffffffffffffffffffffffff0483118215151615610436576104356102ff565b5b828202905092915050565b600061044c82610236565b91507f8000000000000000000000000000000000000000000000000000000000000000820361047e5761047d6102ff565b5b60018203905091905056fea264697066735822122063119563e68ae0abe4234aeff6dd831c1258611cb9319a0d4de284a7a89955cd64736f6c634300080e0033",
			"opcodes": "PUSH1 0x80 PUSH1 0x40 MSTORE PUSH1 0xFA PUSH1 0x0 SSTORE PUSH1 0xFA PUSH1 0x1 PUSH1 0x0 PUSH2 0x100 EXP DUP2 SLOAD DUP2 PUSH1 0xFF MUL NOT AND SWAP1 DUP4 PUSH1 0xFF AND MUL OR SWAP1 SSTORE POP PUSH32 0xFFFFFFFFFFFFFFFFFFFFFFFFFFFFFFFFFFFFFFFFFFFFFFFFFFFFFFFFFFFFFFF6 PUSH1 0x2 SSTORE CALLVALUE DUP1 ISZERO PUSH2 0x55 JUMPI PUSH1 0x0 DUP1 REVERT JUMPDEST POP PUSH2 0x4BF DUP1 PUSH2 0x65 PUSH1 0x0 CODECOPY PUSH1 0x0 RETURN INVALID PUSH1 0x80 PUSH1 0x40 MSTORE CALLVALUE DUP1 ISZERO PUSH2 0x10 JUMPI PUSH1 0x0 DUP1 REVERT JUMPDEST POP PUSH1 0x4 CALLDATASIZE LT PUSH2 0x93 JUMPI PUSH1 0x0 CALLDATALOAD PUSH1 0xE0 SHR DUP1 PUSH4 0xC914955D GT PUSH2 0x66 JUMPI DUP1 PUSH4 0xC914955D EQ PUSH2 0xE8 JUMPI DUP1 PUSH4 0xD1F44279 EQ PUSH2 0x104 JUMPI DUP1 PUSH4 0xD56C26D6 EQ PUSH2 0x10E JUMPI DUP1 PUSH4 0xE2A4B2AF EQ PUSH2 0x118 JUMPI DUP1 PUSH4 0xE76ED836 EQ PUSH2 0x136 JUMPI PUSH2 0x93 JUMP JUMPDEST DUP1 PUSH4 0x23FD0E40 EQ PUSH2 0x98 JUMPI DUP1 PUSH4 0x2CB777A6 EQ PUSH2 0xB6 JUMPI DUP1 PUSH4 0x84EA3606 EQ PUSH2 0xD4 JUMPI DUP1 PUSH4 0x8F340414 EQ PUSH2 0xDE JUMPI JUMPDEST PUSH1 0x0 DUP1 REVERT JUMPDEST PUSH2 0xA0 PUSH2 0x140 JUMP JUMPDEST PUSH1 0x40 MLOAD PUSH2 0xAD SWAP2 SWAP1 PUSH2 0x21B JUMP JUMPDEST PUSH1 0x40 MLOAD DUP1 SWAP2 SUB SWAP1 RETURN JUMPDEST PUSH2 0xBE PUSH2 0x146 JUMP JUMPDEST PUSH1 0x40 MLOAD PUSH2 0xCB SWAP2 SWAP1 PUSH2 0x24F JUMP JUMPDEST PUSH1 0x40 MLOAD DUP1 SWAP2 SUB SWAP1 RETURN JUMPDEST PUSH2 0xDC PUSH2 0x14C JUMP JUMPDEST STOP JUMPDEST PUSH2 0xE6 PUSH2 0x186 JUMP JUMPDEST STOP JUMPDEST PUSH2 0x102 PUSH1 0x4 DUP1 CALLDATASIZE SUB DUP2 ADD SWAP1 PUSH2 0xFD SWAP2 SWAP1 PUSH2 0x29B JUMP JUMPDEST PUSH2 0x1A0 JUMP JUMPDEST STOP JUMPDEST PUSH2 0x10C PUSH2 0x1AA JUMP JUMPDEST STOP JUMPDEST PUSH2 0x116 PUSH2 0x1C3 JUMP JUMPDEST STOP JUMPDEST PUSH2 0x120 PUSH2 0x1D5 JUMP JUMPDEST PUSH1 0x40 MLOAD PUSH2 0x12D SWAP2 SWAP1 PUSH2 0x2E4 JUMP JUMPDEST PUSH1 0x40 MLOAD DUP1 SWAP2 SUB SWAP1 RETURN JUMPDEST PUSH2 0x13E PUSH2 0x1E8 JUMP JUMPDEST STOP JUMPDEST PUSH1 0x0 SLOAD DUP2 JUMP JUMPDEST PUSH1 0x2 SLOAD DUP2 JUMP JUMPDEST PUSH1 0x1 PUSH1 0x0 DUP2 DUP2 SWAP1 SLOAD SWAP1 PUSH2 0x100 EXP SWAP1 DIV PUSH1 0xFF AND DUP1 SWAP3 SWAP2 SWAP1 PUSH2 0x16B SWAP1 PUSH2 0x32E JUMP JUMPDEST SWAP2 SWAP1 PUSH2 0x100 EXP DUP2 SLOAD DUP2 PUSH1 0xFF MUL NOT AND SWAP1 DUP4 PUSH1 0xFF AND MUL OR SWAP1 SSTORE POP POP JUMP JUMPDEST PUSH1 0x2 PUSH1 0x0 DUP2 SLOAD DUP1 SWAP3 SWAP2 SWAP1 PUSH2 0x199 SWAP1 PUSH2 0x357 JUMP JUMPDEST SWAP2 SWAP1 POP SSTORE POP JUMP JUMPDEST DUP1 PUSH1 0x0 DUP2 SWAP1 SSTORE POP POP JUMP JUMPDEST PUSH1 0x0 DUP1 DUP2 SLOAD DUP1 SWAP3 SWAP2 SWAP1 PUSH2 0x1BC SWAP1 PUSH2 0x39F JUMP JUMPDEST SWAP2 SWAP1 POP SSTORE POP JUMP JUMPDEST PUSH1 0x3C PUSH1 0x0 SLOAD PUSH2 0x1D2 SWAP2 SWAP1 PUSH2 0x3E7 JUMP JUMPDEST POP JUMP JUMPDEST PUSH1 0x1 PUSH1 0x0 SWAP1 SLOAD SWAP1 PUSH2 0x100 EXP SWAP1 DIV PUSH1 0xFF AND DUP2 JUMP JUMPDEST PUSH1 0x2 PUSH1 0x0 DUP2 SLOAD DUP1 SWAP3 SWAP2 SWAP1 PUSH2 0x1FB SWAP1 PUSH2 0x441 JUMP JUMPDEST SWAP2 SWAP1 POP SSTORE POP JUMP JUMPDEST PUSH1 0x0 DUP2 SWAP1 POP SWAP2 SWAP1 POP JUMP JUMPDEST PUSH2 0x215 DUP2 PUSH2 0x202 JUMP JUMPDEST DUP3 MSTORE POP POP JUMP JUMPDEST PUSH1 0x0 PUSH1 0x20 DUP3 ADD SWAP1 POP PUSH2 0x230 PUSH1 0x0 DUP4 ADD DUP5 PUSH2 0x20C JUMP JUMPDEST SWAP3 SWAP2 POP POP JUMP JUMPDEST PUSH1 0x0 DUP2 SWAP1 POP SWAP2 SWAP1 POP JUMP JUMPDEST PUSH2 0x249 DUP2 PUSH2 0x236 JUMP JUMPDEST DUP3 MSTORE POP POP JUMP JUMPDEST PUSH1 0x0 PUSH1 0x20 DUP3 ADD SWAP1 POP PUSH2 0x264 PUSH1 0x0 DUP4 ADD DUP5 PUSH2 0x240 JUMP JUMPDEST SWAP3 SWAP2 POP POP JUMP JUMPDEST PUSH1 0x0 DUP1 REVERT JUMPDEST PUSH2 0x278 DUP2 PUSH2 0x202 JUMP JUMPDEST DUP2 EQ PUSH2 0x283 JUMPI PUSH1 0x0 DUP1 REVERT JUMPDEST POP JUMP JUMPDEST PUSH1 0x0 DUP2 CALLDATALOAD SWAP1 POP PUSH2 0x295 DUP2 PUSH2 0x26F JUMP JUMPDEST SWAP3 SWAP2 POP POP JUMP JUMPDEST PUSH1 0x0 PUSH1 0x20 DUP3 DUP5 SUB SLT ISZERO PUSH2 0x2B1 JUMPI PUSH2 0x2B0 PUSH2 0x26A JUMP JUMPDEST JUMPDEST PUSH1 0x0 PUSH2 0x2BF DUP5 DUP3 DUP6 ADD PUSH2 0x286 JUMP JUMPDEST SWAP2 POP POP SWAP3 SWAP2 POP POP JUMP JUMPDEST PUSH1 0x0 PUSH1 0xFF DUP3 AND SWAP1 POP SWAP2 SWAP1 POP JUMP JUMPDEST PUSH2 0x2DE DUP2 PUSH2 0x2C8 JUMP JUMPDEST DUP3 MSTORE POP POP JUMP JUMPDEST PUSH1 0x0 PUSH1 0x20 DUP3 ADD SWAP1 POP PUSH2 0x2F9 PUSH1 0x0 DUP4 ADD DUP5 PUSH2 0x2D5 JUMP JUMPDEST SWAP3 SWAP2 POP POP JUMP JUMPDEST PUSH32 0x4E487B7100000000000000000000000000000000000000000000000000000000 PUSH1 0x0 MSTORE PUSH1 0x11 PUSH1 0x4 MSTORE PUSH1 0x24 PUSH1 0x0 REVERT JUMPDEST PUSH1 0x0 PUSH2 0x339 DUP3 PUSH2 0x2C8 JUMP JUMPDEST SWAP2 POP PUSH1 0xFF DUP3 SUB PUSH2 0x34C JUMPI PUSH2 0x34B PUSH2 0x2FF JUMP JUMPDEST JUMPDEST PUSH1 0x1 DUP3 ADD SWAP1 POP SWAP2 SWAP1 POP JUMP JUMPDEST PUSH1 0x0 PUSH2 0x362 DUP3 PUSH2 0x236 JUMP JUMPDEST SWAP2 POP PUSH32 0x7FFFFFFFFFFFFFFFFFFFFFFFFFFFFFFFFFFFFFFFFFFFFFFFFFFFFFFFFFFFFFFF DUP3 SUB PUSH2 0x394 JUMPI PUSH2 0x393 PUSH2 0x2FF JUMP JUMPDEST JUMPDEST PUSH1 0x1 DUP3 ADD SWAP1 POP SWAP2 SWAP1 POP JUMP JUMPDEST PUSH1 0x0 PUSH2 0x3AA DUP3 PUSH2 0x202 JUMP JUMPDEST SWAP2 POP PUSH32 0xFFFFFFFFFFFFFFFFFFFFFFFFFFFFFFFFFFFFFFFFFFFFFFFFFFFFFFFFFFFFFFFF DUP3 SUB PUSH2 0x3DC JUMPI PUSH2 0x3DB PUSH2 0x2FF JUMP JUMPDEST JUMPDEST PUSH1 0x1 DUP3 ADD SWAP1 POP SWAP2 SWAP1 POP JUMP JUMPDEST PUSH1 0x0 PUSH2 0x3F2 DUP3 PUSH2 0x202 JUMP JUMPDEST SWAP2 POP PUSH2 0x3FD DUP4 PUSH2 0x202 JUMP JUMPDEST SWAP3 POP DUP2 PUSH32 0xFFFFFFFFFFFFFFFFFFFFFFFFFFFFFFFFFFFFFFFFFFFFFFFFFFFFFFFFFFFFFFFF DIV DUP4 GT DUP3 ISZERO ISZERO AND ISZERO PUSH2 0x436 JUMPI PUSH2 0x435 PUSH2 0x2FF JUMP JUMPDEST JUMPDEST DUP3 DUP3 MUL SWAP1 POP SWAP3 SWAP2 POP POP JUMP JUMPDEST PUSH1 0x0 PUSH2 0x44C DUP3 PUSH2 0x236 JUMP JUMPDEST SWAP2 POP PUSH32 0x8000000000000000000000000000000000000000000000000000000000000000 DUP3 SUB PUSH2 0x47E JUMPI PUSH2 0x47D PUSH2 0x2FF JUMP JUMPDEST JUMPDEST PUSH1 0x1 DUP3 SUB SWAP1 POP SWAP2 SWAP1 POP JUMP INVALID LOG2 PUSH5 0x6970667358 0x22 SLT KECCAK256 PUSH4 0x119563E6 DUP11 0xE0 0xAB 0xE4 0x23 0x4A 0xEF 0xF6 0xDD DUP4 SHR SLT PC PUSH2 0x1CB9 BALANCE SWAP11 0xD 0x4D 0xE2 DUP5 0xA7 0xA8 SWAP10 SSTORE 0xCD PUSH5 0x736F6C6343 STOP ADDMOD 0xE STOP CALLER "
		},
		"gasEstimates": {
			"creation": {
				"codeDepositCost": "243000",
				"executionCost": "68760",
				"totalCost": "311760"
			},
			"external": {
				"decrementMyInt()": "24589",
				"incrementMyInt()": "24568",
				"incrementUint256()": "24523",
				"incrementUint8()": "26744",
				"multiplyMuNumber()": "infinite",
				"myInt()": "2452",
				"myNumber()": "2430",
				"myUint8()": "2537",
				"updateUint(uint256)": "22520"
			}
		},
		"methodIdentifiers": {
			"decrementMyInt()": "e76ed836",
			"incrementMyInt()": "8f340414",
			"incrementUint256()": "d1f44279",
			"incrementUint8()": "84ea3606",
			"multiplyMuNumber()": "d56c26d6",
			"myInt()": "2cb777a6",
			"myNumber()": "23fd0e40",
			"myUint8()": "e2a4b2af",
			"updateUint(uint256)": "c914955d"
		}
	},
	"abi": [
		{
			"inputs": [],
			"name": "decrementMyInt",
			"outputs": [],
			"stateMutability": "nonpayable",
			"type": "function"
		},
		{
			"inputs": [],
			"name": "incrementMyInt",
			"outputs": [],
			"stateMutability": "nonpayable",
			"type": "function"
		},
		{
			"inputs": [],
			"name": "incrementUint256",
			"outputs": [],
			"stateMutability": "nonpayable",
			"type": "function"
		},
		{
			"inputs": [],
			"name": "incrementUint8",
			"outputs": [],
			"stateMutability": "nonpayable",
			"type": "function"
		},
		{
			"inputs": [],
			"name": "multiplyMuNumber",
			"outputs": [],
			"stateMutability": "nonpayable",
			"type": "function"
		},
		{
			"inputs": [],
			"name": "myInt",
			"outputs": [
				{
					"internalType": "int256",
					"name": "",
					"type": "int256"
				}
			],
			"stateMutability": "view",
			"type": "function"
		},
		{
			"inputs": [],
			"name": "myNumber",
			"outputs": [
				{
					"internalType": "uint256",
					"name": "",
					"type": "uint256"
				}
			],
			"stateMutability": "view",
			"type": "function"
		},
		{
			"inputs": [],
			"name": "myUint8",
			"outputs": [
				{
					"internalType": "uint8",
					"name": "",
					"type": "uint8"
				}
			],
			"stateMutability": "view",
			"type": "function"
		},
		{
			"inputs": [
				{
					"internalType": "uint256",
					"name": "_newUint",
					"type": "uint256"
				}
			],
			"name": "updateUint",
			"outputs": [],
			"stateMutability": "nonpayable",
			"type": "function"
		}
	]
}