{
	"contracts/MappingExample.sol": {
		"MappingExample": {
			"abi": [
				{
					"inputs": [
						{
							"internalType": "uint256",
							"name": "",
							"type": "uint256"
						},
						{
							"internalType": "uint256",
							"name": "",
							"type": "uint256"
						}
					],
					"name": "mappingsOfMappings",
					"outputs": [
						{
							"internalType": "bool",
							"name": "",
							"type": "bool"
						}
					],
					"stateMutability": "view",
					"type": "function"
				},
				{
					"inputs": [
						{
							"internalType": "uint256",
							"name": "",
							"type": "uint256"
						}
					],
					"name": "matchedNumbers",
					"outputs": [
						{
							"internalType": "bool",
							"name": "",
							"type": "bool"
						}
					],
					"stateMutability": "view",
					"type": "function"
				},
				{
					"inputs": [
						{
							"internalType": "address",
							"name": "",
							"type": "address"
						}
					],
					"name": "myAddressMapping",
					"outputs": [
						{
							"internalType": "bool",
							"name": "",
							"type": "bool"
						}
					],
					"stateMutability": "view",
					"type": "function"
				},
				{
					"inputs": [
						{
							"internalType": "string",
							"name": "",
							"type": "string"
						}
					],
					"name": "selectedNames",
					"outputs": [
						{
							"internalType": "bool",
							"name": "",
							"type": "bool"
						}
					],
					"stateMutability": "view",
					"type": "function"
				},
				{
					"inputs": [
						{
							"internalType": "uint256",
							"name": "_num",
							"type": "uint256"
						}
					],
					"name": "setMappedNumber",
					"outputs": [],
					"stateMutability": "nonpayable",
					"type": "function"
				},
				{
					"inputs": [],
					"name": "setMyAddressMapping",
					"outputs": [],
					"stateMutability": "nonpayable",
					"type": "function"
				},
				{
					"inputs": [
						{
							"internalType": "string",
							"name": "_index",
							"type": "string"
						}
					],
					"name": "setNamesMapping",
					"outputs": [],
					"stateMutability": "nonpayable",
					"type": "function"
				},
				{
					"inputs": [
						{
							"internalType": "uint256",
							"name": "_uint1",
							"type": "uint256"
						},
						{
							"internalType": "uint256",
							"name": "_uint2",
							"type": "uint256"
						},
						{
							"internalType": "bool",
							"name": "_value",
							"type": "bool"
						}
					],
					"name": "setUintOfUints",
					"outputs": [],
					"stateMutability": "nonpayable",
					"type": "function"
				}
			],
			"devdoc": {
				"kind": "dev",
				"methods": {},
				"version": 1
			},
			"evm": {
				"assembly": "    /* \"contracts/MappingExample.sol\":58:772  contract MappingExample{... */\n  mstore(0x40, 0x80)\n  callvalue\n  dup1\n  iszero\n  tag_1\n  jumpi\n  0x00\n  dup1\n  revert\ntag_1:\n  pop\n  dataSize(sub_0)\n  dup1\n  dataOffset(sub_0)\n  0x00\n  codecopy\n  0x00\n  return\nstop\n\nsub_0: assembly {\n        /* \"contracts/MappingExample.sol\":58:772  contract MappingExample{... */\n      mstore(0x40, 0x80)\n      callvalue\n      dup1\n      iszero\n      tag_1\n      jumpi\n      0x00\n      dup1\n      revert\n    tag_1:\n      pop\n      jumpi(tag_2, lt(calldatasize, 0x04))\n      shr(0xe0, calldataload(0x00))\n      dup1\n      0x9d44ddd7\n      gt\n      tag_11\n      jumpi\n      dup1\n      0x9d44ddd7\n      eq\n      tag_7\n      jumpi\n      dup1\n      0xb92ba3b8\n      eq\n      tag_8\n      jumpi\n      dup1\n      0xc2377e61\n      eq\n      tag_9\n      jumpi\n      dup1\n      0xd97fe70b\n      eq\n      tag_10\n      jumpi\n      jump(tag_2)\n    tag_11:\n      dup1\n      0x11b6b061\n      eq\n      tag_3\n      jumpi\n      dup1\n      0x3d456a9b\n      eq\n      tag_4\n      jumpi\n      dup1\n      0x4b66251e\n      eq\n      tag_5\n      jumpi\n      dup1\n      0x52e1efae\n      eq\n      tag_6\n      jumpi\n    tag_2:\n      0x00\n      dup1\n      revert\n        /* \"contracts/MappingExample.sol\":137:181  mapping(string => bool) public selectedNames */\n    tag_3:\n      tag_12\n      0x04\n      dup1\n      calldatasize\n      sub\n      dup2\n      add\n      swap1\n      tag_13\n      swap2\n      swap1\n      tag_14\n      jump\t// in\n    tag_13:\n      tag_15\n      jump\t// in\n    tag_12:\n      mload(0x40)\n      tag_16\n      swap2\n      swap1\n      tag_17\n      jump\t// in\n    tag_16:\n      mload(0x40)\n      dup1\n      swap2\n      sub\n      swap1\n      return\n        /* \"contracts/MappingExample.sol\":640:770  function setUintOfUints(uint _uint1, uint _uint2, bool _value) public {... */\n    tag_4:\n      tag_18\n      0x04\n      dup1\n      calldatasize\n      sub\n      dup2\n      add\n      swap1\n      tag_19\n      swap2\n      swap1\n      tag_20\n      jump\t// in\n    tag_19:\n      tag_21\n      jump\t// in\n    tag_18:\n      stop\n        /* \"contracts/MappingExample.sol\":272:336  mapping(uint => mapping(uint => bool)) public mappingsOfMappings */\n    tag_5:\n      tag_22\n      0x04\n      dup1\n      calldatasize\n      sub\n      dup2\n      add\n      swap1\n      tag_23\n      swap2\n      swap1\n      tag_24\n      jump\t// in\n    tag_23:\n      tag_25\n      jump\t// in\n    tag_22:\n      mload(0x40)\n      tag_26\n      swap2\n      swap1\n      tag_17\n      jump\t// in\n    tag_26:\n      mload(0x40)\n      dup1\n      swap2\n      sub\n      swap1\n      return\n        /* \"contracts/MappingExample.sol\":87:130  mapping(uint => bool) public matchedNumbers */\n    tag_6:\n      tag_27\n      0x04\n      dup1\n      calldatasize\n      sub\n      dup2\n      add\n      swap1\n      tag_28\n      swap2\n      swap1\n      tag_29\n      jump\t// in\n    tag_28:\n      tag_30\n      jump\t// in\n    tag_27:\n      mload(0x40)\n      tag_31\n      swap2\n      swap1\n      tag_17\n      jump\t// in\n    tag_31:\n      mload(0x40)\n      dup1\n      swap2\n      sub\n      swap1\n      return\n        /* \"contracts/MappingExample.sol\":543:633  function setMyAddressMapping() public {... */\n    tag_7:\n      tag_32\n      tag_33\n      jump\t// in\n    tag_32:\n      stop\n        /* \"contracts/MappingExample.sol\":188:236  mapping(address => bool) public myAddressMapping */\n    tag_8:\n      tag_34\n      0x04\n      dup1\n      calldatasize\n      sub\n      dup2\n      add\n      swap1\n      tag_35\n      swap2\n      swap1\n      tag_36\n      jump\t// in\n    tag_35:\n      tag_37\n      jump\t// in\n    tag_34:\n      mload(0x40)\n      tag_38\n      swap2\n      swap1\n      tag_17\n      jump\t// in\n    tag_38:\n      mload(0x40)\n      dup1\n      swap2\n      sub\n      swap1\n      return\n        /* \"contracts/MappingExample.sol\":437:536  function setNamesMapping(string memory _index) public {... */\n    tag_9:\n      tag_39\n      0x04\n      dup1\n      calldatasize\n      sub\n      dup2\n      add\n      swap1\n      tag_40\n      swap2\n      swap1\n      tag_14\n      jump\t// in\n    tag_40:\n      tag_41\n      jump\t// in\n    tag_39:\n      stop\n        /* \"contracts/MappingExample.sol\":343:430  function setMappedNumber(uint _num) public {... */\n    tag_10:\n      tag_42\n      0x04\n      dup1\n      calldatasize\n      sub\n      dup2\n      add\n      swap1\n      tag_43\n      swap2\n      swap1\n      tag_29\n      jump\t// in\n    tag_43:\n      tag_44\n      jump\t// in\n    tag_42:\n      stop\n        /* \"contracts/MappingExample.sol\":137:181  mapping(string => bool) public selectedNames */\n    tag_15:\n      0x01\n      dup2\n      dup1\n      mload\n      0x20\n      dup2\n      add\n      dup3\n      add\n      dup1\n      mload\n      dup5\n      dup3\n      mstore\n      0x20\n      dup4\n      add\n      0x20\n      dup6\n      add\n      keccak256\n      dup2\n      dup4\n      mstore\n      dup1\n      swap6\n      pop\n      pop\n      pop\n      pop\n      pop\n      pop\n      0x00\n      swap2\n      pop\n      sload\n      swap1\n      0x0100\n      exp\n      swap1\n      div\n      0xff\n      and\n      dup2\n      jump\t// out\n        /* \"contracts/MappingExample.sol\":640:770  function setUintOfUints(uint _uint1, uint _uint2, bool _value) public {... */\n    tag_21:\n        /* \"contracts/MappingExample.sol\":757:763  _value */\n      dup1\n        /* \"contracts/MappingExample.sol\":720:738  mappingsOfMappings */\n      0x03\n        /* \"contracts/MappingExample.sol\":720:746  mappingsOfMappings[_uint1] */\n      0x00\n        /* \"contracts/MappingExample.sol\":739:745  _uint1 */\n      dup6\n        /* \"contracts/MappingExample.sol\":720:746  mappingsOfMappings[_uint1] */\n      dup2\n      mstore\n      0x20\n      add\n      swap1\n      dup2\n      mstore\n      0x20\n      add\n      0x00\n      keccak256\n        /* \"contracts/MappingExample.sol\":720:754  mappingsOfMappings[_uint1][_uint2] */\n      0x00\n        /* \"contracts/MappingExample.sol\":747:753  _uint2 */\n      dup5\n        /* \"contracts/MappingExample.sol\":720:754  mappingsOfMappings[_uint1][_uint2] */\n      dup2\n      mstore\n      0x20\n      add\n      swap1\n      dup2\n      mstore\n      0x20\n      add\n      0x00\n      keccak256\n      0x00\n        /* \"contracts/MappingExample.sol\":720:763  mappingsOfMappings[_uint1][_uint2] = _value */\n      0x0100\n      exp\n      dup2\n      sload\n      dup2\n      0xff\n      mul\n      not\n      and\n      swap1\n      dup4\n      iszero\n      iszero\n      mul\n      or\n      swap1\n      sstore\n      pop\n        /* \"contracts/MappingExample.sol\":640:770  function setUintOfUints(uint _uint1, uint _uint2, bool _value) public {... */\n      pop\n      pop\n      pop\n      jump\t// out\n        /* \"contracts/MappingExample.sol\":272:336  mapping(uint => mapping(uint => bool)) public mappingsOfMappings */\n    tag_25:\n      mstore(0x20, 0x03)\n      dup2\n      0x00\n      mstore\n      mstore(0x20, keccak256(0x00, 0x40))\n      dup1\n      0x00\n      mstore\n      keccak256(0x00, 0x40)\n      0x00\n      swap2\n      pop\n      swap2\n      pop\n      swap1\n      sload\n      swap1\n      0x0100\n      exp\n      swap1\n      div\n      0xff\n      and\n      dup2\n      jump\t// out\n        /* \"contracts/MappingExample.sol\":87:130  mapping(uint => bool) public matchedNumbers */\n    tag_30:\n      mstore(0x20, 0x00)\n      dup1\n      0x00\n      mstore\n      keccak256(0x00, 0x40)\n      0x00\n      swap2\n      pop\n      sload\n      swap1\n      0x0100\n      exp\n      swap1\n      div\n      0xff\n      and\n      dup2\n      jump\t// out\n        /* \"contracts/MappingExample.sol\":543:633  function setMyAddressMapping() public {... */\n    tag_33:\n        /* \"contracts/MappingExample.sol\":622:626  true */\n      0x01\n        /* \"contracts/MappingExample.sol\":591:607  myAddressMapping */\n      0x02\n        /* \"contracts/MappingExample.sol\":591:619  myAddressMapping[msg.sender] */\n      0x00\n        /* \"contracts/MappingExample.sol\":608:618  msg.sender */\n      caller\n        /* \"contracts/MappingExample.sol\":591:619  myAddressMapping[msg.sender] */\n      0xffffffffffffffffffffffffffffffffffffffff\n      and\n      0xffffffffffffffffffffffffffffffffffffffff\n      and\n      dup2\n      mstore\n      0x20\n      add\n      swap1\n      dup2\n      mstore\n      0x20\n      add\n      0x00\n      keccak256\n      0x00\n        /* \"contracts/MappingExample.sol\":591:626  myAddressMapping[msg.sender] = true */\n      0x0100\n      exp\n      dup2\n      sload\n      dup2\n      0xff\n      mul\n      not\n      and\n      swap1\n      dup4\n      iszero\n      iszero\n      mul\n      or\n      swap1\n      sstore\n      pop\n        /* \"contracts/MappingExample.sol\":543:633  function setMyAddressMapping() public {... */\n      jump\t// out\n        /* \"contracts/MappingExample.sol\":188:236  mapping(address => bool) public myAddressMapping */\n    tag_37:\n      mstore(0x20, 0x02)\n      dup1\n      0x00\n      mstore\n      keccak256(0x00, 0x40)\n      0x00\n      swap2\n      pop\n      sload\n      swap1\n      0x0100\n      exp\n      swap1\n      div\n      0xff\n      and\n      dup2\n      jump\t// out\n        /* \"contracts/MappingExample.sol\":437:536  function setNamesMapping(string memory _index) public {... */\n    tag_41:\n        /* \"contracts/MappingExample.sol\":525:529  true */\n      0x01\n        /* \"contracts/MappingExample.sol\":501:514  selectedNames */\n      dup1\n        /* \"contracts/MappingExample.sol\":515:521  _index */\n      dup3\n        /* \"contracts/MappingExample.sol\":501:522  selectedNames[_index] */\n      mload(0x40)\n      tag_48\n      swap2\n      swap1\n      tag_49\n      jump\t// in\n    tag_48:\n      swap1\n      dup2\n      mstore\n      0x20\n      add\n      mload(0x40)\n      dup1\n      swap2\n      sub\n      swap1\n      keccak256\n      0x00\n        /* \"contracts/MappingExample.sol\":501:529  selectedNames[_index] = true */\n      0x0100\n      exp\n      dup2\n      sload\n      dup2\n      0xff\n      mul\n      not\n      and\n      swap1\n      dup4\n      iszero\n      iszero\n      mul\n      or\n      swap1\n      sstore\n      pop\n        /* \"contracts/MappingExample.sol\":437:536  function setNamesMapping(string memory _index) public {... */\n      pop\n      jump\t// out\n        /* \"contracts/MappingExample.sol\":343:430  function setMappedNumber(uint _num) public {... */\n    tag_44:\n        /* \"contracts/MappingExample.sol\":419:423  true */\n      0x01\n        /* \"contracts/MappingExample.sol\":396:410  matchedNumbers */\n      0x00\n        /* \"contracts/MappingExample.sol\":396:416  matchedNumbers[_num] */\n      dup1\n        /* \"contracts/MappingExample.sol\":411:415  _num */\n      dup4\n        /* \"contracts/MappingExample.sol\":396:416  matchedNumbers[_num] */\n      dup2\n      mstore\n      0x20\n      add\n      swap1\n      dup2\n      mstore\n      0x20\n      add\n      0x00\n      keccak256\n      0x00\n        /* \"contracts/MappingExample.sol\":396:423  matchedNumbers[_num] = true */\n      0x0100\n      exp\n      dup2\n      sload\n      dup2\n      0xff\n      mul\n      not\n      and\n      swap1\n      dup4\n      iszero\n      iszero\n      mul\n      or\n      swap1\n      sstore\n      pop\n        /* \"contracts/MappingExample.sol\":343:430  function setMappedNumber(uint _num) public {... */\n      pop\n      jump\t// out\n        /* \"#utility.yul\":7:82   */\n    tag_51:\n        /* \"#utility.yul\":40:46   */\n      0x00\n        /* \"#utility.yul\":73:75   */\n      0x40\n        /* \"#utility.yul\":67:76   */\n      mload\n        /* \"#utility.yul\":57:76   */\n      swap1\n      pop\n        /* \"#utility.yul\":7:82   */\n      swap1\n      jump\t// out\n        /* \"#utility.yul\":88:205   */\n    tag_52:\n        /* \"#utility.yul\":197:198   */\n      0x00\n        /* \"#utility.yul\":194:195   */\n      dup1\n        /* \"#utility.yul\":187:199   */\n      revert\n        /* \"#utility.yul\":211:328   */\n    tag_53:\n        /* \"#utility.yul\":320:321   */\n      0x00\n        /* \"#utility.yul\":317:318   */\n      dup1\n        /* \"#utility.yul\":310:322   */\n      revert\n        /* \"#utility.yul\":334:451   */\n    tag_54:\n        /* \"#utility.yul\":443:444   */\n      0x00\n        /* \"#utility.yul\":440:441   */\n      dup1\n        /* \"#utility.yul\":433:445   */\n      revert\n        /* \"#utility.yul\":457:574   */\n    tag_55:\n        /* \"#utility.yul\":566:567   */\n      0x00\n        /* \"#utility.yul\":563:564   */\n      dup1\n        /* \"#utility.yul\":556:568   */\n      revert\n        /* \"#utility.yul\":580:682   */\n    tag_56:\n        /* \"#utility.yul\":621:627   */\n      0x00\n        /* \"#utility.yul\":672:674   */\n      0x1f\n        /* \"#utility.yul\":668:675   */\n      not\n        /* \"#utility.yul\":663:665   */\n      0x1f\n        /* \"#utility.yul\":656:661   */\n      dup4\n        /* \"#utility.yul\":652:666   */\n      add\n        /* \"#utility.yul\":648:676   */\n      and\n        /* \"#utility.yul\":638:676   */\n      swap1\n      pop\n        /* \"#utility.yul\":580:682   */\n      swap2\n      swap1\n      pop\n      jump\t// out\n        /* \"#utility.yul\":688:868   */\n    tag_57:\n        /* \"#utility.yul\":736:813   */\n      0x4e487b7100000000000000000000000000000000000000000000000000000000\n        /* \"#utility.yul\":733:734   */\n      0x00\n        /* \"#utility.yul\":726:814   */\n      mstore\n        /* \"#utility.yul\":833:837   */\n      0x41\n        /* \"#utility.yul\":830:831   */\n      0x04\n        /* \"#utility.yul\":823:838   */\n      mstore\n        /* \"#utility.yul\":857:861   */\n      0x24\n        /* \"#utility.yul\":854:855   */\n      0x00\n        /* \"#utility.yul\":847:862   */\n      revert\n        /* \"#utility.yul\":874:1155   */\n    tag_58:\n        /* \"#utility.yul\":957:984   */\n      tag_88\n        /* \"#utility.yul\":979:983   */\n      dup3\n        /* \"#utility.yul\":957:984   */\n      tag_56\n      jump\t// in\n    tag_88:\n        /* \"#utility.yul\":949:955   */\n      dup2\n        /* \"#utility.yul\":945:985   */\n      add\n        /* \"#utility.yul\":1087:1093   */\n      dup2\n        /* \"#utility.yul\":1075:1085   */\n      dup2\n        /* \"#utility.yul\":1072:1094   */\n      lt\n        /* \"#utility.yul\":1051:1069   */\n      0xffffffffffffffff\n        /* \"#utility.yul\":1039:1049   */\n      dup3\n        /* \"#utility.yul\":1036:1070   */\n      gt\n        /* \"#utility.yul\":1033:1095   */\n      or\n        /* \"#utility.yul\":1030:1118   */\n      iszero\n      tag_89\n      jumpi\n        /* \"#utility.yul\":1098:1116   */\n      tag_90\n      tag_57\n      jump\t// in\n    tag_90:\n        /* \"#utility.yul\":1030:1118   */\n    tag_89:\n        /* \"#utility.yul\":1138:1148   */\n      dup1\n        /* \"#utility.yul\":1134:1136   */\n      0x40\n        /* \"#utility.yul\":1127:1149   */\n      mstore\n        /* \"#utility.yul\":917:1155   */\n      pop\n        /* \"#utility.yul\":874:1155   */\n      pop\n      pop\n      jump\t// out\n        /* \"#utility.yul\":1161:1290   */\n    tag_59:\n        /* \"#utility.yul\":1195:1201   */\n      0x00\n        /* \"#utility.yul\":1222:1242   */\n      tag_92\n      tag_51\n      jump\t// in\n    tag_92:\n        /* \"#utility.yul\":1212:1242   */\n      swap1\n      pop\n        /* \"#utility.yul\":1251:1284   */\n      tag_93\n        /* \"#utility.yul\":1279:1283   */\n      dup3\n        /* \"#utility.yul\":1271:1277   */\n      dup3\n        /* \"#utility.yul\":1251:1284   */\n      tag_58\n      jump\t// in\n    tag_93:\n        /* \"#utility.yul\":1161:1290   */\n      swap2\n      swap1\n      pop\n      jump\t// out\n        /* \"#utility.yul\":1296:1604   */\n    tag_60:\n        /* \"#utility.yul\":1358:1362   */\n      0x00\n        /* \"#utility.yul\":1448:1466   */\n      0xffffffffffffffff\n        /* \"#utility.yul\":1440:1446   */\n      dup3\n        /* \"#utility.yul\":1437:1467   */\n      gt\n        /* \"#utility.yul\":1434:1490   */\n      iszero\n      tag_95\n      jumpi\n        /* \"#utility.yul\":1470:1488   */\n      tag_96\n      tag_57\n      jump\t// in\n    tag_96:\n        /* \"#utility.yul\":1434:1490   */\n    tag_95:\n        /* \"#utility.yul\":1508:1537   */\n      tag_97\n        /* \"#utility.yul\":1530:1536   */\n      dup3\n        /* \"#utility.yul\":1508:1537   */\n      tag_56\n      jump\t// in\n    tag_97:\n        /* \"#utility.yul\":1500:1537   */\n      swap1\n      pop\n        /* \"#utility.yul\":1592:1596   */\n      0x20\n        /* \"#utility.yul\":1586:1590   */\n      dup2\n        /* \"#utility.yul\":1582:1597   */\n      add\n        /* \"#utility.yul\":1574:1597   */\n      swap1\n      pop\n        /* \"#utility.yul\":1296:1604   */\n      swap2\n      swap1\n      pop\n      jump\t// out\n        /* \"#utility.yul\":1610:1764   */\n    tag_61:\n        /* \"#utility.yul\":1694:1700   */\n      dup3\n        /* \"#utility.yul\":1689:1692   */\n      dup2\n        /* \"#utility.yul\":1684:1687   */\n      dup4\n        /* \"#utility.yul\":1671:1701   */\n      calldatacopy\n        /* \"#utility.yul\":1756:1757   */\n      0x00\n        /* \"#utility.yul\":1747:1753   */\n      dup4\n        /* \"#utility.yul\":1742:1745   */\n      dup4\n        /* \"#utility.yul\":1738:1754   */\n      add\n        /* \"#utility.yul\":1731:1758   */\n      mstore\n        /* \"#utility.yul\":1610:1764   */\n      pop\n      pop\n      pop\n      jump\t// out\n        /* \"#utility.yul\":1770:2182   */\n    tag_62:\n        /* \"#utility.yul\":1848:1853   */\n      0x00\n        /* \"#utility.yul\":1873:1939   */\n      tag_100\n        /* \"#utility.yul\":1889:1938   */\n      tag_101\n        /* \"#utility.yul\":1931:1937   */\n      dup5\n        /* \"#utility.yul\":1889:1938   */\n      tag_60\n      jump\t// in\n    tag_101:\n        /* \"#utility.yul\":1873:1939   */\n      tag_59\n      jump\t// in\n    tag_100:\n        /* \"#utility.yul\":1864:1939   */\n      swap1\n      pop\n        /* \"#utility.yul\":1962:1968   */\n      dup3\n        /* \"#utility.yul\":1955:1960   */\n      dup2\n        /* \"#utility.yul\":1948:1969   */\n      mstore\n        /* \"#utility.yul\":2000:2004   */\n      0x20\n        /* \"#utility.yul\":1993:1998   */\n      dup2\n        /* \"#utility.yul\":1989:2005   */\n      add\n        /* \"#utility.yul\":2038:2041   */\n      dup5\n        /* \"#utility.yul\":2029:2035   */\n      dup5\n        /* \"#utility.yul\":2024:2027   */\n      dup5\n        /* \"#utility.yul\":2020:2036   */\n      add\n        /* \"#utility.yul\":2017:2042   */\n      gt\n        /* \"#utility.yul\":2014:2126   */\n      iszero\n      tag_102\n      jumpi\n        /* \"#utility.yul\":2045:2124   */\n      tag_103\n      tag_55\n      jump\t// in\n    tag_103:\n        /* \"#utility.yul\":2014:2126   */\n    tag_102:\n        /* \"#utility.yul\":2135:2176   */\n      tag_104\n        /* \"#utility.yul\":2169:2175   */\n      dup5\n        /* \"#utility.yul\":2164:2167   */\n      dup3\n        /* \"#utility.yul\":2159:2162   */\n      dup6\n        /* \"#utility.yul\":2135:2176   */\n      tag_61\n      jump\t// in\n    tag_104:\n        /* \"#utility.yul\":1854:2182   */\n      pop\n        /* \"#utility.yul\":1770:2182   */\n      swap4\n      swap3\n      pop\n      pop\n      pop\n      jump\t// out\n        /* \"#utility.yul\":2202:2542   */\n    tag_63:\n        /* \"#utility.yul\":2258:2263   */\n      0x00\n        /* \"#utility.yul\":2307:2310   */\n      dup3\n        /* \"#utility.yul\":2300:2304   */\n      0x1f\n        /* \"#utility.yul\":2292:2298   */\n      dup4\n        /* \"#utility.yul\":2288:2305   */\n      add\n        /* \"#utility.yul\":2284:2311   */\n      slt\n        /* \"#utility.yul\":2274:2396   */\n      tag_106\n      jumpi\n        /* \"#utility.yul\":2315:2394   */\n      tag_107\n      tag_54\n      jump\t// in\n    tag_107:\n        /* \"#utility.yul\":2274:2396   */\n    tag_106:\n        /* \"#utility.yul\":2432:2438   */\n      dup2\n        /* \"#utility.yul\":2419:2439   */\n      calldataload\n        /* \"#utility.yul\":2457:2536   */\n      tag_108\n        /* \"#utility.yul\":2532:2535   */\n      dup5\n        /* \"#utility.yul\":2524:2530   */\n      dup3\n        /* \"#utility.yul\":2517:2521   */\n      0x20\n        /* \"#utility.yul\":2509:2515   */\n      dup7\n        /* \"#utility.yul\":2505:2522   */\n      add\n        /* \"#utility.yul\":2457:2536   */\n      tag_62\n      jump\t// in\n    tag_108:\n        /* \"#utility.yul\":2448:2536   */\n      swap2\n      pop\n        /* \"#utility.yul\":2264:2542   */\n      pop\n        /* \"#utility.yul\":2202:2542   */\n      swap3\n      swap2\n      pop\n      pop\n      jump\t// out\n        /* \"#utility.yul\":2548:3057   */\n    tag_14:\n        /* \"#utility.yul\":2617:2623   */\n      0x00\n        /* \"#utility.yul\":2666:2668   */\n      0x20\n        /* \"#utility.yul\":2654:2663   */\n      dup3\n        /* \"#utility.yul\":2645:2652   */\n      dup5\n        /* \"#utility.yul\":2641:2664   */\n      sub\n        /* \"#utility.yul\":2637:2669   */\n      slt\n        /* \"#utility.yul\":2634:2753   */\n      iszero\n      tag_110\n      jumpi\n        /* \"#utility.yul\":2672:2751   */\n      tag_111\n      tag_52\n      jump\t// in\n    tag_111:\n        /* \"#utility.yul\":2634:2753   */\n    tag_110:\n        /* \"#utility.yul\":2820:2821   */\n      0x00\n        /* \"#utility.yul\":2809:2818   */\n      dup3\n        /* \"#utility.yul\":2805:2822   */\n      add\n        /* \"#utility.yul\":2792:2823   */\n      calldataload\n        /* \"#utility.yul\":2850:2868   */\n      0xffffffffffffffff\n        /* \"#utility.yul\":2842:2848   */\n      dup2\n        /* \"#utility.yul\":2839:2869   */\n      gt\n        /* \"#utility.yul\":2836:2953   */\n      iszero\n      tag_112\n      jumpi\n        /* \"#utility.yul\":2872:2951   */\n      tag_113\n      tag_53\n      jump\t// in\n    tag_113:\n        /* \"#utility.yul\":2836:2953   */\n    tag_112:\n        /* \"#utility.yul\":2977:3040   */\n      tag_114\n        /* \"#utility.yul\":3032:3039   */\n      dup5\n        /* \"#utility.yul\":3023:3029   */\n      dup3\n        /* \"#utility.yul\":3012:3021   */\n      dup6\n        /* \"#utility.yul\":3008:3030   */\n      add\n        /* \"#utility.yul\":2977:3040   */\n      tag_63\n      jump\t// in\n    tag_114:\n        /* \"#utility.yul\":2967:3040   */\n      swap2\n      pop\n        /* \"#utility.yul\":2763:3050   */\n      pop\n        /* \"#utility.yul\":2548:3057   */\n      swap3\n      swap2\n      pop\n      pop\n      jump\t// out\n        /* \"#utility.yul\":3063:3153   */\n    tag_64:\n        /* \"#utility.yul\":3097:3104   */\n      0x00\n        /* \"#utility.yul\":3140:3145   */\n      dup2\n        /* \"#utility.yul\":3133:3146   */\n      iszero\n        /* \"#utility.yul\":3126:3147   */\n      iszero\n        /* \"#utility.yul\":3115:3147   */\n      swap1\n      pop\n        /* \"#utility.yul\":3063:3153   */\n      swap2\n      swap1\n      pop\n      jump\t// out\n        /* \"#utility.yul\":3159:3268   */\n    tag_65:\n        /* \"#utility.yul\":3240:3261   */\n      tag_117\n        /* \"#utility.yul\":3255:3260   */\n      dup2\n        /* \"#utility.yul\":3240:3261   */\n      tag_64\n      jump\t// in\n    tag_117:\n        /* \"#utility.yul\":3235:3238   */\n      dup3\n        /* \"#utility.yul\":3228:3262   */\n      mstore\n        /* \"#utility.yul\":3159:3268   */\n      pop\n      pop\n      jump\t// out\n        /* \"#utility.yul\":3274:3484   */\n    tag_17:\n        /* \"#utility.yul\":3361:3365   */\n      0x00\n        /* \"#utility.yul\":3399:3401   */\n      0x20\n        /* \"#utility.yul\":3388:3397   */\n      dup3\n        /* \"#utility.yul\":3384:3402   */\n      add\n        /* \"#utility.yul\":3376:3402   */\n      swap1\n      pop\n        /* \"#utility.yul\":3412:3477   */\n      tag_119\n        /* \"#utility.yul\":3474:3475   */\n      0x00\n        /* \"#utility.yul\":3463:3472   */\n      dup4\n        /* \"#utility.yul\":3459:3476   */\n      add\n        /* \"#utility.yul\":3450:3456   */\n      dup5\n        /* \"#utility.yul\":3412:3477   */\n      tag_65\n      jump\t// in\n    tag_119:\n        /* \"#utility.yul\":3274:3484   */\n      swap3\n      swap2\n      pop\n      pop\n      jump\t// out\n        /* \"#utility.yul\":3490:3567   */\n    tag_66:\n        /* \"#utility.yul\":3527:3534   */\n      0x00\n        /* \"#utility.yul\":3556:3561   */\n      dup2\n        /* \"#utility.yul\":3545:3561   */\n      swap1\n      pop\n        /* \"#utility.yul\":3490:3567   */\n      swap2\n      swap1\n      pop\n      jump\t// out\n        /* \"#utility.yul\":3573:3695   */\n    tag_67:\n        /* \"#utility.yul\":3646:3670   */\n      tag_122\n        /* \"#utility.yul\":3664:3669   */\n      dup2\n        /* \"#utility.yul\":3646:3670   */\n      tag_66\n      jump\t// in\n    tag_122:\n        /* \"#utility.yul\":3639:3644   */\n      dup2\n        /* \"#utility.yul\":3636:3671   */\n      eq\n        /* \"#utility.yul\":3626:3689   */\n      tag_123\n      jumpi\n        /* \"#utility.yul\":3685:3686   */\n      0x00\n        /* \"#utility.yul\":3682:3683   */\n      dup1\n        /* \"#utility.yul\":3675:3687   */\n      revert\n        /* \"#utility.yul\":3626:3689   */\n    tag_123:\n        /* \"#utility.yul\":3573:3695   */\n      pop\n      jump\t// out\n        /* \"#utility.yul\":3701:3840   */\n    tag_68:\n        /* \"#utility.yul\":3747:3752   */\n      0x00\n        /* \"#utility.yul\":3785:3791   */\n      dup2\n        /* \"#utility.yul\":3772:3792   */\n      calldataload\n        /* \"#utility.yul\":3763:3792   */\n      swap1\n      pop\n        /* \"#utility.yul\":3801:3834   */\n      tag_125\n        /* \"#utility.yul\":3828:3833   */\n      dup2\n        /* \"#utility.yul\":3801:3834   */\n      tag_67\n      jump\t// in\n    tag_125:\n        /* \"#utility.yul\":3701:3840   */\n      swap3\n      swap2\n      pop\n      pop\n      jump\t// out\n        /* \"#utility.yul\":3846:3962   */\n    tag_69:\n        /* \"#utility.yul\":3916:3937   */\n      tag_127\n        /* \"#utility.yul\":3931:3936   */\n      dup2\n        /* \"#utility.yul\":3916:3937   */\n      tag_64\n      jump\t// in\n    tag_127:\n        /* \"#utility.yul\":3909:3914   */\n      dup2\n        /* \"#utility.yul\":3906:3938   */\n      eq\n        /* \"#utility.yul\":3896:3956   */\n      tag_128\n      jumpi\n        /* \"#utility.yul\":3952:3953   */\n      0x00\n        /* \"#utility.yul\":3949:3950   */\n      dup1\n        /* \"#utility.yul\":3942:3954   */\n      revert\n        /* \"#utility.yul\":3896:3956   */\n    tag_128:\n        /* \"#utility.yul\":3846:3962   */\n      pop\n      jump\t// out\n        /* \"#utility.yul\":3968:4101   */\n    tag_70:\n        /* \"#utility.yul\":4011:4016   */\n      0x00\n        /* \"#utility.yul\":4049:4055   */\n      dup2\n        /* \"#utility.yul\":4036:4056   */\n      calldataload\n        /* \"#utility.yul\":4027:4056   */\n      swap1\n      pop\n        /* \"#utility.yul\":4065:4095   */\n      tag_130\n        /* \"#utility.yul\":4089:4094   */\n      dup2\n        /* \"#utility.yul\":4065:4095   */\n      tag_69\n      jump\t// in\n    tag_130:\n        /* \"#utility.yul\":3968:4101   */\n      swap3\n      swap2\n      pop\n      pop\n      jump\t// out\n        /* \"#utility.yul\":4107:4720   */\n    tag_20:\n        /* \"#utility.yul\":4181:4187   */\n      0x00\n        /* \"#utility.yul\":4189:4195   */\n      dup1\n        /* \"#utility.yul\":4197:4203   */\n      0x00\n        /* \"#utility.yul\":4246:4248   */\n      0x60\n        /* \"#utility.yul\":4234:4243   */\n      dup5\n        /* \"#utility.yul\":4225:4232   */\n      dup7\n        /* \"#utility.yul\":4221:4244   */\n      sub\n        /* \"#utility.yul\":4217:4249   */\n      slt\n        /* \"#utility.yul\":4214:4333   */\n      iszero\n      tag_132\n      jumpi\n        /* \"#utility.yul\":4252:4331   */\n      tag_133\n      tag_52\n      jump\t// in\n    tag_133:\n        /* \"#utility.yul\":4214:4333   */\n    tag_132:\n        /* \"#utility.yul\":4372:4373   */\n      0x00\n        /* \"#utility.yul\":4397:4450   */\n      tag_134\n        /* \"#utility.yul\":4442:4449   */\n      dup7\n        /* \"#utility.yul\":4433:4439   */\n      dup3\n        /* \"#utility.yul\":4422:4431   */\n      dup8\n        /* \"#utility.yul\":4418:4440   */\n      add\n        /* \"#utility.yul\":4397:4450   */\n      tag_68\n      jump\t// in\n    tag_134:\n        /* \"#utility.yul\":4387:4450   */\n      swap4\n      pop\n        /* \"#utility.yul\":4343:4460   */\n      pop\n        /* \"#utility.yul\":4499:4501   */\n      0x20\n        /* \"#utility.yul\":4525:4578   */\n      tag_135\n        /* \"#utility.yul\":4570:4577   */\n      dup7\n        /* \"#utility.yul\":4561:4567   */\n      dup3\n        /* \"#utility.yul\":4550:4559   */\n      dup8\n        /* \"#utility.yul\":4546:4568   */\n      add\n        /* \"#utility.yul\":4525:4578   */\n      tag_68\n      jump\t// in\n    tag_135:\n        /* \"#utility.yul\":4515:4578   */\n      swap3\n      pop\n        /* \"#utility.yul\":4470:4588   */\n      pop\n        /* \"#utility.yul\":4627:4629   */\n      0x40\n        /* \"#utility.yul\":4653:4703   */\n      tag_136\n        /* \"#utility.yul\":4695:4702   */\n      dup7\n        /* \"#utility.yul\":4686:4692   */\n      dup3\n        /* \"#utility.yul\":4675:4684   */\n      dup8\n        /* \"#utility.yul\":4671:4693   */\n      add\n        /* \"#utility.yul\":4653:4703   */\n      tag_70\n      jump\t// in\n    tag_136:\n        /* \"#utility.yul\":4643:4703   */\n      swap2\n      pop\n        /* \"#utility.yul\":4598:4713   */\n      pop\n        /* \"#utility.yul\":4107:4720   */\n      swap3\n      pop\n      swap3\n      pop\n      swap3\n      jump\t// out\n        /* \"#utility.yul\":4726:5200   */\n    tag_24:\n        /* \"#utility.yul\":4794:4800   */\n      0x00\n        /* \"#utility.yul\":4802:4808   */\n      dup1\n        /* \"#utility.yul\":4851:4853   */\n      0x40\n        /* \"#utility.yul\":4839:4848   */\n      dup4\n        /* \"#utility.yul\":4830:4837   */\n      dup6\n        /* \"#utility.yul\":4826:4849   */\n      sub\n        /* \"#utility.yul\":4822:4854   */\n      slt\n        /* \"#utility.yul\":4819:4938   */\n      iszero\n      tag_138\n      jumpi\n        /* \"#utility.yul\":4857:4936   */\n      tag_139\n      tag_52\n      jump\t// in\n    tag_139:\n        /* \"#utility.yul\":4819:4938   */\n    tag_138:\n        /* \"#utility.yul\":4977:4978   */\n      0x00\n        /* \"#utility.yul\":5002:5055   */\n      tag_140\n        /* \"#utility.yul\":5047:5054   */\n      dup6\n        /* \"#utility.yul\":5038:5044   */\n      dup3\n        /* \"#utility.yul\":5027:5036   */\n      dup7\n        /* \"#utility.yul\":5023:5045   */\n      add\n        /* \"#utility.yul\":5002:5055   */\n      tag_68\n      jump\t// in\n    tag_140:\n        /* \"#utility.yul\":4992:5055   */\n      swap3\n      pop\n        /* \"#utility.yul\":4948:5065   */\n      pop\n        /* \"#utility.yul\":5104:5106   */\n      0x20\n        /* \"#utility.yul\":5130:5183   */\n      tag_141\n        /* \"#utility.yul\":5175:5182   */\n      dup6\n        /* \"#utility.yul\":5166:5172   */\n      dup3\n        /* \"#utility.yul\":5155:5164   */\n      dup7\n        /* \"#utility.yul\":5151:5173   */\n      add\n        /* \"#utility.yul\":5130:5183   */\n      tag_68\n      jump\t// in\n    tag_141:\n        /* \"#utility.yul\":5120:5183   */\n      swap2\n      pop\n        /* \"#utility.yul\":5075:5193   */\n      pop\n        /* \"#utility.yul\":4726:5200   */\n      swap3\n      pop\n      swap3\n      swap1\n      pop\n      jump\t// out\n        /* \"#utility.yul\":5206:5535   */\n    tag_29:\n        /* \"#utility.yul\":5265:5271   */\n      0x00\n        /* \"#utility.yul\":5314:5316   */\n      0x20\n        /* \"#utility.yul\":5302:5311   */\n      dup3\n        /* \"#utility.yul\":5293:5300   */\n      dup5\n        /* \"#utility.yul\":5289:5312   */\n      sub\n        /* \"#utility.yul\":5285:5317   */\n      slt\n        /* \"#utility.yul\":5282:5401   */\n      iszero\n      tag_143\n      jumpi\n        /* \"#utility.yul\":5320:5399   */\n      tag_144\n      tag_52\n      jump\t// in\n    tag_144:\n        /* \"#utility.yul\":5282:5401   */\n    tag_143:\n        /* \"#utility.yul\":5440:5441   */\n      0x00\n        /* \"#utility.yul\":5465:5518   */\n      tag_145\n        /* \"#utility.yul\":5510:5517   */\n      dup5\n        /* \"#utility.yul\":5501:5507   */\n      dup3\n        /* \"#utility.yul\":5490:5499   */\n      dup6\n        /* \"#utility.yul\":5486:5508   */\n      add\n        /* \"#utility.yul\":5465:5518   */\n      tag_68\n      jump\t// in\n    tag_145:\n        /* \"#utility.yul\":5455:5518   */\n      swap2\n      pop\n        /* \"#utility.yul\":5411:5528   */\n      pop\n        /* \"#utility.yul\":5206:5535   */\n      swap3\n      swap2\n      pop\n      pop\n      jump\t// out\n        /* \"#utility.yul\":5541:5667   */\n    tag_71:\n        /* \"#utility.yul\":5578:5585   */\n      0x00\n        /* \"#utility.yul\":5618:5660   */\n      0xffffffffffffffffffffffffffffffffffffffff\n        /* \"#utility.yul\":5611:5616   */\n      dup3\n        /* \"#utility.yul\":5607:5661   */\n      and\n        /* \"#utility.yul\":5596:5661   */\n      swap1\n      pop\n        /* \"#utility.yul\":5541:5667   */\n      swap2\n      swap1\n      pop\n      jump\t// out\n        /* \"#utility.yul\":5673:5769   */\n    tag_72:\n        /* \"#utility.yul\":5710:5717   */\n      0x00\n        /* \"#utility.yul\":5739:5763   */\n      tag_148\n        /* \"#utility.yul\":5757:5762   */\n      dup3\n        /* \"#utility.yul\":5739:5763   */\n      tag_71\n      jump\t// in\n    tag_148:\n        /* \"#utility.yul\":5728:5763   */\n      swap1\n      pop\n        /* \"#utility.yul\":5673:5769   */\n      swap2\n      swap1\n      pop\n      jump\t// out\n        /* \"#utility.yul\":5775:5897   */\n    tag_73:\n        /* \"#utility.yul\":5848:5872   */\n      tag_150\n        /* \"#utility.yul\":5866:5871   */\n      dup2\n        /* \"#utility.yul\":5848:5872   */\n      tag_72\n      jump\t// in\n    tag_150:\n        /* \"#utility.yul\":5841:5846   */\n      dup2\n        /* \"#utility.yul\":5838:5873   */\n      eq\n        /* \"#utility.yul\":5828:5891   */\n      tag_151\n      jumpi\n        /* \"#utility.yul\":5887:5888   */\n      0x00\n        /* \"#utility.yul\":5884:5885   */\n      dup1\n        /* \"#utility.yul\":5877:5889   */\n      revert\n        /* \"#utility.yul\":5828:5891   */\n    tag_151:\n        /* \"#utility.yul\":5775:5897   */\n      pop\n      jump\t// out\n        /* \"#utility.yul\":5903:6042   */\n    tag_74:\n        /* \"#utility.yul\":5949:5954   */\n      0x00\n        /* \"#utility.yul\":5987:5993   */\n      dup2\n        /* \"#utility.yul\":5974:5994   */\n      calldataload\n        /* \"#utility.yul\":5965:5994   */\n      swap1\n      pop\n        /* \"#utility.yul\":6003:6036   */\n      tag_153\n        /* \"#utility.yul\":6030:6035   */\n      dup2\n        /* \"#utility.yul\":6003:6036   */\n      tag_73\n      jump\t// in\n    tag_153:\n        /* \"#utility.yul\":5903:6042   */\n      swap3\n      swap2\n      pop\n      pop\n      jump\t// out\n        /* \"#utility.yul\":6048:6377   */\n    tag_36:\n        /* \"#utility.yul\":6107:6113   */\n      0x00\n        /* \"#utility.yul\":6156:6158   */\n      0x20\n        /* \"#utility.yul\":6144:6153   */\n      dup3\n        /* \"#utility.yul\":6135:6142   */\n      dup5\n        /* \"#utility.yul\":6131:6154   */\n      sub\n        /* \"#utility.yul\":6127:6159   */\n      slt\n        /* \"#utility.yul\":6124:6243   */\n      iszero\n      tag_155\n      jumpi\n        /* \"#utility.yul\":6162:6241   */\n      tag_156\n      tag_52\n      jump\t// in\n    tag_156:\n        /* \"#utility.yul\":6124:6243   */\n    tag_155:\n        /* \"#utility.yul\":6282:6283   */\n      0x00\n        /* \"#utility.yul\":6307:6360   */\n      tag_157\n        /* \"#utility.yul\":6352:6359   */\n      dup5\n        /* \"#utility.yul\":6343:6349   */\n      dup3\n        /* \"#utility.yul\":6332:6341   */\n      dup6\n        /* \"#utility.yul\":6328:6350   */\n      add\n        /* \"#utility.yul\":6307:6360   */\n      tag_74\n      jump\t// in\n    tag_157:\n        /* \"#utility.yul\":6297:6360   */\n      swap2\n      pop\n        /* \"#utility.yul\":6253:6370   */\n      pop\n        /* \"#utility.yul\":6048:6377   */\n      swap3\n      swap2\n      pop\n      pop\n      jump\t// out\n        /* \"#utility.yul\":6383:6482   */\n    tag_75:\n        /* \"#utility.yul\":6435:6441   */\n      0x00\n        /* \"#utility.yul\":6469:6474   */\n      dup2\n        /* \"#utility.yul\":6463:6475   */\n      mload\n        /* \"#utility.yul\":6453:6475   */\n      swap1\n      pop\n        /* \"#utility.yul\":6383:6482   */\n      swap2\n      swap1\n      pop\n      jump\t// out\n        /* \"#utility.yul\":6488:6636   */\n    tag_76:\n        /* \"#utility.yul\":6590:6601   */\n      0x00\n        /* \"#utility.yul\":6627:6630   */\n      dup2\n        /* \"#utility.yul\":6612:6630   */\n      swap1\n      pop\n        /* \"#utility.yul\":6488:6636   */\n      swap3\n      swap2\n      pop\n      pop\n      jump\t// out\n        /* \"#utility.yul\":6642:6949   */\n    tag_77:\n        /* \"#utility.yul\":6710:6711   */\n      0x00\n        /* \"#utility.yul\":6720:6833   */\n    tag_161:\n        /* \"#utility.yul\":6734:6740   */\n      dup4\n        /* \"#utility.yul\":6731:6732   */\n      dup2\n        /* \"#utility.yul\":6728:6741   */\n      lt\n        /* \"#utility.yul\":6720:6833   */\n      iszero\n      tag_163\n      jumpi\n        /* \"#utility.yul\":6819:6820   */\n      dup1\n        /* \"#utility.yul\":6814:6817   */\n      dup3\n        /* \"#utility.yul\":6810:6821   */\n      add\n        /* \"#utility.yul\":6804:6822   */\n      mload\n        /* \"#utility.yul\":6800:6801   */\n      dup2\n        /* \"#utility.yul\":6795:6798   */\n      dup5\n        /* \"#utility.yul\":6791:6802   */\n      add\n        /* \"#utility.yul\":6784:6823   */\n      mstore\n        /* \"#utility.yul\":6756:6758   */\n      0x20\n        /* \"#utility.yul\":6753:6754   */\n      dup2\n        /* \"#utility.yul\":6749:6759   */\n      add\n        /* \"#utility.yul\":6744:6759   */\n      swap1\n      pop\n        /* \"#utility.yul\":6720:6833   */\n      jump(tag_161)\n    tag_163:\n        /* \"#utility.yul\":6851:6857   */\n      dup4\n        /* \"#utility.yul\":6848:6849   */\n      dup2\n        /* \"#utility.yul\":6845:6858   */\n      gt\n        /* \"#utility.yul\":6842:6943   */\n      iszero\n      tag_164\n      jumpi\n        /* \"#utility.yul\":6931:6932   */\n      0x00\n        /* \"#utility.yul\":6922:6928   */\n      dup5\n        /* \"#utility.yul\":6917:6920   */\n      dup5\n        /* \"#utility.yul\":6913:6929   */\n      add\n        /* \"#utility.yul\":6906:6933   */\n      mstore\n        /* \"#utility.yul\":6842:6943   */\n    tag_164:\n        /* \"#utility.yul\":6691:6949   */\n      pop\n        /* \"#utility.yul\":6642:6949   */\n      pop\n      pop\n      pop\n      jump\t// out\n        /* \"#utility.yul\":6955:7332   */\n    tag_78:\n        /* \"#utility.yul\":7061:7064   */\n      0x00\n        /* \"#utility.yul\":7089:7128   */\n      tag_166\n        /* \"#utility.yul\":7122:7127   */\n      dup3\n        /* \"#utility.yul\":7089:7128   */\n      tag_75\n      jump\t// in\n    tag_166:\n        /* \"#utility.yul\":7144:7233   */\n      tag_167\n        /* \"#utility.yul\":7226:7232   */\n      dup2\n        /* \"#utility.yul\":7221:7224   */\n      dup6\n        /* \"#utility.yul\":7144:7233   */\n      tag_76\n      jump\t// in\n    tag_167:\n        /* \"#utility.yul\":7137:7233   */\n      swap4\n      pop\n        /* \"#utility.yul\":7242:7294   */\n      tag_168\n        /* \"#utility.yul\":7287:7293   */\n      dup2\n        /* \"#utility.yul\":7282:7285   */\n      dup6\n        /* \"#utility.yul\":7275:7279   */\n      0x20\n        /* \"#utility.yul\":7268:7273   */\n      dup7\n        /* \"#utility.yul\":7264:7280   */\n      add\n        /* \"#utility.yul\":7242:7294   */\n      tag_77\n      jump\t// in\n    tag_168:\n        /* \"#utility.yul\":7319:7325   */\n      dup1\n        /* \"#utility.yul\":7314:7317   */\n      dup5\n        /* \"#utility.yul\":7310:7326   */\n      add\n        /* \"#utility.yul\":7303:7326   */\n      swap2\n      pop\n        /* \"#utility.yul\":7065:7332   */\n      pop\n        /* \"#utility.yul\":6955:7332   */\n      swap3\n      swap2\n      pop\n      pop\n      jump\t// out\n        /* \"#utility.yul\":7338:7613   */\n    tag_49:\n        /* \"#utility.yul\":7470:7473   */\n      0x00\n        /* \"#utility.yul\":7492:7587   */\n      tag_170\n        /* \"#utility.yul\":7583:7586   */\n      dup3\n        /* \"#utility.yul\":7574:7580   */\n      dup5\n        /* \"#utility.yul\":7492:7587   */\n      tag_78\n      jump\t// in\n    tag_170:\n        /* \"#utility.yul\":7485:7587   */\n      swap2\n      pop\n        /* \"#utility.yul\":7604:7607   */\n      dup2\n        /* \"#utility.yul\":7597:7607   */\n      swap1\n      pop\n        /* \"#utility.yul\":7338:7613   */\n      swap3\n      swap2\n      pop\n      pop\n      jump\t// out\n\n    auxdata: 0xa26469706673582212201134e4055057b7d80192b32476e34942d92e03ce541b0485251de29b038a755e64736f6c634300080f0033\n}\n",
				"bytecode": {
					"linkReferences": {},
					"object": "608060405234801561001057600080fd5b5061079f806100206000396000f3fe608060405234801561001057600080fd5b50600436106100885760003560e01c80639d44ddd71161005b5780639d44ddd714610139578063b92ba3b814610143578063c2377e6114610173578063d97fe70b1461018f57610088565b806311b6b0611461008d5780633d456a9b146100bd5780634b66251e146100d957806352e1efae14610109575b600080fd5b6100a760048036038101906100a291906104ac565b6101ab565b6040516100b49190610510565b60405180910390f35b6100d760048036038101906100d2919061058d565b6101e1565b005b6100f360048036038101906100ee91906105e0565b610222565b6040516101009190610510565b60405180910390f35b610123600480360381019061011e9190610620565b610251565b6040516101309190610510565b60405180910390f35b610141610271565b005b61015d600480360381019061015891906106ab565b6102cb565b60405161016a9190610510565b60405180910390f35b61018d600480360381019061018891906104ac565b6102eb565b005b6101a960048036038101906101a49190610620565b610324565b005b6001818051602081018201805184825260208301602085012081835280955050505050506000915054906101000a900460ff1681565b8060036000858152602001908152602001600020600084815260200190815260200160002060006101000a81548160ff021916908315150217905550505050565b60036020528160005260406000206020528060005260406000206000915091509054906101000a900460ff1681565b60006020528060005260406000206000915054906101000a900460ff1681565b6001600260003373ffffffffffffffffffffffffffffffffffffffff1673ffffffffffffffffffffffffffffffffffffffff16815260200190815260200160002060006101000a81548160ff021916908315150217905550565b60026020528060005260406000206000915054906101000a900460ff1681565b600180826040516102fc9190610752565b908152602001604051809103902060006101000a81548160ff02191690831515021790555050565b600160008083815260200190815260200160002060006101000a81548160ff02191690831515021790555050565b6000604051905090565b600080fd5b600080fd5b600080fd5b600080fd5b6000601f19601f8301169050919050565b7f4e487b7100000000000000000000000000000000000000000000000000000000600052604160045260246000fd5b6103b982610370565b810181811067ffffffffffffffff821117156103d8576103d7610381565b5b80604052505050565b60006103eb610352565b90506103f782826103b0565b919050565b600067ffffffffffffffff82111561041757610416610381565b5b61042082610370565b9050602081019050919050565b82818337600083830152505050565b600061044f61044a846103fc565b6103e1565b90508281526020810184848401111561046b5761046a61036b565b5b61047684828561042d565b509392505050565b600082601f83011261049357610492610366565b5b81356104a384826020860161043c565b91505092915050565b6000602082840312156104c2576104c161035c565b5b600082013567ffffffffffffffff8111156104e0576104df610361565b5b6104ec8482850161047e565b91505092915050565b60008115159050919050565b61050a816104f5565b82525050565b60006020820190506105256000830184610501565b92915050565b6000819050919050565b61053e8161052b565b811461054957600080fd5b50565b60008135905061055b81610535565b92915050565b61056a816104f5565b811461057557600080fd5b50565b60008135905061058781610561565b92915050565b6000806000606084860312156105a6576105a561035c565b5b60006105b48682870161054c565b93505060206105c58682870161054c565b92505060406105d686828701610578565b9150509250925092565b600080604083850312156105f7576105f661035c565b5b60006106058582860161054c565b92505060206106168582860161054c565b9150509250929050565b6000602082840312156106365761063561035c565b5b60006106448482850161054c565b91505092915050565b600073ffffffffffffffffffffffffffffffffffffffff82169050919050565b60006106788261064d565b9050919050565b6106888161066d565b811461069357600080fd5b50565b6000813590506106a58161067f565b92915050565b6000602082840312156106c1576106c061035c565b5b60006106cf84828501610696565b91505092915050565b600081519050919050565b600081905092915050565b60005b8381101561070c5780820151818401526020810190506106f1565b8381111561071b576000848401525b50505050565b600061072c826106d8565b61073681856106e3565b93506107468185602086016106ee565b80840191505092915050565b600061075e8284610721565b91508190509291505056fea26469706673582212201134e4055057b7d80192b32476e34942d92e03ce541b0485251de29b038a755e64736f6c634300080f0033",
					"opcodes": "PUSH1 0x80 PUSH1 0x40 MSTORE CALLVALUE DUP1 ISZERO PUSH2 0x10 JUMPI PUSH1 0x0 DUP1 REVERT JUMPDEST POP PUSH2 0x79F DUP1 PUSH2 0x20 PUSH1 0x0 CODECOPY PUSH1 0x0 RETURN INVALID PUSH1 0x80 PUSH1 0x40 MSTORE CALLVALUE DUP1 ISZERO PUSH2 0x10 JUMPI PUSH1 0x0 DUP1 REVERT JUMPDEST POP PUSH1 0x4 CALLDATASIZE LT PUSH2 0x88 JUMPI PUSH1 0x0 CALLDATALOAD PUSH1 0xE0 SHR DUP1 PUSH4 0x9D44DDD7 GT PUSH2 0x5B JUMPI DUP1 PUSH4 0x9D44DDD7 EQ PUSH2 0x139 JUMPI DUP1 PUSH4 0xB92BA3B8 EQ PUSH2 0x143 JUMPI DUP1 PUSH4 0xC2377E61 EQ PUSH2 0x173 JUMPI DUP1 PUSH4 0xD97FE70B EQ PUSH2 0x18F JUMPI PUSH2 0x88 JUMP JUMPDEST DUP1 PUSH4 0x11B6B061 EQ PUSH2 0x8D JUMPI DUP1 PUSH4 0x3D456A9B EQ PUSH2 0xBD JUMPI DUP1 PUSH4 0x4B66251E EQ PUSH2 0xD9 JUMPI DUP1 PUSH4 0x52E1EFAE EQ PUSH2 0x109 JUMPI JUMPDEST PUSH1 0x0 DUP1 REVERT JUMPDEST PUSH2 0xA7 PUSH1 0x4 DUP1 CALLDATASIZE SUB DUP2 ADD SWAP1 PUSH2 0xA2 SWAP2 SWAP1 PUSH2 0x4AC JUMP JUMPDEST PUSH2 0x1AB JUMP JUMPDEST PUSH1 0x40 MLOAD PUSH2 0xB4 SWAP2 SWAP1 PUSH2 0x510 JUMP JUMPDEST PUSH1 0x40 MLOAD DUP1 SWAP2 SUB SWAP1 RETURN JUMPDEST PUSH2 0xD7 PUSH1 0x4 DUP1 CALLDATASIZE SUB DUP2 ADD SWAP1 PUSH2 0xD2 SWAP2 SWAP1 PUSH2 0x58D JUMP JUMPDEST PUSH2 0x1E1 JUMP JUMPDEST STOP JUMPDEST PUSH2 0xF3 PUSH1 0x4 DUP1 CALLDATASIZE SUB DUP2 ADD SWAP1 PUSH2 0xEE SWAP2 SWAP1 PUSH2 0x5E0 JUMP JUMPDEST PUSH2 0x222 JUMP JUMPDEST PUSH1 0x40 MLOAD PUSH2 0x100 SWAP2 SWAP1 PUSH2 0x510 JUMP JUMPDEST PUSH1 0x40 MLOAD DUP1 SWAP2 SUB SWAP1 RETURN JUMPDEST PUSH2 0x123 PUSH1 0x4 DUP1 CALLDATASIZE SUB DUP2 ADD SWAP1 PUSH2 0x11E SWAP2 SWAP1 PUSH2 0x620 JUMP JUMPDEST PUSH2 0x251 JUMP JUMPDEST PUSH1 0x40 MLOAD PUSH2 0x130 SWAP2 SWAP1 PUSH2 0x510 JUMP JUMPDEST PUSH1 0x40 MLOAD DUP1 SWAP2 SUB SWAP1 RETURN JUMPDEST PUSH2 0x141 PUSH2 0x271 JUMP JUMPDEST STOP JUMPDEST PUSH2 0x15D PUSH1 0x4 DUP1 CALLDATASIZE SUB DUP2 ADD SWAP1 PUSH2 0x158 SWAP2 SWAP1 PUSH2 0x6AB JUMP JUMPDEST PUSH2 0x2CB JUMP JUMPDEST PUSH1 0x40 MLOAD PUSH2 0x16A SWAP2 SWAP1 PUSH2 0x510 JUMP JUMPDEST PUSH1 0x40 MLOAD DUP1 SWAP2 SUB SWAP1 RETURN JUMPDEST PUSH2 0x18D PUSH1 0x4 DUP1 CALLDATASIZE SUB DUP2 ADD SWAP1 PUSH2 0x188 SWAP2 SWAP1 PUSH2 0x4AC JUMP JUMPDEST PUSH2 0x2EB JUMP JUMPDEST STOP JUMPDEST PUSH2 0x1A9 PUSH1 0x4 DUP1 CALLDATASIZE SUB DUP2 ADD SWAP1 PUSH2 0x1A4 SWAP2 SWAP1 PUSH2 0x620 JUMP JUMPDEST PUSH2 0x324 JUMP JUMPDEST STOP JUMPDEST PUSH1 0x1 DUP2 DUP1 MLOAD PUSH1 0x20 DUP2 ADD DUP3 ADD DUP1 MLOAD DUP5 DUP3 MSTORE PUSH1 0x20 DUP4 ADD PUSH1 0x20 DUP6 ADD KECCAK256 DUP2 DUP4 MSTORE DUP1 SWAP6 POP POP POP POP POP POP PUSH1 0x0 SWAP2 POP SLOAD SWAP1 PUSH2 0x100 EXP SWAP1 DIV PUSH1 0xFF AND DUP2 JUMP JUMPDEST DUP1 PUSH1 0x3 PUSH1 0x0 DUP6 DUP2 MSTORE PUSH1 0x20 ADD SWAP1 DUP2 MSTORE PUSH1 0x20 ADD PUSH1 0x0 KECCAK256 PUSH1 0x0 DUP5 DUP2 MSTORE PUSH1 0x20 ADD SWAP1 DUP2 MSTORE PUSH1 0x20 ADD PUSH1 0x0 KECCAK256 PUSH1 0x0 PUSH2 0x100 EXP DUP2 SLOAD DUP2 PUSH1 0xFF MUL NOT AND SWAP1 DUP4 ISZERO ISZERO MUL OR SWAP1 SSTORE POP POP POP POP JUMP JUMPDEST PUSH1 0x3 PUSH1 0x20 MSTORE DUP2 PUSH1 0x0 MSTORE PUSH1 0x40 PUSH1 0x0 KECCAK256 PUSH1 0x20 MSTORE DUP1 PUSH1 0x0 MSTORE PUSH1 0x40 PUSH1 0x0 KECCAK256 PUSH1 0x0 SWAP2 POP SWAP2 POP SWAP1 SLOAD SWAP1 PUSH2 0x100 EXP SWAP1 DIV PUSH1 0xFF AND DUP2 JUMP JUMPDEST PUSH1 0x0 PUSH1 0x20 MSTORE DUP1 PUSH1 0x0 MSTORE PUSH1 0x40 PUSH1 0x0 KECCAK256 PUSH1 0x0 SWAP2 POP SLOAD SWAP1 PUSH2 0x100 EXP SWAP1 DIV PUSH1 0xFF AND DUP2 JUMP JUMPDEST PUSH1 0x1 PUSH1 0x2 PUSH1 0x0 CALLER PUSH20 0xFFFFFFFFFFFFFFFFFFFFFFFFFFFFFFFFFFFFFFFF AND PUSH20 0xFFFFFFFFFFFFFFFFFFFFFFFFFFFFFFFFFFFFFFFF AND DUP2 MSTORE PUSH1 0x20 ADD SWAP1 DUP2 MSTORE PUSH1 0x20 ADD PUSH1 0x0 KECCAK256 PUSH1 0x0 PUSH2 0x100 EXP DUP2 SLOAD DUP2 PUSH1 0xFF MUL NOT AND SWAP1 DUP4 ISZERO ISZERO MUL OR SWAP1 SSTORE POP JUMP JUMPDEST PUSH1 0x2 PUSH1 0x20 MSTORE DUP1 PUSH1 0x0 MSTORE PUSH1 0x40 PUSH1 0x0 KECCAK256 PUSH1 0x0 SWAP2 POP SLOAD SWAP1 PUSH2 0x100 EXP SWAP1 DIV PUSH1 0xFF AND DUP2 JUMP JUMPDEST PUSH1 0x1 DUP1 DUP3 PUSH1 0x40 MLOAD PUSH2 0x2FC SWAP2 SWAP1 PUSH2 0x752 JUMP JUMPDEST SWAP1 DUP2 MSTORE PUSH1 0x20 ADD PUSH1 0x40 MLOAD DUP1 SWAP2 SUB SWAP1 KECCAK256 PUSH1 0x0 PUSH2 0x100 EXP DUP2 SLOAD DUP2 PUSH1 0xFF MUL NOT AND SWAP1 DUP4 ISZERO ISZERO MUL OR SWAP1 SSTORE POP POP JUMP JUMPDEST PUSH1 0x1 PUSH1 0x0 DUP1 DUP4 DUP2 MSTORE PUSH1 0x20 ADD SWAP1 DUP2 MSTORE PUSH1 0x20 ADD PUSH1 0x0 KECCAK256 PUSH1 0x0 PUSH2 0x100 EXP DUP2 SLOAD DUP2 PUSH1 0xFF MUL NOT AND SWAP1 DUP4 ISZERO ISZERO MUL OR SWAP1 SSTORE POP POP JUMP JUMPDEST PUSH1 0x0 PUSH1 0x40 MLOAD SWAP1 POP SWAP1 JUMP JUMPDEST PUSH1 0x0 DUP1 REVERT JUMPDEST PUSH1 0x0 DUP1 REVERT JUMPDEST PUSH1 0x0 DUP1 REVERT JUMPDEST PUSH1 0x0 DUP1 REVERT JUMPDEST PUSH1 0x0 PUSH1 0x1F NOT PUSH1 0x1F DUP4 ADD AND SWAP1 POP SWAP2 SWAP1 POP JUMP JUMPDEST PUSH32 0x4E487B7100000000000000000000000000000000000000000000000000000000 PUSH1 0x0 MSTORE PUSH1 0x41 PUSH1 0x4 MSTORE PUSH1 0x24 PUSH1 0x0 REVERT JUMPDEST PUSH2 0x3B9 DUP3 PUSH2 0x370 JUMP JUMPDEST DUP2 ADD DUP2 DUP2 LT PUSH8 0xFFFFFFFFFFFFFFFF DUP3 GT OR ISZERO PUSH2 0x3D8 JUMPI PUSH2 0x3D7 PUSH2 0x381 JUMP JUMPDEST JUMPDEST DUP1 PUSH1 0x40 MSTORE POP POP POP JUMP JUMPDEST PUSH1 0x0 PUSH2 0x3EB PUSH2 0x352 JUMP JUMPDEST SWAP1 POP PUSH2 0x3F7 DUP3 DUP3 PUSH2 0x3B0 JUMP JUMPDEST SWAP2 SWAP1 POP JUMP JUMPDEST PUSH1 0x0 PUSH8 0xFFFFFFFFFFFFFFFF DUP3 GT ISZERO PUSH2 0x417 JUMPI PUSH2 0x416 PUSH2 0x381 JUMP JUMPDEST JUMPDEST PUSH2 0x420 DUP3 PUSH2 0x370 JUMP JUMPDEST SWAP1 POP PUSH1 0x20 DUP2 ADD SWAP1 POP SWAP2 SWAP1 POP JUMP JUMPDEST DUP3 DUP2 DUP4 CALLDATACOPY PUSH1 0x0 DUP4 DUP4 ADD MSTORE POP POP POP JUMP JUMPDEST PUSH1 0x0 PUSH2 0x44F PUSH2 0x44A DUP5 PUSH2 0x3FC JUMP JUMPDEST PUSH2 0x3E1 JUMP JUMPDEST SWAP1 POP DUP3 DUP2 MSTORE PUSH1 0x20 DUP2 ADD DUP5 DUP5 DUP5 ADD GT ISZERO PUSH2 0x46B JUMPI PUSH2 0x46A PUSH2 0x36B JUMP JUMPDEST JUMPDEST PUSH2 0x476 DUP5 DUP3 DUP6 PUSH2 0x42D JUMP JUMPDEST POP SWAP4 SWAP3 POP POP POP JUMP JUMPDEST PUSH1 0x0 DUP3 PUSH1 0x1F DUP4 ADD SLT PUSH2 0x493 JUMPI PUSH2 0x492 PUSH2 0x366 JUMP JUMPDEST JUMPDEST DUP2 CALLDATALOAD PUSH2 0x4A3 DUP5 DUP3 PUSH1 0x20 DUP7 ADD PUSH2 0x43C JUMP JUMPDEST SWAP2 POP POP SWAP3 SWAP2 POP POP JUMP JUMPDEST PUSH1 0x0 PUSH1 0x20 DUP3 DUP5 SUB SLT ISZERO PUSH2 0x4C2 JUMPI PUSH2 0x4C1 PUSH2 0x35C JUMP JUMPDEST JUMPDEST PUSH1 0x0 DUP3 ADD CALLDATALOAD PUSH8 0xFFFFFFFFFFFFFFFF DUP2 GT ISZERO PUSH2 0x4E0 JUMPI PUSH2 0x4DF PUSH2 0x361 JUMP JUMPDEST JUMPDEST PUSH2 0x4EC DUP5 DUP3 DUP6 ADD PUSH2 0x47E JUMP JUMPDEST SWAP2 POP POP SWAP3 SWAP2 POP POP JUMP JUMPDEST PUSH1 0x0 DUP2 ISZERO ISZERO SWAP1 POP SWAP2 SWAP1 POP JUMP JUMPDEST PUSH2 0x50A DUP2 PUSH2 0x4F5 JUMP JUMPDEST DUP3 MSTORE POP POP JUMP JUMPDEST PUSH1 0x0 PUSH1 0x20 DUP3 ADD SWAP1 POP PUSH2 0x525 PUSH1 0x0 DUP4 ADD DUP5 PUSH2 0x501 JUMP JUMPDEST SWAP3 SWAP2 POP POP JUMP JUMPDEST PUSH1 0x0 DUP2 SWAP1 POP SWAP2 SWAP1 POP JUMP JUMPDEST PUSH2 0x53E DUP2 PUSH2 0x52B JUMP JUMPDEST DUP2 EQ PUSH2 0x549 JUMPI PUSH1 0x0 DUP1 REVERT JUMPDEST POP JUMP JUMPDEST PUSH1 0x0 DUP2 CALLDATALOAD SWAP1 POP PUSH2 0x55B DUP2 PUSH2 0x535 JUMP JUMPDEST SWAP3 SWAP2 POP POP JUMP JUMPDEST PUSH2 0x56A DUP2 PUSH2 0x4F5 JUMP JUMPDEST DUP2 EQ PUSH2 0x575 JUMPI PUSH1 0x0 DUP1 REVERT JUMPDEST POP JUMP JUMPDEST PUSH1 0x0 DUP2 CALLDATALOAD SWAP1 POP PUSH2 0x587 DUP2 PUSH2 0x561 JUMP JUMPDEST SWAP3 SWAP2 POP POP JUMP JUMPDEST PUSH1 0x0 DUP1 PUSH1 0x0 PUSH1 0x60 DUP5 DUP7 SUB SLT ISZERO PUSH2 0x5A6 JUMPI PUSH2 0x5A5 PUSH2 0x35C JUMP JUMPDEST JUMPDEST PUSH1 0x0 PUSH2 0x5B4 DUP7 DUP3 DUP8 ADD PUSH2 0x54C JUMP JUMPDEST SWAP4 POP POP PUSH1 0x20 PUSH2 0x5C5 DUP7 DUP3 DUP8 ADD PUSH2 0x54C JUMP JUMPDEST SWAP3 POP POP PUSH1 0x40 PUSH2 0x5D6 DUP7 DUP3 DUP8 ADD PUSH2 0x578 JUMP JUMPDEST SWAP2 POP POP SWAP3 POP SWAP3 POP SWAP3 JUMP JUMPDEST PUSH1 0x0 DUP1 PUSH1 0x40 DUP4 DUP6 SUB SLT ISZERO PUSH2 0x5F7 JUMPI PUSH2 0x5F6 PUSH2 0x35C JUMP JUMPDEST JUMPDEST PUSH1 0x0 PUSH2 0x605 DUP6 DUP3 DUP7 ADD PUSH2 0x54C JUMP JUMPDEST SWAP3 POP POP PUSH1 0x20 PUSH2 0x616 DUP6 DUP3 DUP7 ADD PUSH2 0x54C JUMP JUMPDEST SWAP2 POP POP SWAP3 POP SWAP3 SWAP1 POP JUMP JUMPDEST PUSH1 0x0 PUSH1 0x20 DUP3 DUP5 SUB SLT ISZERO PUSH2 0x636 JUMPI PUSH2 0x635 PUSH2 0x35C JUMP JUMPDEST JUMPDEST PUSH1 0x0 PUSH2 0x644 DUP5 DUP3 DUP6 ADD PUSH2 0x54C JUMP JUMPDEST SWAP2 POP POP SWAP3 SWAP2 POP POP JUMP JUMPDEST PUSH1 0x0 PUSH20 0xFFFFFFFFFFFFFFFFFFFFFFFFFFFFFFFFFFFFFFFF DUP3 AND SWAP1 POP SWAP2 SWAP1 POP JUMP JUMPDEST PUSH1 0x0 PUSH2 0x678 DUP3 PUSH2 0x64D JUMP JUMPDEST SWAP1 POP SWAP2 SWAP1 POP JUMP JUMPDEST PUSH2 0x688 DUP2 PUSH2 0x66D JUMP JUMPDEST DUP2 EQ PUSH2 0x693 JUMPI PUSH1 0x0 DUP1 REVERT JUMPDEST POP JUMP JUMPDEST PUSH1 0x0 DUP2 CALLDATALOAD SWAP1 POP PUSH2 0x6A5 DUP2 PUSH2 0x67F JUMP JUMPDEST SWAP3 SWAP2 POP POP JUMP JUMPDEST PUSH1 0x0 PUSH1 0x20 DUP3 DUP5 SUB SLT ISZERO PUSH2 0x6C1 JUMPI PUSH2 0x6C0 PUSH2 0x35C JUMP JUMPDEST JUMPDEST PUSH1 0x0 PUSH2 0x6CF DUP5 DUP3 DUP6 ADD PUSH2 0x696 JUMP JUMPDEST SWAP2 POP POP SWAP3 SWAP2 POP POP JUMP JUMPDEST PUSH1 0x0 DUP2 MLOAD SWAP1 POP SWAP2 SWAP1 POP JUMP JUMPDEST PUSH1 0x0 DUP2 SWAP1 POP SWAP3 SWAP2 POP POP JUMP JUMPDEST PUSH1 0x0 JUMPDEST DUP4 DUP2 LT ISZERO PUSH2 0x70C JUMPI DUP1 DUP3 ADD MLOAD DUP2 DUP5 ADD MSTORE PUSH1 0x20 DUP2 ADD SWAP1 POP PUSH2 0x6F1 JUMP JUMPDEST DUP4 DUP2 GT ISZERO PUSH2 0x71B JUMPI PUSH1 0x0 DUP5 DUP5 ADD MSTORE JUMPDEST POP POP POP POP JUMP JUMPDEST PUSH1 0x0 PUSH2 0x72C DUP3 PUSH2 0x6D8 JUMP JUMPDEST PUSH2 0x736 DUP2 DUP6 PUSH2 0x6E3 JUMP JUMPDEST SWAP4 POP PUSH2 0x746 DUP2 DUP6 PUSH1 0x20 DUP7 ADD PUSH2 0x6EE JUMP JUMPDEST DUP1 DUP5 ADD SWAP2 POP POP SWAP3 SWAP2 POP POP JUMP JUMPDEST PUSH1 0x0 PUSH2 0x75E DUP3 DUP5 PUSH2 0x721 JUMP JUMPDEST SWAP2 POP DUP2 SWAP1 POP SWAP3 SWAP2 POP POP JUMP INVALID LOG2 PUSH5 0x6970667358 0x22 SLT KECCAK256 GT CALLVALUE 0xE4 SDIV POP JUMPI 0xB7 0xD8 ADD SWAP3 0xB3 0x24 PUSH23 0xE34942D92E03CE541B0485251DE29B038A755E64736F6C PUSH4 0x4300080F STOP CALLER "
				},
				"gasEstimates": {
					"creation": {
						"codeDepositCost": "390200",
						"executionCost": "424",
						"totalCost": "390624"
					},
					"external": {
						"mappingsOfMappings(uint256,uint256)": "infinite",
						"matchedNumbers(uint256)": "2863",
						"myAddressMapping(address)": "2867",
						"selectedNames(string)": "infinite",
						"setMappedNumber(uint256)": "24817",
						"setMyAddressMapping()": "24500",
						"setNamesMapping(string)": "infinite",
						"setUintOfUints(uint256,uint256,bool)": "infinite"
					}
				},
				"methodIdentifiers": {
					"mappingsOfMappings(uint256,uint256)": "4b66251e",
					"matchedNumbers(uint256)": "52e1efae",
					"myAddressMapping(address)": "b92ba3b8",
					"selectedNames(string)": "11b6b061",
					"setMappedNumber(uint256)": "d97fe70b",
					"setMyAddressMapping()": "9d44ddd7",
					"setNamesMapping(string)": "c2377e61",
					"setUintOfUints(uint256,uint256,bool)": "3d456a9b"
				}
			},
			"storageLayout": {
				"storage": [
					{
						"astId": 5,
						"contract": "contracts/MappingExample.sol:MappingExample",
						"label": "matchedNumbers",
						"offset": 0,
						"slot": "0",
						"type": "t_mapping(t_uint256,t_bool)"
					},
					{
						"astId": 9,
						"contract": "contracts/MappingExample.sol:MappingExample",
						"label": "selectedNames",
						"offset": 0,
						"slot": "1",
						"type": "t_mapping(t_string_memory_ptr,t_bool)"
					},
					{
						"astId": 13,
						"contract": "contracts/MappingExample.sol:MappingExample",
						"label": "myAddressMapping",
						"offset": 0,
						"slot": "2",
						"type": "t_mapping(t_address,t_bool)"
					},
					{
						"astId": 19,
						"contract": "contracts/MappingExample.sol:MappingExample",
						"label": "mappingsOfMappings",
						"offset": 0,
						"slot": "3",
						"type": "t_mapping(t_uint256,t_mapping(t_uint256,t_bool))"
					}
				],
				"types": {
					"t_address": {
						"encoding": "inplace",
						"label": "address",
						"numberOfBytes": "20"
					},
					"t_bool": {
						"encoding": "inplace",
						"label": "bool",
						"numberOfBytes": "1"
					},
					"t_mapping(t_address,t_bool)": {
						"encoding": "mapping",
						"key": "t_address",
						"label": "mapping(address => bool)",
						"numberOfBytes": "32",
						"value": "t_bool"
					},
					"t_mapping(t_string_memory_ptr,t_bool)": {
						"encoding": "mapping",
						"key": "t_string_memory_ptr",
						"label": "mapping(string => bool)",
						"numberOfBytes": "32",
						"value": "t_bool"
					},
					"t_mapping(t_uint256,t_bool)": {
						"encoding": "mapping",
						"key": "t_uint256",
						"label": "mapping(uint256 => bool)",
						"numberOfBytes": "32",
						"value": "t_bool"
					},
					"t_mapping(t_uint256,t_mapping(t_uint256,t_bool))": {
						"encoding": "mapping",
						"key": "t_uint256",
						"label": "mapping(uint256 => mapping(uint256 => bool))",
						"numberOfBytes": "32",
						"value": "t_mapping(t_uint256,t_bool)"
					},
					"t_string_memory_ptr": {
						"encoding": "bytes",
						"label": "string",
						"numberOfBytes": "32"
					},
					"t_uint256": {
						"encoding": "inplace",
						"label": "uint256",
						"numberOfBytes": "32"
					}
				}
			},
			"userdoc": {
				"kind": "user",
				"methods": {},
				"version": 1
			}
		}
	}
}