{
	"contracts/UnitAndTimeStamp.sol": {
		"UnitAndTimeSamp": {
			"abi": [
				{
					"inputs": [
						{
							"internalType": "uint256",
							"name": "startInDays",
							"type": "uint256"
						}
					],
					"stateMutability": "nonpayable",
					"type": "constructor"
				},
				{
					"inputs": [
						{
							"internalType": "address",
							"name": "",
							"type": "address"
						}
					],
					"name": "balnceAddresses",
					"outputs": [
						{
							"internalType": "uint256",
							"name": "",
							"type": "uint256"
						}
					],
					"stateMutability": "view",
					"type": "function"
				},
				{
					"inputs": [],
					"name": "deposit",
					"outputs": [],
					"stateMutability": "payable",
					"type": "function"
				},
				{
					"inputs": [],
					"name": "runUntillTimestamp",
					"outputs": [
						{
							"internalType": "uint256",
							"name": "",
							"type": "uint256"
						}
					],
					"stateMutability": "view",
					"type": "function"
				},
				{
					"inputs": [],
					"name": "startTimeStamp",
					"outputs": [
						{
							"internalType": "uint256",
							"name": "",
							"type": "uint256"
						}
					],
					"stateMutability": "view",
					"type": "function"
				}
			],
			"devdoc": {
				"kind": "dev",
				"methods": {},
				"version": 1
			},
			"evm": {
				"assembly": "    /* \"contracts/UnitAndTimeStamp.sol\":58:862  contract UnitAndTimeSamp {... */\n  mstore(0x40, 0x80)\n    /* \"contracts/UnitAndTimeStamp.sol\":701:859  constructor(uint startInDays) {... */\n  callvalue\n  dup1\n  iszero\n  tag_1\n  jumpi\n  0x00\n  dup1\n  revert\ntag_1:\n  pop\n  mload(0x40)\n  sub(codesize, bytecodeSize)\n  dup1\n  bytecodeSize\n  dup4\n  codecopy\n  dup2\n  dup2\n  add\n  0x40\n  mstore\n  dup2\n  add\n  swap1\n  tag_2\n  swap2\n  swap1\n  tag_3\n  jump\t// in\ntag_2:\n    /* \"contracts/UnitAndTimeStamp.sol\":790:796  1 days */\n  0x015180\n    /* \"contracts/UnitAndTimeStamp.sol\":776:787  startInDays */\n  dup2\n    /* \"contracts/UnitAndTimeStamp.sol\":776:796  startInDays * 1 days */\n  tag_6\n  swap2\n  swap1\n  tag_7\n  jump\t// in\ntag_6:\n    /* \"contracts/UnitAndTimeStamp.sol\":757:772  block.timestamp */\n  timestamp\n    /* \"contracts/UnitAndTimeStamp.sol\":757:797  block.timestamp + (startInDays * 1 days) */\n  tag_8\n  swap2\n  swap1\n  tag_9\n  jump\t// in\ntag_8:\n    /* \"contracts/UnitAndTimeStamp.sol\":740:754  startTimeStamp */\n  0x01\n    /* \"contracts/UnitAndTimeStamp.sol\":740:797  startTimeStamp = block.timestamp + (startInDays * 1 days) */\n  dup2\n  swap1\n  sstore\n  pop\n    /* \"contracts/UnitAndTimeStamp.sol\":846:852  7 days */\n  0x093a80\n    /* \"contracts/UnitAndTimeStamp.sol\":828:842  startTimeStamp */\n  sload(0x01)\n    /* \"contracts/UnitAndTimeStamp.sol\":828:853  startTimeStamp + (7 days) */\n  tag_10\n  swap2\n  swap1\n  tag_9\n  jump\t// in\ntag_10:\n    /* \"contracts/UnitAndTimeStamp.sol\":807:825  runUntillTimestamp */\n  0x02\n    /* \"contracts/UnitAndTimeStamp.sol\":807:853  runUntillTimestamp = startTimeStamp + (7 days) */\n  dup2\n  swap1\n  sstore\n  pop\n    /* \"contracts/UnitAndTimeStamp.sol\":701:859  constructor(uint startInDays) {... */\n  pop\n    /* \"contracts/UnitAndTimeStamp.sol\":58:862  contract UnitAndTimeSamp {... */\n  jump(tag_11)\n    /* \"#utility.yul\":88:205   */\ntag_13:\n    /* \"#utility.yul\":197:198   */\n  0x00\n    /* \"#utility.yul\":194:195   */\n  dup1\n    /* \"#utility.yul\":187:199   */\n  revert\n    /* \"#utility.yul\":334:411   */\ntag_15:\n    /* \"#utility.yul\":371:378   */\n  0x00\n    /* \"#utility.yul\":400:405   */\n  dup2\n    /* \"#utility.yul\":389:405   */\n  swap1\n  pop\n    /* \"#utility.yul\":334:411   */\n  swap2\n  swap1\n  pop\n  jump\t// out\n    /* \"#utility.yul\":417:539   */\ntag_16:\n    /* \"#utility.yul\":490:514   */\n  tag_25\n    /* \"#utility.yul\":508:513   */\n  dup2\n    /* \"#utility.yul\":490:514   */\n  tag_15\n  jump\t// in\ntag_25:\n    /* \"#utility.yul\":483:488   */\n  dup2\n    /* \"#utility.yul\":480:515   */\n  eq\n    /* \"#utility.yul\":470:533   */\n  tag_26\n  jumpi\n    /* \"#utility.yul\":529:530   */\n  0x00\n    /* \"#utility.yul\":526:527   */\n  dup1\n    /* \"#utility.yul\":519:531   */\n  revert\n    /* \"#utility.yul\":470:533   */\ntag_26:\n    /* \"#utility.yul\":417:539   */\n  pop\n  jump\t// out\n    /* \"#utility.yul\":545:688   */\ntag_17:\n    /* \"#utility.yul\":602:607   */\n  0x00\n    /* \"#utility.yul\":633:639   */\n  dup2\n    /* \"#utility.yul\":627:640   */\n  mload\n    /* \"#utility.yul\":618:640   */\n  swap1\n  pop\n    /* \"#utility.yul\":649:682   */\n  tag_28\n    /* \"#utility.yul\":676:681   */\n  dup2\n    /* \"#utility.yul\":649:682   */\n  tag_16\n  jump\t// in\ntag_28:\n    /* \"#utility.yul\":545:688   */\n  swap3\n  swap2\n  pop\n  pop\n  jump\t// out\n    /* \"#utility.yul\":694:1045   */\ntag_3:\n    /* \"#utility.yul\":764:770   */\n  0x00\n    /* \"#utility.yul\":813:815   */\n  0x20\n    /* \"#utility.yul\":801:810   */\n  dup3\n    /* \"#utility.yul\":792:799   */\n  dup5\n    /* \"#utility.yul\":788:811   */\n  sub\n    /* \"#utility.yul\":784:816   */\n  slt\n    /* \"#utility.yul\":781:900   */\n  iszero\n  tag_30\n  jumpi\n    /* \"#utility.yul\":819:898   */\n  tag_31\n  tag_13\n  jump\t// in\ntag_31:\n    /* \"#utility.yul\":781:900   */\ntag_30:\n    /* \"#utility.yul\":939:940   */\n  0x00\n    /* \"#utility.yul\":964:1028   */\n  tag_32\n    /* \"#utility.yul\":1020:1027   */\n  dup5\n    /* \"#utility.yul\":1011:1017   */\n  dup3\n    /* \"#utility.yul\":1000:1009   */\n  dup6\n    /* \"#utility.yul\":996:1018   */\n  add\n    /* \"#utility.yul\":964:1028   */\n  tag_17\n  jump\t// in\ntag_32:\n    /* \"#utility.yul\":954:1028   */\n  swap2\n  pop\n    /* \"#utility.yul\":910:1038   */\n  pop\n    /* \"#utility.yul\":694:1045   */\n  swap3\n  swap2\n  pop\n  pop\n  jump\t// out\n    /* \"#utility.yul\":1051:1231   */\ntag_18:\n    /* \"#utility.yul\":1099:1176   */\n  0x4e487b7100000000000000000000000000000000000000000000000000000000\n    /* \"#utility.yul\":1096:1097   */\n  0x00\n    /* \"#utility.yul\":1089:1177   */\n  mstore\n    /* \"#utility.yul\":1196:1200   */\n  0x11\n    /* \"#utility.yul\":1193:1194   */\n  0x04\n    /* \"#utility.yul\":1186:1201   */\n  mstore\n    /* \"#utility.yul\":1220:1224   */\n  0x24\n    /* \"#utility.yul\":1217:1218   */\n  0x00\n    /* \"#utility.yul\":1210:1225   */\n  revert\n    /* \"#utility.yul\":1237:1647   */\ntag_7:\n    /* \"#utility.yul\":1277:1284   */\n  0x00\n    /* \"#utility.yul\":1300:1320   */\n  tag_35\n    /* \"#utility.yul\":1318:1319   */\n  dup3\n    /* \"#utility.yul\":1300:1320   */\n  tag_15\n  jump\t// in\ntag_35:\n    /* \"#utility.yul\":1295:1320   */\n  swap2\n  pop\n    /* \"#utility.yul\":1334:1354   */\n  tag_36\n    /* \"#utility.yul\":1352:1353   */\n  dup4\n    /* \"#utility.yul\":1334:1354   */\n  tag_15\n  jump\t// in\ntag_36:\n    /* \"#utility.yul\":1329:1354   */\n  swap3\n  pop\n    /* \"#utility.yul\":1389:1390   */\n  dup3\n    /* \"#utility.yul\":1386:1387   */\n  dup3\n    /* \"#utility.yul\":1382:1391   */\n  mul\n    /* \"#utility.yul\":1411:1441   */\n  tag_37\n    /* \"#utility.yul\":1429:1440   */\n  dup2\n    /* \"#utility.yul\":1411:1441   */\n  tag_15\n  jump\t// in\ntag_37:\n    /* \"#utility.yul\":1400:1441   */\n  swap2\n  pop\n    /* \"#utility.yul\":1590:1591   */\n  dup3\n    /* \"#utility.yul\":1581:1588   */\n  dup3\n    /* \"#utility.yul\":1577:1592   */\n  div\n    /* \"#utility.yul\":1574:1575   */\n  dup5\n    /* \"#utility.yul\":1571:1593   */\n  eq\n    /* \"#utility.yul\":1551:1552   */\n  dup4\n    /* \"#utility.yul\":1544:1553   */\n  iszero\n    /* \"#utility.yul\":1524:1607   */\n  or\n    /* \"#utility.yul\":1501:1640   */\n  tag_38\n  jumpi\n    /* \"#utility.yul\":1620:1638   */\n  tag_39\n  tag_18\n  jump\t// in\ntag_39:\n    /* \"#utility.yul\":1501:1640   */\ntag_38:\n    /* \"#utility.yul\":1285:1647   */\n  pop\n    /* \"#utility.yul\":1237:1647   */\n  swap3\n  swap2\n  pop\n  pop\n  jump\t// out\n    /* \"#utility.yul\":1653:1844   */\ntag_9:\n    /* \"#utility.yul\":1693:1696   */\n  0x00\n    /* \"#utility.yul\":1712:1732   */\n  tag_41\n    /* \"#utility.yul\":1730:1731   */\n  dup3\n    /* \"#utility.yul\":1712:1732   */\n  tag_15\n  jump\t// in\ntag_41:\n    /* \"#utility.yul\":1707:1732   */\n  swap2\n  pop\n    /* \"#utility.yul\":1746:1766   */\n  tag_42\n    /* \"#utility.yul\":1764:1765   */\n  dup4\n    /* \"#utility.yul\":1746:1766   */\n  tag_15\n  jump\t// in\ntag_42:\n    /* \"#utility.yul\":1741:1766   */\n  swap3\n  pop\n    /* \"#utility.yul\":1789:1790   */\n  dup3\n    /* \"#utility.yul\":1786:1787   */\n  dup3\n    /* \"#utility.yul\":1782:1791   */\n  add\n    /* \"#utility.yul\":1775:1791   */\n  swap1\n  pop\n    /* \"#utility.yul\":1810:1813   */\n  dup1\n    /* \"#utility.yul\":1807:1808   */\n  dup3\n    /* \"#utility.yul\":1804:1814   */\n  gt\n    /* \"#utility.yul\":1801:1837   */\n  iszero\n  tag_43\n  jumpi\n    /* \"#utility.yul\":1817:1835   */\n  tag_44\n  tag_18\n  jump\t// in\ntag_44:\n    /* \"#utility.yul\":1801:1837   */\ntag_43:\n    /* \"#utility.yul\":1653:1844   */\n  swap3\n  swap2\n  pop\n  pop\n  jump\t// out\n    /* \"contracts/UnitAndTimeStamp.sol\":58:862  contract UnitAndTimeSamp {... */\ntag_11:\n  dataSize(sub_0)\n  dup1\n  dataOffset(sub_0)\n  0x00\n  codecopy\n  0x00\n  return\nstop\n\nsub_0: assembly {\n        /* \"contracts/UnitAndTimeStamp.sol\":58:862  contract UnitAndTimeSamp {... */\n      mstore(0x40, 0x80)\n      jumpi(tag_1, lt(calldatasize, 0x04))\n      shr(0xe0, calldataload(0x00))\n      dup1\n      0x77c31476\n      eq\n      tag_2\n      jumpi\n      dup1\n      0xd0e30db0\n      eq\n      tag_3\n      jumpi\n      dup1\n      0xd2ebb146\n      eq\n      tag_4\n      jumpi\n      dup1\n      0xf38d00f0\n      eq\n      tag_5\n      jumpi\n    tag_1:\n      0x00\n      dup1\n      revert\n        /* \"contracts/UnitAndTimeStamp.sol\":665:695  uint public runUntillTimestamp */\n    tag_2:\n      callvalue\n      dup1\n      iszero\n      tag_6\n      jumpi\n      0x00\n      dup1\n      revert\n    tag_6:\n      pop\n      tag_7\n      tag_8\n      jump\t// in\n    tag_7:\n      mload(0x40)\n      tag_9\n      swap2\n      swap1\n      tag_10\n      jump\t// in\n    tag_9:\n      mload(0x40)\n      dup1\n      swap2\n      sub\n      swap1\n      return\n        /* \"contracts/UnitAndTimeStamp.sol\":485:594  function deposit() public payable betweenAndToUnit {... */\n    tag_3:\n      tag_11\n      tag_12\n      jump\t// in\n    tag_11:\n      stop\n        /* \"contracts/UnitAndTimeStamp.sol\":432:479  mapping(address => uint) public balnceAddresses */\n    tag_4:\n      callvalue\n      dup1\n      iszero\n      tag_13\n      jumpi\n      0x00\n      dup1\n      revert\n    tag_13:\n      pop\n      tag_14\n      0x04\n      dup1\n      calldatasize\n      sub\n      dup2\n      add\n      swap1\n      tag_15\n      swap2\n      swap1\n      tag_16\n      jump\t// in\n    tag_15:\n      tag_17\n      jump\t// in\n    tag_14:\n      mload(0x40)\n      tag_18\n      swap2\n      swap1\n      tag_10\n      jump\t// in\n    tag_18:\n      mload(0x40)\n      dup1\n      swap2\n      sub\n      swap1\n      return\n        /* \"contracts/UnitAndTimeStamp.sol\":633:659  uint public startTimeStamp */\n    tag_5:\n      callvalue\n      dup1\n      iszero\n      tag_19\n      jumpi\n      0x00\n      dup1\n      revert\n    tag_19:\n      pop\n      tag_20\n      tag_21\n      jump\t// in\n    tag_20:\n      mload(0x40)\n      tag_22\n      swap2\n      swap1\n      tag_10\n      jump\t// in\n    tag_22:\n      mload(0x40)\n      dup1\n      swap2\n      sub\n      swap1\n      return\n        /* \"contracts/UnitAndTimeStamp.sol\":665:695  uint public runUntillTimestamp */\n    tag_8:\n      sload(0x02)\n      dup2\n      jump\t// out\n        /* \"contracts/UnitAndTimeStamp.sol\":485:594  function deposit() public payable betweenAndToUnit {... */\n    tag_12:\n        /* \"contracts/UnitAndTimeStamp.sol\":319:326  1 ether */\n      0x0de0b6b3a7640000\n        /* \"contracts/UnitAndTimeStamp.sol\":306:315  msg.value */\n      callvalue\n        /* \"contracts/UnitAndTimeStamp.sol\":306:326  msg.value >= 1 ether */\n      lt\n      iszero\n        /* \"contracts/UnitAndTimeStamp.sol\":306:347  msg.value >= 1 ether && msg.value <= 2e19 */\n      dup1\n      iszero\n      tag_24\n      jumpi\n      pop\n        /* \"contracts/UnitAndTimeStamp.sol\":343:347  2e19 */\n      0x01158e460913d00000\n        /* \"contracts/UnitAndTimeStamp.sol\":330:339  msg.value */\n      callvalue\n        /* \"contracts/UnitAndTimeStamp.sol\":330:347  msg.value <= 2e19 */\n      gt\n      iszero\n        /* \"contracts/UnitAndTimeStamp.sol\":306:347  msg.value >= 1 ether && msg.value <= 2e19 */\n    tag_24:\n        /* \"contracts/UnitAndTimeStamp.sol\":298:407  require(msg.value >= 1 ether && msg.value <= 2e19, \"Ether must be the value and ether should be less than 3\") */\n      tag_25\n      jumpi\n      mload(0x40)\n      0x08c379a000000000000000000000000000000000000000000000000000000000\n      dup2\n      mstore\n      0x04\n      add\n      tag_26\n      swap1\n      tag_27\n      jump\t// in\n    tag_26:\n      mload(0x40)\n      dup1\n      swap2\n      sub\n      swap1\n      revert\n    tag_25:\n        /* \"contracts/UnitAndTimeStamp.sol\":578:587  msg.value */\n      callvalue\n        /* \"contracts/UnitAndTimeStamp.sol\":546:561  balnceAddresses */\n      0x00\n        /* \"contracts/UnitAndTimeStamp.sol\":546:573  balnceAddresses[msg.sender] */\n      dup1\n        /* \"contracts/UnitAndTimeStamp.sol\":562:572  msg.sender */\n      caller\n        /* \"contracts/UnitAndTimeStamp.sol\":546:573  balnceAddresses[msg.sender] */\n      0xffffffffffffffffffffffffffffffffffffffff\n      and\n      0xffffffffffffffffffffffffffffffffffffffff\n      and\n      dup2\n      mstore\n      0x20\n      add\n      swap1\n      dup2\n      mstore\n      0x20\n      add\n      0x00\n      keccak256\n      0x00\n        /* \"contracts/UnitAndTimeStamp.sol\":546:587  balnceAddresses[msg.sender]  += msg.value */\n      dup3\n      dup3\n      sload\n      tag_29\n      swap2\n      swap1\n      tag_30\n      jump\t// in\n    tag_29:\n      swap3\n      pop\n      pop\n      dup2\n      swap1\n      sstore\n      pop\n        /* \"contracts/UnitAndTimeStamp.sol\":485:594  function deposit() public payable betweenAndToUnit {... */\n      jump\t// out\n        /* \"contracts/UnitAndTimeStamp.sol\":432:479  mapping(address => uint) public balnceAddresses */\n    tag_17:\n      mstore(0x20, 0x00)\n      dup1\n      0x00\n      mstore\n      keccak256(0x00, 0x40)\n      0x00\n      swap2\n      pop\n      swap1\n      pop\n      sload\n      dup2\n      jump\t// out\n        /* \"contracts/UnitAndTimeStamp.sol\":633:659  uint public startTimeStamp */\n    tag_21:\n      sload(0x01)\n      dup2\n      jump\t// out\n        /* \"#utility.yul\":7:84   */\n    tag_31:\n        /* \"#utility.yul\":44:51   */\n      0x00\n        /* \"#utility.yul\":73:78   */\n      dup2\n        /* \"#utility.yul\":62:78   */\n      swap1\n      pop\n        /* \"#utility.yul\":7:84   */\n      swap2\n      swap1\n      pop\n      jump\t// out\n        /* \"#utility.yul\":90:208   */\n    tag_32:\n        /* \"#utility.yul\":177:201   */\n      tag_47\n        /* \"#utility.yul\":195:200   */\n      dup2\n        /* \"#utility.yul\":177:201   */\n      tag_31\n      jump\t// in\n    tag_47:\n        /* \"#utility.yul\":172:175   */\n      dup3\n        /* \"#utility.yul\":165:202   */\n      mstore\n        /* \"#utility.yul\":90:208   */\n      pop\n      pop\n      jump\t// out\n        /* \"#utility.yul\":214:436   */\n    tag_10:\n        /* \"#utility.yul\":307:311   */\n      0x00\n        /* \"#utility.yul\":345:347   */\n      0x20\n        /* \"#utility.yul\":334:343   */\n      dup3\n        /* \"#utility.yul\":330:348   */\n      add\n        /* \"#utility.yul\":322:348   */\n      swap1\n      pop\n        /* \"#utility.yul\":358:429   */\n      tag_49\n        /* \"#utility.yul\":426:427   */\n      0x00\n        /* \"#utility.yul\":415:424   */\n      dup4\n        /* \"#utility.yul\":411:428   */\n      add\n        /* \"#utility.yul\":402:408   */\n      dup5\n        /* \"#utility.yul\":358:429   */\n      tag_32\n      jump\t// in\n    tag_49:\n        /* \"#utility.yul\":214:436   */\n      swap3\n      swap2\n      pop\n      pop\n      jump\t// out\n        /* \"#utility.yul\":523:640   */\n    tag_34:\n        /* \"#utility.yul\":632:633   */\n      0x00\n        /* \"#utility.yul\":629:630   */\n      dup1\n        /* \"#utility.yul\":622:634   */\n      revert\n        /* \"#utility.yul\":769:895   */\n    tag_36:\n        /* \"#utility.yul\":806:813   */\n      0x00\n        /* \"#utility.yul\":846:888   */\n      0xffffffffffffffffffffffffffffffffffffffff\n        /* \"#utility.yul\":839:844   */\n      dup3\n        /* \"#utility.yul\":835:889   */\n      and\n        /* \"#utility.yul\":824:889   */\n      swap1\n      pop\n        /* \"#utility.yul\":769:895   */\n      swap2\n      swap1\n      pop\n      jump\t// out\n        /* \"#utility.yul\":901:997   */\n    tag_37:\n        /* \"#utility.yul\":938:945   */\n      0x00\n        /* \"#utility.yul\":967:991   */\n      tag_55\n        /* \"#utility.yul\":985:990   */\n      dup3\n        /* \"#utility.yul\":967:991   */\n      tag_36\n      jump\t// in\n    tag_55:\n        /* \"#utility.yul\":956:991   */\n      swap1\n      pop\n        /* \"#utility.yul\":901:997   */\n      swap2\n      swap1\n      pop\n      jump\t// out\n        /* \"#utility.yul\":1003:1125   */\n    tag_38:\n        /* \"#utility.yul\":1076:1100   */\n      tag_57\n        /* \"#utility.yul\":1094:1099   */\n      dup2\n        /* \"#utility.yul\":1076:1100   */\n      tag_37\n      jump\t// in\n    tag_57:\n        /* \"#utility.yul\":1069:1074   */\n      dup2\n        /* \"#utility.yul\":1066:1101   */\n      eq\n        /* \"#utility.yul\":1056:1119   */\n      tag_58\n      jumpi\n        /* \"#utility.yul\":1115:1116   */\n      0x00\n        /* \"#utility.yul\":1112:1113   */\n      dup1\n        /* \"#utility.yul\":1105:1117   */\n      revert\n        /* \"#utility.yul\":1056:1119   */\n    tag_58:\n        /* \"#utility.yul\":1003:1125   */\n      pop\n      jump\t// out\n        /* \"#utility.yul\":1131:1270   */\n    tag_39:\n        /* \"#utility.yul\":1177:1182   */\n      0x00\n        /* \"#utility.yul\":1215:1221   */\n      dup2\n        /* \"#utility.yul\":1202:1222   */\n      calldataload\n        /* \"#utility.yul\":1193:1222   */\n      swap1\n      pop\n        /* \"#utility.yul\":1231:1264   */\n      tag_60\n        /* \"#utility.yul\":1258:1263   */\n      dup2\n        /* \"#utility.yul\":1231:1264   */\n      tag_38\n      jump\t// in\n    tag_60:\n        /* \"#utility.yul\":1131:1270   */\n      swap3\n      swap2\n      pop\n      pop\n      jump\t// out\n        /* \"#utility.yul\":1276:1605   */\n    tag_16:\n        /* \"#utility.yul\":1335:1341   */\n      0x00\n        /* \"#utility.yul\":1384:1386   */\n      0x20\n        /* \"#utility.yul\":1372:1381   */\n      dup3\n        /* \"#utility.yul\":1363:1370   */\n      dup5\n        /* \"#utility.yul\":1359:1382   */\n      sub\n        /* \"#utility.yul\":1355:1387   */\n      slt\n        /* \"#utility.yul\":1352:1471   */\n      iszero\n      tag_62\n      jumpi\n        /* \"#utility.yul\":1390:1469   */\n      tag_63\n      tag_34\n      jump\t// in\n    tag_63:\n        /* \"#utility.yul\":1352:1471   */\n    tag_62:\n        /* \"#utility.yul\":1510:1511   */\n      0x00\n        /* \"#utility.yul\":1535:1588   */\n      tag_64\n        /* \"#utility.yul\":1580:1587   */\n      dup5\n        /* \"#utility.yul\":1571:1577   */\n      dup3\n        /* \"#utility.yul\":1560:1569   */\n      dup6\n        /* \"#utility.yul\":1556:1578   */\n      add\n        /* \"#utility.yul\":1535:1588   */\n      tag_39\n      jump\t// in\n    tag_64:\n        /* \"#utility.yul\":1525:1588   */\n      swap2\n      pop\n        /* \"#utility.yul\":1481:1598   */\n      pop\n        /* \"#utility.yul\":1276:1605   */\n      swap3\n      swap2\n      pop\n      pop\n      jump\t// out\n        /* \"#utility.yul\":1611:1780   */\n    tag_40:\n        /* \"#utility.yul\":1695:1706   */\n      0x00\n        /* \"#utility.yul\":1729:1735   */\n      dup3\n        /* \"#utility.yul\":1724:1727   */\n      dup3\n        /* \"#utility.yul\":1717:1736   */\n      mstore\n        /* \"#utility.yul\":1769:1773   */\n      0x20\n        /* \"#utility.yul\":1764:1767   */\n      dup3\n        /* \"#utility.yul\":1760:1774   */\n      add\n        /* \"#utility.yul\":1745:1774   */\n      swap1\n      pop\n        /* \"#utility.yul\":1611:1780   */\n      swap3\n      swap2\n      pop\n      pop\n      jump\t// out\n        /* \"#utility.yul\":1786:2028   */\n    tag_41:\n        /* \"#utility.yul\":1926:1960   */\n      0x4574686572206d757374206265207468652076616c756520616e642065746865\n        /* \"#utility.yul\":1922:1923   */\n      0x00\n        /* \"#utility.yul\":1914:1920   */\n      dup3\n        /* \"#utility.yul\":1910:1924   */\n      add\n        /* \"#utility.yul\":1903:1961   */\n      mstore\n        /* \"#utility.yul\":1995:2020   */\n      0x722073686f756c64206265206c657373207468616e2033000000000000000000\n        /* \"#utility.yul\":1990:1992   */\n      0x20\n        /* \"#utility.yul\":1982:1988   */\n      dup3\n        /* \"#utility.yul\":1978:1993   */\n      add\n        /* \"#utility.yul\":1971:2021   */\n      mstore\n        /* \"#utility.yul\":1786:2028   */\n      pop\n      jump\t// out\n        /* \"#utility.yul\":2034:2400   */\n    tag_42:\n        /* \"#utility.yul\":2176:2179   */\n      0x00\n        /* \"#utility.yul\":2197:2264   */\n      tag_68\n        /* \"#utility.yul\":2261:2263   */\n      0x37\n        /* \"#utility.yul\":2256:2259   */\n      dup4\n        /* \"#utility.yul\":2197:2264   */\n      tag_40\n      jump\t// in\n    tag_68:\n        /* \"#utility.yul\":2190:2264   */\n      swap2\n      pop\n        /* \"#utility.yul\":2273:2366   */\n      tag_69\n        /* \"#utility.yul\":2362:2365   */\n      dup3\n        /* \"#utility.yul\":2273:2366   */\n      tag_41\n      jump\t// in\n    tag_69:\n        /* \"#utility.yul\":2391:2393   */\n      0x40\n        /* \"#utility.yul\":2386:2389   */\n      dup3\n        /* \"#utility.yul\":2382:2394   */\n      add\n        /* \"#utility.yul\":2375:2394   */\n      swap1\n      pop\n        /* \"#utility.yul\":2034:2400   */\n      swap2\n      swap1\n      pop\n      jump\t// out\n        /* \"#utility.yul\":2406:2825   */\n    tag_27:\n        /* \"#utility.yul\":2572:2576   */\n      0x00\n        /* \"#utility.yul\":2610:2612   */\n      0x20\n        /* \"#utility.yul\":2599:2608   */\n      dup3\n        /* \"#utility.yul\":2595:2613   */\n      add\n        /* \"#utility.yul\":2587:2613   */\n      swap1\n      pop\n        /* \"#utility.yul\":2659:2668   */\n      dup2\n        /* \"#utility.yul\":2653:2657   */\n      dup2\n        /* \"#utility.yul\":2649:2669   */\n      sub\n        /* \"#utility.yul\":2645:2646   */\n      0x00\n        /* \"#utility.yul\":2634:2643   */\n      dup4\n        /* \"#utility.yul\":2630:2647   */\n      add\n        /* \"#utility.yul\":2623:2670   */\n      mstore\n        /* \"#utility.yul\":2687:2818   */\n      tag_71\n        /* \"#utility.yul\":2813:2817   */\n      dup2\n        /* \"#utility.yul\":2687:2818   */\n      tag_42\n      jump\t// in\n    tag_71:\n        /* \"#utility.yul\":2679:2818   */\n      swap1\n      pop\n        /* \"#utility.yul\":2406:2825   */\n      swap2\n      swap1\n      pop\n      jump\t// out\n        /* \"#utility.yul\":2831:3011   */\n    tag_43:\n        /* \"#utility.yul\":2879:2956   */\n      0x4e487b7100000000000000000000000000000000000000000000000000000000\n        /* \"#utility.yul\":2876:2877   */\n      0x00\n        /* \"#utility.yul\":2869:2957   */\n      mstore\n        /* \"#utility.yul\":2976:2980   */\n      0x11\n        /* \"#utility.yul\":2973:2974   */\n      0x04\n        /* \"#utility.yul\":2966:2981   */\n      mstore\n        /* \"#utility.yul\":3000:3004   */\n      0x24\n        /* \"#utility.yul\":2997:2998   */\n      0x00\n        /* \"#utility.yul\":2990:3005   */\n      revert\n        /* \"#utility.yul\":3017:3208   */\n    tag_30:\n        /* \"#utility.yul\":3057:3060   */\n      0x00\n        /* \"#utility.yul\":3076:3096   */\n      tag_74\n        /* \"#utility.yul\":3094:3095   */\n      dup3\n        /* \"#utility.yul\":3076:3096   */\n      tag_31\n      jump\t// in\n    tag_74:\n        /* \"#utility.yul\":3071:3096   */\n      swap2\n      pop\n        /* \"#utility.yul\":3110:3130   */\n      tag_75\n        /* \"#utility.yul\":3128:3129   */\n      dup4\n        /* \"#utility.yul\":3110:3130   */\n      tag_31\n      jump\t// in\n    tag_75:\n        /* \"#utility.yul\":3105:3130   */\n      swap3\n      pop\n        /* \"#utility.yul\":3153:3154   */\n      dup3\n        /* \"#utility.yul\":3150:3151   */\n      dup3\n        /* \"#utility.yul\":3146:3155   */\n      add\n        /* \"#utility.yul\":3139:3155   */\n      swap1\n      pop\n        /* \"#utility.yul\":3174:3177   */\n      dup1\n        /* \"#utility.yul\":3171:3172   */\n      dup3\n        /* \"#utility.yul\":3168:3178   */\n      gt\n        /* \"#utility.yul\":3165:3201   */\n      iszero\n      tag_76\n      jumpi\n        /* \"#utility.yul\":3181:3199   */\n      tag_77\n      tag_43\n      jump\t// in\n    tag_77:\n        /* \"#utility.yul\":3165:3201   */\n    tag_76:\n        /* \"#utility.yul\":3017:3208   */\n      swap3\n      swap2\n      pop\n      pop\n      jump\t// out\n\n    auxdata: 0xa2646970667358221220f3fad01403eb063615690bfcfc2f243cfdaa623a01ba8bf4af8fa9532068282e64736f6c63430008130033\n}\n",
				"bytecode": {
					"linkReferences": {},
					"object": "608060405234801561001057600080fd5b50604051610547380380610547833981810160405281019061003291906100aa565b62015180816100419190610106565b4261004c9190610148565b60018190555062093a806001546100639190610148565b6002819055505061017c565b600080fd5b6000819050919050565b61008781610074565b811461009257600080fd5b50565b6000815190506100a48161007e565b92915050565b6000602082840312156100c0576100bf61006f565b5b60006100ce84828501610095565b91505092915050565b7f4e487b7100000000000000000000000000000000000000000000000000000000600052601160045260246000fd5b600061011182610074565b915061011c83610074565b925082820261012a81610074565b91508282048414831517610141576101406100d7565b5b5092915050565b600061015382610074565b915061015e83610074565b9250828201905080821115610176576101756100d7565b5b92915050565b6103bc8061018b6000396000f3fe60806040526004361061003f5760003560e01c806377c3147614610044578063d0e30db01461006f578063d2ebb14614610079578063f38d00f0146100b6575b600080fd5b34801561005057600080fd5b506100596100e1565b60405161006691906101d5565b60405180910390f35b6100776100e7565b005b34801561008557600080fd5b506100a0600480360381019061009b9190610253565b61019e565b6040516100ad91906101d5565b60405180910390f35b3480156100c257600080fd5b506100cb6101b6565b6040516100d891906101d5565b60405180910390f35b60025481565b670de0b6b3a7640000341015801561010857506801158e460913d000003411155b610147576040517f08c379a000000000000000000000000000000000000000000000000000000000815260040161013e90610303565b60405180910390fd5b346000803373ffffffffffffffffffffffffffffffffffffffff1673ffffffffffffffffffffffffffffffffffffffff16815260200190815260200160002060008282546101959190610352565b92505081905550565b60006020528060005260406000206000915090505481565b60015481565b6000819050919050565b6101cf816101bc565b82525050565b60006020820190506101ea60008301846101c6565b92915050565b600080fd5b600073ffffffffffffffffffffffffffffffffffffffff82169050919050565b6000610220826101f5565b9050919050565b61023081610215565b811461023b57600080fd5b50565b60008135905061024d81610227565b92915050565b600060208284031215610269576102686101f0565b5b60006102778482850161023e565b91505092915050565b600082825260208201905092915050565b7f4574686572206d757374206265207468652076616c756520616e64206574686560008201527f722073686f756c64206265206c657373207468616e2033000000000000000000602082015250565b60006102ed603783610280565b91506102f882610291565b604082019050919050565b6000602082019050818103600083015261031c816102e0565b9050919050565b7f4e487b7100000000000000000000000000000000000000000000000000000000600052601160045260246000fd5b600061035d826101bc565b9150610368836101bc565b92508282019050808211156103805761037f610323565b5b9291505056fea2646970667358221220f3fad01403eb063615690bfcfc2f243cfdaa623a01ba8bf4af8fa9532068282e64736f6c63430008130033",
					"opcodes": "PUSH1 0x80 PUSH1 0x40 MSTORE CALLVALUE DUP1 ISZERO PUSH2 0x10 JUMPI PUSH1 0x0 DUP1 REVERT JUMPDEST POP PUSH1 0x40 MLOAD PUSH2 0x547 CODESIZE SUB DUP1 PUSH2 0x547 DUP4 CODECOPY DUP2 DUP2 ADD PUSH1 0x40 MSTORE DUP2 ADD SWAP1 PUSH2 0x32 SWAP2 SWAP1 PUSH2 0xAA JUMP JUMPDEST PUSH3 0x15180 DUP2 PUSH2 0x41 SWAP2 SWAP1 PUSH2 0x106 JUMP JUMPDEST TIMESTAMP PUSH2 0x4C SWAP2 SWAP1 PUSH2 0x148 JUMP JUMPDEST PUSH1 0x1 DUP2 SWAP1 SSTORE POP PUSH3 0x93A80 PUSH1 0x1 SLOAD PUSH2 0x63 SWAP2 SWAP1 PUSH2 0x148 JUMP JUMPDEST PUSH1 0x2 DUP2 SWAP1 SSTORE POP POP PUSH2 0x17C JUMP JUMPDEST PUSH1 0x0 DUP1 REVERT JUMPDEST PUSH1 0x0 DUP2 SWAP1 POP SWAP2 SWAP1 POP JUMP JUMPDEST PUSH2 0x87 DUP2 PUSH2 0x74 JUMP JUMPDEST DUP2 EQ PUSH2 0x92 JUMPI PUSH1 0x0 DUP1 REVERT JUMPDEST POP JUMP JUMPDEST PUSH1 0x0 DUP2 MLOAD SWAP1 POP PUSH2 0xA4 DUP2 PUSH2 0x7E JUMP JUMPDEST SWAP3 SWAP2 POP POP JUMP JUMPDEST PUSH1 0x0 PUSH1 0x20 DUP3 DUP5 SUB SLT ISZERO PUSH2 0xC0 JUMPI PUSH2 0xBF PUSH2 0x6F JUMP JUMPDEST JUMPDEST PUSH1 0x0 PUSH2 0xCE DUP5 DUP3 DUP6 ADD PUSH2 0x95 JUMP JUMPDEST SWAP2 POP POP SWAP3 SWAP2 POP POP JUMP JUMPDEST PUSH32 0x4E487B7100000000000000000000000000000000000000000000000000000000 PUSH1 0x0 MSTORE PUSH1 0x11 PUSH1 0x4 MSTORE PUSH1 0x24 PUSH1 0x0 REVERT JUMPDEST PUSH1 0x0 PUSH2 0x111 DUP3 PUSH2 0x74 JUMP JUMPDEST SWAP2 POP PUSH2 0x11C DUP4 PUSH2 0x74 JUMP JUMPDEST SWAP3 POP DUP3 DUP3 MUL PUSH2 0x12A DUP2 PUSH2 0x74 JUMP JUMPDEST SWAP2 POP DUP3 DUP3 DIV DUP5 EQ DUP4 ISZERO OR PUSH2 0x141 JUMPI PUSH2 0x140 PUSH2 0xD7 JUMP JUMPDEST JUMPDEST POP SWAP3 SWAP2 POP POP JUMP JUMPDEST PUSH1 0x0 PUSH2 0x153 DUP3 PUSH2 0x74 JUMP JUMPDEST SWAP2 POP PUSH2 0x15E DUP4 PUSH2 0x74 JUMP JUMPDEST SWAP3 POP DUP3 DUP3 ADD SWAP1 POP DUP1 DUP3 GT ISZERO PUSH2 0x176 JUMPI PUSH2 0x175 PUSH2 0xD7 JUMP JUMPDEST JUMPDEST SWAP3 SWAP2 POP POP JUMP JUMPDEST PUSH2 0x3BC DUP1 PUSH2 0x18B PUSH1 0x0 CODECOPY PUSH1 0x0 RETURN INVALID PUSH1 0x80 PUSH1 0x40 MSTORE PUSH1 0x4 CALLDATASIZE LT PUSH2 0x3F JUMPI PUSH1 0x0 CALLDATALOAD PUSH1 0xE0 SHR DUP1 PUSH4 0x77C31476 EQ PUSH2 0x44 JUMPI DUP1 PUSH4 0xD0E30DB0 EQ PUSH2 0x6F JUMPI DUP1 PUSH4 0xD2EBB146 EQ PUSH2 0x79 JUMPI DUP1 PUSH4 0xF38D00F0 EQ PUSH2 0xB6 JUMPI JUMPDEST PUSH1 0x0 DUP1 REVERT JUMPDEST CALLVALUE DUP1 ISZERO PUSH2 0x50 JUMPI PUSH1 0x0 DUP1 REVERT JUMPDEST POP PUSH2 0x59 PUSH2 0xE1 JUMP JUMPDEST PUSH1 0x40 MLOAD PUSH2 0x66 SWAP2 SWAP1 PUSH2 0x1D5 JUMP JUMPDEST PUSH1 0x40 MLOAD DUP1 SWAP2 SUB SWAP1 RETURN JUMPDEST PUSH2 0x77 PUSH2 0xE7 JUMP JUMPDEST STOP JUMPDEST CALLVALUE DUP1 ISZERO PUSH2 0x85 JUMPI PUSH1 0x0 DUP1 REVERT JUMPDEST POP PUSH2 0xA0 PUSH1 0x4 DUP1 CALLDATASIZE SUB DUP2 ADD SWAP1 PUSH2 0x9B SWAP2 SWAP1 PUSH2 0x253 JUMP JUMPDEST PUSH2 0x19E JUMP JUMPDEST PUSH1 0x40 MLOAD PUSH2 0xAD SWAP2 SWAP1 PUSH2 0x1D5 JUMP JUMPDEST PUSH1 0x40 MLOAD DUP1 SWAP2 SUB SWAP1 RETURN JUMPDEST CALLVALUE DUP1 ISZERO PUSH2 0xC2 JUMPI PUSH1 0x0 DUP1 REVERT JUMPDEST POP PUSH2 0xCB PUSH2 0x1B6 JUMP JUMPDEST PUSH1 0x40 MLOAD PUSH2 0xD8 SWAP2 SWAP1 PUSH2 0x1D5 JUMP JUMPDEST PUSH1 0x40 MLOAD DUP1 SWAP2 SUB SWAP1 RETURN JUMPDEST PUSH1 0x2 SLOAD DUP2 JUMP JUMPDEST PUSH8 0xDE0B6B3A7640000 CALLVALUE LT ISZERO DUP1 ISZERO PUSH2 0x108 JUMPI POP PUSH9 0x1158E460913D00000 CALLVALUE GT ISZERO JUMPDEST PUSH2 0x147 JUMPI PUSH1 0x40 MLOAD PUSH32 0x8C379A000000000000000000000000000000000000000000000000000000000 DUP2 MSTORE PUSH1 0x4 ADD PUSH2 0x13E SWAP1 PUSH2 0x303 JUMP JUMPDEST PUSH1 0x40 MLOAD DUP1 SWAP2 SUB SWAP1 REVERT JUMPDEST CALLVALUE PUSH1 0x0 DUP1 CALLER PUSH20 0xFFFFFFFFFFFFFFFFFFFFFFFFFFFFFFFFFFFFFFFF AND PUSH20 0xFFFFFFFFFFFFFFFFFFFFFFFFFFFFFFFFFFFFFFFF AND DUP2 MSTORE PUSH1 0x20 ADD SWAP1 DUP2 MSTORE PUSH1 0x20 ADD PUSH1 0x0 KECCAK256 PUSH1 0x0 DUP3 DUP3 SLOAD PUSH2 0x195 SWAP2 SWAP1 PUSH2 0x352 JUMP JUMPDEST SWAP3 POP POP DUP2 SWAP1 SSTORE POP JUMP JUMPDEST PUSH1 0x0 PUSH1 0x20 MSTORE DUP1 PUSH1 0x0 MSTORE PUSH1 0x40 PUSH1 0x0 KECCAK256 PUSH1 0x0 SWAP2 POP SWAP1 POP SLOAD DUP2 JUMP JUMPDEST PUSH1 0x1 SLOAD DUP2 JUMP JUMPDEST PUSH1 0x0 DUP2 SWAP1 POP SWAP2 SWAP1 POP JUMP JUMPDEST PUSH2 0x1CF DUP2 PUSH2 0x1BC JUMP JUMPDEST DUP3 MSTORE POP POP JUMP JUMPDEST PUSH1 0x0 PUSH1 0x20 DUP3 ADD SWAP1 POP PUSH2 0x1EA PUSH1 0x0 DUP4 ADD DUP5 PUSH2 0x1C6 JUMP JUMPDEST SWAP3 SWAP2 POP POP JUMP JUMPDEST PUSH1 0x0 DUP1 REVERT JUMPDEST PUSH1 0x0 PUSH20 0xFFFFFFFFFFFFFFFFFFFFFFFFFFFFFFFFFFFFFFFF DUP3 AND SWAP1 POP SWAP2 SWAP1 POP JUMP JUMPDEST PUSH1 0x0 PUSH2 0x220 DUP3 PUSH2 0x1F5 JUMP JUMPDEST SWAP1 POP SWAP2 SWAP1 POP JUMP JUMPDEST PUSH2 0x230 DUP2 PUSH2 0x215 JUMP JUMPDEST DUP2 EQ PUSH2 0x23B JUMPI PUSH1 0x0 DUP1 REVERT JUMPDEST POP JUMP JUMPDEST PUSH1 0x0 DUP2 CALLDATALOAD SWAP1 POP PUSH2 0x24D DUP2 PUSH2 0x227 JUMP JUMPDEST SWAP3 SWAP2 POP POP JUMP JUMPDEST PUSH1 0x0 PUSH1 0x20 DUP3 DUP5 SUB SLT ISZERO PUSH2 0x269 JUMPI PUSH2 0x268 PUSH2 0x1F0 JUMP JUMPDEST JUMPDEST PUSH1 0x0 PUSH2 0x277 DUP5 DUP3 DUP6 ADD PUSH2 0x23E JUMP JUMPDEST SWAP2 POP POP SWAP3 SWAP2 POP POP JUMP JUMPDEST PUSH1 0x0 DUP3 DUP3 MSTORE PUSH1 0x20 DUP3 ADD SWAP1 POP SWAP3 SWAP2 POP POP JUMP JUMPDEST PUSH32 0x4574686572206D757374206265207468652076616C756520616E642065746865 PUSH1 0x0 DUP3 ADD MSTORE PUSH32 0x722073686F756C64206265206C657373207468616E2033000000000000000000 PUSH1 0x20 DUP3 ADD MSTORE POP JUMP JUMPDEST PUSH1 0x0 PUSH2 0x2ED PUSH1 0x37 DUP4 PUSH2 0x280 JUMP JUMPDEST SWAP2 POP PUSH2 0x2F8 DUP3 PUSH2 0x291 JUMP JUMPDEST PUSH1 0x40 DUP3 ADD SWAP1 POP SWAP2 SWAP1 POP JUMP JUMPDEST PUSH1 0x0 PUSH1 0x20 DUP3 ADD SWAP1 POP DUP2 DUP2 SUB PUSH1 0x0 DUP4 ADD MSTORE PUSH2 0x31C DUP2 PUSH2 0x2E0 JUMP JUMPDEST SWAP1 POP SWAP2 SWAP1 POP JUMP JUMPDEST PUSH32 0x4E487B7100000000000000000000000000000000000000000000000000000000 PUSH1 0x0 MSTORE PUSH1 0x11 PUSH1 0x4 MSTORE PUSH1 0x24 PUSH1 0x0 REVERT JUMPDEST PUSH1 0x0 PUSH2 0x35D DUP3 PUSH2 0x1BC JUMP JUMPDEST SWAP2 POP PUSH2 0x368 DUP4 PUSH2 0x1BC JUMP JUMPDEST SWAP3 POP DUP3 DUP3 ADD SWAP1 POP DUP1 DUP3 GT ISZERO PUSH2 0x380 JUMPI PUSH2 0x37F PUSH2 0x323 JUMP JUMPDEST JUMPDEST SWAP3 SWAP2 POP POP JUMP INVALID LOG2 PUSH5 0x6970667358 0x22 SLT KECCAK256 RETURN STATICCALL 0xD0 EQ SUB 0xEB MOD CALLDATASIZE ISZERO PUSH10 0xBFCFC2F243CFDAA623A ADD 0xBA DUP12 DELEGATECALL 0xAF DUP16 0xA9 MSTORE8 KECCAK256 PUSH9 0x282E64736F6C634300 ADDMOD SGT STOP CALLER "
				},
				"gasEstimates": {
					"creation": {
						"codeDepositCost": "191200",
						"executionCost": "infinite",
						"totalCost": "infinite"
					},
					"external": {
						"balnceAddresses(address)": "2836",
						"deposit()": "infinite",
						"runUntillTimestamp()": "2407",
						"startTimeStamp()": "2473"
					}
				},
				"methodIdentifiers": {
					"balnceAddresses(address)": "d2ebb146",
					"deposit()": "d0e30db0",
					"runUntillTimestamp()": "77c31476",
					"startTimeStamp()": "f38d00f0"
				}
			},
			"storageLayout": {
				"storage": [
					{
						"astId": 22,
						"contract": "contracts/UnitAndTimeStamp.sol:UnitAndTimeSamp",
						"label": "balnceAddresses",
						"offset": 0,
						"slot": "0",
						"type": "t_mapping(t_address,t_uint256)"
					},
					{
						"astId": 38,
						"contract": "contracts/UnitAndTimeStamp.sol:UnitAndTimeSamp",
						"label": "startTimeStamp",
						"offset": 0,
						"slot": "1",
						"type": "t_uint256"
					},
					{
						"astId": 40,
						"contract": "contracts/UnitAndTimeStamp.sol:UnitAndTimeSamp",
						"label": "runUntillTimestamp",
						"offset": 0,
						"slot": "2",
						"type": "t_uint256"
					}
				],
				"types": {
					"t_address": {
						"encoding": "inplace",
						"label": "address",
						"numberOfBytes": "20"
					},
					"t_mapping(t_address,t_uint256)": {
						"encoding": "mapping",
						"key": "t_address",
						"label": "mapping(address => uint256)",
						"numberOfBytes": "32",
						"value": "t_uint256"
					},
					"t_uint256": {
						"encoding": "inplace",
						"label": "uint256",
						"numberOfBytes": "32"
					}
				}
			},
			"userdoc": {
				"kind": "user",
				"methods": {},
				"version": 1
			}
		}
	}
}